:020000040800F2
:1000000088300020450100086B0300080503000844
:100010006903000853020008250C000800000000D6
:10002000000000000000000000000000C107000800
:1000300055020008000000006D0300087908000860
:100040005F0100085F0100085F0100085F01000810
:100050005F0100085F0100085F0100085F01000800
:100060005F0100085F0100085F0100085F010008F0
:100070005F0100085F0100085F0100085F010008E0
:100080005F0100085F0100085F0100085F010008D0
:100090005F0100085F0100085F0100085F010008C0
:1000A0005F0100085F0100085F0100085F010008B0
:1000B0005F0100085F0100085F0100085F010008A0
:1000C0005F0100085F0100085F0100085F01000890
:1000D0005F0100085F0100085F0100085F01000880
:1000E0005F0100085F0100085F0100085F01000870
:1000F0005F0100085F0100085F0100085F01000860
:100100005F0100085F0100085F0100085F0100084F
:100110005F0100085F0100085F0100085F0100083F
:100120005F0100085F0100085F0100085F0100082F
:10013000DFF80CD000F05CF800480047FD24000810
:10014000883000200648804706480047FEE7FEE763
:10015000FEE7FEE7FEE7FEE7FEE7FEE7FEE7FEE777
:100160007D08000831010008D2B201E000F8012B3F
:10017000491EFBD270470022F6E710B513460A4627
:1001800004461946FFF7F0FF204610BD2DE9F05F49
:100190000546002092469B468846064681464024F6
:1001A0001BE0284641464746224600F042F85346A7
:1001B0005A46C01A914110D311461846224600F003
:1001C00029F82D1A67EB01084F462246012000212D
:1001D00000F020F817EB00094E41201EA4F10104A5
:1001E000DFDC484631462A464346BDE8F09F000022
:1001F000064C074D06E0E06840F0010394E8070074
:1002000098471034AC42F6D3FFF796FF242E00082F
:10021000442E0008202A04DB203A00FA02F10020D4
:1002200070479140C2F1200320FA03F31943904034
:100230007047202A04DB203A21FA02F0002170479F
:1002400021FA02F3D040C2F120029140084319463E
:100250007047FEE770472DE9F0410022CC7804F0AA
:100260000F03E40601D58C7823430C784FF00F0779
:1002700014F0FF0F4FF0010C1CD005680CFA02F4CB
:100280000E882640A64211D1960007FA06F825EA04
:10029000080503FA06F848EA0505CE78282E02D0AC
:1002A000482E02D002E0446100E00461521C082A9A
:1002B000E4D305600A88FF2A1ED94568002202F1AE
:1002C00008060CFA06F40E882640A64210D19600C5
:1002D00007FA06F825EA080503FA06F848EA0505CC
:1002E000CE78282E00D14461CE78482E00D104610A
:1002F000521C082AE3D34560BDE8F0814161704794
:1003000001617047FEE7000038B50121082000F0C8
:100310002FF80120ADF8000010208DF80300032015
:100320008DF802000F4C69462046FFF794FF02212A
:10033000ADF8001069462046FFF78DFF2021ADF88B
:10034000001069462046FFF786FF01212046FFF78F
:10035000D7FF02212046FFF7D3FF20212046FFF7D9
:10036000CFFF38BD000C0140FEE77047704700002A
:10037000054A002903D09169014391617047916951
:1003800081439161704700000010024010B5264A79
:10039000516801F00C01254B002927D0042927D0F2
:1003A000082927D00360516801F0F0010909204BAA
:1003B0005C5C0168E1404160546804F4E064240A34
:1003C0001C5D21FA04F48460546804F46054E40A67
:1003D0001B5DD940C160526802F44042920B144B3D
:1003E0001B1F9A5CB1FBF2F1016110BD0360DAE7FB
:1003F0000360D8E7516801F47011536803F4803347
:10040000022404EB914133B153689B0307D5094B98
:1004100059430160C7E7074B59430160C3E7034BEA
:1004200059430160BFE700000010024000127A004B
:100430000400002000093D00002904D0018841F09B
:10044000400101807047018821F040010180704720
:100450002DE9F04104460F461546114E0121304664
:10046000FFF74CFF032000F0FDF8C7F3074000F052
:10047000F9F8C7F3072000F0F5F8F8B200F0F2F849
:1004800004E0FF2000F0EEF804F8010B6D1E681C7C
:10049000F7D13046BDE8F0410121FFF731BF000040
:1004A000001001402DE9F04706460D46E8B24142F2
:1004B000CFB2140A02F0FF094FF48078002812D05E
:1004C000E8B24042C0B205EB000A34B3D01B80B2A0
:1004D000040A00F0FF093A462946304600F04CF87D
:1004E00055463E4439E074B929463046BDE8F047E8
:1004F00000F042B842462946304600F03DF805F586
:10050000807506F58076641EE4B2F3D24A46294629
:100510003046BDE8F04700F02FB8B9450ED9A9EB39
:100520000700C4B23A462946304600F025F8514645
:10053000F0192246BDE8F04700F01EB829463046C3
:10054000BDE8F04700F018B842462946304600F0B2
:1005500013F805F5807506F58076641EE4B2F3D2D3
:10056000B9F1000F06D04A4629463046BDE8F047AB
:1005700000F002B8BDE8F0872DE9F04105460F46CE
:10058000144600F0C9F8134E01213046FFF7B6FEBD
:10059000022000F067F8C7F3074000F063F8C7F3E4
:1005A000072000F05FF8F8B200F05CF8B015844264
:1005B00005D9044603E0287800F054F86D1C641E49
:1005C000A4B2F8D201213046FFF79AFEBDE8F0410F
:1005D00000F07EB8001001402DE9F0410E4F0121DE
:1005E0003846FFF78BFE9F2000F03CF8FF2000F01C
:1005F00039F80446FF2000F035F80546FF2000F0EA
:1006000031F8064601213846FFF77AFE200440EA19
:1006100005203043BDE8F0810010014070B504466C
:1006200000F07AF800F054F80D4D01212846FFF74C
:1006300065FE202000F016F8C4F3074000F012F821
:10064000C4F3072000F00EF8E0B200F00BF801212F
:100650002846FFF755FEBDE8704000F039B80000AD
:10066000001001402DE9F0410746174C4FF480552A
:100670006560164E08E06068411E616004D200F0BB
:1006800085F8C0B2BDE8F0810221304600F056F88E
:100690000028F0D03946304600F059F8656007E090
:1006A00061684A1E626003D200F070F8C0B2E9E7E8
:1006B0000121304600F042F80028F1D0304600F029
:1006C00044F8C0B2DEE700001C000020003001400A
:1006D00070B50F4D01212846FFF710FE0520FFF7EA
:1006E000C1FF0C4CA8146060FF20FFF7BBFF6168DE
:1006F0004A1E626003D2BDE8704000F047B8C007F0
:10070000F2D12846BDE870400121FFF7F9BD000095
:10071000001001401C00002010B5074C01212046AC
:10072000FFF7ECFD0620FFF79DFF2046BDE81040D7
:100730000121FFF7E5BD0000001001400246002046
:1007400012890A4200D00120704780897047818158
:10075000704730B5028802F441530A884C88CD882E
:1007600022438C882C4322430C8922434C89224308
:100770008C892243CC8922431A430280828B22F443
:1007800000628283098A018230BD000010B502A098
:1007900000F04AFA002010BD3C3C2D464C41534825
:1007A0002D4552524F522D3E3E2053504920546900
:1007B0006D656F7574206572726F72210A0000009A
:1007C000704700F001B800000CB5002201920092C1
:1007D0002748016841F4803101604FF4A06301684B
:1007E00001F4003100910199491C0191009911B95E
:1007F00001999942F3D10168890302D50121009141
:1008000000E000920099012930D11A490A6842F0AB
:1008100010020A600A6822F003020A600A6842F0C5
:1008200002020A604168416041684160416841F4E8
:1008300080614160416821F47C114160416841F46C
:10084000E8114160016841F080710160016889012F
:10085000FCD5416821F003014160416841F002018B
:1008600041604168C1F381010229FAD10CBD000049
:1008700000100240002002407047000010B50F48F1
:10088000016841F00101016041680D4A1140416079
:1008900001680C4A11400160016821F48021016067
:1008A000416821F4FE0141604FF41F018160FFF7B0
:1008B00088FF05494FF00060086010BD001002403D
:1008C0000000FFF8FFFFF6FE08ED00E070B586B00F
:1008D00001210803FFF74CFD01211020FFF748FD1F
:1008E0000124ADF8004003208DF8020010208DF89F
:1008F0000300304D69462846FFF7ADFC0121042076
:10090000FFF736FD2021ADF8001018218DF80310F7
:10091000294E69463046FFF79EFC01210420FFF76F
:1009200027FD4021ADF8001069463046FFF793FCE3
:1009300001210420FFF71CFD8021ADF8001069465D
:100940003046FFF788FC01212846FFF7D9FC00203C
:10095000ADF804004FF48271ADF80610ADF8080050
:100960000221ADF80A10ADF80C400902ADF80E10E6
:100970000821ADF81010ADF812000720ADF81400F2
:100980000E4C01A92046FFF7E4FE01212046FFF7A7
:1009900053FDFFF721FE0A4A0A49904205D1087823
:1009A00020F00100087006B070BD087840F001002A
:1009B0000870F8E7001001400008014000300140D5
:1009C0001740EF001C000020002810D001280BD099
:1009D000022802D003280AD103E04FF48050088097
:1009E00005E00120086002E04FF4C06008600020CC
:1009F0007047000010B5074B1B78DB0701D00320C0
:100A000010BD01F5007112030903FFF721FD00205D
:100A100010BD00001C00002010B5FFF7DDFD074AE7
:100A20000749904204D1087820F00100087010BDF9
:100A3000087840F00100087010BD00001740EF007A
:100A40001C00002070B5054601F500710C0320461E
:100A5000FFF7E4FD4FF4805221462846FFF722FDC0
:100A6000002070BD10B586B001218803FFF780FC1F
:100A700001210520FFF77CFC4FF40070ADF8140055
:100A800018208DF8170003208DF81600194C05A9C1
:100A90002046FFF7E0FB2115ADF8141004218DF876
:100AA000171005A92046FFF7D6FB134C4FF4E13190
:100AB00001910021ADF80810ADF80A10ADF80C1046
:100AC000ADF810100C21ADF80E1001A9204600F071
:100AD00047F8012240F22551204600F026F8012176
:100AE000204600F00FF84021204600F007F806B03D
:100AF00010BD000000080140003801408A05C943CC
:100B000001807047002904D0818941F4005181811E
:100B10007047818921F4005181817047024600208D
:100B200012880A4200D00120704710B540F66A13BF
:100B3000C1F3421301F01F040121A140012B07D092
:100B4000022B07D014303AB102680A43026010BD8C
:100B50000C30F8E71030F6E702688A43026010BDF7
:100B600030B585B004460D46208A4CF6FF7108402A
:100B7000E98801432182A0894EF6F3110840A98833
:100B80002A8911436A8902431143A181A08A4FF641
:100B9000FF410840A9890143A1826846FFF7F6FB9F
:100BA0001D48844201D1039800E00298A1890904FC
:100BB00008D500EBC00101EB001029684900B0FB2B
:100BC000F1F007E000EBC00101EB0010296889009B
:100BD000B0FBF1F06422B0FBF2F109010B096FF0F8
:100BE00018056B4300EB8300A3891D044FF032030B
:100BF00007D503EBC000B0FBF2F000F0070008439C
:100C000006E003EB0010B0FBF2F000F00F00084329
:100C1000208105B030BD000000380140C1F308015B
:100C200081807047FEE700000FB4054B10B503A9A3
:100C3000044A029800F018F810BC5DF814FB00009C
:100C4000E92200083000002002E008C8121F08C195
:100C5000002AFAD170477047002001E001C1121F3D
:100C6000002AFBD1704700002DE9FF4F8DB09B4655
:100C70000F460446002606E025280BD05A460F9959
:100C80009047641C761C20780028F5D111B03046BE
:100C9000BDE8F08F0025A8460122984900E00543F1
:100CA00014F8013F203B02FA03F00842F7D1207804
:100CB0002E2817D114F8010F45F004052A280ED06C
:100CC0006FF02F022078A0F1300109290AD808EB33
:100CD000880102EB410100EB0108641CF2E757F8C0
:100CE000048B641C20786C280DD004DC4C2812D0B6
:100CF0006A2811D104E074280DD07A280CD10AE0BA
:100D000045F4001507E0617845F48015814202D171
:100D1000641C05F58015641C2278692A45D008DC1E
:100D2000002AB3D0582A69D0632A10D0642A08D187
:100D30003BE0702A67D0732A13D0752A5CD0782ADA
:100D40005CD010465A460F999047761CD3E017F8AE
:100D5000040B8DF8000000208DF80100E946012009
:100D600003E057F8049B4FF0FF3069074FF0000590
:100D700001D40AE06D1C45450DDA8542FADB19F80D
:100D800005100029F6D106E06D1C8542FCDB19F840
:100D900005100029F8D12E4404E019F8010B5A4639
:100DA0000F9990476D1EF8D2A5E00A200021CDE9E9
:100DB0000801C5F3025002280DD001CFC117031E50
:100DC00071F100030DDA4FF0000CD0EB0C006CEB6E
:100DD00001012D2308E0FF1D27F00707F7E80201B6
:100DE000EDE72B0504D52B238DF8283001233BE0BC
:100DF000EB0739D02023F7E70A2000E0102000217C
:100E0000CDE9080107E01020002145F00405CDE9F7
:100E100008014FF00808C5F3025002280FD001CF97
:100E200000214FF0000A2B071FD5702A0DD0DDE9F5
:100E300008C38CF0100C5CEA030C0CD015E0FF1D0D
:100E400027F00707F7E80201EBE740228DF828209A
:100E50004FF0010A0BE050EA010306D030238DF871
:100E600028308DF8292002239A46582A04D024A23B
:100E70000DF120090B9209E026A2F9E7DDE908232C
:100E8000FFF784F90B9B9B5C09F8013D50EA0102D6
:100E9000F4D1ADEB090020300890680701D44FF081
:100EA00001080899884502DDA8EB010000E0002058
:100EB0008046002506E00AA85A46405D0F999047F3
:100EC0006D1C761C5545F6DB04E030205A460F9920
:100ED0009047761CB8F10001A8F10108F5DC05E0A7
:100EE00019F8010B5A460F999047761C0899481E2D
:100EF00008900029F4DC641CC5E600000928010004
:100F0000303132333435363738396162636465667F
:100F10000000000030313233343536373839414241
:100F2000434445460000000010B5044600202071EF
:100F3000401EE062204601F025FB08B1032010BDF1
:100F400094F82E0294F82F1240EA0120A0F52A41CD
:100F5000553901D0022010BD14F8660FE17862788F
:100F600040EA0161A078663C000440EA02200143A7
:100F70000B48B0EB012F01D1002010BD14F8821FE7
:100F8000E278637841EA0261A278120442EA03221D
:100F90001143B0EB012F01D1002010BD012010BD85
:100FA0000046415400E0401C02780AB18A42FAD15E
:100FB00000787047891E4269921E8A4201D800203B
:100FC0007047826A807801FB002070472DE9F05F4E
:100FD00081460F46387820F04000401E00EB80012B
:100FE00001EBC00400260125DFF85CA007F1010831
:100FF0004FF6FF7B1AF80600395C10F8080041EA4A
:1010000000207DB100F04AFF0546FF2C07D22046A4
:10101000641C39F8100000F041FFA84206D00020FF
:10102000BDE8F09F584501D00020F9E7761C0D2E51
:10103000E0D33878400605D525B139F8140008B159
:101040000020EDE70120EBE7282900082DE9F04119
:1010500006460F46002F08D03946304601F09AF96F
:10106000022809D20120BDE8F081F56815B1706948
:10107000A84207D8012505E0411CF4D071698142DE
:10108000F1D83D462C46641C7069A04204D8022465
:10109000022D01D20020E6E72146304601F07AF920
:1010A00038B1411CDFD00128DDD0AC42EBD10020AB
:1010B000D9E76FF070422146304601F07DFA28B939
:1010C00027B122463946304601F076FA20B1012890
:1010D0000DD001242046C6E7F4603069411CF9D0E8
:1010E000401E3061707940F001007071F2E74FF0FE
:1010F000FF34EFE72DE9F35F8846D8F8005000E0B1
:101100006D1C28782F28FBD05C28F9D00098D0F8E7
:101110001C90002426463046761C285C202808D3E4
:101120002F2806D05C2804D0FF2C09D30620BDE868
:10113000FC9FA919C8F80010202817D204261FE028
:10114000C0B2012100F090FE074647B1802F08D2BF
:1011500039465EA0FFF726FF18B10620E7E7062014
:10116000E5E72046641C29F81070D4E7002607E064
:10117000601E39F81000202801D02E2802D1641EEC
:10118000002CF5D154B1002029F8140000980B224E
:101190002021806901F0EEF9002702E00620C6E771
:1011A0007F1C39F817002028FAD02E28F8D01FB15C
:1011B00046F0030600E0641E24B1601E39F81000FA
:1011C0002E28F8D14FF00008C2464FF0080B3846E1
:1011D0007F1C39F8105005B3202D03D02E2D04D1DB
:1011E000A74202D046F00306F1E7DA4501D2A74252
:1011F00019D1BBF10B0F0ED0A74201D046F0030668
:101200000BD827464FF0080A4FF00B0B4FEA8860C7
:101210004FEA1068DBE746F0030600988069017822
:10122000E5292ED02FE0802D0BD30021284600F099
:101230001BFE05461DB12848284410F8805C46F086
:10124000020625B1294625A0FFF7ACFE18B15F259F
:1012500046F003060EE0A5F14100192802D848F037
:10126000020807E0A5F16100192803D848F0010839
:10127000203DADB20098816950460AF1010A0D5433
:10128000A5E705210170BBF1080F03D14FEA886083
:101290004FEA1068C8F38100032803D06FEA080101
:1012A000890701D146F00206B10709D408F003010D
:1012B000012901D146F01006012801D146F00806A7
:1012C00000988069C672002031E70000222A3A3C6B
:1012D0003E3F7C7F00000000A82800082B2C3B3DEF
:1012E0005B5D000070B505460E460021284600F003
:1012F0008AF988B900242969286801F043F958B9A6
:1013000069690978E5290BD051B1002401212846EB
:1013100000F06DF80028EED0042800D1072070BD41
:10132000641CB442F8D0F1E72DE9F04704460021EF
:10133000204600F068F9002857D1FF26B1464FF645
:10134000FF7AA4F820A02169206801F01BF98046EB
:101350005FEA080048D167693D7865B1F87A00F026
:101360003F00E52D03D0010708D50F2806D0FF2642
:10137000A4F820A030E04FF0040835E00F2801D099
:10138000CEB11DE0E06938B3690606D597F80D9037
:1013900025F040052E46E1882184B54208D1797BAD
:1013A000494505D13946FFF711FE08B1761E00E028
:1013B000FF26F6B210E0384601F0CFF9484513D0C9
:1013C000A169C87AC00704D10B22384601F0BCF8E5
:1013D00050B1FF26A4F820A00021204600F007F815
:1013E00080465FEA0800AED04046BDE8F0872DE9B0
:1013F000F04104460E46E7887F1C3804000C0AD0F2
:10140000216941B1206842895209B7FBF2F302FB1E
:1014100013721AB166E00420BDE8F081491C216115
:10142000E16871B1428983785209B7FBF2F25B1E21
:101430001A4257D100F0AEFF0546012D06D8022012
:10144000EAE70089B8424DD80420E5E7681C14D0CB
:1014500020684169A9423FD88EB1E168FFF7F6FDE7
:10146000054628000DD0012D0DD0681C0DD0206838
:1014700001F0DAF958B10120CEE70120CCE70420D1
:10148000CAE70720C8E70220C6E70120C4E72068B2
:1014900000214289303001F06DF829462068FFF7BD
:1014A00089FD2168C86200264FF001080CE080F831
:1014B0000480206801F0B8F908B10120ACE7206889
:1014C000C16A491CC162761C20688178B142EED89D
:1014D0002168C96A891BC162E56029462068FFF757
:1014E00069FD2061E780206841894909B7FBF1F275
:1014F00001FB1271302202EB4111084460610020AF
:101500008AE72DE9FE430446A769E6690C223946BD
:10151000684601F026F89DF80B00C00718D000209F
:10152000F872E06101252B4632466946384600F0E4
:10153000EDFE2046FFF7F8FE10B96D1C642DF2D3C6
:10154000642D0BD004280AD19DF80B00F872E661D7
:101550009DF80B0080070ED5002003E00720BDE8B2
:10156000FE83401C36F810100029FAD119300D21E5
:10157000B0FBF1F600E0012631462046FFF7B2FE4F
:10158000054601271DBB761E21D0E088811B204621
:1015900000F039F80546280019D1A06901F0DDF8FE
:1015A00080462169206800F0EDFF05467DB9F2B262
:1015B00043466169E06900F02BFE20680771002155
:1015C0002046FFF714FF05460DB9761EE9D1C5B9CF
:1015D0002169206800F0D6FF0546280011D120229D
:1015E0000021606900F0C6FFD4E905010B2200F07C
:1015F000B8FFA0696169C07A00F01800087320681C
:1016000007712846ABE770B504460D46E580A36830
:10161000012B03D020684169994201D8022070BD96
:101620001BB90178032900D1436A23B1418980782D
:101630004E09464318E00189A94201D8022070BD35
:10164000406A17E01946206800F0A4FE0346581CC3
:1016500007D0022B03D320684069984203D80220A8
:1016600070BD012070BDAD1BB542EBD2194620689C
:10167000FFF7A0FCE36098B121684A895209B5FBE5
:10168000F2F21044206148894009B5FBF0F200FBFA
:101690001250302202EB401008446061002070BDFF
:1016A000022070BD01460120002901D1FFF70EB9CB
:1016B000704730B40C46034611460420002B03D17A
:1016C000204630BCFFF780B930BC704730B40D46BF
:1016D000114604461A460420002C03D1284630BC8B
:1016E000FFF788B930BC704701460120002901D1BD
:1016F000FFF792B9704730B40D46114604461A46BA
:101700000420002A05D0002C04D1284630BCFFF765
:1017100099B9042030BC704710B50446204600F04B
:101720009BF9002806D1204601F0A8F8002801D135
:101730000021216010BD000017B581B01446029849
:101740000090684600F0AAFE002802DA0B2004B0E0
:1017500010BD0B4B53F82010002201B10A70019903
:10176000002900D00A7043F8201001D0012C01D0CC
:101770000020ECE7002202A901A800F0A5FBE6E7A3
:10178000280000202DE9F747ADF50D7D0646002E17
:101790000FD04FF00008C6F8008002F01F0727F0B6
:1017A00001028EA984A800F08FFB0546280005D011
:1017B00092E009200DF5107DBDE8F08781A88A90A0
:1017C00001A88B9084A88E9900F058FD0546899C4D
:1017D0000DB904B9062517F01C0F4DD04DB1042DDD
:1017E00003D184A8FFF78DFE054647F00807899CC2
:1017F00008E0E07A10F0110F01D0072502E0780729
:1018000000D50825BDBB380741D500F043FEA073C5
:10181000010AE173010C2174000E607484F80B80DE
:1018200084F81C8084F81D8084F81E8084F81F8052
:101830002146849800F053FE81460021204600F0A6
:1018400084FF849901200871B9F1000F1FD084989A
:10185000D0F82CA04946849800F044FF05462800A3
:1018600015D18498A9F10109C0F80C9051468498CB
:1018700000F088FE05460AE04DB9E07AC10601D5C0
:10188000042504E0B90702D5C00700D007253DB9FB
:10189000380701D547F020078498C06AF0613462A8
:1018A000D5B9B77186F807802146849800F017FEF5
:1018B0003061207FE17F627F40EA0160A17F0904FF
:1018C00041EA02210843F060C6F80880C6F8188093
:1018D00084983060C088B08028466BE72DE9F84FC7
:1018E00004468846164699460020C9F8000020465E
:1018F00000F0C4FF002812D1E07900280FD1A079B0
:10190000C0070BD0D4E90210401A864200D906461F
:1019100004F124004FF0010A009098E00720BDE890
:10192000F88F2268A0685189B0FBF1F301FB130323
:10193000002B6DD1B0FBF1F193785B1E1940CDB255
:1019400075B940B11046616900F024FD022804D247
:101950000220E071E3E72069F8E7411C1CD06061D8
:1019600061692068FFF726FBD0B100EB050B20680A
:101970004189B6FBF1F74FB38178EA198A4200D961
:101980004F1B40783B465A464146FFF79FFE50B1F9
:1019900084F807A00120C2E784F807A00120BEE771
:1019A0000220E071BBE7A07940060BD5A069A0EB4F
:1019B0000B00B84206D221684A89009900FB0280D8
:1019C00000F0CFFD206845897D4336E0A2695A4585
:1019D0001CD0A17949060DD5407801230099FFF765
:1019E0008AFE18B184F807A0012098E7A07920F0BA
:1019F0004000A071206801235A4640780099FFF703
:101A000065FE18B184F807A0012088E7C4F818B073
:101A10002068A1684089B1FBF0F200FB1212851A20
:101A2000B54200D93546B1FBF0F200FB12100119A6
:101A300024312A46404600F094FDA844A06828447A
:101A4000A060D9F800002844C9F80000761B002ED9
:101A50007FF467AF002062E770B50446204600F0CF
:101A60000DFF00280ED1A1798A060BD548060ED5A8
:101A70002068012304F124014078A269FFF73BFEAE
:101A800008B1012070BDA07920F04000A071E1698B
:101A9000206800F077FD0028F4D1256AE87A40F04C
:101AA0002000E872207B2877A089000A6877E06828
:101AB000000CA877E068000EE8772846216900F05E
:101AC00044FE00F0E7FCA875010AE975010C2976CF
:101AD000000E68760020A874E874A07920F0200039
:101AE000A0712168012008712068BDE8704000F0F5
:101AF00041BE00002DE9F047C0B000244FF48079CA
:101B000049466846FEF737FB012283A18348FFF769
:101B100013FE834F38704FF470363546014681A06E
:101B2000FFF782F8012285A18848FFF72BFE387065
:101B3000014687A0FFF778F84FF4AE7805EB043044
:101B4000FEF76CFD641C4445F8D312E0744B4A4622
:101B50001B1D69467D48FFF7C1FE387060B94A46D3
:101B600029466846FEF708FD05F580757868484502
:101B700002D138780028E9D07448FFF7CDFD6422FF
:101B800031466846FEF764FC77A0FFF74DF8002465
:101B90006E4679A0315DFFF747F8641C642CF8D3DA
:101BA00076A0FFF741F89DF80000DFF80482FF28D7
:101BB00006D09DF80100FF2802D00120C8F80000DF
:101BC0004FF4805A554639787AA0FFF72DF8012254
:101BD0007EA15E48FFF7D6FD387001467EA0FFF774
:101BE00023F8002405EB0430FEF718FD641C352CA7
:101BF000F8D312E04A4B4A461B1D69465348FFF78B
:101C00006DFE387060B94A4629466846FEF7B4FC56
:101C100005F580757868484502D138780028E9D004
:101C20004A48FFF779FD642251466846FEF710FCEA
:101C30006FA0FEF7F9FF00244FA0315DFEF7F4FF1F
:101C4000641C642CF8D34DA0FEF7EEFF9DF8000055
:101C5000FF2806D09DF80100FF2802D00220C8F816
:101C60000000674D397867A0FEF7DEFF01226BA107
:101C70003648FFF787FD38703449CA6801466BA0C3
:101C8000FEF7D2FF002405EB0430FEF7C7FC641C0E
:101C90002B2CF8D312E0224B4A461B1D69462B48D9
:101CA000FFF71CFE387060B94A4629466846FEF7C1
:101CB00063FC05F580757868484502D138780028BE
:101CC000E9D02248FFF728FD642261496846FEF703
:101CD000BFFB60A0FEF7A8FF002427A0315DFEF740
:101CE000A3FF641C642CF8D324A0FEF79DFF9DF88D
:101CF0000000FF2806D09DF80100FF2802D0202018
:101D0000C8F80000002204A10448FFF715FD387050
:101D100040B0BDE8F0870000303A000034000020F9
:101D200014000020312E665F6D6F756E745F7862EF
:101D300066207265733D25640A000000303A736FB7
:101D40006E6774692E7862660000000064100020DF
:101D5000322E665F6F70656E5F78626620726573A3
:101D60003D25640A00000000726561646275665F6B
:101D70007862660A00000000255800000AC8E7B92A
:101D8000FB74656D70627566B2BBC8ABCEAA2046A7
:101D90004620A3ACC4C7C3B4CBB5C3F7D7D6BFE204
:101DA000BFBDB1B4B3C9B9A6A3A1A3A1A3A10A00A1
:101DB000140C0140312E665F6D6F756E745F626941
:101DC0006E207265733D25640A000000303A485A5F
:101DD0004C49422E62696E00322E665F6F70656EEE
:101DE0005F62696E207265733D25640A0000000021
:101DF000726561646275665F62696E0A0000000068
:101E000000101D00312E665F6D6F756E745F676226
:101E10006B207265733D25640A000000303A554E10
:101E20004947424B2E42494E00000000322E665F69
:101E30006F70656E5F67626B207265733D25642C01
:101E400066696C6573697A653D25640A0000000067
:101E500084641E00726561646275665F554E494711
:101E6000424B2E42494E0A00802804D30A4A39B117
:101E7000FF2801D900207047803832F810007047E1
:101E8000002132F81130834203D0491C89B28029E5
:101E9000F7D38031C8B27047622900080021084B8F
:101EA00000E0491C33F811200AB18242F9D133F81D
:101EB0001120002A02D0034830F8110070470000BA
:101EC000622A0008422C00082DE9FF478046084698
:101ED00016460027C8F8007000F0E0FA0546280012
:101EE00003D50B2004B0BDE8F087C64850F8254064
:101EF0008CB1C8F80040207820B16078FFF7F4FB7F
:101F0000C1070AD02770E8B26070FFF7CBFBC107AA
:101F10000AD00320E6E70C20E4E71EB1400701D514
:101F20000A20DFE70020DDE71EB1400701D50A20C7
:101F3000D8E7607804F10A020221FFF7BAFB30B952
:101F40006089B0F5007F02D3B0F5805F01D9012030
:101F5000C8E7002529462046FEF7E6FF012826D1DE
:101F60000021E84604EB011000F5F770027952B148
:101F7000027AC37A42EA0362837A407A1B0443EA14
:101F80000020024300E0002248F82120491C0429D7
:101F9000E8D3002658F8265025B129462046FEF7FA
:101FA000C3FF00E0022010B1761C042EF2D30328F8
:101FB00002D018B10D2095E7012093E794F83B007B
:101FC00094F83C10B4F80AC040EA0120604501D002
:101FD0000D2087E794F8460094F8471040EA012066
:101FE00058B914F8540FE178627840EA0160A1789A
:101FF0000904543C41EA02210843A06194F840A03E
:1020000084F803A0BAF1010F04D0BAF1020F01D095
:102010000D2067E70AFB00FA94F83D20A27012B188
:10202000511E0A4201D00D205CE794F8411094F84B
:10203000423041EA032323814FEA5C16B3FBF6F1F9
:1020400006FB113109B10D204CE794F8431094F8C8
:10205000448041EA082179B994F8501094F85380EB
:1020600094F8519041EA086194F852804FEA084888
:1020700048EA092841EA080194F83E8094F83F9024
:1020800048EA0929B9F1000F08D0B3FBF6F609EBCD
:102090000A08B044414503D20D2023E70D2021E773
:1020A000A1EB0801B1FBF2F141B3012640F6F67253
:1020B000914200D302264FF6F672914200D30326D6
:1020C000891C6161E56105EB09022262A844C4F83C
:1020D0002880032E14D03BB352446262022E25D0D6
:1020E00001F0010201EB410102EB5101491E614483
:1020F000B1FBFCF181421BD90D20F3E60D20F1E686
:102100000BB10D20EEE694F85C2094F85F3094F863
:102110005D8042EA036294F85E301B0443EA0823C0
:102120001A4362628900E1E70D20DBE64900DDE742
:102130004FF0FF302061E06080206071032E57D1A6
:1021400094F8600094F8611040EA012001284FD112
:10215000691C204600F016FAF0BB677194F82E0255
:1021600094F82F1240EA0120A0F52A4155393FD1B9
:1021700014F8300FE178627840EA0160A178303CD1
:10218000090441EA022108431F49884230D194F8EA
:10219000140294F8171294F8152240EA016094F89A
:1021A0001612090441EA02210843184988421FD146
:1021B00094F8180294F81B1294F8192240EA01606E
:1021C00094F81A12090441EA02210843206194F8A4
:1021D0001C0294F81F1200E00AE040EA016094F843
:1021E0001E1294F81D22090441EA02210843E0600E
:1021F00026700449091F0888401C0880E0800020E0
:1022000070E6000028000020525261417272416164
:102210002DE9F0434B730F23CB7200230B738B76A6
:10222000CB76531E03EB830404EBC30500231C464B
:10223000114E01F1010C4FF6FF77BB4203D02B4644
:102240006D1C30F8133016F8048001F8083016F8C9
:1022500004904FEA132809F80C8003B93B46641C2C
:102260000D2CEAD3BB4202D030F8150008B942F079
:1022700040020A70BDE8F0832829000873B50446BF
:10228000019908782F2801D05C2801D1491C0191BF
:102290000025A56001980078202805D2002120465D
:1022A000FFF7B1F965617CBD01A92046FEF722FF69
:1022B0000028F8D12046FFF737F8A169C97A28B17C
:1022C0000428F0D14907EED405207CBD4907FCD491
:1022D0006169C87AC00601D405207CBD206800F081
:1022E000FEF8A060E0E7000070B50446064DE1B2DC
:1022F0002846FEF793FC80212846FEF70FFC0028B5
:10230000F9D0204670BD0000003801407CB505467C
:1023100016461C460B22284600F023F9052C11D93D
:102320001B480CE0B61C002322460C4662F35F04F7
:102330004908E20300D544405B1C102BF4D33188DC
:102340000029EFD107216B4604F00F023032392A01
:1023500001D9D21DD2B20846491E1A542409002CB4
:10236000F2D17E205854002200E0521C8A4202D250
:10237000A85C2028F9D1082903D20846491C185C1A
:1023800000E020201446521C2855082AF3D37CBDB7
:10239000211001002DE9F04104460D46022D02D323
:1023A0006069A84201D8012609E04FF0FF36207885
:1023B000012807D0022835D003284BD0012630460B
:1023C000BDE8F08105EB55076089216AB7FBF0F0A5
:1023D0000144204600F0D6F80028F0D16089394643
:1023E000B1FBF0F200FB121121447F1C91F8308008
:1023F000B7FBF0F0216A0144204600F0C3F8002842
:10240000DDD16089B7FBF0F100FB1170204490F83A
:10241000300048EA0020E90701D00609CFE7C0F301
:102420000B06CCE76089216A4008B5FBF0F0014457
:10243000204600F0A7F80028C1D161896800B0FBF0
:10244000F1F201FB1200204430300178407841EA7B
:102450000026B4E76089216A8008B5FBF0F00144EA
:10246000204600F08FF80028A9D16189A800B0FBB0
:10247000F1F201FB1200204430300178C27841EAC9
:10248000026182784078120442EA0020014321F080
:10249000704694E7004870477D5FEF4610B50446EC
:1024A0004FF0FF302368002B0BD0194600E0491C89
:1024B0000A78202A01D33A2AF9D10A783A2A01D097
:1024C000002010BD13F8012B303A0A2AF9D28B42B2
:1024D000F7D1022AF5D21046491C216010BD0246F0
:1024E000887ECB7E40EA03201278032A05D10A7D3C
:1024F000497D42EA012140EA01407047FEF7B2FA05
:10250000FDF702FF06480121016002210160202140
:10251000016004A0FEF788FBFFF7ECFAFEE700007D
:10252000100C014074686973206973206120485A57
:102530004C49422077726974652074657374206415
:10254000656D6F200D0A000010B50023521E541C4B
:1025500005D010F8013B11F8014B1B1BF6D01846B3
:1025600010BD03E011F8013B00F8013B521E531C63
:10257000F8D17047C9B201E000F8011B521E531C8C
:10258000FAD1704770B504460E460025E06AB042A5
:1025900010D0204600F048F905465DB96078012367
:1025A000324604F13001FFF791F810B14FF0FF36D9
:1025B0000125E662284670BD2DE9F04704460D4628
:1025C0001646022D02D36069A84202D80220BDE857
:1025D000F087207806F0FF094FF00108012805D0A8
:1025E000022842D003285AD00220F0E705EB550715
:1025F0006089216AB7FBF0F001442046FFF7C2FF73
:102600000028E4D1384661897F1CB0FBF1F201FB60
:10261000120020443030E90703D0017869F31F111C
:1026200000E03146017084F804806089216AB7FBBC
:10263000F0F001442046FFF7A5FF0028C7D16189CB
:10264000B7FBF1F201FB127121443031EA0702D0ED
:10265000C6F3071205E00A78C6F3032302F0F0027E
:102660001A430A7084F80480B1E76089216A40083F
:10267000B5FBF0F001442046FFF784FF0028A6D107
:1026800062896900B1FBF2F302FB1311214481F866
:102690003090320A81F8312084F8048097E760890D
:1026A000216A8008B5FBF0F001442046FFF76AFF7D
:1026B00000288CD16289A900B1FBF2F302FB13114F
:1026C000214430314FF07043CA7803EA026232434A
:1026D0000A70130A4B70130C8B70120ECA7084F8B8
:1026E000048074E72DE9F04104460F46022F02D31F
:1026F0006069B84201D8022624E000261FE039466E
:102700002046FFF747FE0546E5B1012D09D0681CBC
:1027100009D0002239462046FFF74EFF06468EB903
:1027200003E002260EE001260CE02069411C05D0E2
:10273000401C2061607940F0010060712F466069A3
:10274000B842DCD83046BDE8F08181760A0AC2760C
:102750000A0C0275090E41757047014600200B22D4
:10276000430803EBC01011F8013B1844C0B2521EDD
:10277000F6D1704770B50446204600F055F805467E
:1027800028004FD12078032845D16079012842D113
:1027900004F13000628900210646FFF7EBFE552068
:1027A00084F82E02AA2084F82F02522084F83000E8
:1027B00084F83100612084F83200412184F833101C
:1027C000722284F8142284F8152284F8161284F8F0
:1027D0001702206984F81802010A84F81912010C02
:1027E00084F81A12000E84F81B02E06884F81C02B8
:1027F000010A84F81D12010C84F81E12000E84F8E0
:102800001F02E269521CE262607801233146FEF742
:1028100072FF00206071002260781146FEF749FFC8
:1028200000B10125284670BD2DE9F041044600277E
:10283000207900281FD0E66A04F130016078012376
:1028400032468846FEF757FF08B1012713E0002003
:102850002071206AA169301A88420CD2E57808E01C
:10286000A06906446078012332464146FEF743FFE3
:102870006D1E022DF4D23846BDE8F08110B5002857
:1028800007D0016829B10A781AB1CA8880888242C3
:1028900001D0092010BD4878FEF726FFC00701D0FF
:1028A000032010BD002010BD809A90418E418F8082
:1028B0004545454949498E8F9092924F994F5555BC
:1028C00059999A9B9C9D9E9F41494F55A5A5A6A7A6
:1028D000A8A9AAABAC21AEAFB0B1B2B3B4B5B6B78C
:1028E000B8B9BABBBCBDBEBFC0C1C2C3C4C5C6C7F0
:1028F000C8C9CACBCCCDCECFD0D1D2D3D4D5D6D7E0
:10290000D8D9DADBDCDDDEDFE0E1E2E3E4E5E6E7CF
:10291000E8E9EAEBECEDEEEFF0F1F2F3F4F5F6F7BF
:10292000F8F9FAFBFCFDFEFF01030507090E101282
:102930001416181C1E000004000200018000400054
:102940002000100008000400020000000080004089
:1029500000200010000800400020001000080004C3
:102960000002C700FC00E900E200E400E000E5002E
:10297000E700EA00EB00E800EF00EE00EC00C40026
:10298000C500C900E600C600F400F600F200FB0036
:10299000F900FF00D600DC00A200A300A500A720DC
:1029A0009201E100ED00F300FA00F100D100AA006D
:1029B000BA00BF001023AC00BD00BC00A100AB00FA
:1029C000BB009125922593250225242561256225AA
:1029D000562555256325512557255D255C255B2505
:1029E0001025142534252C251C2500253C255E2585
:1029F0005F255A25542569256625602550256C25B7
:102A000067256825642565255925582552255325B0
:102A10006B256A2518250C25882584258C2590256D
:102A20008025B103DF009303C003A303C303B500F4
:102A3000C403A6039803A903B4031E22C603B50367
:102A400029226122B1006522642220232123F7007C
:102A50004822B0001922B7001A227F20B200A02518
:102A6000A00061006200630064006500660067000A
:102A7000680069006A006B006C006D006E006F00FA
:102A800070007100720073007400750076007700AA
:102A9000780079007A00A100A200A300A500AC0094
:102AA000AF00E000E100E200E300E400E500E60042
:102AB000E700E800E900EA00EB00EC00ED00EE00C2
:102AC000EF00F000F100F200F300F400F500F60072
:102AD000F800F900FA00FB00FC00FD00FE00FF001A
:102AE000010103010501070109010B010D010F019E
:102AF000110113011501170119011B011D011F010E
:102B0000210123012501270129012B012D012F017D
:102B100031013301350137013A013C013E014001E9
:102B200042014401460148014B014D014F01510151
:102B300053015501570159015B015D015F016101BD
:102B400063016501670169016B016D016F0171012D
:102B50007301750177017A017C017E019201B10355
:102B6000B203B303B403B503B603B703B803B903A1
:102B7000BA03BB03BC03BD03BE03BF03C003C10351
:102B8000C303C403C503C603C703C803C903CA03F9
:102B90003004310432043304340435043604370479
:102BA000380439043A043B043C043D043E043F0429
:102BB00040044104420443044404450446044704D9
:102BC000480449044A044B044C044D044E044F0489
:102BD0005104520453045404550456045704580431
:102BE00059045A045B045C045E045F047021712183
:102BF0007221732174217521762177217821792121
:102C00007A217B217C217D217E217F2141FF42FF92
:102C100043FF44FF45FF46FF47FF48FF49FF4AFF88
:102C20004BFF4CFF4DFF4EFF4FFF50FF51FF52FF38
:102C300053FF54FF55FF56FF57FF58FF59FF5AFFE8
:102C400000004100420043004400450046004700A8
:102C5000480049004A004B004C004D004E004F0018
:102C600050005100520053005400550056005700C8
:102C7000580059005A002100E0FFE1FFE5FFE2FFA4
:102C8000E3FFC000C100C200C300C400C500C6000D
:102C9000C700C800C900CA00CB00CC00CD00CE00E0
:102CA000CF00D000D100D200D300D400D500D60090
:102CB000D800D900DA00DB00DC00DD00DE0078019E
:102CC000000102010401060108010A010C010E01C4
:102CD000100112011401160118011A011C011E0134
:102CE000200122012401260128012A012C012E01A4
:102CF000300132013401360139013B013D013F0110
:102D000041014301450147014A014C014E01500177
:102D100052015401560158015A015C015E016001E3
:102D200062016401660168016A016C016E01700153
:102D300072017401760179017B017D01910191039A
:102D400092039303940395039603970398039903BF
:102D50009A039B039C039D039E039F03A003A1036F
:102D6000A303A403A503A603A703A803A903AA0317
:102D70001004110412041304140415041604170497
:102D8000180419041A041B041C041D041E041F0447
:102D900020042104220423042404250426042704F7
:102DA000280429042A042B042C042D042E042F04A7
:102DB00001040204030404040504060407040804CF
:102DC00009040A040B040C040E040F0460216121A1
:102DD00062216321642165216621672168216921BF
:102DE0006A216B216C216D216E216F2121FF22FF51
:102DF00023FF24FF25FF26FF27FF28FF29FF2AFFA7
:102E00002BFF2CFF2DFF2EFF2FFF30FF31FF32FF56
:102E100033FF34FF35FF36FF37FF38FF39FF3AFF06
:102E200000000000442E00080000002034000000D4
:102E3000480C0008782E00083400002054300000B0
:102E4000580C0008020406080000000001020304F8
:102E5000010203040607080900000000000000004A
:102E60000100000000A000000000000000000000C1
:082E700000000000000000005A
:0400000508000131BD
:00000001FF
