:020000040800F2
:10000000B874002045010008B31500082115000848
:10001000B1150008A70D0008B92C00080000000069
:10002000000000000000000000000000E5260008BD
:10003000FB0F0008000000002D1600085D010008FD
:100040005F0100085F0100085F0100085F01000810
:100050005F0100085F0100085F0100085F01000800
:100060005F0100085F0100085F0100085F010008F0
:100070005F0100085F0100085F0100085F010008E0
:100080002D0F00085F0100085F0100085F010008F4
:100090005F0100085F0100085F0100085F010008C0
:1000A0005F0100085F0100085F0100085F010008B0
:1000B0005F0100085F0100085F0100085F010008A0
:1000C0005F0100085F0100085F0100085F01000890
:1000D0005F0100085F0100085F0100085F01000880
:1000E0005F0100085F0100085F0100085F01000870
:1000F0005F0100085F0100085F0100085F01000860
:100100005F010008D51800085F0100085F010008C2
:100110005F0100085F0100085F0100085F0100083F
:100120005F0100085F0100085F0100085F0100082F
:10013000DFF80CD000F0FCFB00480047594B0008EA
:10014000B87400200648804706480047FEE7FEE7EF
:10015000FEE7FEE7FEE7FEE7FEE7FEE7FEE7FEE777
:100160009D27000831010008004870475C770008AF
:1001700010B50446FFF7F8FF0068005D00F00100CD
:1001800010BD40EA01039B0703D009E008C9121F14
:1001900008C0042AFAD203E011F8013B00F8013B41
:1001A000521EF9D27047D2B201E000F8012B491E6D
:1001B000FBD270470022F6E710B513460A46044604
:1001C0001946FFF7F0FF204610BD421C10F8011B36
:1001D0000029FBD1801A7047CBB203E00178994225
:1001E00003D0401C521EF9D20020704730B504469F
:1001F0000020034600E05B1C934203D2E05CCD5C30
:10020000401BF8D030BD2DE9F04791460F4680469F
:100210000446002614F8015B2DB1FFF7A5FF006826
:10022000405DC007F6D12B2D02D02D2D18D0641EB5
:100230004A463946204600F067FA27B13968A1429C
:1002400001D1C7F8008071054FF002040BD5404280
:10025000002803DD02F054FD0460A007BDE8F0872C
:1002600046F48066E4E70028F8DA02F049FD04600D
:100270006FF00040F2E72DE9FE4F804681EA03006F
:10028000C00F0C46009021F0004123F00045B8EB70
:100290000200A94105D24046214690461C460B4625
:1002A000024623F00040104347D0270DC7F30A0051
:1002B000C3F30A510290401A019040286BDAC3F34D
:1002C000130040F4801B0098924620B10023D2EB2B
:1002D000030A63EB0B0B01985946C0F140025046EC
:1002E00000F0E1F906460D4650465946019A00F0E5
:1002F000F9F910EB08006141002487EA115284EA01
:10030000E7731A4340D0009A62B3019A012A4FEA78
:10031000075215DC001B61EB02014FF0004202EABC
:100320000752CDE90042001C41F5801132462B46B0
:1003300000F097FA03B0BDE8F08F40462146F9E798
:10034000001B61EB0201001C41F5801300185B41AA
:100350002018A2F5001747EB030140EAD570B61943
:100360006D4111E06D084FEA360645EAC0754FEA67
:100370000752001B61EB0201001C41F58011490886
:100380004FEA30000019514132462B4603B0BDE818
:10039000F04F00F057BA0098012240000023D0EB44
:1003A000020263EBE073009821464FEAE074B8EB79
:1003B000000061EB0401E9E783F000435BE781F0B3
:1003C000004158E72DE9FE4F81EA030404F00044A0
:1003D00021F0004100944FF0000B23F0004350EA5D
:1003E00001045ED052EA03045BD0C3F30A54C1F3A4
:1003F0000A552C44A4F2F3340194A0FB0254C1F337
:10040000130141F48011C3F3130343F4801301FB80
:10041000024400FB034E840A970A44EA815447EAE7
:100420008357A4FB076802958D0A05FB07854FEAF1
:10043000932C04FB0C542705029D4FEA065847EA0B
:100440001637B5EB08056EEB070C870E920E47EAE0
:10045000811742EA8312A7FB0201B6EB0B0164EBA2
:1004600000042B0D43EA0C335E1844EB1C50DA46B3
:100470005146E7FB0201C5F313044FEA0B3343EA8D
:1004800014534FEA0432019C43EA0603A4F10C041E
:100490000294009CCDE900B400F0E3F903B0BDE89C
:1004A000F08F00200146F9E72DE9F04D81EA0304C1
:1004B00004F0004B21F0004514464FF0000A23F0F1
:1004C000004150EA050220D054EA01021DD0C5F3D4
:1004D0000A570246C5F31303C1F31300C1F30A56CA
:1004E00040F4801543F48013A7EB0608101BD64692
:1004F00008F2FD3873EB050002D308F1010801E0B2
:1005000092185B41B8F1000F03DA00200146BDE804
:10051000F08D00204FF48011064684460EE0171B34
:1005200073EB050705D3121B63EB050306434CEA87
:10053000010C49084FEA300092185B4150EA01076C
:10054000EDD152EA030012D082EA040083EA0501E9
:10055000084305D0101BAB4106D20122002306E060
:1005600000224FF0004302E06FF0010253101AEB3B
:1005700006004CEB085110EB0A0041EB0B01BDE803
:10058000F04D00F05FB90EB5C10F80EAE07008448D
:10059000CA07002140F233438DE80E000A460B469D
:1005A00000F05FF903B000BD70B5C1F30A5201F06D
:1005B00000450024C1F3130140F2FF3341F48011E0
:1005C0009A4201DA002070BD40F233439A42A2F20F
:1005D000334203DC524200F075F800E090402C43B7
:1005E000F1D0404270BD000030B5041E71F100042E
:1005F00004DB4FF00044404264EB0101141E73F130
:10060000000405DB1C464FF00043524263EB040339
:10061000994208BF904230BD30B50B4601460020DC
:100620002022012409E021FA02F59D4205D303FAB4
:1006300002F5491B04FA02F52844151EA2F1010235
:10064000F1DC30BD2DE9F05F0546002092469B4667
:1006500088460646814640241BE0284641464746D8
:10066000224600F02FF853465A46C01A914110D343
:1006700011461846224600F016F82D1A67EB0108BD
:100680004F4622460120002100F00DF817EB00092B
:100690004E41201EA4F10104DFDC484631462A46C3
:1006A0004346BDE8F09F202A04DB203A00FA02F11D
:1006B000002070479140C2F1200320FA03F3194350
:1006C00090407047202A04DB203A21FA02F00021F2
:1006D000704721FA02F3D040C2F120029140084352
:1006E00019467047202A06DBCB17203A41FA02F060
:1006F00043EAE07306E041FA02F3D040C2F120027F
:1007000091400843194670472DE9F05F8246007812
:10071000002715468B460AF10104B946302801D05E
:100720009DB113E014F8010B0127782803D0582855
:1007300001D045B10AE00DB1102D07D100271025D9
:1007400014F8010B02E0082500E00A250026B04657
:100750000EE005FB080005FB06F1012701EB104642
:100760001FFA80F8B6F5803F00D3B94614F8010BA4
:10077000294600F0EFF80028EBDABBF1000F05D0B6
:100780000FB1641E00E05446CBF80040B9F1000FF1
:1007900006D002F0B5FA02210160C81EBDE8F09F44
:1007A00048EA0640FAE700000FB4002300B589B01C
:1007B0000CA900910B996FF00042CB601E4B069381
:1007C0001E4B07930423CDE901321D4A08920246CD
:1007D0006B46002000F04CF909B05DF814FB70B5D1
:1007E00086B006464FF0FF300091CDE901010020B0
:1007F00015460C4604903246694604A8FFF7D4FF1C
:1008000003460498211825B108B10A4600E02246A3
:100810002A6000280DD0002B02DD0098884208D005
:10082000081B0094CDE901043246694604A8FFF78D
:10083000BBFF06B070BD0000A90C0008C70C000883
:100840007101000810B5141E73F1000408DA401C91
:1008500041F1000192185B411A4301D120F00100DF
:1008600010BD2DE9F04D92469B4611B1B1FA81F2CF
:1008700002E0B0FA80F220329046FFF714FF0446FF
:100880000F4640EA0A0041EA0B0153465A46084324
:1008900013D0114653EA010019D0C8F14002504666
:1008A000FFF710FF05460E46504659464246FFF7F1
:1008B000FAFE084305D0012004E020463946BDE891
:1008C000F08D0020054346EAE0762C4337430A9832
:1008D0006305E40AA0EB08000022FD0A44EA47543D
:1008E0000A3002D500200146E9E7010510196941E7
:1008F000DDE9084500196941BDE8F04DA2E7C1F303
:100900000A52C1F3130140F2FF3341F480119A42BD
:1009100002DA00200146704740F233439A42A2F2C5
:10092000334202DC5242FFF7CDBEFFF7BCBE0000EF
:10093000064C074D06E0E06840F0010394E807002C
:1009400098471034AC42F6D3FFF7F6FB98780008CE
:10095000B87800083A2800D2303820F02002412A26
:1009600001D3A2F13700884201D34FF0FF30704726
:100970002DE9FF4F087881B09946FF2805D0491C22
:100980002D2804D00024002308E000230BE00124DC
:10099000F9E703EB830300EB4303491C0878FF28C6
:1009A000F7D104B15B4200200090147801462D2C51
:1009B00001D02B2C04D1521C2D2C12D000240094D9
:1009C00000251678FF2E0ED00A24A0FB04C801FBD8
:1009D0000481002700FB0711521C16EB0C00694133
:1009E000EFE70124EBE7994450EA01020ED000241E
:1009F000AA4D2646DFF8A88200F076F982468B469B
:100A0000B9F1000009DAC9F100071BE001980021E3
:100A1000C0E9001105B0BDE8F08F074612E0F80705
:100A200007D022462B4630464146FFF7CBFC064610
:100A3000884622462B4610461946FFF7C3FC04465B
:100A40000D467F10002FEAD1B9F1000F3246434620
:100A50005046594602DAFFF727FD01E0FFF7B2FCE6
:100A6000009A0AB181F00041019AC2E90001D1E780
:100A70002DE9FF4F1F468DB0D7E901464FF0FF38F3
:100A80002E2045464FF000090B90B9696D1C0E9859
:100A90008847396A824688470028F6D1BAF1FF3F75
:100AA0000AD024F4D064002E11DDBAF12B0F08D047
:100AB000BAF12D0F0BD102E0404611B0ABE744F480
:100AC0008064B9696D1C0E9888478246761E694617
:100AD000600501D52D2000E02B208DF8000001F1EC
:100AE000010B0DF1200809E0B9696D1C0E988847CB
:100AF00082460F9844F40074761E0560002E02DDD5
:100B0000BAF1300FF0D00B998A453ED144F0800401
:100B100006E00F99681CA9F1010944F4007408600B
:100B2000B9696D1C761E0E98884782463028F0D031
:100B30002BE00B998A4505D1200603D444F08004AC
:100B4000761E18E0504602F0A1F908B30DF113012A
:100B5000761E44F400748B4508D2AAF130000BF8DD
:100B6000010B200607D5A9F1010003E0200602D4FD
:100B700009F101008146A00502D50F99681C0860A3
:100B8000B9696D1C0E9888478246002ED1DC53E06F
:100B9000002E51DDBAF1650F02D0BAF1450F4BD1ED
:100BA000A00549D5B9696D1C24F44074761E0E98D1
:100BB00088478246002E0CDD2B2804D0BAF12D0F79
:100BC00007D144F48074B9696D1C0E988847824639
:100BD000761EE00501D52D2100E02B2108F8011B30
:100BE000CDF82C8021E00DF12901761E44F400742B
:100BF00088450CD2AAF1300010F0FF0088F8000000
:100C000002D10B99884509D908F1010806E0E005F1
:100C100001D5244801E042F20F708146B9696D1C8C
:100C20000E98884782460F980560002E04DD5046D6
:100C300002F02CF90028D6D1F9690E988847FF20D8
:100C40008BF8000088F800000020069007904B46C3
:100C50006A4608A906A8FFF78BFEA00502D46FF02C
:100C600001002AE714F0240F0AD0E00714D1DDE9CF
:100C700006123868031D3B600068C0E900120BE0F3
:100C8000DDE9060100F03CF80146E00704D13868D0
:100C9000021D3A600068016028460EE7000024400B
:100CA0000000F03FF1D8FFFF426842B1016811F83F
:100CB000013B23B1521EC0E90012184670470121C2
:100CC000C160881E704742685AB1C368016843B961
:100CD00083688B4205D0491E521CC0E900120020D7
:100CE00070474FF0FF3070470EB540F2334202922A
:100CF0000022CDE900221346FFF7B3FD03B000BD8B
:100D000001F0004330B421F0004150EA010206D066
:100D10000A0DA2F56072C1F31301002A02DC30BC97
:100D200000207047440F44EAC104C100E01830BC01
:100D300000EBC250AFF300800029A8BF7047401CF1
:100D4000490008BF20F00100704710B4B0FA80FCE1
:100D500000FA0CF050EA010404BF10BC704749B11E
:100D6000CCF1200421FA04F411FA0CF118BF01218E
:100D700021430843A3EB0C01CB1D4FEA00614FEA6E
:100D8000102042BF002010BC704700EBC35010443D
:100D90000029A4BF10BC7047401C490008BF20F0C8
:100DA000010010BC7047FEE770B500254FF4803499
:100DB00000E0641E24B1802000F070FD0028F8D00F
:100DC0002CB140F2FF5000F023FD284670BD0320F7
:100DD00070BD00000548416B11F0450FFBD040F29B
:100DE000FF518163406900F00800704700800140B6
:100DF00010B500240E4A516B00E0516B11F0450F05
:100E0000FBD0480705D50324042000F001FD20464F
:100E100010BDC80705D00124012000F0F9FC2046D0
:100E200010BD40F2FF5000F0F3FC204610BD000062
:100E30000080014010B500240A4A516B00E0516B5C
:100E400011F0450FFBD0480705D50324042000F01E
:100E5000DFFC204610BD40F2FF5000F0D9FC2046D8
:100E600010BD00000080014070B506460C4600250C
:100E70001C4A506B00E0506B10F0450FFBD041074F
:100E800005D50324042000F0C3FC204670BDC00734
:100E900005D00124012000F0BBFC204670BD00F00D
:100EA000F7FCB04201D0102070BD40F2FF5000F0BE
:100EB000AFFC002000F004FD10F4604F03D081046B
:100EC00005D5132070BD000C2080284670BD41045C
:100ED00001D5102070BD000401D50F2070BD28463B
:100EE00070BD00000080014010B500204FF480313B
:100EF0000D4B5A6B01E0491E5A6B12F0450F01D1A0
:100F00000029F8D109B1510705D50324042000F0C8
:100F10007FFC204610BD5106FCD50024402000F087
:100F200077FC204610BD00000080014000F098BA18
:100F3000C10002D502490860704702494860704705
:100F40000404024000000240002904D0016841F07E
:100F500001010160704701684FF6FE7211400160A7
:100F60007047000002460020D10002D504490968FC
:100F700001E004490968114200D0012070470000D7
:100F8000000402400000024002460020D10002D5C9
:100F90000449096801E004490968114200D00120B0
:100FA000704700000004024000000240002A03D005
:100FB00002680A430260704702688A430260704711
:100FC00030B5026847F6F0739A430C6A8B68234386
:100FD000D1E904452C4323438C692343CC69234343
:100FE0004C6A23438C6A234313430360CA684260FC
:100FF0000A6882604968C16030BD70472DE9FC47CE
:101000000E460024002700970197584D4FF0080A1C
:10101000C5F800A0102068604FF04008C5F80880AF
:10102000EF604FF48069C5F81090284600F07EFC10
:101030001020FFF7CFFE002832D14D480089000470
:10104000286037206860C5F80880EF60C5F8109008
:10105000284600F06BFC3720FFF7BCFE00281FD1AC
:10106000411E05F114000160C0F804A03021816028
:101070000221C16007610121416100F0E1FB2F60A5
:1010800033206860C5F80880EF60C5F810902846E6
:1010900000F04CFC3320FFF79DFE0546280001D0F0
:1010A000BDE8FC874FF4001A6F46DFF8C88040F2B5
:1010B0002A690AE0504600F0F1FB30B100F030FC44
:1010C00047F82400641C012C04D8D8F8340010EA36
:1010D000090FEFD0082000F0E1FB20B1082000F05C
:1010E00097FB0420DCE7022000F0D8FB20B10220AF
:1010F00000F08EFB0220D3E7202000F0CFFB20B1D0
:10110000202000F085FB0620CAE74FF4007420463B
:1011100000F0C4FB20B1204600F07AFB0720BFE7B7
:1011200040F2FF5000F074FB00980099000601F4B3
:101130007F4140EA0120009901F47F0140EA11203B
:10114000009940EA1160706001980199000601F46D
:101150007F4140EA0120019901F47F0140EA11201A
:10116000019940EA11603060284699E78823002001
:1011700034000020008001402DE9F0470F46002A8E
:1011800070D00C2A6ED8066844688568C168D0F8AB
:101190001090D0F814A0BBB301EB0208B8F1180FFF
:1011A00019D3A8F11808012C16D0032C14D0052C43
:1011B00012D0072C10D0082C0ED00A2C0CD0042CE6
:1011C00011D0062C0FD0092C0DD00B2C0BD0022CDB
:1011D00010D00C2C1CD066E01F2D01D26D1C62E0DB
:1011E0000125641C5FE01E2D01D26D1C5BE0012512
:1011F000641C58E01D2D08D01C2D03D1F0B200F066
:1012000090F910B16D1C4EE00AE0012503244AE07C
:101210001F2D01D26D1C46E001250124761C42E001
:10122000914202D3A1EB02083DE0A1EB020808F1D4
:101230001808022C17D0042C15D0062C13D0082C1B
:1012400011D0092C0FD00B2C0DD0052C12D0072C4F
:1012500010D00A2C0ED00C2C0CD0032C11D0012C49
:101260001AD020E028E0012D01D96D1E1BE01F25BA
:10127000641E18E0012D01D96D1E14E01E25641EA8
:1012800011E0012D03D1F0B200F04BF908B16D1E51
:1012900009E01C25022406E0012D01D96D1E02E0A3
:1012A0001F250C24761E3E607C60BD60C7F80C8054
:1012B000C7F81090C7F814A0BDE8F08708B5012161
:1012C000302000F0D1F94FF4F850ADF800000320C1
:1012D0008DF8020018208DF803006946094800F0D7
:1012E00015F80420ADF800006946074800F00EF834
:1012F0000121880200F09CF90121022000F098F9F8
:1013000008BD000000100140001401402DE9F0412B
:101310000022CC7804F00F03E40601D58C78234337
:101320000C784FF00F0714F0FF0F4FF0010C1CD09A
:1013300005680CFA02F40E882640A64211D19600E8
:1013400007FA06F825EA080503FA06F848EA05054B
:10135000CE78282E02D0482E02D002E0446100E070
:101360000461521C082AE4D305600A88FF2A1ED9AA
:101370004568002202F108060CFA06F40E882640A1
:10138000A64210D1960007FA06F825EA080503FAE6
:1013900006F848EA0505CE78282E00D14461CE78BB
:1013A000482E00D10461521C082AE3D34560BDE8F1
:1013B000F081416170470161704710B500F070F82D
:1013C000BDE81040AFF3008010B58CB00121084695
:1013D00000F02EF915480190154802900020039066
:1013E0004FF40071049105908021069107900890B8
:1013F00020210991C9010A910B900E4C01A92046A8
:10140000FFF7DEFD00F018F8012206212046FFF765
:10141000CDFD01212046FFF797FD04480122402120
:10142000001F01F0D5FB0CB010BD000004440040CB
:10143000F02000206C00024008B54FF4C06000F0BE
:10144000EBF810208DF8000001208DF8010000213C
:101450008DF802108DF80300684600F0ABF808BD67
:1014600070B54FF480063046FFF78EFD0B4D01241A
:1014700028B16C703046BDE87040FFF759BD4FF49D
:1014800000163046FFF780FD002805D02C7030464E
:10149000BDE87040FFF74CBD70BD00001C0000208F
:1014A00030B585B00121042000F0DEF801214804A8
:1014B00000F0CCF80424ADF8104018208DF813008B
:1014C00003208DF81200144D04A92846FFF71EFFD3
:1014D0000821ADF810108DF8134004A92846FFF735
:1014E00015FF4FF4165000900020ADF80400ADF841
:1014F0000600ADF80800ADF80C000C20ADF80A00AD
:10150000064C6946204601F075FB0121204601F09A
:1015100010FB05B030BD0000000801400044004051
:10152000FEE700F5FA60810701D0002070474FF414
:10153000C871B0FBF1F201FB120131B16421B0FBC3
:10154000F1F201FB12000028F0D0012070470000EA
:1015500038B50121082000F087F82020ADF8000000
:1015600010208DF8030003208DF802000F4C69460F
:101570002046FFF7CBFE0121ADF80010694620465A
:10158000FFF7C4FE0221ADF8001069462046FFF7C0
:10159000BDFE20212046FFF70EFF01212046FFF768
:1015A0000AFF02212046FFF706FF38BD000C01406C
:1015B000FEE7704770B50F23C27801260178002A34
:1015C0001ED0144A126802F4E062C2F5E062120A08
:1015D000C2F10404D3404578A54082781A402A43DA
:1015E000120101F1E02181F80024007800F01F01D0
:1015F0008E404009800000F1E020C0F8006170BD1D
:1016000001F01F0086404809800000F1E020C0F88A
:10161000806170BD0CED00E002490843024908609A
:10162000704700000000FA050CED00E07047000074
:10163000054A002903D0516901435161704751693E
:10164000814351617047000000100240054A0029A3
:1016500003D0D1690143D1617047D1698143D16120
:101660007047000000100240054A002903D091692C
:101670000143916170479169814391617047000016
:101680000010024010B5264A516801F00C01254BAC
:10169000002927D0042927D0082927D003605168C2
:1016A00001F0F0010909204B5C5C0168E1404160F8
:1016B000546804F4E064240A1C5D21FA04F4846094
:1016C000546804F46054E40A1B5DD940C160526858
:1016D00002F44042920B144B1B1F9A5CB1FBF2F1D7
:1016E000016110BD0360DAE70360D8E7516801F4D7
:1016F0007011536803F48033022404EB914133B139
:1017000053689B0307D5094B59430160C7E7074B53
:1017100059430160C3E7034B59430160BFE7000031
:101720000010024000127A000400002000093D0071
:101730002DE9FC470646002400940194002000F0A7
:10174000BFF8800102D50E20BDE8FC872E4D69460A
:10175000288980B2FFF752FC0028F5D137202B4FA3
:101760004FF0060A4FF040094FF48068012E22D056
:101770000199C90345D52989090439607860C7F8FA
:101780000890FC60C7F81080384600F0CFF837208A
:10179000FFF720FB0028D7D13C60C7F804A0C7F8AA
:1017A0000890FC60C7F81080384600F0BFF80620AB
:1017B000FFF710FBC8E70199490320D529890904DF
:1017C00039607860C7F80890FC60C7F810800F484F
:1017D00000F0ACF83720FFF7FDFA0028B4D1022062
:1017E0003860C7F804A0C7F80890FC60C7F81080FC
:1017F000064800F09BF80620FFF7ECFAA4E7252046
:10180000A2E72520A0E70000340000208823002064
:1018100001498863704700000080014001498863E6
:1018200070470000008001400149086070470000D7
:10183000A000304201490860704700008C0530422A
:1018400010B5094902684A6242688A62CA6A22F08F
:10185000F702D0E902342343D0E904400443234390
:101860001343CB6210BD00000080014006480021F8
:10187000016041608160C16041628162C162034A6E
:101880008263C1637047000000800140FF07C00011
:1018900001480069C0B27047008001400146002045
:1018A000024A526B0A4200D001207047008001407A
:1018B0000248006800F0030070470000008001400B
:1018C00008B50349084400900098006808BD00006E
:1018D0001480014000F0AABB054A002903D0D16B57
:1018E0000143D1637047D16B8143D16370470000DE
:1018F0000080014030B5094B596847F6FF629143BB
:10190000027D8468C568224344682C4322430468EE
:101910000069224302430A435A6030BD00800140FF
:1019200001480068704700008080014010B50849F8
:1019300002688A60CA686FF30A02D0E9013423435F
:10194000D0E90340044323431343CB6010BD0000A0
:101950000080014004490A6822F003020A600A6814
:1019600002430A6070470000008001400148FFF711
:10197000F9BA00000020001070B58CB005460C4686
:101980001148FFF7D5FA114E00213046FFF7DCFA77
:101990000F480190029500200390A1080491059042
:1019A000802106918900079189000891099089009A
:1019B0000A910B9001A93046FFF702FB0121304646
:1019C000FFF7C2FA0CB070BD00F0001044040240F2
:1019D0008080014070B58CB004460D461248FFF778
:1019E000A7FA124E00213046FFF7AEFA10480190D8
:1019F000029410200390A8080490002005908021F4
:101A000006918900079189000891099089000A913F
:101A10000B9001A93046FFF7D3FA01213046FFF7BA
:101A200093FA0CB070BD000000F0001044040240B6
:101A30008080014008B5012000909DF8000008BD9D
:101A40002DE9F041014600241E484068032805D0D6
:101A500038B1012805D0022803D031E02720BDE8A5
:101A6000F081B1F5805F0ED04FF400670026164D6F
:101A70004FF00108B94213D10120FFF759FE044687
:101A8000200002D01CE02720E9E785F814802E60B2
:101A90006E60AE60EF602E610B48FFF72BFF0FE02A
:101AA0000020FFF745FE0446200009D185F8148088
:101AB0002E606E60AE60EE602E610348FFF71AFF85
:101AC0002046CCE734000020702300202DE9F043AD
:101AD0008D494D6880F84E500989A0F84C10DFF808
:101AE0002C82D8F800100A0E93090370C2F3830306
:101AF000437002F0030282700A0CC2700A0A02717B
:101B00004171D8F80420110E0901C180C2F30741C8
:101B1000C38843EA1113C38001F00F010172C2F3BD
:101B20000721CB094372C1F380138372C1F34013C1
:101B3000C372C1F3001303734FF0000C80F80DC0A3
:101B4000434601279E68330EC6F30744C6F30729B0
:101B5000002D04D0012D02D0022D2BD03CE08907AE
:101B6000090D0161D1B2026942EA81010161016995
:101B700041EA93110161C3F3C201017503F007014A
:101B8000417561098175C4F38201C175A107490FCF
:101B900001764946027E42EAD112027603695B1C55
:101BA000027E921C9340047A07FA04F28264534343
:101BB000436411E09106890A0161016941EA032148
:101BC000016101692143016149460269521CD20445
:101BD00042644FF4007282641C30C1F3801200F83A
:101BE000032C8906490E00F8021CF1B210F8022CF1
:101BF00042EAD11200F8022C01F07F0100F8011C2A
:101C0000D8F80C20110ECB090370C1F341134370B7
:101C1000C1F3820383708907090FC170C2F30741C2
:101C2000C37843EA9113C370C1F34013037180F882
:101C300005C001F001018171C2F30721CB09C37115
:101C4000C1F380130372C1F340134372C1F3001355
:101C50008372C1F38103C37201F003010173D1B236
:101C6000490841738773294A103211680B0E0374B7
:101C70000B0C1B024382C1F30723448A1C4344829A
:101C80000906416151680B0E446944EA034343610C
:101C9000C1F30743446944EA03234361C1F30723C3
:101CA00044691C434461017691680B0E43760B0C2A
:101CB0001B06C361C1F30723C46944EA0343C3613C
:101CC000C9B2C36943EA0121C161D1680A0EC3697F
:101CD0001343C361C1F3074290F8203043EA121363
:101CE00080F820301207120D4284C1F30722438C82
:101CF00013434384C9B2490880F8241080F8257042
:101D00006046BDE8F083000034000020F02200208F
:101D100008B500200090684600F026FA08B1FF20C0
:101D200008BD0098C0F3432008BD10B5FFF7F0FFD1
:101D3000042803D0FF2803D0012010BD002010BDCF
:101D4000022010BD10B5FFF7B9FAFFF78FFD00F0C4
:101D5000B5F8002822D100F025F800281ED110483F
:101D6000012101750021016041608160C160016154
:101D7000FFF7C0FD0A485038FFF7A8FE30B9084801
:101D80005038B0F84C00000400F0D8F9002805D114
:101D9000BDE810404FF40060FFF752BE10BD0000D8
:101DA000702300202DE9F84F002401200090FFF758
:101DB0007FFDE0B1DFF8FC8000263F4DD8F804003D
:101DC0004FF0C0094FF4806704282AD02E6002200B
:101DD0006860C5F80890EE602F612846FFF7A6FD01
:101DE000FFF706F80446200003D0BDE8F88F252051
:101DF000FBE70020FFF764FDDFF8BCA0AAF1880A2A
:101E0000CAF800000420FFF75BFDCAF804000820B0
:101E1000FFF756FDCAF808000C20FFF751FDCAF87D
:101E20000C00D8F8040028B1012803D0062801D0FE
:101E3000022811D12E60032068604020A860EE6067
:101E40002F611D48FFF772FD69460320FFF70CF86C
:101E50000446200000D0C8E7D8F80400042826D0A3
:101E6000BDF80000C8F80800000428600920686078
:101E7000C5F80890EE602F610F48FFF757FDFEF799
:101E8000B7FF0446200000D0AFE70020FFF718FDA1
:101E9000094D983D28600420FFF712FD6860082076
:101EA000FFF70EFDA8600C20FFF70AFDE860204652
:101EB0009BE7000034000020882300202DE9F05F1C
:101EC0004FF0000B0024A24600275548B2210175AF
:101ED0004FF00008C0F80080C0F80480C0F8088007
:101EE000C0F80C80C0F81080FFF704FD0320FFF756
:101EF00031FD0120FFF798FC494E1836C6F80080E6
:101F0000C6F80480C6F80880C6F80C804FF48069D3
:101F1000C6F810903046FFF709FDFEF745FF002890
:101F20005FD14FF4D5703060082070604025B560F7
:101F3000C6F80C80C6F810903046FFF7F7FCFEF7A5
:101F4000D3FF18B3C6F8008037207060B560C6F8BC
:101F50000C80C6F810903046FFF7E8FC3720FEF7FB
:101F600039FFC6F80080372070604020B060C6F8A6
:101F70000C80C6F810902A481830FFF7D7FC37209D
:101F8000FEF728FF0546280034D046E02548012109
:101F900041608F07E5E7C6F8008037207060402574
:101FA000B560C6F80C80C6F810901D481830FFF7D1
:101FB000BDFC3720FEF70EFF002812D11A48384327
:101FC000306029207060B560C6F80C80C6F81090AB
:101FD00013481830FFF7AAFCFEF72CFF054628002F
:101FE00001D0BDE8F09F0020FFF76AFC83464FEA6E
:101FF000DB7A641CBAF1000F03D14FF6FF70844204
:10200000C9D34FF6FF70844201D31B20E9E71BF0D0
:10201000804F02D00348022141602846E1E70000DA
:1020200070230020340000200000108070B50E4C9A
:10203000E168002001290DD020704FF480752846FA
:10204000FFF7ECFB00212846FFF746FC012020614A
:10205000207870BD0549886040F24C40C8600C2073
:10206000FEF7B8FE2070E8E7340000200080014051
:102070002DE9FF5F0C4615461E462D484FF000081F
:1020800080F80080C0F810804FF00109C0F80C9073
:102090002849C1F82C804068022801D10502640A51
:1020A000254F3D60102078604FF0400AC7F808A027
:1020B000C7F80C804FF4806BC7F810B03846FFF7B4
:1020C00035FC1020FEF786FE002821D1411E07F1C5
:1020D000140001606E434660902181600221C1605E
:1020E000C0F81080C0F81490FFF7AAFB3C601220E3
:1020F0007860C7F808A0C7F80C80C7F810B0384659
:10210000FFF714FC1220FEF765FE04461CB12046C2
:1021100004B0BDE8F09F01210802FFF7DDFB0120BC
:10212000FFF788FB31460098FFF726FC2046EFE7D3
:1021300034000020008001408823002010B50949A8
:10214000086007204860402088600020C8604FF485
:10215000806008610846FFF7E9FBBDE810400720F2
:10216000FEF738BE8823002070B505460748084CA6
:1021700000890004A06040F24D40E0600D20FEF7B1
:1021800029FE002801D16169296070BD340000205A
:102190000080014070B50025074CFFF7E7FB20B930
:1021A000206910B920780028F7D0207808B120786D
:1021B00070BD284670BD00003400002070B50025B9
:1021C000094CFFF7D3FB20B9206910B9207800280B
:1021D000F7D0207808B1207870BD40F2FF50FFF7AB
:1021E00017FB284670BD0000340000202DE9FF4F8A
:1021F00081B00E4615461F464FF00008CDF800800E
:10220000DFF8F89089F80080C9F810800120C9F83B
:102210000C003B48C0F82C80D9F80400022801D1FA
:102220000502760A374C2560102060604FF0400AA6
:10223000C4F808A0C4F80C804FF4806BC4F810B048
:102240002046FFF773FB1020FEF7C4FD002851D194
:10225000B9F808000004206037206060C4F808A0C6
:10226000C4F80C80C4F810B02046FFF75FFB37209D
:10227000FEF7B0FD00283DD1276017206060C4F84C
:1022800008A0C4F80C80C4F810B02046FFF74EFB3D
:102290001720FEF79FFD00282CD1266019206060D2
:1022A000C4F808A0C4F80C80C4F810B02046FFF7AA
:1022B0003DFB1920FEF78EFD00281BD1401E143473
:1022C00020606F4367609020A060C4F80C80C4F861
:1022D0001080012060612046FFF7B2FA0121080258
:1022E000FFF7FAFA0120FFF7A5FA39460198FFF740
:1022F00071FB404605B0BDE8F08F000034000020BF
:102300000080014088230020002904D0018841F08A
:10231000400101807047018821F040010180704731
:102320002DE9F04104460F461546114E0121304675
:10233000FFF73FF8032000F01BF9C7F3074000F058
:1023400017F9C7F3072000F013F9F8B200F010F9FD
:1023500004E0FF2000F00CF904F8010B6D1EADB293
:10236000F7D23046BDE8F0410121FFF724B8000064
:10237000001001402DE9F04706460D46E8B2414203
:10238000CFB2140A02F0FF094FF48078002812D06F
:10239000E8B24042C0B205EB000A34B3D01B80B2B1
:1023A000040A00F0FF093A462946304600F04CF88E
:1023B00055463E4439E074B929463046BDE8F047F9
:1023C00000F042B842462946304600F03DF805F597
:1023D000807506F58076641EE4B2F3D24A4629463B
:1023E0003046BDE8F04700F02FB8B9450ED9A9EB4B
:1023F0000700C4B23A462946304600F025F8514657
:10240000F0192246BDE8F04700F01EB829463046D4
:10241000BDE8F04700F018B842462946304600F0C3
:1024200013F805F5807506F58076641EE4B2F3D2E4
:10243000B9F1000F06D04A4629463046BDE8F047BC
:1024400000F002B8BDE8F0872DE9F04105460F46DF
:10245000144600F0DBF8154E01213046FEF7A9FFC7
:10246000022000F085F8C7F3074000F081F8C7F3B9
:10247000072000F07DF8F8B200F07AF8B015844239
:1024800008D904460AA000F019FC03E0287800F0FF
:102490006FF86D1C641EA4B2F8D201213046FEF71D
:1024A0008AFFBDE8F04100F09BB800000010014039
:1024B0003C3C2D464C4153482D4552524F522D3EE7
:1024C0003E205350495F464C4153485F5061676519
:1024D000577269746520746F6F206C617267652133
:1024E0000A0000002DE9F0410E4F01213846FEF7A9
:1024F00060FF9F2000F03CF8FF2000F039F8044610
:10250000FF2000F035F80546FF2000F031F80646C0
:1025100001213846FEF74FFF200440EA05203043F2
:10252000BDE8F0810010014070B5044600F06EF87F
:1025300000F056F80D4D01212846FEF73AFF202005
:1025400000F016F8C4F3074000F012F8C4F30720B7
:1025500000F00EF8E0B200F00BF801212846FEF77B
:102560002AFFBDE8704000F03BB8000000100140B9
:102570002DE9F0410746184C4FF480556560174E21
:1025800009E06068411E616005D2002000F08AF811
:10259000C0B2BDE8F0810221304600F05BF80028AF
:1025A000EFD03946304600F05EF8656008E06168BB
:1025B0004A1E626004D2012000F074F8C0B2E8E75D
:1025C0000121304600F046F80028F0D0304600F0F7
:1025D00048F8C0B2DDE700002C00002000300140C8
:1025E00010B5094C01212046FEF7E3FE0520FFF758
:1025F000BFFFFF20FFF7BCFFC007FAD12046BDE8B0
:1026000010400121FEF7D7BE0010014010B5074C65
:1026100001212046FEF7CDFE0620FFF7A9FF204648
:10262000BDE810400121FEF7C6BE000000100140C9
:1026300010B5074C01212046FEF7BBFEAB20FFF78B
:1026400097FF2046BDE810400121FEF7B4BE000010
:10265000001001400246002012890A4200D00120E9
:102660007047808970478181704730B5028802F4D5
:1026700041530A884C88CD8822438C882C432243BE
:102680000C8922434C8922438C892243CC892243E2
:102690001A430280828B22F400628283098A0182BB
:1026A00030BD000010B5014602A000F007FB00207D
:1026B00010BD00003C3C2D464C4153482D45525224
:1026C0004F522D3E3E2053504920B5C8B4FDB3AC07
:1026D000CAB1216572726F72436F6465203D202517
:1026E000640A0000704700F001B800000CB5002239
:1026F000019200922748016841F4803101604FF453
:10270000A063016801F4003100910199491C019115
:10271000009911B901999942F3D10168890302D551
:102720000121009100E000920099012930D11A495D
:102730000A6842F010020A600A6822F003020A6086
:102740000A6842F002020A604168416041684160E3
:10275000416841F480614160416821F47C1141602D
:10276000416841F4E8114160016841F08071016005
:1027700001688901FCD5416821F00301416041688D
:1027800041F0020141604168C1F381010229FAD19F
:102790000CBD0000001002400020024010B50F48A0
:1027A000016841F00101016041680D4A114041603A
:1027B00001680C4A11400160016821F48021016028
:1027C000416821F4FE0141604FF41F018160FFF771
:1027D0008AFF05494FF00060086010BD00100240FC
:1027E0000000FFF8FFFFF6FE08ED00E070B586B0D0
:1027F00001210803FEF738FF0121D420FEF734FF42
:102800000124ADF8004003208DF8020010208DF85F
:102810000300274D69462846FEF778FD2021ADF8D4
:10282000001018218DF80310224E69463046FEF73D
:102830006DFD4021ADF8001069463046FEF766FD9B
:102840008021ADF8001069463046FEF75FFD01219A
:102850002846FEF7B0FD0020ADF804004FF4827169
:10286000ADF80610ADF808000221ADF80A10ADF879
:102870000C400902ADF80E10ADF81000ADF81200D2
:102880000720ADF814000C4C01A92046FFF7EDFE1F
:1028900001212046FFF738FD4FF4FA70401E000476
:1028A000000CFBD1FFF7C4FE00F032F806B070BD9B
:1028B000001001400008014000300140002810D005
:1028C000012804D0022806D003280AD107E04FF4DB
:1028D000C060086005E04FF48050088001E00120EE
:1028E000086000207047000010B5084B1B78DB071C
:1028F00001D0032010BD01F500714FF6FF7303EA0C
:1029000002320903FFF70CFD002010BD2C0000204F
:1029100010B5FFF7E7FD074A0749904204D1087850
:1029200020F00100087010BD087840F00100087028
:1029300010BD00001740EF002C00002070B50546C8
:1029400001F500710C032046FFF7EEFD4FF48052B5
:1029500021462846FFF70EFD002070BD012070477C
:1029600008B54FF4C060FEF757FE31208DF8000027
:1029700001208DF8010000218DF802108DF8030070
:102980006846FEF717FEFFF7DDF90C4960B148789D
:1029900040F001004870FFF7E1FF50B1487820F0A7
:1029A00004004870487808BD487820F0010048705D
:1029B000F1E7487840F004004870F3E73400002065
:1029C000002812D00A4B01289A6C0AD0022802D0A3
:1029D00003280AD103E04FF40070088005E00A6084
:1029E00003E0586CB0FBF2F0086000207047000074
:1029F000202300202DE9F041ADF5007D06460C4670
:102A000015461D484078C00704D003200DF5007D11
:102A1000BDE8F081B0074FF4007216D00027904651
:102A20000EE02146641C01226846FFF7E3FF0746DB
:102A30004FB9424669463046FDF7A3FB06F50076DE
:102A40006D1E681CEDD13846E0E761022B4630462A
:102A5000FFF70EFB08B10120D8E7FFF79BFB044608
:102A6000FFF763F90128FBD0022800D00CB1012048
:102A7000CCE70020CAE700003400002000B5FEF7D4
:102A8000D9FF012801D0012000BDFFF767FF0649EB
:102A900028B1487820F004004870487800BD487894
:102AA00040F004004870F8E734000020F0B5ADF5C0
:102AB000017D06460C461546FFF750FF38B1FEF77C
:102AC000B9FF012805D003200DF5017DF0BD0220DE
:102AD000FAE7B0074FF4007215D0002017460EE059
:102AE0003A46314601A8FDF74CFB2146641C012201
:102AF00001A8FFF7DBFF0028E6D106F500766D1E82
:102B0000691CEDD1E0E761022B463046FFF76EFB12
:102B100008B10120D8E7FFF751FB0446FFF705F99C
:102B20000128FBD0022800D00CB10120CCE7002006
:102B3000CAE7002904D0818941F40051818170479E
:102B4000818921F4005181817047000010B586B061
:102B500001210420FEF788FD01218803FEF784FD92
:102B60004FF40070ADF8140018208DF81700032002
:102B70008DF81600144C05A92046FEF7C7FB211559
:102B8000ADF8141004218DF8171005A92046FEF7A2
:102B9000BDFB4FF4E13001900020ADF80800ADF826
:102BA0000A00ADF80C00ADF810000C20ADF80E00D6
:102BB000064C01A9204600F01DF801212046FFF730
:102BC000B8FF06B010BD0000000801400038014009
:102BD000002A03D0828A0A4382827047828A8A430B
:102BE000828270470246002012880A4200D00120EB
:102BF0007047000030B585B004460D46208A4CF67B
:102C0000FF710840E98801432182A0894EF6F31143
:102C10000840A9882A8911436A8902431143A18186
:102C2000A08A4FF6FF410840A9890143A182684666
:102C3000FEF728FD1D48844201D1039800E0029868
:102C4000A189090408D500EBC00101EB0010296837
:102C50004900B0FBF1F007E000EBC00101EB001010
:102C600029688900B0FBF1F06422B0FBF2F10901A0
:102C70000B096FF018056B4300EB8300A3891D045B
:102C80004FF0320307D503EBC000B0FBF2F000F0C9
:102C90000700084306E003EB0010B0FBF2F000F081
:102CA0000F000843208105B030BD0000003801400E
:102CB000C1F3080181807047FEE700000FB4054BA7
:102CC00010B503A9044A029800F038F910BC5DF869
:102CD00014FB0000B14800088C0000207CB5491EA0
:102CE0001C461546CDE90001044B6A46214628469C
:102CF00000F024F9009A002111707CBD6B360008A9
:102D0000004870479800002002E008C8121F08C160
:102D1000002AFAD170477047002001E001C1121F5C
:102D2000002AFBD1704700002DE9FF5FDDE902209A
:102D3000010DDDF838B0024318D044F61050A1F26E
:102D4000FF3141430D140F98012820D0A5EB0B0053
:102D5000401C5FEA000A4FF00004474EDFF81C9168
:102D6000A046504616D5CAF1000728E00F98012466
:102D700043A2012808D0002100980F9BC0E9002140
:102D8000C0E90243BDE8FF9F6FEA0B01F4E7CBF116
:102D90000000DEE7074612E0F80707D02246334678
:102DA00040464946FDF70EFB80468946224633469B
:102DB00010461946FDF706FB04460E467F10002F0D
:102DC000EAD1DDE90201BAF1000F42464B4602DAD0
:102DD000FDF7F8FA01E0FDF767FB04460E46002216
:102DE000284BFDF701FC03D84FF0FF30014607E008
:102DF0000022254B20463146FDF73DFAFDF77FFDC9
:102E0000102409E0002C0ADB0A220023FDF71AFC3B
:102E1000019B30321A55641E50EA0102F2D1641C43
:102E2000019AC4F1110314440F9A012A03D001221C
:102E300008430DD10AE0084304D000204FF0110BE5
:102E40000F9080E7A3EB0B056D1E0DE05B4504DDE5
:102E50004FF0000205F1010504E003DA4FF0000233
:102E6000A5F10105002AECD000980F99C0E90231C4
:102E7000C0E9004586E70000000024400000F03F64
:102E8000300000000000F0430000E03F30380A2826
:102E900001D201207047002070470000FEB50024D9
:102EA00002F114052E1F331F06290BD0082914D058
:102EB000092912D00A2910D010A002F047FBCCB18A
:102EC0000020FEBDCDE9006515A203F0C5FC032876
:102ED00001D00024F3E70124F1E71832CDE90065C1
:102EE000029212A203F0B8FC042801D00024E6E705
:102EF0000124E4E74FF0FF30FEBD00005061727323
:102F000065206F662074696D65206572726F72202E
:102F100028666F726D6174206572726F722921006C
:102F20002532642532642532640000002532642590
:102F300032642532642E2564000000002DE9FF4F25
:102F400095B09B468946064600250FE2252877D195
:102F500000242746F84A0121059400E0044316F8AE
:102F6000013F203B01FA03F01042F7D130782A28C4
:102F700011D06FF02F033078A0F13002092A16D853
:102F8000059A44F0020402EB820203EB4202104471
:102F9000761C0590EFE759F8042B0592002A03DA16
:102FA000504244F40054059044F00204761C3078FA
:102FB0002E2816D116F8010F44F004042A280DD04B
:102FC0006FF02F023078A0F13003092B09D807EBFE
:102FD000870302EB4303C718761CF3E759F8047B19
:102FE000761C30786C280FD006DC4C2817D0682867
:102FF0000DD06A2814D104E0742810D07A280FD19B
:103000000DE044F400140AE044F4801401E044F4B8
:1030100040147278824202D104F58014761C761C2A
:10302000307866280BD013DC582877D009DC0028CC
:1030300075D04528F6D04628F4D047281AD19DE10E
:1030400018E0632835D0642879D0652812D195E13D
:10305000702873D008DC6728F1D069286FD06E28FB
:103060000DD06F2806D1B5E073282CD0752875D007
:10307000782874D05A46179990476D1C75E1C4F3AF
:103080000250022809D003280DD0D9F800100428D6
:103090000DD00D6009F1040967E1D9F80010EA17B5
:1030A000C1E90052F6E7D9F800100D80F2E70D7083
:1030B000F0E719F8041B8DF8001000208DF80100CE
:1030C000EA46012003E059F804AB4FF0FF306107F6
:1030D0004FF0000102D40DE008F101018846B94229
:1030E0000FDA8045F8DB1AF808100029F4D108E05F
:1030F00008F1010188468142FADB1AF8081000291C
:10310000F6D105985B46A0EB080721463846179A8A
:1031100000F094FA284400EB080507E04DE029E1AF
:103120000DE01AF8010B5A4617999047B8F10108BB
:10313000F7D25B4621463846179A13E142E00A224D
:103140000092C4F302524FF0000A022A08D059F844
:1031500004CB032A4FEAEC710AD00DE029E02AE003
:1031600009F1070121F00702F2E802C1914609E0E6
:103170000FFA8CFC4FEAEC71042A03D14FFA8CFC55
:103180004FEAEC71002907DA0A460021DCF1000C55
:1031900061EB02012D2202E0220504D52B228DF8DD
:1031A0000420012203E0E20701D02022F7E7904645
:1031B00059E00A2102E010220DE010214FF0000A30
:1031C00000910BE010224FF0000A44F0040408279D
:1031D000009203E008224FF0000A0092C4F302526A
:1031E000022A05D059F804CB0021032A08D009E0AF
:1031F00009F1070121F00702F2E802C1914605E05A
:103200001FFA8CFC042A01D10CF0FF0C4FF00008CF
:10321000220728D5702806D0009B83F0100353EABC
:103220000A0305D00EE040228DF80420012208E0B8
:103230005CEA010206D030228DF804208DF80500EA
:1032400002229046009B83F0080353EA0A030AD146
:103250005CEA010201D1620705D530228DF8042015
:103260004FF001087F1E582804D034A003900EA808
:1032700002900DE036A0F9E753466046009AFDF74C
:10328000E1F984460398825C0298401E0290027025
:103290005CEA0100F0D1029806A9081A00F1200AA0
:1032A000600702D524F4803400E00127574502DD91
:1032B000A7EB0A0000E0002000EB0A01009005984F
:1032C0004144401A0590E00306D45B462146179A14
:1032D000059800F0B3F90544002706E001A85A4616
:1032E000C05D179990476D1C7F1C4745F6DBE003D6
:1032F0000CD55B462146179A059800F09FF90544C6
:1033000004E030205A46179990476D1C0099481EDA
:1033100000900029F5DC08E0029802995A460078EE
:10332000491C0291179990476D1CBAF10001AAF14E
:10333000010AF1DC65E10000092801003031323377
:1033400034353637383961626364656600000000E1
:1033500030313233343536373839414243444546CB
:103360000000000000F058F90544761C3078002871
:103370007FF4ECAD19B02846BDE8F08F620700D4A9
:10338000062709F1070222F0070CFCE80223E146B8
:1033900003F000485FEA080C02D00FF2702C0DE039
:1033A0005FEA045C02D50FF2682C07E05FEAC47C98
:1033B00002D00FF2602C01E0AFF2700C4FF0FF383A
:1033C00023F00043CDF850C065280CD006DC45281A
:1033D00009D046281DD047283DD13DE0662818D0A9
:1033E00067287ED138E00021112F01DB112000E099
:1033F000781CCDE9000106A90EA8FFF795FCDDE9D0
:103400000F010E9A03910021009207F1010A049125
:103410004DE04FF000400097CDE9011006A90EA83D
:10342000FFF782FCDDE90F0203920E9B1199002247
:10343000DDF80CA00093049211B9791C00EB010A8D
:10344000B7EB0A0004D4C0F1FF3007F1010A049081
:10345000AAEB0700019044E0012F00DA01270021C8
:10346000112F01DD112000E03846CDE9000106A949
:103470000EA8FFF759FCDDE90F010E9A0391002118
:1034800004910092BA4621070CD40399514500DA01
:103490008A46BAF1010F05DD009AAAF10101515CDB
:1034A000302908D0B84202DA10F1040F06DA0121FF
:1034B000CDE9011015E0AAF10101E9E7002805DCDA
:1034C000049901440491AAEB000102E0411C51451A
:1034D00000DD8A460499401A401C01904FF00040DC
:1034E0000290200704D40198504501DBCDF80480F8
:1034F00000208DF84F0002980DF14F07B0F1004FFA
:1035000025D02B200E9002984FF0020800280CDAEC
:10351000404202902D200E9007E00A210298FDF70C
:103520007BF83031029007F8011DB8F10001A8F1D5
:103530000108F2DC02980028EFD1791E0E9808707D
:10354000307800F0200040F0450007F8020D12A886
:10355000C01B00F107081498007800B1012000EBAF
:103560000A01019801EBE07105984144401A401EA0
:103570000590E00306D45B462146179A059800F0B3
:103580005DF805441498007818B15A461799904789
:103590006D1CE00324D55B462146179A059800F080
:1035A0004DF805441CE00498002807DBDDE9030121
:1035B000884203DD0098405C179901E0179930209C
:1035C0005A469047049805F10105401C0490019863
:1035D000401E019004D12E205A46179990476D1C29
:1035E000BAF10001AAF1010ADDDC05E017F8010BD0
:1035F0005A46179990476D1CB8F10001A8F10108CF
:10360000F4DC5B462146179A0598ABE62D000000D6
:103610002B000000200000002DE9F04104460025A9
:103620001E461746880404D405E039462020B047DA
:103630006D1C641EF9D52846BDE8F0812DE9F041E6
:10364000044600251E469046C80301D5302700E0F9
:103650002027880404D505E041463846B0476D1C54
:10366000641EF9D52846BDE8F0814A68002A06D0D4
:103670000A68531C0B6010704868401E4860704711
:1036800010B5044600202071401EE062204601F083
:103690002DFB08B1032010BD94F82E0294F82F12D0
:1036A00040EA0120A0F52A41553901D0022010BD81
:1036B00014F8660FE178627840EA0161A078663C10
:1036C000000440EA022001430B48B0EB012F01D176
:1036D000002010BD14F8821FE278637841EA02618D
:1036E000A278120442EA03221143B0EB012F01D168
:1036F000002010BD012010BD0046415400E0401CD8
:1037000002780AB18A42FAD100787047891E42696C
:10371000921E8A4201D800207047826A807801FB9D
:10372000002070472DE9F05F81460E46B07EF17EA5
:1037300050EA012002D00020BDE8F09F307800F070
:103740003F00401E00EB800101EBC004012000257A
:10375000DFF860A006F101081AF80510725C11F894
:10376000081042EA012788B1FF2C0BD2384600F03E
:1037700069FE83462046641C39F8100000F062FEA2
:10378000834501D00020D7E7384605E0A7F57F4103
:10379000FF3901D00020CFE76D1C0D2DDCD331782F
:1037A000490605D520B139F8140008B10020C3E757
:1037B0000120C1E7E66D00082DE9F04106460F46FD
:1037C000002F08D03946304601F0F0F8022809D21F
:1037D0000120BDE8F081F56815B17069A84207D8ED
:1037E000012505E0411CF4D071698142F1D83D46C4
:1037F0002C46641C7069A04204D80224022D01D218
:103800000020E6E72146304601F0D0F838B1411CEF
:10381000DFD00128DDD0AC42EBD10020D9E76FF03A
:1038200070422146304603F019F928B927B12246E3
:103830003946304603F012F920B101280DD0012499
:103840002046C6E7F4603069411CF9D0401E306163
:10385000707940F001007071F2E74FF0FF34EFE74C
:103860002DE9F35F8846D8F8005000E06D1C2878F9
:103870002F28FBD05C28F9D00098D0F81C900024A9
:1038800026463046761C285C202808D32F2806D0F0
:103890005C2804D0FF2C09D30620BDE8FC9FA919A1
:1038A000C8F80010202817D204261FE0C0B201215A
:1038B00000F0AEFD074647B1802F08D239465EA022
:1038C000FFF71CFF18B10620E7E70620E5E72046D2
:1038D000641C29F81070D4E7002607E0601E39F850
:1038E0001000202801D02E2802D1641E002CF5D112
:1038F00054B1002029F8140000980B22202180697F
:1039000001F0ECF9002702E00620C6E77F1C39F839
:1039100017002028FAD02E28F8D01FB146F0030651
:1039200000E0641E24B1601E39F810002E28F8D182
:103930004FF00008C2464FF0080B38467F1C39F89C
:10394000105005B3202D03D02E2D04D1A74202D054
:1039500046F00306F1E7DA4501D2A74219D1BBF1DF
:103960000B0F0ED0A74201D046F003060BD8274616
:103970004FF0080A4FF00B0B4FEA88604FEA1068CF
:10398000DBE746F00306009880690178E5292ED030
:103990002FE0802D0BD30021284600F039FD05468D
:1039A0001DB12848284410F8805C46F0020625B175
:1039B000294625A0FFF7A2FE18B15F2546F00306B1
:1039C0000EE0A5F14100192802D848F0020807E0EE
:1039D000A5F16100192803D848F00108203DADB2D7
:1039E0000098816950460AF1010A0D54A5E70521A6
:1039F0000170BBF1080F03D14FEA88604FEA1068ED
:103A0000C8F38100032803D06FEA0801890701D1B8
:103A100046F00206B10709D408F00301012901D1DB
:103A200046F01006012801D146F00806009880698A
:103A3000C672002031E70000222A3A3C3E3F7C7FDC
:103A400000000000666D00082B2C3B3D5B5D000014
:103A500070B505460E460021284600F08AF988B95F
:103A600000242969286801F041F958B96969097881
:103A7000E5290BD051B100240121284600F06DF852
:103A80000028EED0042800D1072070BD641CB44289
:103A9000F8D0F1E72DE9F04704460021204600F078
:103AA00068F9002857D1FF26B1464FF6FF7AA4F8EF
:103AB00020A02169206801F019F980465FEA08001A
:103AC00048D167693D7865B1F87A00F03F00E52D8F
:103AD00003D0010708D50F2806D0FF26A4F820A0A0
:103AE00030E04FF0040835E00F2801D0CEB11DE0E2
:103AF000E06938B3690606D597F80D9025F04005C2
:103B00002E46E1882184B54208D1797B494505D10B
:103B10003946FFF707FE08B1761E00E0FF26F6B231
:103B200010E0384603F079F8484513D0A169C87A07
:103B3000C00704D10B22384601F0BAF850B1FF2675
:103B4000A4F820A00021204600F007F880465FEA94
:103B50000800AED04046BDE8F0872DE9F0410446AC
:103B60000E46E7887F1C3804000C0AD0216941B159
:103B7000206842895209B7FBF2F302FB13721AB1B3
:103B800066E00420BDE8F081491C2161E16871B163
:103B9000428983785209B7FBF2F25B1E1A4257D171
:103BA00000F004FF0546012D06D80220EAE700894F
:103BB000B8424DD80420E5E7681C14D0206841695C
:103BC000A9423FD88EB1E168FFF7F6FD054628000F
:103BD0000DD0012D0DD0681C0DD0206803F084F8A5
:103BE00058B10120CEE70120CCE70420CAE7072026
:103BF000C8E70220C6E70120C4E720680021428907
:103C0000303001F06BF829462068FFF77FFD21680E
:103C1000C86200264FF001080CE080F8048020689C
:103C200003F062F808B10120ACE72068C16A491CC2
:103C3000C162761C20688178B142EED82168C96AD9
:103C4000891BC162E56029462068FFF75FFD20619E
:103C5000E780206841894909B7FBF1F201FB127145
:103C6000302202EB41110844606100208AE72DE90F
:103C7000FE430446A769E6690C223946684601F00E
:103C800024F89DF80B00C00718D00020F872E061FE
:103C900001252B4632466946384600F043FE204651
:103CA000FFF7F8FE10B96D1C642DF2D3642D0BD014
:103CB00004280AD19DF80B00F872E6619DF80B000C
:103CC00080070ED5002003E00720BDE8FE83401CDE
:103CD00036F810100029FAD119300D21B0FBF1F699
:103CE00000E0012631462046FFF7B2FE05460127D7
:103CF0001DBB761E21D0E088811B204600F039F8DC
:103D00000546280019D1A06902F087FF8046216985
:103D1000206800F0EBFF05467DB9F2B243466169C9
:103D2000E06900F059FD2068077100212046FFF787
:103D300014FF05460DB9761EE9D1C5B92169206881
:103D400000F0D4FF0546280011D12022002160692F
:103D500000F0C4FFD4E905010B2200F0B6FFA06912
:103D60006169C07A00F0180008732068077128465E
:103D7000ABE770B504460D46E580A368012B03D080
:103D800020684169994201D8022070BD1BB90178B1
:103D9000032900D1436A23B1418980784E09464303
:103DA00018E00189A94201D8022070BD406A17E0DD
:103DB0001946206800F0FAFD0346581C07D0022B74
:103DC00003D320684069984203D8022070BD0120C7
:103DD00070BDAD1BB542EBD219462068FFF796FCCB
:103DE000E36098B121684A895209B5FBF2F21044A8
:103DF000206148894009B5FBF0F200FB12503022E7
:103E000002EB401008446061002070BD022070BDCC
:103E100001460120002903D0012903D1FEF7E6BCA9
:103E2000FEF79EBD704730B40C4603461146042091
:103E3000002B05D0012B07D1204630BCFEF73EBD3C
:103E4000204630BCFEF7BCBD30BC704730B40D46D8
:103E5000114604461A460420002C05D0012C07D137
:103E6000284630BCFEF740BD284630BCFEF7C2BD38
:103E700030BC704701460120002903D0012903D13D
:103E8000FEF746BDFEF7FABD704730B40D46114649
:103E900004461A460420002A06D044B1012C04D15D
:103EA000284630BCFEF74ABD042030BC7047284687
:103EB00030BCFEF7FBBD704710B50446204600F04D
:103EC00059FA002806D1204602F039FF002801D116
:103ED0000021216010BD2DE9F04704460D46204623
:103EE00002F02DFF80465FEA080001D0BDE8F087B0
:103EF000E0790028FAD1E068A84203D2A1798907C5
:103F000000D40546A1680027A7604FF00109002DE5
:103F100061D020688678428956434FF0020A69B121
:103F20006A1E491EB2FBF6F2B1FBF6F39A4205D3C4
:103F3000701E8143A1606D1A61690BE0216941B96E
:103F40000021FFF739FC0146012905D0481C07D0A4
:103F50002161616159BB3EE084F807A00220C5E7FA
:103F600084F807900120C1E7A079800706D5206872
:103F7000FFF722FC014629B935461AE0206800F017
:103F800015FD0146481C09D0012903D92068406964
:103F9000884207D884F807A00220A7E784F8079092
:103FA0000120A3E76161A0683044A060AD1BB54269
:103FB000DAD8A0682844A06020684289B5FBF2F3F3
:103FC00002FB13523AB1FFF7A1FBF0B12168498916
:103FD000B5FBF1F10F182068A1684289B1FBF2F33B
:103FE00002FB131131B3A269BA4223D0A17904F1C3
:103FF0002405490611D5407801232946FFF745FFDE
:1040000038B184F80790012070E784F807A00220F7
:104010006CE7A07920F04000A071206801233A46A7
:1040200040782946FFF712FF18B184F80790012065
:104030005CE7A761D4E90201884204D9E060A07975
:1040400040F02000A071404650E7000017B581B055
:10405000144602980090684600F02CFD002802DA11
:104060000B2004B010BD0B4B53F82010002201B1FF
:104070000A700199002900D00A7043F8201001D07D
:10408000012C01D00020ECE7002202A901A800F0D9
:10409000FFF9E6E7240000202DE9F747ADF50D7D97
:1040A0000646002E0FD04FF00008C6F8008002F040
:1040B0001F0727F001028EA984A800F0E9F9054640
:1040C000280005D096E009200DF5107DBDE8F087A9
:1040D00081A88A9001A88B9084A88E9900F0B2FBE9
:1040E0000546899C0DB904B9062517F01C0F51D05F
:1040F0004DB1042D03D184A8FFF7B9FD054647F063
:104100000807899C08E0E07A10F0110F01D007251C
:1041100002E0780700D50825DDBB380745D500F05B
:10412000C5FCA073010AE173020C2274030E6374D0
:10413000A075E1752276637684F80B8084F81C8084
:1041400084F81D8084F81E8084F81F80214684989E
:1041500000F0F2FC81460021204602F048FD8499DF
:1041600001200871B9F1000F1FD08498D0F82CA05D
:104170004946849802F008FD0546280015D1849828
:10418000A9F10109C0F80C905146849800F0AEFDE9
:1041900005460AE04DB9E07AC10601D5042504E0E0
:1041A000B90702D5C00700D007253DB9380701D5AA
:1041B00047F020078498C06AF0613462D5B9B771BE
:1041C00086F807802146849800F0B6FC3061207F95
:1041D000E17F627F40EA0160A17F090441EA022198
:1041E0000843F060C6F80880C6F8188084983060EC
:1041F000C088B080284667E72DE9F84F0446884616
:10420000164699460020C9F80000204602F097FDA6
:10421000002812D1E07900280FD1A079C0070BD077
:10422000D4E90210401A864200D9064604F124005F
:104230004FF0010A009098E00720BDE8F88F22684F
:10424000A0685189B0FBF1F301FB1303002B6DD182
:10425000B0FBF1F193785B1E1940CDB275B940B156
:104260001046616900F0A2FB022804D20220E0712E
:10427000E3E72069F8E7411C1CD0606161692068B0
:10428000FFF744FAD0B100EB050B20684189B6FB7B
:10429000F1F74FB38178EA198A4200D94F1B407871
:1042A0003B465A464146FFF7D1FD50B184F807A07E
:1042B0000120C2E784F807A00120BEE70220E071D8
:1042C000BBE7A07940060BD5A069A0EB0B00B84274
:1042D00006D221684A89009900FB028000F0F5FCB3
:1042E000206845897D4336E0A2695A451CD0A179F2
:1042F00049060DD5407801230099FFF7C6FD18B196
:1043000084F807A0012098E7A07920F04000A07170
:10431000206801235A4640780099FFF797FD18B1AD
:1043200084F807A0012088E7C4F818B02068A168C5
:104330004089B1FBF0F200FB1212851AB54200D998
:104340003546B1FBF0F200FB1210011924312A4668
:10435000404600F0BAFCA844A0682844A060D9F800
:1043600000002844C9F80000761B002E7FF467AFD8
:10437000002062E770B50446204602F0E0FC002809
:104380000ED1A1798A060BD548060ED520680123E7
:1043900004F124014078A269FFF777FD08B10120FC
:1043A00070BDA07920F04000A071E169206800F0A4
:1043B0009DFC0028F4D1256AE87A40F02000E872DC
:1043C000207B2877A089000A6877E068000CA8772E
:1043D000E068000EE8772846216902F008FC00F04A
:1043E00065FBA875010AE975010C2976000E68764F
:1043F0000020A874E874A07920F02000A071216842
:10440000012008712068BDE8704002F013BC000074
:10441000802804D30A4A39B1FF2801D90020704707
:10442000803832F810007047002132F81130834292
:1044300003D0491C89B28029F7D38031C8B27047B4
:10444000206E000870B5802806D2A0F161011929FC
:1044500001D8203880B270BD0C2300224FF4F774CD
:10446000094DA11A02EB510135F81160864205D0C1
:1044700001D20A4600E00C465B1EF2D1002BEAD0C6
:10448000024830F8110070BD206F0008FC7200086F
:104490002DE9FF478046084616460027C8F80070F9
:1044A00000F008FB0546002D03DA0B2004B0BDE840
:1044B000F087C64850F825408CB1C8F800402078F5
:1044C00020B16078FFF7D6FCC1070AD02770E8B2A8
:1044D0006070FFF79DFCC1070AD00320E6E70C20BF
:1044E000E4E71EB1400701D50A20DFE70020DDE741
:1044F0001EB1400701D50A20D8E7607804F10A020E
:104500000221FFF790FC30B96089B0F5007F02D33B
:10451000B0F5805F01D90120C8E700252946204673
:10452000FFF7AEF8012826D10021E84604EB011080
:1045300000F5F770027952B1027AC37A42EA036257
:10454000837A407A1B0443EA0020024300E0002201
:1045500048F82120491C0429E8D3002658F82650A1
:1045600025B129462046FFF78BF800E0022010B164
:10457000761C042EF2D3032802D018B10D2095E743
:10458000012093E794F83B0094F83C10B4F80AC07B
:1045900040EA0120604501D00D2087E794F84600ED
:1045A00094F8471040EA012058B914F8540FE17804
:1045B000627840EA0160A1780904543C41EA022192
:1045C0000843A06194F840A084F803A0BAF1010F59
:1045D00004D0BAF1020F01D00D2067E70AFB00FA00
:1045E00094F83D20A27012B1511E0A4201D00D2054
:1045F0005CE794F8411094F8423041EA03232381A8
:104600004FEA5C16B3FBF6F106FB113109B10D2040
:104610004CE794F8431094F8448041EA082179B9B2
:1046200094F8501094F8538094F8519041EA08613E
:1046300094F852804FEA084848EA092841EA0801FC
:1046400094F83E8094F83F9048EA0929B9F1000FA8
:1046500008D0B3FBF6F609EB0A08B044414503D293
:104660000D2023E70D2021E7A1EB0801B1FBF2F1BA
:1046700041B3012640F6F672914200D302264FF66E
:10468000F672914200D30326891C6161E56105EB56
:1046900009022262A844C4F82880032E14D03BB338
:1046A00052446262022E25D001F0010201EB410169
:1046B00002EB5101491E6144B1FBFCF181421BD95F
:1046C0000D20F3E60D20F1E60BB10D20EEE694F897
:1046D0005C2094F85F3094F85D8042EA036294F8BD
:1046E0005E301B0443EA08231A4362628900E1E753
:1046F0000D20DBE64900DDE74FF0FF302061E06090
:1047000080206071032E57D194F8600094F86110F6
:1047100040EA012001284FD1691C204600F0E6FA4A
:10472000F0BB677194F82E0294F82F1240EA012032
:10473000A0F52A4155393FD114F8300FE17862785D
:1047400040EA0160A178303C090441EA02210843B3
:104750001F49884230D194F8140294F8171294F843
:10476000152240EA016094F81612090441EA022178
:104770000843184988421FD194F8180294F81B1274
:1047800094F8192240EA016094F81A12090441EAE7
:1047900002210843206194F81C0294F81F1200E0E3
:1047A0000AE040EA016094F81E1294F81D22090400
:1047B00041EA02210843E06026700449091F088885
:1047C000401C0880E080002070E6000024000020EB
:1047D00052526141727241612DE9F0434B730F23D4
:1047E000CB7200230B738B76CB76531E03EB8304C3
:1047F00004EBC30500231C46114E01F1010C4FF6DA
:10480000FF77BB4203D02B466D1C30F8133016F8EF
:10481000048001F8083016F804904FEA132809F8CC
:104820000C8003B93B46641C0D2CEAD3BB4202D07A
:1048300030F8150008B942F040020A70BDE8F08374
:10484000E66D000873B50446019908782F2801D059
:104850005C2801D1491C01910025A56001980078D0
:10486000202805D200212046FFF783FA65617CBD30
:1048700001A92046FEF7F4FF0028F8D12046FFF7F3
:1048800009F9A169C97A28B10428F0D14907EED401
:1048900005207CBD4907FCD46169C87AC00601D4F3
:1048A00005207CBD206800F047F9A060E0E700002B
:1048B00070B50446064DE1B22846FEF7F9F98021AD
:1048C0002846FEF78FF90028F9D0204670BD000079
:1048D0000038014010B5002821D0114B0022001FE4
:1048E000196803E0814203D80A4649680029F9D1D2
:1048F00052B11368841A9C4204D1006818441060B5
:10490000104602E0506000E0186039B102680B1AEE
:10491000934203D10B681A4402604968416010BD9C
:10492000900000207CB5054616461C460B22284602
:1049300000F0CBF9052C11D91B480CE0B61C002364
:1049400022460C4662F35F044908E20300D5444066
:104950005B1C102BF4D331880029EFD107216B4663
:1049600004F00F023032392A01D9D21DD2B20846E2
:10497000491E1A542409002CF2D17E2058540022DA
:1049800000E0521C8A4202D2A85C2028F9D10829F2
:1049900003D20846491C185C00E020201446521C33
:1049A0002855082AF3D37CBD211001002DE9F041E0
:1049B00004460D46022D02D36069A84201D80126A3
:1049C00009E04FF0FF362078012807D0022835D0C3
:1049D00003284BD001263046BDE8F08105EB550792
:1049E0006089216AB7FBF0F00144204600F07EF9AF
:1049F0000028F0D160893946B1FBF0F200FB1211BA
:104A000021447F1C91F83080B7FBF0F0216A01440B
:104A1000204600F06BF90028DDD16089B7FBF0F18A
:104A200000FB1170204490F8300048EA0020E907AC
:104A300001D00609CFE7C0F30B06CCE76089216AF5
:104A40004008B5FBF0F00144204600F04FF9002883
:104A5000C1D161896800B0FBF1F201FB1200204472
:104A600030300178407841EA0026B4E76089216A55
:104A70008008B5FBF0F00144204600F037F900282B
:104A8000A9D16189A800B0FBF1F201FB120020441A
:104A900030300178C27841EA0261827840781204AD
:104AA00042EA0020014321F0704694E70048704735
:104AB0000000FC4210B504464FF0FF302368002B85
:104AC0000BD0194600E0491C0A78202A01D33A2A63
:104AD000F9D10A783A2A01D0002010BD13F8012B31
:104AE000303A0A2AF9D28B42F7D1022AF5D210467F
:104AF000491C216010BD000070B505460E4609A096
:104B0000FEF7DCF8002405E0295D09A0FEF7D6F8E1
:104B1000641CA4B2B442F7DBBDE8704005A0FEF708
:104B2000CDB800000D0A496E666F3A200000000003
:104B3000256300000A0000000246887ECB7E40EA22
:104B400003201278032A05D10A7D497D42EA01211A
:104B500040EA014070470000FCF7FAFC0D482021B4
:104B60000160012101600B490220091D0860FDF769
:104B7000EDFFFCF722FC08A0FEF7A0F80DA0FEF761
:104B80009DF81AA0FEF79AF822A0FEF797F800F019
:104B900091FBFEE7100C01400D0AB1FCBBF0204771
:104BA0005053C4A3BFE9B2E2CAD4C0FDB3CC0D0ACE
:104BB000000000000D0AB1BEB3CCD0F2B6D453440D
:104BC000BFA8C4DAB5C46770736C6F672E7478744D
:104BD000CEC4BCFEB6A8CEBBC8D5D6BECAFDBEDD0F
:104BE000BDF8D0D0BDE2C2EB0D0A00000D0AC8F43A
:104BF000D0E8D2AAB6D4475053C4A3BFE9B4AEBFDD
:104C0000DAB4ABBBD8B5C4CAFDBEDDBDE2C2EBA30E
:104C1000AC000000BFC9D7A2CACDB5F46770735FFE
:104C2000636F6E6669672E68CEC4BCFEB5C4BAEA0F
:104C30005F5F4750535F4C4F475F46494C45200DDF
:104C40000A000000F0B50B30154D20F007010024DC
:104C5000144A0FE003688B420BD38B4205D95E1ACE
:104C600043184768C3E9006700E04368136002C067
:104C700004E0021D10680028ECD12046002802D173
:104C8000286808B10020F0BD064A07481060074AAE
:104C9000121A22F00702C0E9002401202860D7E799
:104CA0009400002090000020BC240020B834002094
:104CB00010B50023521E541C05D010F8013B11F80A
:104CC000014B1B1BF6D0184610BD03E011F8013B49
:104CD00000F8013B521E531CF8D17047C9B201E0E5
:104CE00000F8011B521E531CFAD1704770B50446E0
:104CF0000E460025E06AB04210D0204601F0F4FFD5
:104D000005465DB960780123324604F13001FFF7B2
:104D10009DF810B14FF0FF360125E662284670BDC0
:104D20002DE9F0410026383010F8382C4A62D0E9DD
:104D30001A23C1E90A23D0E91C23C1E90C23D0E9D5
:104D40001E233838C1E90E2300234FF0010C002246
:104D500000EB83070DE0BC6854B102EB820501EB68
:104D60008505D5F87083444502D1C5F874C3761C17
:104D7000521CD1F86C439442EDDC5B1C252BE6DB26
:104D8000C1F86863086840F080000860BDE8F08101
:104D900070B5D0E900329A4233DC2523B3EB820FA1
:104DA0002FDB012A01DA012242608268C1F86C23FC
:104DB0004268521E92008368141DA34201DA9D1AB4
:104DC00000E00425002216E043685B1E02EB83032B
:104DD00002EB820403EB830300EB840401EB830307
:104DE00003F55C73E6681E6066699E60A669DE6016
:104DF000E4691C61521CAA42E6DB086840F04000EE
:104E0000086070BDC2680A6102694A6142698A61CC
:104E10008269CA61C26B0A62D0E91223C1E90C231C
:104E2000D0E91423C1E9142390F828204E2A16D083
:104E3000D0E9082383F00043C1E9102390F838201B
:104E4000452A0FD0D0E90C2383F00043C1E9122397
:104E5000006CC867086840F4805008607047D0E96B
:104E60000823E9E7D0E90C23F0E790F83820412A3D
:104E700002D0562A09D00CE00B6A022203B90A625A
:104E80004B6A012B05D14A6203E000220A6201222B
:104E90004A62027A4E2A1FD0D0E9002383F00043F1
:104EA000C1E91023027E452A19D0D0E9042383F0FA
:104EB0000043C1E91223826A0A61C26A4A61026B35
:104EC0008A61426BCA6190F8390081F878000868FD
:104ED00040F4007008607047D0E90023E0E7D0E9B3
:104EE0000423E6E770B505460C46287F412802D02A
:104EF000562809D00CE0216A022001B92062616ABB
:104F0000012905D1606203E0002020620120606277
:104F10001C222946201DFBF734F995F828004E285D
:104F200028D0D5E9080181F00041C4E9100195F8C5
:104F30003800452821D0D5E90C0181F00041C4E9B1
:104F40001201D5E91001C4E91601D5E910010C4A96
:104F50000C4BFBF737FAC4E91801D5E91201C4E993
:104F60001A0195F8590084F87800206840F4006030
:104F7000206070BDD5E90801D7E7D5E90C01DEE76F
:104F80006F1283C0CAA1FD3FD0E90023C1E91A23F3
:104F9000D0E90423C1E91C23D0E90823C1E9162381
:104FA000D0E90C23C1E9182390F8390081F8780082
:104FB000086840F480600860704710B50C460146F0
:104FC0001C22201DFBF7DDF8206840F48070206073
:104FD00010BDC2680A6102694A6142698A618269D8
:104FE000CA61C26B0A62D0E91223C1E90C23D0E97D
:104FF0001423C1E9142390F828204E2A14D0D0E9B4
:10500000082383F00043C1E9102390F83820452A93
:105010000DD0D0E90C2080F00040C1E912200868D2
:1050200040F0010008607047D0E90823EBE7D0E9C1
:105030000C20F2E72DE9F0410026383050F8342CEE
:105040004A62D0E91A23C1E90A23D0E91C23C1E945
:105050000C23D0E91E233838C1E90E2300234FF07A
:10506000010C002200EB83070DE0BC6854B102EB99
:10507000820501EB8505D5F88480444502D1C5F849
:1050800088C0761C521CD1F880409442EDDC5B1C39
:10509000252BE6DBCE67086840F002000860BDE81B
:1050A000F08170B5D0E900329A4232DC2523B3EBAF
:1050B000820F2EDB012A01DA012242608268C1F8E8
:1050C00080204268521E92008368141DA34201DAB8
:1050D0009D1A00E00425002215E043685B1E02EBE8
:1050E000830302EB820400EB840403EB830301EBF4
:1050F0008303E66843F8846F66699E60A669DE6094
:10510000E4691C61521CAA42E7DB086840F0040015
:10511000086070BD70B505460C46287F412802D056
:10512000562809D00CE0216A022001B92062616A88
:10513000012905D1606203E0002020620120606245
:105140001C222946201DFBF71CF895F828004E2844
:1051500020D0D5E9080181F00041C4E9100195F89B
:105160003800452819D0D5E90C0181F00041C4E987
:105170001201D5E910010A4A0A4BFBF723F9C4E9E9
:105180001801D5E91201C4E91A01206840F00800AD
:10519000206070BDD5E90801DFE7D5E90C01E6E73D
:1051A0006F1283C0CAA1FD3F8068C1F854060E4A41
:1051B000C1F85826002809D001280BD002280DD0AC
:1051C00007280FD1114609A000F01DBA06490CA00E
:1051D00000F019BA04490EA000F015BA024911A056
:1051E00000F011BA70470000B42300204750545813
:1051F00054207573657220696E666F3A20257300BE
:105200004750545854206572726F723A20257300CB
:105210004750545854207761726E696E673A202562
:10522000730000004750545854206E6F74696365D2
:105230003A20257300000000D0E90023C1E91A23B9
:10524000D0E90423C1E91C23426B006BC1E91802B9
:10525000086840F010000860704710B5C2B00346FF
:105260000C4600200146FF2C0BDC2246194601A803
:10527000FAF787FF01A90020085541A901A801F00C
:10528000BEFC42B010BD30B5C1B003460C46154659
:105290000020FF2C0CDC224619466846FAF771FF05
:1052A00000200DF804002A4640A96846FAF7ABFF33
:1052B00041B030BDF0B5ADF6A46D012251A1524808
:1052C000FEF7C4FE514E307020B1014650A0FDF7EC
:1052D000F5FCFEE701225CA15F48FEF7DDFE3070C1
:1052E00028B15E48FDF7EAFC0DF6A46DF0BD01F0B3
:1052F000AFFA5B49016001F0ABFA5A49416001F035
:10530000A7FA594981600DF5046001F098FB0DF68C
:105310002C0001F041F8504F64E03C4B64221B1D0F
:1053200004A94D48FEF768FF0DF5046304A90DF6C6
:105330002C00726800F036FA012308220DF5016195
:105340000DF64400FBF718FF0DF61C0007C88DE8AA
:1053500007000DF5016145A00EC901F26C71FDF762
:10536000ADFC0DF5086003C800F06CF904460D466D
:105370000DF6880003C800F065F9CDE9000122466A
:105380002B4642A0FDF79AFC0DF5096244A00CCA19
:10539000FDF794FC0DF50A6246A00CCAFDF78EFCE1
:1053A0000DF6A80248A00CCAFDF788FC0DF6BC015A
:1053B00049A006C9FDF782FC0DF6A83150A006C928
:1053C000FDF77CFC0DF678000DF6680203C8CDE908
:1053D00002010DF5076003C8CDE900010CCA53A016
:1053E000FDF76CFCD7E90201884296D11A48F968AA
:1053F000FEF771FD0DF62C0000F0AAFF1648FEF72F
:105400005BFD71E7303A00009C0000201400002092
:105410000D0AA3A1A3A15344BFA8B9D2D4D8CEC426
:10542000BCFECFB5CDB3CAA7B0DCA1A328256429A3
:10543000A3ACC7EBB8F8BFAAB7A2B0E5BDD3C8EB21
:105440005344BFA80D0A0000303A6770736C6F6751
:105450002E74787400000000CC10002060770008E3
:105460003D6D0008B73E0008F94A00080D0ACAB1B0
:10547000BCE425642D253032642D253032642C2582
:10548000643A25643A25640D0A0000000D0ACEB383
:10549000B6C8A3BA25662CBEADB6C825660D0A00EF
:1054A0000D0ABAA3B0CEB8DFB6C8A3BA256620C32A
:1054B000D72000000D0ACBD9B6C8A3BA2566206B49
:1054C0006D2F6820000000000D0ABABDCFF2A3BA0C
:1054D000256620B6C80000000D0AD5FDD4DACAB989
:1054E000D3C3B5C4475053CEC0D0C7A3BA25642C8C
:1054F000BFC9BCFB475053CEC0D0C7A3BA25640078
:105500000D0AD5FDD4DACAB9D3C3B5C4B1B1B6B7A3
:10551000CEC0D0C7A3BA25642CBFC9BCFBB1B1B6FD
:10552000B7CEC0D0C7A3BA25640000000D0A50440E
:105530004F50A3BA25662C48444F50A3BA2566A302
:10554000AC56444F50A3BA25660000000FB410B506
:10555000ADF5816D01F07CF94468002C10D00DF29E
:10556000144340F2FF3101A8DDF81024FDF7B6FB2B
:1055700001460020CDF80404002901DD01A8A04760
:105580000DF5816D10BC5DF814FB2DE9F047044664
:105590008846174604EB0806002000254FF0FF3927
:1055A000C7F800900BE02378242B02D108B1002427
:1055B00007E02A2B0DD000B15D40641C401CB442B2
:1055C000F1D33968002902DA002C00D00020BDE8B0
:1055D000F087611DB142F4D8E1780D29F1D121792C
:1055E0000A29EED110220221601CFFF74CFE014671
:1055F0003860301BA8EB0000401DA942E1D0C7F87D
:1056000000900024DDE70FB410B5ADF5816D01F019
:105610001FF98468002C10D00DF2144340F2FF31C2
:1056200001A8DDF81024FDF759FB01460020CDF854
:105630000404002901DD01A8A0470DF5816D10BC0F
:105640005DF814FB2DE9F04104460D46DFF8488073
:105650000022434620462946FAF726FFFAF7A4FF20
:10566000FAF791FF06460F46002243463046394678
:10567000FAF7A8FE22462B46FAF7A1FE0022074BB6
:10568000FAF712FF32463B46FAF7F5FD04460D469F
:1056900020462946BDE8F0810000594000004E40F8
:1056A00070B50546052901DA002070BD3C4C052285
:1056B00028462168FAF79AFD00284FD0052228468F
:1056C0006168FAF793FD00284AD005222846A168B0
:1056D000FAF78CFDE8B305222846E168FAF786FD63
:1056E000C0B3052228462169FAF780FD98B3052248
:1056F00028466169FAF77AFD70B305222846A16948
:10570000FAF774FD48B305222846E169FAF76EFD01
:1057100080B305222846216AFAF768FD58B30522AE
:105720002846616AFAF762FD68B305222846A16A35
:10573000FAF75CFD50B305222846E16AFAF756FDF8
:1057400038B305222846216BFAF750FD20B300201C
:1057500070BD07E008E009E00AE00DE00120F7E78E
:105760000220F5E70420F3E70820F1E71020EFE737
:105770002020EDE702E003E04020E9E78020E7E7B2
:105780004FF48070E4E74FF40070E1E74FF480607D
:10579000DEE74FF40060DBE74FF48050D8E700000D
:1057A00058000020F8B506461D4600240020009051
:1057B000304600F02BFE69E0641C402855D00EDC1A
:1057C00008282FD006DC01281DD0022820D004286C
:1057D00059D122E010282AD0202854D14FE0B0F52A
:1057E000806F33D008DC802844D0B0F5807F32D081
:1057F000B0F5007F47D133E0B0F5006F21D0B0F5B0
:10580000805F40D118E029460098FFF7E2FB3AE0BC
:1058100029460098FFF70EFC35E029460098FFF76F
:1058200040FC30E029460098FFF774FC2BE0294645
:105830000098FFF701FD26E029460098FFF7E2FAFD
:1058400021E029460098FFF74DFB1CE0294600980F
:10585000FFF79AFB17E029460098FFF7AEFB12E02E
:1058600029460098FFF701FB0DE029460098FFF755
:105870008FFA08E029460098FFF752FA03E029461C
:105880000098FFF791FC0098FFF724F8694630462E
:1058900000F0AAFD00288FD12046F8BD70B590B069
:1058A00005460E461446B8212046FAF783FC3146D9
:1058B000284601F0B6F804F1B00004F1A801CDE9E2
:1058C0000E108038011F04F1A00204F13403CDE969
:1058D0000C320A1FCDE90A101038011F131FCDE941
:1058E00008320A1FCDE906101038131F011FCDE939
:1058F00004320A1F231DCDE90032CDE902102346F0
:1059000007A23146284600F0A7FF112805D013A0B2
:10591000FFF71CFE002010B070BD0120FBE7000067
:105920002442444753412C25432C25642C25642CC8
:1059300025642C25642C25642C25642C25642C25B9
:10594000642C25642C25642C25642C25642C25646A
:105950002C25662C25662C25662A000042444753D8
:1059600041207061727365206572726F7221000050
:1059700070B592B005460E4614465C212046FAF7F3
:1059800019FC3146284601F04CF804F15800011F7B
:105990000A1FCDE91010143804F14803011FCDE9A6
:1059A0000E320A1FCDE90C101438143B011FCDE94B
:1059B0000A320A1FCDE908101438143B011FCDE943
:1059C00006320A1FCDE90410143B1438211DCDE91D
:1059D0000232CDE9001023460E4A3146284600F037
:1059E0003BFF6168491E8900A2680B1D9A4201DADB
:1059F000511A00E00421032202EB8101884201DBFD
:105A0000132805DD04A0FFF7A1FD002012B070BD32
:105A10000120FBE7A87700084244475356207061F5
:105A2000727365206572726F7221000070B5CEB01E
:105A300005460E46144680212046FAF7BBFB314648
:105A4000284600F0EEFF04F1680204F16003CDE99E
:105A5000093204F1780004F17001CDE90B10203A0D
:105A6000203BCDE9053220382039CDE90710183A1E
:105A7000183BCDE901321C38011FCDE903101C3859
:105A800000900EAB0EA23146284600F0E5FE0E282F
:105A900005D018A0FFF75AFD00204EB070BD0EA82B
:105AA000FAF793FB014622460EA8FDF7F7F920B15D
:105AB00015A0FFF74BFD0020EFE70120EDE7000008
:105AC00024474E4747412C25732C25662C25432C13
:105AD00025662C25432C25642C25642C25662C2535
