:020000040800F2
:100000007805002045010008811E0008831E0008B5
:10001000871E00088B1E00088F1E000800000000CD
:10002000000000000000000000000000931E000817
:10003000951E000800000000971E0008991E000889
:100040005F0100085F0100085F0100085F01000810
:100050005F0100085F0100089B1E00085F010008A7
:100060005F0100085F0100085F0100085F010008F0
:100070005F0100085F0100085F0100085F010008E0
:100080005F0100085F0100085F0100085F010008D0
:100090005F0100085F0100085F0100085F010008C0
:1000A0005F0100085F0100085F0100085F010008B0
:1000B0007F2300085F0100085F0100085F0100085E
:1000C0005F0100085F0100085F0100085F01000890
:1000D0005F010008FB1E00085F0100085F010008C7
:1000E000C91E00085F0100085F0100085F010008E9
:1000F0005F0100085F0100085F0100085F01000860
:100100005F0100085F0100085F0100085F0100084F
:100110005F0100085F0100085F0100085F0100083F
:100120005F0100085F0100085F0100085F0100082F
:10013000DFF80CD003F036FA00480047651E0008CF
:10014000780500200648804706480047FEE7FEE79E
:10015000FEE7FEE7FEE7FEE7FEE7FEE7FEE7FEE777
:1001600047020008310100080CB500200190009002
:100170006C48006840F480306A49086000BF6948F4
:10018000006800F4003000900198401C0190009835
:1001900018B90198B0F5A06FF1D16248006800F479
:1001A000003010B10120009001E000200090009884
:1001B000012843D15C48006840F010005A490860AB
:1001C0000846006820F0030008600846006840F018
:1001D0000200086053484068524948600846406839
:1001E00048600846406840F48060486008464068BF
:1001F00020F47C1048600846406840F4E8104860ED
:100200000846006840F08070086000BF45480068FC
:1002100000F000700028F9D04248406820F0030048
:10022000404948600846406840F00200486000BF0E
:100230003C48406800F00C000828F9D10CBD10B50E
:10024000FFF792FF10BD10B53648006840F001007E
:1002500034490860084640683449084031494860DC
:1002600008460068324908402E4908600846006880
:1002700020F4802008600846406820F4FE004860B2
:100280004FF41F008860FFF7DAFF4FF00060294944
:10029000086010BD10B5002100200022214B5B68D2
:1002A00003F00C0121B1042906D0082928D107E068
:1002B000214B224C236027E01F4B204C236023E07E
:1002C000184B5B6803F47010164B5B6803F48032C4
:1002D000022303EB904022B9194B4343174C236090
:1002E0000DE0104B5B6803F4003323B1144B434320
:1002F000124C236003E0104B4343104C236003E097
:100300000D4B0E4C236000BF00BF064B5B68C3F370
:1003100003130C4CE15C094B1B68CB40074C23607A
:1003200010BD000000100240002002400000FFF855
:10033000FFFFF6FE08ED00E000127A00000000204A
:1003400000093D000400002031490143314A116099
:10035000704770B5002100230F22C47804B32D4CE0
:10036000246804F4E064C4F5E064210AC1F10403E4
:10037000CA40447804FA03F1847814402143090107
:10038000254C0678A155047804F01F050124AC40E3
:1003900005786D11AD0005F1E025C5F8004109E0D3
:1003A000047804F01F050124AC401C4D067876113A
:1003B00045F8264070BD1A4A0A400243154B1B1FE0
:1003C0001A60704739B1134A121D12680243114B6B
:1003D0001B1D1A6006E00F4A121D126882430D4B66
:1003E0001B1D1A607047042808D14FF0E0210969ED
:1003F00041F004014FF0E022116107E04FF0E021ED
:10040000096921F004014FF0E022116170470000FA
:100410000000FA050CED00E000E400E080E100E0FF
:1004200080FFFF1F002044490860091D0860091D66
:100430000860091D086041483F4914310860704751
:1004400000213D498279002A3AD00A4612680368A1
:100450009A430B461A600A1D126803689A430B1DE3
:100460001A60027911440A6803681A430A60324A22
:100470000832126803689A432F4B08331A601A1D1A
:10048000126803689A432C4B0C331A604279102A85
:100490000ED11A1F126803681A43274B08331A60DB
:1004A0001A1D126803681A43234B0C331A600DE0BF
:1004B0002149427911440A6803681A430A6005E039
:1004C000027911440A6803689A430A607047002160
:1004D000016001710C214171002181717047164941
:1004E000103109680143144A103211607047014607
:1004F0000020114A143212680A400AB1012000E0BB
:10050000002070470C4914310860704701460020F4
:100510000022094B1B6803EA0102074B14331B68D6
:100520000B4013B10AB1012000E0002070470249DE
:10053000143108607047000000040140FFFF0F0005
:1005400010B50446CC48844208D10121042000F0B3
:100550002DFB0021042000F029FB46E0C74884421F
:1005600008D10121082000F021FB0021082000F023
:100570001DFB3AE0C248844208D10121102000F05E
:1005800015FB0021102000F011FB2EE0BD48844235
:1005900008D10121202000F009FB0021202000F0DB
:1005A00005FB22E0B848844208D10121402000F038
:1005B000FDFA0021402000F0F9FA16E0B348844229
:1005C00008D10121802000F0F1FA0021802000F004
:1005D000EDFA0AE0AE48844207D10121801500F00F
:1005E000E5FA0021A01500F0E1FA10BD10B50121D7
:1005F000084600F0DBFA0021012000F0D7FA10BD18
:100600002DE9F041024600250026002000230024A9
:10061000002791F803C00CF00F0591F803C00CF00F
:10062000100CBCF1000F03D091F802C04CEA050594
:1006300091F800C0BCF1000F31D0146800202BE00D
:100640004FF0010C0CFA00F3B1F800C00CEA0306FD
:100650009E4220D183004FF00F0C0CFA03F7BC43ED
:1006600005FA03FC4CEA040491F803C0BCF1280F1E
:1006700006D14FF0010C0CFA00FCC2F814C00AE0DD
:1006800091F803C0BCF1480F05D14FF0010C0CFAF2
:1006900000FCC2F810C0401C0828D1D31460B1F887
:1006A00000C0BCF1FF0F34DD546800202EE000F1E3
:1006B000080C4FF0010808FA0CF3B1F800C00CEA7E
:1006C00003069E4221D183004FF00F0C0CFA03F772
:1006D000BC4305FA03FC4CEA040491F803C0BCF1E6
:1006E000280F05D100F1080C08FA0CF8C2F81480A4
:1006F00091F803C0BCF1480F07D100F1080C4FF08E
:10070000010808FA0CF8C2F81080401C0828CED363
:100710005460BDE8F0814FF6FF71018002218170C5
:100720000421C17070470246002093680B400BB152
:10073000012000E0002070470146886880B27047C1
:1007400002460020D3680B400BB1012000E00020DE
:1007500070470146C86880B27047016170474161C7
:1007600070470AB1016100E041617047C1607047A4
:100770004FF480320A4382618161826182698269B9
:10078000704702460020434B18684FF680731840AC
:1007900040EA021008433F4B186070473E49C86169
:1007A0007047F0B50A46002300240021002500F020
:1007B0000046B6F1004F02D1364EF16901E0354EE8
:1007C0007168C0F3034583B200F44016B6F5401FCC
:1007D00008D121F070612F4E766826F070662D4F9B
:1007E0007E6012E000F48016B6F5801F06D1032665
:1007F00006FA05F4A14341F0706106E0460D3601AA
:1008000003FA06F6B14341F0706122B1460D36019C
:1008100003FA06F6314300F00046B6F1004F02D16C
:100820001C4EF16101E01B4E7160F0BD30B500223D
:100830008B071C0F0F2303FA04F2164B08338C109E
:1008400053F824309343134C08348D1044F825306A
:1008500023468C1053F824308C07240F00FA04F43C
:1008600023430C4C08348D1044F8253030BD0A4920
:10087000DC3108607047000000080140000C0140B6
:10088000001001400014014000180140001C01400C
:10089000002001400000014000002042DF480068C5
:1008A00040F00100DD49086008464068DC49084026
:1008B000DA49486008460068DA490840D7490860C4
:1008C0000846006820F4802008600846406820F44C
:1008D000FE0048604FF41F0088607047CF490968E8
:1008E00021F48031CD4A11601146096821F480213C
:1008F0001160B0F5803F03D0B0F5802F0ED106E037
:10090000C649096841F48031C44A116007E0C3490F
:10091000096841F4A021C14A116000E000BF00BF96
:10092000704710B501460022002300204A11012A19
:1009300002D1BA4C236806E0022A02D1B74C236ADE
:1009400001E0B64C636A01F01F02012494401C4090
:100950000CB1012000E0002010BD38B5002000904F
:100960000024002500BF3120FFF7DBFF054600987B
:10097000401C00900098B0F5A06F01D0002DF2D07F
:100980003120FFF7CEFF08B1012400E0002420460B
:1009900038BD01460020A14A106820F0F80040EA66
:1009A000C10010607047A0490860704702460020EF
:1009B0009A4B586820F47C1042EA01031843974B85
:1009C0005860704798490866704701460020934A6E
:1009D000506820F003000843506070478F4840681B
:1009E00000F00C007047014600208C4A506820F04F
:1009F000F00008435060704701460020874A506865
:100A000020F4E06008435060704701460020834AAC
:100A1000506820F4605040EAC1005060704729B12E
:100A20007E4A527A02437D4B5A7204E07B4A527AE4
:100A300082437A4B5A7270477B49D83108607047BD
:100A400001460020754A506820F440400843506039
:100A500070470021714A20321170704A82F82010CC
:100A6000012802D004280AD104E001216B4A203277
:100A7000117005E00521694A2032117000E000BFC5
:100A800000BF70476949086070476449096A0143BB
:100A9000624A11627047654944390860704730B551
:100AA00000210022002400235C4D6D6805F00C013C
:100AB00021B1042905D0082923D105E05C4D05604A
:100AC00022E05B4D05601FE0544D6D6805F4701227
:100AD000524D6D6805F48034022505EB92421CB935
:100AE000544D554305600BE04C4D6D6805F40035E1
:100AF0001DB1504D5543056002E04D4D5543056015
:100B000002E04B4D056000BF00BF444D6D6805F02D
:100B1000F0010909484D6B5C0568DD4045603F4DBB
:100B20006D6805F4E061090A434D6B5C4568DD4082
:100B300085603A4D6D6805F46051C90A3E4D6B5CA5
:100B40004568DD40C560354D6D6805F44041890B51
:100B50003A4D6B5CC568B5FBF3F5056130BD29B155
:100B60002E4A526902432D4B5A6104E02B4A5269C6
:100B700082432A4B5A61704729B1284A926902433D
:100B8000264B9A6104E0254A92698243234B9A617D
:100B9000704729B1214AD2690243204BDA6104E04F
:100BA0001E4AD26982431D4BDA61704729B11B4A44
:100BB000D2680243194BDA6004E0184AD2688243D3
:100BC000164BDA60704729B1144A12690243134B7D
:100BD0001A6104E0114A12698243104B1A6170478E
:100BE00012494039086070470F49C86470470B4983
:100BF000C87170470948406A40F0807007494862F0
:100C0000704701460020054A92680A400AB1012057
:100C100000E00020704701498872704700100240D0
:100C20000000FFF8FFFFF6FE00004242800442424F
:100C300000127A0000093D0014000020240000206A
:100C400010B50446FE48844208D10121C014FFF7C4
:100C5000ADFF0021E014FFF7A9FFC4E0B4F1804F1D
:100C600008D101210846FFF7AEFF00210120FFF760
:100C7000AAFFB8E0F348844208D101210220FFF71F
:100C8000A2FF00210220FFF79EFFACE0EE48844265
:100C900008D101210420FFF796FF00210420FFF76F
:100CA00092FFA0E0E948844208D101210820FFF723
:100CB0008AFF00210820FFF786FF94E0E448844281
:100CC00008D101211020FFF77EFF00211020FFF73F
:100CD0007AFF88E0DF48844208D101212020FFF715
:100CE00072FF00212020FFF76EFF7CE0DA4884428B
:100CF00008D101214014FFF759FF00216014FFF7CC
:100D000055FF70E0D548844209D10121C804FFF79E
:100D10004DFF00214FF40020FFF748FF63E0D0486B
:100D2000844209D101210805FFF740FF00214FF45B
:100D30008010FFF73BFF56E0CA48844209D10121E9
:100D40004805FFF733FF00214FF40010FFF72EFF97
:100D500049E0C548844208D101214020FFF733FF14
:100D600000214020FFF72FFF3DE0C048844208D11A
:100D700001218020FFF727FF00218020FFF723FFBC
:100D800031E0BB48844208D101218015FFF71BFFE9
:100D90000021A015FFF717FF25E0B648844209D1CE
:100DA00001210804FFF702FF00214FF48030FFF714
:100DB000FDFE18E0B048844209D101214804FFF744
:100DC000F5FE00214FF40030FFF7F0FE0BE0AB48DA
:100DD000844208D101218804FFF7E8FE00214FF486
:100DE0008020FFF7E3FE10BD00220288944B98425A
:100DF0000ED0994B98420BD0B0F1804F08D0914B58
:100E0000984205D0904B984202D0904B984204D122
:100E10004FF68F731A404B881A438D4B984207D078
:100E20008C4B984204D04FF6FF431A40CB881A43AC
:100E300002808B8883850B880385814B98420BD079
:100E4000854B984208D08B4B984205D08A4B9842EC
:100E500002D08A4B984201D10B7A03860123838208
:100E6000704770B5002400220023058C4FF6FE76F3
:100E700035400584028C8388048B4FF68F752C4097
:100E8000B51E2C400D882C43751E2A400D892A431F
:100E90004D882A436A4DA8420BD06F4DA84208D016
:100EA000744DA84205D0744DA84202D0734DA8429B
:100EB00013D14FF6F7752A404D892A434FF6FB753B
:100EC0002A408D882A434FF6FF652B404FF6FF5589
:100ED0002B408D892B43CD892B4383800483CD8880
:100EE0008586028470BD70B5002400220023058C25
:100EF0004FF6EF7635400584028C8388048B48F6E4
:100F0000FF752C404FF6FF452C400D884FF6FF76BD
:100F100006EA05252C434FF6DF752A400D8906EABF
:100F200005152A434D8806EA05152A43444DA84273
:100F300002D0494DA8421DD14FF67F752A404D89F8
:100F40004FF6FF7606EA05152A434FF6BF752A408D
:100F50008D8806EA05152A434FF6FF352B404FF2E0
:100F6000FF752B408D8906EA85052B43CD8906EA5E
:100F700085052B4383800483CD880587028470BD5B
:100F800070B5002400220023058C4FF6FF66354023
:100F90000584028C8388848B4FF68F752C404FF626
:100FA000FC752C400D882C434FF6FF552A400D89C7
:100FB0004FF6FF7606EA05252A434D8806EA052501
:100FC0002A431F4DA84202D0234DA8421DD14FF203
:100FD000FF752A404D894FF6FF7606EA05252A431C
:100FE0004FF6FF352A408D8806EA05252A434EF63E
:100FF000FF752B404DF6FF752B408D8906EA0515D0
:101000002B43CD8906EA05152B4383808483CD8845
:101010008587028470BD70B5002200230024058CF2
:101020004EF6FF7635400584038C8488828B48F623
:10103000FF752A404FF6FF452A400D8820E000004A
:10104000002C01400004004000080040000C00405B
:10105000001000400014004000340140004C0140EA
:10106000005001400054014000180040001C0040A6
:101070000020004000400140004401400048014081
:101080004FF6FF7606EA05252A434DF6FF752B40FD
:101090000D8906EA05352B434D8806EA05352B43B5
:1010A000FA4DA84202D0FA4DA84208D14BF6FF757E
:1010B0002C408D894FF6FF7606EA85152C438480F7
:1010C0008283CD88A0F84050038470BD828B4FF29C
:1010D000FF331A408283828B4FF6FF7303EA0123AA
:1010E0001A4382837047F0B50C4615460022002152
:1010F0000026078C4EF6FF7C07EA0C070784828BDC
:10110000018C4FF6FF7707EA043640F6FF473A4076
:101110004FF6FF7707EA05273A434FF6FF7707EACE
:1011200003373A43D94FB8420ED0D94FB8420BD00B
:10113000B0F1804F08D0D74FB84205D0D64FB84253
:1011400002D0D64FB84206D14DF6FF77394046F46B
:101150008057394305E047F6FF57394044F480573C
:10116000394382830184F0BD828B4FF6F3731A40BA
:101170008283828B0A4382837047F0B50C46154602
:10118000002200210026078C4FF6FF6C07EA0C07AF
:101190000784828B018C4FF6FF7707EA04264FF60F
:1011A0000C773A404FF6FF7707EA03172F433A438D
:1011B000B64FB8420ED0B64FB8420BD0B0F1804F08
:1011C00008D0B44FB84205D0B34FB84202D0B34FA5
:1011D000B84206D14FF6FF57394046F4807739437D
:1011E00005E04FF2FF57394044F48077394382835A
:1011F0000184F0BD028B4FF2FF331A400283028B51
:101200004FF6FF7303EA01231A4302837047F0B5D8
:101210000C461546002200210026078C4FF6EF7C75
:1012200007EA0C070784028B018C4FF6FF7707EA69
:10123000041640F6FF473A404FF6FF7707EA0337B8
:101240003A434FF6FF7707EA05273A438F4FB842F4
:101250000ED08F4FB8420BD0B0F1804F08D08D4FD9
:10126000B84205D08C4FB84202D08C4FB84206D15C
:101270004FF6DF77394046F01007394305E04FF667
:101280005F77394044F01007394302830184F0BD91
:10129000028B4FF6F3731A400283028B0A430283D8
:1012A0007047F0B50C46154600220021068C4FF61B
:1012B000FE773E400684028B018C4FF60C7632405E
:1012C0007E1C06EA03162E433243704EB0420ED007
:1012D0006F4EB0420BD0B0F1804F08D06D4EB0428F
:1012E00005D06D4EB04202D06C4EB04206D14FF6E2
:1012F000FD76314044F00106314305E04FF6F576C6
:10130000314044F00106314302830184F0BD70B5E1
:1013100005460C465D4885420ED05D4885420BD09F
:10132000B5F1804F08D05B48854205D05A488542C8
:1013300002D05A48854200D100E000BF208850B951
:101340002389A28861882846FFF7ABFFE1882846F9
:10135000FFF79EFF25E0208804280AD12389A28870
:1013600061882846FFF753FFE1882846FFF742FFD0
:1013700017E0208808280AD12389A2886188284696
:10138000FFF7FBFEE1882846FFF7EEFE09E0238920
:10139000A28861882846FFF7A6FEE1882846FFF765
:1013A00095FE70BD2DE9F04105460C46002601274B
:1013B000608808B9022600E00026A088012801D133
:1013C000022700E001272088A0B92389A28861882C
:1013D0002846FFF766FFE1882846FFF759FF238973
:1013E0003A4631462846FFF712FFE1882846FFF7C4
:1013F00001FF13E02389A28861882846FFF707FFD1
:10140000E1882846FFF7F6FE23893A46314628460A
:10141000FFF747FFE1882846FFF73AFFBDE8F08174
:101420000A884B881A438B881A43CB881A430B8946
:101430001A434B891A438B891A43A0F844207047FA
:101440004FF6FF71818000210180C18041800172CF
:1014500070470021018041808180C18001814181EC
:101460008181C181704700210180418001218180FB
:101470000021C1800181704700210180418081806D
:10148000C18001814181818170470000002C0140B1
:10149000003401400004004000080040000C0040FF
:1014A00021B1028842F00102028004E002884FF676
:1014B000FE731A400280704731B1B0F8442042F404
:1014C0000042A0F8442005E0B0F84420C2F30E0228
:1014D000A0F8442070471AB183890B43838102E04E
:1014E00083898B43838170478182704741EA02037D
:1014F000A0F8483070471AB183890B43838102E01A
:1015000083898B438381704701894FF6F8721140BC
:10151000018170470A46002101894FF68F731940F7
:1015200011430181704730B504460D4629462046D7
:10153000FFF7F0FF208940F00700208130BD2DE942
:10154000F04104460D4616461F46602D06D13B4627
:10155000012231462046FFF75AFE05E03B460122B4
:1015600031462046FFF79DFE29462046FFF7D2FF71
:10157000208940F007002081BDE8F08130B50C469D
:1015800000210189C9B24FF6FF7505EA032515430D
:1015900025432943018130BD2DE9F04105460E4622
:1015A00017469846002443463A4631462846FFF7F8
:1015B000E5FF2C894FF6F870044044F007044FF61D
:1015C0008F70044044F070042C81BDE8F081F0B5C8
:1015D00004460D4616461F463B46324629462046DF
:1015E000FFF7CCFF208940F480402081F0BD0185C9
:1015F000828270470A46002101884FF68F73194096
:10160000114301807047F0B50C4615461E46002177
:10161000002200230189028B038C4FF6F8773940B2
:1016200021434FF6FC473A4040F201173A434FF648
:10163000DD773B404FF6FF7707EA06172F433B4322
:10164000018102830384F0BD0A460021018B4FF61D
:101650008F7319401143018370470A460021018BA3
:1016600048F6FF7319404FF6FF7303EA022319434C
:10167000018370470A460021818B4FF68F73194012
:101680001143818370470A460021818B48F6FF731E
:1016900019404FF6FF7303EA022319438183704711
:1016A00021B1028842F08002028004E002884FF6F5
:1016B0007F731A400280704721B1828842F0040291
:1016C000828004E082884FF6FB731A408280704764
:1016D00021B1828842F00802828004E082884FF6BD
:1016E000F7731A408280704721B1828842F001026C
:1016F000828004E082884FF6FE731A408280704731
:101700000A460021018B4FF6F773194011430183FC
:1017100070470A460021018B4FF2FF7319404FF6C4
:10172000FF7303EA02231943018370470A4600212D
:10173000818B4FF6F77319401143818370470A4636
:101740000021818B4FF2FF7319404FF6FF7303EABC
:1017500002231943818370470A460021018B4FF60B
:10176000FB7319401143018370470A460021018B26
:101770004FF6FF3319404FF6FF7303EA0223194374
:10178000018370470A460021818B4FF6FB73194095
:101790001143818370470A460021818B4FF6FF3346
:1017A00019404FF6FF7303EA022319438183704700
:1017B0000A460021018B4FF67F73194011430183C4
:1017C00070470A460021018BC1F30E014FF6FF73EB
:1017D00003EA02231943018370470A460021818BE3
:1017E0004FF67F7319401143818370470A460021E9
:1017F000818BC1F30E014FF6FF7303EA02231943F5
:10180000818370470A460021018C4FF6FD73194011
:101810001143018470470A460021018C4FF6F7738B
:1018200019401143018470470A460021018C4FF68C
:10183000DF7319404FF6FF7303EA02131943018463
:1018400070470A460021018C4FF67F7319404FF60E
:10185000FF7303EA02131943018470470A4600210B
:10186000018C4FF6FF5319404FF6FF7303EA022332
:101870001943018470470A460021018C4FF2FF731F
:1018800019404FF6FF7303EA02231943018470479E
:101890000A460021018C4DF6FF7319404FF6FF7385
:1018A00003EA023319430184704730B50023012451
:1018B0008C40A3B2048C9C430484048C02FA01F58E
:1018C000ADB22C43048430BD30B5002304248C40D9
:1018D000A3B2048C9C430484048C02FA01F5ADB2DB
:1018E0002C43048430BD70B5034600200024184604
:1018F000183001258D40ACB21D8CA5431D8409B163
:10190000082909D100EB6100056825F07005056024
:101910000568154305600EE00D1FC5F34E0528440C
:10192000056825F4E045056005684FF6FF7606EA90
:1019300002263543056070BD21B1028842F00202E3
:10194000028004E002884FF6FD731A40028070475F
:1019500021B1028842F00402028004E002884FF6BE
:10196000FB731A400280704721B1828842F08002E6
:10197000828004E082884FF67F731A40828070472D
:1019800002884FF6F7731A40028002880A430280E9
:10199000704782884FF68F731A40828082880A438C
:1019A0008280704702894FF6F8731A4002810289DB
:1019B0000A430281704702894FF67F731A40028101
:1019C00002890A430281704781847047818570478C
:1019D000818670470187704781877047A0F8401063
:1019E000704702884FF6FF431A40028002880A437C
:1019F000028070470146888E70470146088F704705
:101A00000146888F70470146B1F840007047014693
:101A1000888C70470146088D704702460020138A63
:101A20000B400BB1012000E000207047CA43028246
:101A3000704730B50246002000230024158A05EACD
:101A40000103958905EA010413B10CB1012000E0FE
:101A5000002030BDCA4302827047000010B5044622
:101A6000FB48844209D101218803FFF79FF8002138
:101A70004FF48040FFF79AF832E0F648844209D1EB
:101A800001214804FFF79FF800214FF40030FFF7D1
:101A90009AF825E0F048844209D101218804FFF733
:101AA00092F800214FF48020FFF78DF818E0EB4802
:101AB000844209D10121C804FFF785F800214FF4C1
:101AC0000020FFF780F80BE0E548844208D10121AF
:101AD0000805FFF778F800214FF48010FFF773F83E
:101AE00010BD2DE9F04786B005460E460024A246FB
:101AF00000BFA1460027B08900B100BF2F462C8A45
:101B00004CF6FF700440F08804432C82AC894EF6FA
:101B1000F3100440B08831890843718908430443B5
:101B2000AC81AC8A4FF6FF400440B0890443AC82DC
:101B300001A8FEF7B4FFC648874202D1DDF810A025
:101B400001E0DDF80CA0A88900F4004040B10AEBE8
:101B5000CA0000EB0A1031684900B0FBF1F807E059
:101B60000AEBCA0000EB0A1031688900B0FBF1F8FB
:101B70006420B8FBF0F004012009642101FB108906
:101B8000A88900F4004040B1322000EBC900B0FB4E
:101B9000F1F000F00700044308E0322000EB0910E8
:101BA0006421B0FBF1F000F00F0004432C8106B07B
:101BB000BDE8F0874FF41651016000218180C1809B
:101BC00001810C21418100218181704710B50246BD
:101BD0000020108A4FF2FF0318400B884C882343E3
:101BE0008C882343CC8823431843108210BD0021E6
:101BF000018041808180C180704721B1828942F497
:101C00000052828104E082894DF6FF731A4082817E
:101C10007047F0B50346002400260025002040F65A
:101C20006A17B94200D100BF1846C1F3421401F04F
:101C30001F06012707FA06F5012C01D10C3004E03C
:101C4000022C01D1103000E014301AB107682F4384
:101C5000076002E00768AF430760F0BD1AB1838AEE
:101C60000B43838202E0838A8B4383827047028A1C
:101C70004FF6F0731A400282028A0A4302827047CA
:101C800082894FF2FF731A40828182890A438281DE
:101C9000704721B1828942F00202828104E0828988
:101CA0004FF6FD731A4082817047028A4FF6DF7348
:101CB0001A400282028A0A430282704721B1028AD4
:101CC00042F48042028204E0028A4BF6FF731A401B
:101CD00002827047C1F308028280704701468888FB
:101CE000C0F308007047818941F00101818170478C
:101CF000028BD2B20283028B42EA01220283704736
:101D0000028B02F47F420283028B0A4302837047F4
:101D100021B1828A42F02002828204E0828A4FF658
:101D2000DF731A408282704721B1828A42F010022A
:101D3000828204E0828A4FF6EF731A4082827047F3
:101D400021B1828A42F00802828204E0828A4FF640
:101D5000F7731A408282704721B1828942F40042AF
:101D6000828103E08289C2F30E028281704721B131
:101D7000828A42F40062828204E0828A4FF2FF7318
:101D80001A4082827047828A4FF6FB731A40828221
:101D9000828A0A438282704721B1828A42F002021B
:101DA000828204E0828A4FF6FD731A408282704775
:101DB00002460020B1F5007F00D100BF13880B4020
:101DC0000BB1012000E00020704701F40072B2F571
:101DD000007F00D100BFCA430280704770B5024641
:101DE000002400230025002040F66A16B14200D1ED
:101DF00000BFC1F3421501F01F03012606FA03F3E9
:101E0000012D02D19689334006E0022D02D1168AB7
:101E1000334001E0968A33400C12012606FA04F49E
:101E20001688344013B10CB1012000E0002070BDD1
:101E300010B50022002340F66A14A14200D100BF71
:101E40000A1201249440A3B2DC43048010BD0000B8
:101E5000003801400044004000480040004C004071
:101E60000050004000F0B4F800F0D7FB00F02FFC69
:101E700000F07FF900F0F6FC01E000F0C9FDFCE79E
:101E8000704700BFFEE700BFFEE700BFFEE700BFF0
:101E9000FEE7704770477047704710B50120FEF7A6
:101EA00035FB80B145480078C0F3800040B144481C
:101EB000006880F0200042490860012000F061F9CC
:101EC0000120FEF734FB10BD10B54FF40050FEF7B3
:101ED0001DFB88B139480078C0F3800040B938480C
:101EE000006880F0010036490860002000F049F9E0
:101EF0004FF40050FEF71BFB10BD10B540F225510A
:101F00003048FFF76BFF002857D02E48FFF7E6FE5A
:101F1000C4B22A48007800F0010000284DD12748BB
:101F20000078C0F38000002847D0082C1AD126483A
:101F30000078002841D00821224800F00CFC202124
:101F4000204800F008FC08211E4800F004FC1E4850
:101F50000078401E1C49087000201C491A4A12785B
:101F600088542AE018480078FF280FDA17481649E5
:101F7000097844540021024613480078401C11544B
:101F800011480078401C1049087008E00E4800789D
:101F9000401E0E490C5408210A4800F0DCFB0D2CB1
:101FA00007D10648007820F00200801C0349087021
:101FB00003E02146034800F0CEFB10BD2C000020BA
:101FC0000C0C0140003801403C000020740000204F
:101FD00008B501210820FEF7CFFD2020ADF8000054
:101FE00010208DF8030003208DF802006946114887
:101FF000FEF706FB0120ADF8000069460D48FEF72C
:10200000FFFA0220ADF8000069460A48FEF7F8FA28
:1020100020210848FEF7A1FB01210648FEF79DFBA1
:1020200002210448FEF799FB08BD2022014B14331E
:102030001A607047000C014008B54FF4E060FEF7ED
:1020400083F91C208DF8000001208DF801008DF827
:1020500002008DF803006846FEF77BF908BD08B55D
:1020600001210420FEF788FD0820ADF800001820AB
:102070008DF8030003208DF802006946FD48FEF745
:10208000BFFA01210820FEF777FD4FF48040ADF83C
:10209000000010208DF8030003208DF8020069462F
:1020A000F548FEF7ADFA4FF48041F348FEF757FBD1
:1020B00001211020FEF760FD1020ADF800008DF822
:1020C000030003208DF802006946EC48FEF798FAF9
:1020D0001021EA48FEF743FB08BD00B587B0012197
:1020E0000846FEF756FD04A8FFF7AAF90920ADF847
:1020F00014004720ADF810000020ADF81600ADF830
:10210000120004A94FF08040FEF76EFE7020ADF87B
:1021100000000120ADF802000020ADF8040004200A
:10212000ADF806000220ADF808000020ADF80C0064
:1021300069464FF08040FEF76EFF0821C806FFF7A2
:10214000FEFA01218807FFF7ABFA01218807FFF7A4
:10215000FFFB01218807FFF77DFC01221146900754
:10216000FFF7B9F900214FF08040FFF799F907B068
:1021700000BD10B5FFF773FFFFF75EFFFFF7ADFF80
:1021800010BD10B504466CB11021BC48FEF7E5FA4D
:10219000BB48007820F00400B9490870B94801F044
:1021A00097FA0DE01021B548FEF7D9FAB448007847
:1021B00020F00400001DB2490870B34801F088FA0D
:1021C00010BD2DE9F04F89B004460D4616469B46DA
:1021D000002C08DAAD48007820F008000830AB4940
:1021E0000870644205E0A948007820F00800A7497B
:1021F0000870A6480078C0F3C00028B94FF48041A9
:102200009D48FEF7ACFA04E04FF480419A48FEF78F
:10221000A4FA012C1FD1A01E9C49486108460078F1
:1022200020F00700801C08704FF47A7048609448D2
:10223000007820F00100401C914908701421080723
:10224000FFF7C4FB0A214807FFF7C4FB01218807F9
:10225000FFF726F982E0002CFCD047F6B720B0FB50
:10226000FBF08A4908618A48B0FBF5F0019000F064
:102270005EFF074601F09FFE0022864BCDE902017A
:1022800000F063FE0022844BCDE9040100F0CFFE94
:10229000CDE9060100F058FF7C49486005EB450098
:1022A00040006421B0FBF1F10BFB0BF0B0FBF1F946
:1022B000B9F1000F01D14FF0010904FB06F0A91993
:1022C000B0FBF1FABAF1000F01D14FF0010ACA4593
:1022D00004D8AAEB04006D49C86006E009FB05F0CC
:1022E000B0FBF6F040426949C8606848C06818B958
:1022F0004FF0FF306549C8606448C06820446349B6
:10230000886008464068096988420AD85F480069C1
:102310005E4948600846007820F00700C01C08703D
:1023200006E05A48007820F00700401C5749087022
:102330000020564948615248007820F00100401CB6
:102340004F49087014210807FFF740FB0A2148078E
:10235000FFF740FB01218807FFF7A2F809B0BDE8AD
:10236000F08F012805D14D490968491E4B4A11607B
:1023700004E04A490968491C484A1160704710B591
:1023800001218807FFF755FB002872D0012188073B
:10239000FFF760FB3D484068C0F34F0040490880AC
:1023A0003A4880880906888535480078C0F380005F
:1023B00028B93648007820F00700344908703348BF
:1023C000007800F0070030B101281DD002286DD040
:1023D000032818D193E00020324908603249086090
:1023E0004FF08040008C20F480504FF080410884F2
:1023F00000214FF08040FFF753F82148007820F08B
:1024000001001F490870E3E04FF08040008C40F469
:1024100080504FF0804108841C490978C1F3C00006
:10242000FFF79FFF1F480068401C1E4908601748BF
:102430004069401C15494861084640681A490968C6
:10244000022202FB0011114840698000401C91FBF0
:10245000F0F00E4949680C1A0C48406812490968A6
:1024600002FB0011094840698000401C91FBF0F21A
:102470001DE0B0E000080140000C014000100140E8
:102480002C00002088400008D04000085C0000209C
:10249000ACDF5F000068BA4000005940280000200F
:1024A0004000004034000020380000204DE000FBD8
:1024B00012104949086049488068494909688842BA
:1024C0000AD84648C068454948610846007820F067
:1024D0000700801C087011E040480069A0420DD33D
:1024E000404804603D48046900203B4908603B487F
:1024F000007820F00700C01C3849087068E04FF0F1
:102500008040008C40F480504FF080410884334973
:102510000978C1F3C000FFF724FF31480068401C70
:102520002F4908602D4804698068096888420BD8E3
:102530002A48C068294948612A4804680846007842
:1025400020F00700801C087042E04FF08040008CB3
:1025500040F480504FF08041088420490978C1F34D
:10256000C000FFF7FEFE1E480068401C1C490860C2
:102570001A484069401C1949486108464068164994
:102580000968022202FB0011144840698000401CC7
:1025900091FBF0F0114949680C1A104840680E4947
:1025A000096802FB00110D4840698000401C91FB46
:1025B000F0F200FB12100849086008484069002842
:1025C00005DB0648007820F007000449087000BFCA
:1025D00000BF0248446010BD380000205C000020AD
:1025E000340000203000002008B54FF4C060FDF733
:1025F000ABFE06208DF8000001208DF801008DF85B
:1026000002008DF803006846FDF7A3FE28208DF830
:1026100000006846FDF79DFE08BD0EB501210520AE
:10262000FEF7AAFAFFF7E0FF0120ADF8080004204A
:102630008DF80B0002A91A48FDF7E2FF00210846B9
:10264000FEF7F4F80120009000208DF80400082027
:102650008DF8050001208DF806006846FDF7F0FEB4
:102660004FF40050ADF8080004208DF80B0002A9CB
:102670000C48FDF7C5FF0D210220FEF7D7F84FF4F7
:102680000050009000208DF804000C208DF805000B
:1026900001208DF806006846FDF7D2FE0EBD000051
:1026A000000801400010014008B54FF4A060FDF79C
:1026B0004BFE25208DF8000001208DF801008DF8DB
:1026C00002008DF803006846FDF743FE08BD00B523
:1026D00085B001210420FEF74FFA01218803FEF79F
:1026E0004BFA4FF40070ADF8100018208DF813006D
:1026F00003208DF8120004A95648FDF781FF4FF41E
:102700008060ADF8100004208DF8130004A9514832
:10271000FDF776FF4FF4E13000900020ADF80400A3
:10272000ADF80600ADF80800ADF80C000C20ADF8CF
:102730000A0069464848FFF7D4F9FFF7B5FF0122C0
:1027400040F225514448FFF764FA01214248FFF75F
:1027500054FA05B000BD70B504460D462946204622
:10276000FFF7B8FA00BF80212046FFF721FB0028C1
:10277000F9D070BD2DE9F04107460D4616460024FC
:1027800005E0295D3846FFF7E6FF601CC4B2B4429D
:10279000F7DB00BF40213846FFF70AFB0028F9D0DD
:1027A000BDE8F08170B506460C46002500BF615DAE
:1027B0003046FFF7D0FF6D1C605D0028F7D100BFE9
:1027C00040213046FFF7F4FA0028F9D070BD2DE91A
:1027D000F04105460C46260AE7B231462846FFF787
:1027E00079FA00BF80212846FFF7E2FA0028F9D0E5
:1027F00039462846FFF76EFA00BF80212846FFF7CA
:10280000D7FA0028F9D0BDE8F081002013490870FC
:102810001349124A12788854704770B504460D4621
:10282000E1B20D48FFF756FA00BF80210A48FFF7D2
:10283000BFFA0028F9D0204670BD10B5044600BF8D
:1028400020210548FFF7B4FA0028F9D00248FFF725
:1028500045FA10BD00080140003801403C0000204E
:102860007400002010B5DC4800F032FFDBA000F05F
:102870002FFFDEA000F02CFFE24800F029FFE24825
:1028800000F026FFE14800F023FFE14800F020FFC0
:10289000E0A000F01DFFE9A000F01AFFF7A000F093
:1028A00017FFFE4800F014FF10BD2DE9F04F87B070
:1028B00004460D4616469946284600F027FC074672
:1028C0000022F74B00F041FB82460022F54B00F05E
:1028D000AEFB02460B46CDE90401F3A000F0F8FE82
:1028E000304600F013FC82460022ED4B00F02DFB39
:1028F00007460022EB4B00F09AFB02460B46CDE95F
:102900000401EFA000F0E4FE484600F0FFFB824621
:10291000F14AF24B00F019FB07460022E14B00F0B0
:1029200086FBCDE90401484600F0F0FB0746002293
:10293000DB4B00F00AFB82460022DA4B00F077FB0B
:10294000CDE90201DDE90401CDE90001E4A0DDE902
:10295000022300F0BDFEEAA0109900F0B9FE214666
:10296000EBA000F0B5FE07B0BDE8F08F01B502E0C6
:102970000098401E009000980028F9D108BD7FB54E
:102980000024E9A2D2E900109268CDE90202019187
:10299000002538E00B2C00D1002405E0E548007844
:1029A000C0F3800000B905E0E248007800F00100C3
:1029B0000028F3D100BFDF480078C0F3800000B9E1
:1029C00023E0DD48FFF7D2FF01A9095744F6206252
:1029D00001FB02F040F6B8334FF4FA421146FFF71C
:1029E000F0FB01A8005744F62061484340F6B83395
:1029F0004FF4FA4211460090D0480068FFF755FFA7
:102A0000601CC4B26D1CC82DC4DB00BF00247FBD98
:102A10002DE9FC5F0024A146A246A346C8480078E1
:102A200078B10020C6490870C64800680090C648C2
:102A30000368C6480268C6480168C0480068FFF7D6
:102A400034FFBC480078C0F34000002877D0C1486C
:102A500000786D2875D1BF484078202815D1BD4831
:102A6000801C00F065FAB7490860B7480368B748AA
:102A70000268B7480168B3480068FFF7A2FB4FF04F
:102A8000010BB5A000F024FECAE1B24840786F28DF
:102A9000FAD1B04880787628F6D1AE48C07865285B
:102AA000F2D1AC4800792028EED10625A948401D76
:102AB00000F03EFAA349086000E06D1CA548405DA7
:102AC000202803D0A348405D0D28F6D16D1CA149F4
:102AD000481900F02DFA9E49086000E06D1C9D48E1
:102AE000405D202803D09B48405D0D28F6D16D1C29
:102AF0009849481900F01CFA9449086000E06D1CE0
:102B00009448405D202803D09248405D0D28F6D1BE
:102B10006D1C9049481900F00BFA8B490860084673
:102B200003688A4802688A48016886480068FFF797
:102B300048FB4FF0010B88A000F0CAFD70E1AFE147
:102B4000FFE784480078612826D182484078202811
:102B50009AD18048801C00F0EBF90446472C93DBA7
:102B6000B4F5FA4F90DC7A480460006800F0CEFAC1
:102B7000074600224A4B00F0E8F90022494BCDE914
:102B8000000100F054FA05462A460B4646A000F024
:102B90009FFD4FF0010B43E16E480078642819D186
:102BA0006C4840782028C9D16A48801C00F0C0F9E0
:102BB0008146B9F1470F0EDBB9F5FA4F0BDC6348DC
:102BC000C0F80090006800F0A1FA0022344BCDE973
:102BD0000001C5E0D4E000E1B44200080A0DCAE4F7
:102BE000C8EBC3FCC1EEA3BA000000000A0D3C20F4
:102BF0003F203E202020202020202DB0EFD6FAB20A
:102C0000CBB5A50064410008B0410008FC410008B4
:102C1000484200080A0D6D6F7665205B737465701D
:102C2000735D205B616363656C5D205B64656365F8
:102C30006C5D205B73706565645D00000A0D20208B
:102C4000202020202020202020202DD2D4C9E8B60A
:102C5000A8B5C4B2BDCAFDA1A2BCD3CBD9B6C8A386
:102C6000ACBCF5CBD9B6C8A3ACD7EEB4F3CBD9B6D0
:102C7000C8BFAACABCD4CBB6AF0000000A0D3C4501
:102C80006E746572BCFC3E2020202DD6D8B8B4D717
:102C9000EEBAF3D2BBB4CEB6AFD7F70018410008F6
:102CA0000000F03F000059400A0DBCD3CBD9B6C894
:102CB0003A252E32667261642F735E320000000086
:102CC0002020BCF5CBD9B6C83A252E326672616495
:102CD0002F735E32000000009A9999999919234048
:102CE0002020D7EEB4F3CBD9B6C83A252E3266727F
:102CF00061642F7328252E326672706D29000000E2
:102D00002020D2C6B6AFB2BDCAFD3A25640000008D
:102D10000A0DB5E7BBFAB5B1C7B0CEBBD6C33A20F2
:102D200025640D0A000000000202FEFE0202FCFC07
:102D3000041400002C000020FFFF0F0028000020DA
:102D40004000002044000020500000204C000020E3
:102D500048000020740000200A0D20200000000020
:102D600000F0F3F8054600224E4B00F060F90746EC
:102D70003A460B464CA000F0ABFC4FF0010B4FE085
:102D80004F480078732829D14D484078202847D1F2
:102D90004B48801C00F0CCF88246BAF10C0F3FDBA8
:102DA00044F6206082453BDC4648C0F800A000683D
:102DB00000F0ACF907460022434B00F0C6F80022B1
:102DC000384BCDE9000100F032F905462A460B46A2
:102DD0003EA000F07DFC4FF0010B21E03848007868
:102DE0000D280CD1374803683E4802683E48016808
:102DF0003E480068FFF7E5F94FF0010B10E030485E
:102E000000783F2804D1FFF72DFD4FF0010B07E0BC
:102E10002B480078742803D1FFF7B1FD4FF0010B68
:102E2000BBF1010F04D032A000F052FCFFF71AFDF5
:102E30003648007820F0020034490870FFF7E5FCBE
:102E40003248007800F0010050B330480078C0F3F9
:102E5000800010B12EA000F03BFC05E02B4800786C
:102E6000C0F3800000B905E02848007800F00100B8
:102E70000028F3D100BF25480078C0F3800078B166
:102E800028A000F025FC1948006800900D48036850
:102E9000144802681448016824480068FFF705FDDB
:102EA000BDE8FC9F000059400A0DBCF5CBD9B6C85F
:102EB0003A252E32667261642F735E320000000084
:102EC00074000020500000200000F03F0A0DD7EEF3
:102ED000B4F3CBD9B6C83A252E32667261642F732B
:102EE000000000004C0000204800002044000020AA
:102EF0000A0D20CAE4C8EBD3D0CEF3A3ACC7EBD6FF
:102F0000D8D0C2CAE4C8EB2E2E2E00002C00002020
:102F10000A0DB5E7BBFAD5FDD4DAD4CBD0D02E2E2E
:102F20002E0000004F4B0A0D00000000280000207A
:102F300070B5064600F0DCFB046805460A22002155
:102F4000304600F071F92C6070BD2DE9FE4F81EA2A
:102F5000030404F0004421F0004100944FF0000B02
:102F600023F0004350EA01045ED052EA03045BD030
:102F7000C3F30A54C1F30A552C44A4F2F334019468
:102F8000A0FB0254C1F3130141F48011C3F31303F6
:102F900043F4801301FB024400FB034E840A970AAA
:102FA00044EA815447EA8357A4FB076802958D0AD7
:102FB00005FB07854FEA932C04FB0C542705029D63
:102FC0004FEA065847EA1637B5EB08056EEB070CD3
:102FD000870E920E47EA811742EA8312A7FB02018D
:102FE000B6EB0B0164EB00042B0D43EA0C335E18C7
:102FF00044EB1C50DA465146E7FB0201C5F31304CB
:103000004FEA0B3343EA14534FEA0432019C43EA7C
:103010000603A4F10C040294009CCDE900B400F076
:103020004AF903B0BDE8F08F00200146F9E72DE929
:10303000F04D81EA030404F0004B21F000451446F2
:103040004FF0000A23F0004150EA050220D054EA74
:1030500001021DD0C5F30A570246C5F31303C1F39D
:103060001300C1F30A5640F4801543F48013A7EB14
:103070000608101BD64608F2FD3873EB050002D394
:1030800008F1010801E092185B41B8F1000F03DA82
:1030900000200146BDE8F08D00204FF48011064667
:1030A00084460EE0171B73EB050705D3121B63EB79
:1030B000050306434CEA010C49084FEA3000921818
:1030C0005B4150EA0107EDD152EA030012D082EAD7
:1030D000040083EA0501084305D0101BAB4106D26A
:1030E0000122002306E000224FF0004302E06FF0CF
:1030F000010253101AEB06004CEB085110EB0A00CA
:1031000041EB0B01BDE8F04D00F0C6B80EB5C10FA4
:1031100080EAE0700844CA07002140F233438DE89A
:103120000E000A460B4600F0C6F803B000BD0EB50F
:1031300040F2334102910021CDE900110A460B46CD
:1031400000F0B9F803B000BDC1F30A5210B5C1F3E5
:10315000130140F2FF3341F480119A4201DA00205A
:1031600010BD40F233439A42A2F2334203DC524292
:1031700000F04AF810BD904010BD30B50B46014636
:1031800000202022012409E021FA02F59D4205D306
:1031900003FA02F5491B04FA02F52844151EA2F1B0
:1031A0000102F1DC30BD2DE9F05F054600209246BA
:1031B0009B4688460646814640241BE028464146F9
:1031C0004746224600F020F853465A46C01A91411D
:1031D00010D311461846224600F0F6F92D1A67EB77
:1031E00001084F4622460120002100F0EDF917EBBF
:1031F00000094E41201EA4F10104DFDC484631469F
:103200002A464346BDE8F09F202A04DB203A21FAF3
:1032100002F00021704721FA02F3D040C2F12002EF
:1032200091400843194670472DE9F04791460F46F3
:1032300080460446002614F8015B2DB100F0E6F943
:103240000068405DC007F6D12B2D02D02D2D18D07F
:10325000641E4A463946204600F0DCF927B1396839
:10326000A14201D1C7F8008071054FF002040BD5CF
:103270004042002803DD00F03BFA0460A007BDE8EF
:10328000F08746F48066E4E70028F8DA00F030FAC8
:1032900004606FF00040F2E710B5141E73F10004F3
:1032A00008DA401C41F1000192185B411A4301D138
:1032B00020F0010010BD2DE9F04D92469B4611B162
:1032C000B1FA81F202E0B0FA80F22032904600F0CA
:1032D0007BF904460F4640EA0A0041EA0B015346D7
:1032E0005A46084313D0114653EA010019D0C8F1D9
:1032F00040025046FFF788FF05460E4650465946A5
:10330000424600F061F9084305D0012004E0204660
:103310003946BDE8F08D0020054346EAE0762C43AF
:1033200037430A986305E40AA0EB08000022FD0A6F
:1033300044EA47540A3002D500200146E9E7010576
:1033400010196941DDE9084500196941BDE8F04DF2
:10335000A2E72DE9FE4F804681EA0300C00F0C462C
:10336000009021F0004123F00045B8EB0200A94194
:1033700005D24046214690461C460B46024623F0A5
:103380000040104347D0270DC7F30A00C3F30A518A
:103390000290401A019040286BDAC3F3130040F406
:1033A000801B0098924620B10023D2EB030A63EB06
:1033B0000B0B01985946C0F14002504600F004F949
:1033C00006460D4650465946019A00F00CF910EB9E
:1033D00008006141002487EA115284EAE7731A4326
:1033E00040D0009A62B3019A012A4FEA075215DCD5
:1033F000001B61EB02014FF0004202EA0752CDE9E7
:103400000042001C41F5801132462B46FFF753FF66
:1034100003B0BDE8F08F40462146F9E7001B61EBA1
:103420000201001C41F5801300185B412018A2F531
:10343000001747EB030140EAD570B6196D4111E062
:103440006D084FEA360645EAC0754FEA0752001B81
:1034500061EB0201001C41F5801149084FEA300080
:103460000019514132462B4603B0BDE8F04FFFF73B
:1034700013BF0098012240000023D0EB020263EB4F
:10348000E073009821464FEAE074B8EB000061EB6E
:103490000401E9E783F000435BE781F0004158E76E
:1034A0002DE9F04D00231A461B1A8A4103DB002048
:1034B0000146BDE8F08DC1F30A52C1F3130141F496
:1034C00080154FF0000BD10702D100186D41521E3C
:1034D0000027044640F2FF11384601EB620A3E46DF
:1034E0008046024600204FF48011FFF78DFEC2197E
:1034F0007141BB1846EB0100B4EB030C75EB000CFB
:1035000004D3E41A65EB000517460E46241908F1AA
:1035100001006D4180463428E3DDF91946EB0600D1
:10352000091BA84103D24FF0FF32134601E00022ED
:1035300013461BEB070046EB0A51BDE8F04DFFF7C1
:10354000ABBEC1F30A52C1F3130140F2FF3341F4A1
:1035500080119A4202DA00200146704740F233435C
:103560009A42A2F2334202DC5242FFF74DBE00F013
:103570002BB8000030B5041E71F1000404DB4FF0DD
:103580000044404264EB0101141E73F1000405DBAA
:103590001C464FF00043524263EB0403994208BFBC
:1035A000904230BD064C074D06E0E06840F0010354
:1035B00094E8070098471034AC42F6D3FCF7BCFD02
:1035C0000843000828430008202A04DB203A00FAB8
:1035D00002F1002070479140C2F1200320FA03F36A
:1035E000194390407047202A06DBCB17203A41FA56
:1035F00002F043EAE07306E041FA02F3D040C2F180
:103600002002914008431946704700000048704767
:10361000844000082DE9F05F8246007800271546B7
:103620008B460AF10104B946302801D09DB113E060
:1036300014F8010B0127782803D0582801D045B190
:103640000AE00DB1102D07D10027102514F8010B49
:1036500002E0082500E00A250026B0460EE005FB42
:10366000080005FB06F1012701EB10461FFA80F860
:10367000B6F5803F00D3B94614F8010B294600F097
:1036800018F80028EBDABBF1000F05D00FB1641E6B
:1036900000E05446CBF80040B9F1000F06D000F02E
:1036A00027F802210160C81EBDE8F09F48EA0640E5
:1036B000FAE73A2800D2303820F02002412A01D31C
:1036C000A2F13700884201D34FF0FF30704700006D
:1036D0000FB4054B10B503A9044A029800F0D4F8C2
:1036E00010BC5DF814FB00001B28000854000020EB
:1036F000004870475800002002E008C8121F08C1A7
:10370000002AFAD170477047002001E001C1121F62
:10371000002AFBD170470000014908607047000093
:10372000580000202DE9FF5FDDE90220010DDDF8E2
:1037300038B0024318D044F61050A1F2FF31414393
:103740000D140F98012820D0A5EB0B00401C5FEA58
:10375000000A4FF00004474EDFF81C91A046504687
:1037600016D5CAF1000728E00F98012443A20128CA
:1037700008D0002100980F9BC0E90021C0E9024356
:10378000BDE8FF9F6FEA0B01F4E7CBF10000DEE735
:10379000074612E0F80707D022463346404649461E
:1037A000FFF7D3FB8046894622463346104619462A
:1037B000FFF7CBFB04460E467F10002FEAD1DDE970
:1037C0000201BAF1000F42464B4602DAFFF7BDFB99
:1037D00001E0FFF72CFC04460E460022284BFFF7C1
:1037E000C9FE03D84FF0FF30014607E00022254B09
:1037F00020463146FFF7ADFDFFF7A3FE102409E098
:10380000002C0ADB0A220023FFF7CDFC019B30329B
:103810001A55641E50EA0102F2D1641C019AC4F1E7
:10382000110314440F9A012A03D0012208430DD139
:103830000AE0084304D000204FF0110B0F9080E7FE
:10384000A3EB0B056D1E0DE05B4504DD4FF00002A0
:1038500005F1010504E003DA4FF00002A5F10105CE
:10386000002AECD000980F99C0E90231C0E9004568
:1038700086E70000000024400000F03F3000000018
:103880000000F0430000E03F2DE9FF4F95B09B465C
:103890008946064600250FE2252877D100242746D1
:1038A000F84A0121059400E0044316F8013F203B4B
:1038B00001FA03F01042F7D130782A2811D06FF0C6
:1038C0002F033078A0F13002092A16D8059A44F067
:1038D000020402EB820203EB42021044761C0590C4
:1038E000EFE759F8042B0592002A03DA504244F41A
:1038F0000054059044F00204761C30782E2816D12E
:1039000016F8010F44F004042A280DD06FF02F029E
:103910003078A0F13003092B09D807EB870302EBBD
:103920004303C718761CF3E759F8047B761C3078FC
:103930006C280FD006DC4C2817D068280DD06A28D8
:1039400014D104E0742810D07A280FD10DE044F48B
:1039500000140AE044F4801401E044F44014727846
:10396000824202D104F58014761C761C30786628D9
:103970000BD013DC582877D009DC002875D04528F7
:10398000F6D04628F4D047281AD19DE118E06328E4
:1039900035D0642879D0652812D195E1702873D08C
:1039A00008DC6728F1D069286FD06E280DD06F2809
:1039B00006D1B5E073282CD0752875D0782874D03E
:1039C0005A46179990476D1C75E1C4F302500228BE
:1039D00009D003280DD0D9F8001004280DD00D60AF
:1039E00009F1040967E1D9F80010EA17C1E90052AA
:1039F000F6E7D9F800100D80F2E70D70F0E719F83E
:103A0000041B8DF8001000208DF80100EA4601200B
:103A100003E059F804AB4FF0FF3061074FF00001AD
:103A200002D40DE008F101018846B9420FDA804561
:103A3000F8DB1AF808100029F4D108E008F10101B8
:103A400088468142FADB1AF808100029F6D1059859
:103A50005B46A0EB080721463846179A00F094FA17
:103A6000284400EB080507E04DE029E10DE01AF8D5
:103A7000010B5A4617999047B8F10108F7D25B46F7
:103A800021463846179A13E142E00A220092C4F315
:103A900002524FF0000A022A08D059F804CB032A38
:103AA0004FEAEC710AD00DE029E02AE009F10701A4
:103AB00021F00702F2E802C1914609E00FFA8CFCFE
:103AC0004FEAEC71042A03D14FFA8CFC4FEAEC71F7
:103AD000002907DA0A460021DCF1000C61EB020143
:103AE0002D2202E0220504D52B228DF8042001228C
:103AF00003E0E20701D02022F7E7904659E00A21CF
:103B000002E010220DE010214FF0000A00910BE0BE
:103B100010224FF0000A44F004040827009203E04A
:103B200008224FF0000A0092C4F30252022A05D084
:103B300059F804CB0021032A08D009E009F1070154
:103B400021F00702F2E802C1914605E01FFA8CFC61
:103B5000042A01D10CF0FF0C4FF00008220728D5F1
:103B6000702806D0009B83F0100353EA0A0305D0A7
:103B70000EE040228DF80420012208E05CEA0102F8
:103B800006D030228DF804208DF8050002229046E0
:103B9000009B83F0080353EA0A030AD15CEA01029E
:103BA00001D1620705D530228DF804204FF00108BD
:103BB0007F1E582804D034A003900EA802900DE078
:103BC00036A0F9E753466046009AFFF7ECFA8446C0
:103BD0000398825C0298401E029002705CEA010029
:103BE000F0D1029806A9081A00F1200A600702D550
:103BF00024F4803400E00127574502DDA7EB0A00DA
:103C000000E0002000EB0A01009005984144401AB2
:103C10000590E00306D45B462146179A059800F00C
:103C2000B3F90544002706E001A85A46C05D17997C
:103C300090476D1C7F1C4745F6DBE0030CD55B46C7
:103C40002146179A059800F09FF9054404E03020BA
:103C50005A46179990476D1C0099481E00900029FC
:103C6000F5DC08E0029802995A460078491C029156
:103C7000179990476D1CBAF10001AAF1010AF1DC15
:103C800065E1000009280100303132333435363720
:103C90003839616263646566000000003031323398
:103CA0003435363738394142434445460000000038
:103CB00000F058F90544761C307800287FF4ECAD0C
:103CC00019B02846BDE8F08F620700D4062709F135
:103CD000070222F0070CFCE80223E14603F000484B
:103CE0005FEA080C02D00FF2702C0DE05FEA045C72
:103CF00002D50FF2682C07E05FEAC47C02D00FF215
:103D0000602C01E0AFF2700C4FF0FF3823F000435D
:103D1000CDF850C065280CD006DC452809D04628CF
:103D20001DD047283DD13DE0662818D067287ED1B8
:103D300038E00021112F01DB112000E0781CCDE9D3
:103D4000000106A90EA8FFF7EDFCDDE90F010E9AB0
:103D500003910021009207F1010A04914DE04FF018
:103D600000400097CDE9011006A90EA8FFF7DAFC84
:103D7000DDE90F0203920E9B11990022DDF80CA0E1
:103D80000093049211B9791C00EB010AB7EB0A0009
:103D900004D4C0F1FF3007F1010A0490AAEB070038
:103DA000019044E0012F00DA01270021112F01DDED
:103DB000112000E03846CDE9000106A90EA8FFF762
:103DC000B1FCDDE90F010E9A0391002104910092EC
:103DD000BA4621070CD40399514500DA8A46BAF154
:103DE000010F05DD009AAAF10101515C302908D0CC
:103DF000B84202DA10F1040F06DA0121CDE9011010
:103E000015E0AAF10101E9E7002805DC0499014465
:103E10000491AAEB000102E0411C514500DD8A46F5
:103E20000499401A401C01904FF000400290200776
:103E300004D40198504501DBCDF8048000208DF8B2
:103E40004F0002980DF14F07B0F1004F25D02B2005
:103E50000E9002984FF0020800280CDA40420290BF
:103E60002D200E9007E00A210298FFF786F93031E5
:103E7000029007F8011DB8F10001A8F10108F2DC79
:103E800002980028EFD1791E0E980870307800F063
:103E9000200040F0450007F8020D12A8C01B00F1F9
:103EA00007081498007800B1012000EB0A0101987E
:103EB00001EBE07105984144401A401E0590E00373
:103EC00006D45B462146179A059800F05DF8054434
:103ED0001498007818B15A46179990476D1CE00362
:103EE00024D55B462146179A059800F04DF8054405
:103EF0001CE00498002807DBDDE90301884203DDAC
:103F00000098405C179901E0179930205A46904775
:103F1000049805F10105401C04900198401E019091
:103F200004D12E205A46179990476D1CBAF1000112
:103F3000AAF1010ADDDC05E017F8010B5A461799D2
:103F400090476D1CB8F10001A8F10108F4DC5B4654
:103F50002146179A0598ABE62D0000002B000000C3
:103F6000200000002DE9F041044600251E461746BA
:103F7000880404D405E039462020B0476D1C641E37
:103F8000F9D52846BDE8F0812DE9F0410446002529
:103F90001E469046C80301D5302700E0202788043C
:103FA00004D505E041463846B0476D1C641EF9D57E
:103FB0002846BDE8F0812DE9F04106460F46FFF79F
:103FC0006FFA04000D4618BF0120284320F000407E
:103FD000C0F17F6000F1E040C00F0ED0301C18BF70
:103FE0000120384320F00040C0F17F6000F1E04044
:103FF000C00F04BF0120FFF78FFB20462946BDE814
:10400000F0810040404040404040404041414141FB
:10401000414040404040404040404040404040409F
:1040200040404005020202020202020202020202B3
:104030000202022020202020202020202002020234
:1040400002020202909090909090101010101010A8
:10405000101010101010101010101010101002027C
:1040600002020202888888888888080808080808E8
:1040700008080808080808080808080808080202CC
:1040800002024000034000080A0DC7FDB6AFC6F7A4
:10409000BDFBD6B9CAE4B3F6A3A8CDD1BBFAD7B459
:1040A000CCACA3A9B4CBCAB1B5E7BBFACEAACEDEDD
:1040B000B1A3B3D6C1A6BED8D7B4CCACA3ACBFC94C
:1040C000D2D4CAD6B6AFD0FDD7AAB5E7BBFA0000A6
:1040D0000A0DC7FDB6AFC6F7BBD6B8B4D4CBD0D0A7
:1040E000A3ACB4CBCAB1B5E7BBFACEAAB1A3B3D6E1
:1040F000C1A6BED8D7B4CCACA3ACB4CBCAB1B4AE15
:10410000BFDAD6B8C1EEBFC9D2D4D5FDB3A3BFD8EC
:10411000D6C6B5E7BBFA00000A0DBFAAB7A2B0E544
:10412000B0B4BCFCA3AC4B455931A3BAC7FDB6AF84
:10413000C6F7BDFBD6B9CAE4B3F628CDD1BBFAD7D2
:10414000B4CCAC2920204B455932A3BAC7FDB6AF39
:10415000C6F7BBD6B8B4D5FDB3A3B9A4D7F70A0D3B
:10416000200000000A0D615B646174615D20202005
:1041700020202DC9E8D6C3B2BDBDF8B5E7BBFAB55E
:10418000C4BCD3CBD9B6C8A3A8B7B6CEA7A3BA37F9
:1041900031A1AA3332303030A3A9B5A5CEBBCEAA07
:1041A000A3BA302E30317261642F735E320000008A
:1041B0000A0D645B646174615D20202020202DC99C
:1041C000E8D6C3B2BDBDF8B5E7BBFAB5C4BCF5CB04
:1041D000D9B6C8A3A8B7B6CEA7A3BA3731A1AA3318
:1041E00032303030A3A9B5A5CEBBCEAAA3BA302EAB
:1041F00030317261642F735E320000000A0D735B10
:10420000646174615D20202020202DC9E8D6C3B2EE
:10421000BDBDF8B5E7BBFAB5C4D7EEB4F3CBD9B69C
:10422000C8A3A8B7B6CEA7A3BA3132A1AA333030FB
:1042300030A3A9B5A5CEBBCEAAA3BA302E30317219
:1042400061642F73000000000A0D6D5B646174618E
:104250005D20202020202DD2D4C9E8B6A8B5C4B254
:10426000BDCAFDD2C6B6AFB2BDBDF8B5E7BBFAA3B5
:10427000A8B7B6CEA7A3BA2D323134373438333687
:104280003437A1AA32313437343833363437A3AC1B
:10429000C6E4D6D0D5FDCAFDCEAACBB3CAB1D5EB04
:1042A000A3ACB8BACAFDCEAAC4E6CAB1D5EBA3A9DD
:1042B000000000000A0DA1AAA1AAA1AAA1AAA1AA70
:1042C000A1AAA1AAA1AAA1AAA1AAA1AAA1AAA1AA96
:1042D000A1AAB1FCBBF0B2BDBDF8B5E7BBFAC7FD02
:1042E000B6AFD1DDCABEB3CCD0F2A1AAA1AAA1AA11
:1042F000A1AAA1AAA1AAA1AAA1AAA1AAA1AAA1AA66
:10430000A1AAA1AAA1AA0000284300080000002039
:104310005C000000F8360008844300085C000020C0
:104320001C0500000837000800A24A040000000035
:104330000000000001020304060708090000000055
:104340000102030401020304060708090204060827
:104350000000000004000000000000000000000059
:10436000000000000000000001000000409C000070
:10437000007D0000007D0000B80B00000000000080
:044380000000000039
:0400000508000131BD
:00000001FF
