:020000040800F2
:1000000058D5002045010008BD92000889760008F7
:10001000BB9200082D0C000881D3000800000000EE
:1000200000000000000000000000000079C200088D
:10003000C710000800000000070300083D9F0008EB
:100040005F0100085F0100085F0100085F01000810
:100050005F0100085F0100085F0100085F01000800
:100060005F0100085F0100085F0100085F010008F0
:100070005F0100085F0100085F0100085F010008E0
:100080005F0100085F0100085F0100085F010008D0
:100090005F0100085F0100085F0100085F010008C0
:1000A0005F0100085F0100085F0100085F010008B0
:1000B0005F0100085F0100085F0100085F010008A0
:1000C0005F0100085F0100085F0100085F01000890
:1000D0005F0100085F0100085F0100085F01000880
:1000E0005F0100085F0100085F0100085F01000870
:1000F0005F0100085F0100085F0100085F01000860
:100100005F0100085F0100085F0100085F0100084F
:100110005F0100085F0100085F0100085F0100083F
:100120005F0100085F0100085F0100085F0100082F
:10013000DFF80CD000F098F800480047F9CC01082F
:1001400058D500200648804706480047FEE7FEE7EE
:10015000FEE7FEE7FEE7FEE7FEE7FEE7FEE7FEE777
:1001600069C300083101000872B6704762B6704773
:10017000EFF3108072B6704780F31088704730BF7D
:10018000704720BF7047B0FA80F0704790FAA0F037
:10019000B0FA80F0704790FAA0F0704710B5431A9B
:1001A000934209D28318881803E010F8011D03F860
:1001B000011D521EF9D210BD40EA01039B0703D076
:1001C00009E008C9121F08C0042AFAD203E011F896
:1001D000013B00F8013B521EF9D210BDD2B201E042
:1001E00000F8012B491EFBD270470022F6E710B53C
:1001F00013460A4604461946FFF7F0FF204610BD95
:10020000421C10F8011B0029FBD1801A704730B541
:1002100004460020034600E05B1C934203D2E05CEE
:10022000CD5C401BF8D030BD034611F8012B00F81F
:10023000012B002AF9D11846704730B50B4601460C
:1002400000202022012409E021FA02F59D4205D375
:1002500003FA02F5491B04FA02F52844151EA2F11F
:100260000102F1DC30BD0000064C074D06E0E068FD
:1002700040F0010394E8070098471034AC42F6D3ED
:10028000FFF75AFFA0E80208C0E8020870B58C1812
:1002900010F8015B15F0070301D110F8013B2A119A
:1002A00006D110F8012B03E010F8016B01F8016B87
:1002B0005B1EF9D12B0705D40023521E0DD401F883
:1002C000013BFAE710F8013BCB1A921C03E013F84C
:1002D000015B01F8015B521EF9D5A142D8D3002081
:1002E00070BD000018484FF0FF010170002080F33E
:1002F00009881648016881F3088815484FF0805135
:10030000016062B6FEE772B6EFF3098028B12038CB
:1003100080E8F00F0F490968086000B50E48804773
:100320005DF804EB0D480E490A78027009480D4942
:100330000A680260106890E8F00F203080F30988A6
:100340004EF0040E62B6704722ED00E08C000020F3
:1003500004ED00E084000020659D000840000020BE
:100360004100002088000020002800DC4042704747
:100370007047000070B58AB0002409AD03260594CB
:10038000CDE9076519221D4B0694CDE90132012004
:100390000102CDE903100C2000902346184A19A150
:1003A0001C4809F077FACDE90646059470020895D5
:1003B000CDE903049921184ACDE901210D200090CF
:1003C00014480023154A16A1B43009F063FA0594C5
:1003D000CDE907653322174B0694CDE9013202209F
:1003E0000102CDE90310062000900023124A13A158
:1003F000164809F04FFA0AB070BD000080100020C6
:1004000015050008417070205461736B20557064AD
:1004100061746500640A00208014002091050008C2
:10042000417070205461736B2055736572617070F8
:1004300000000000802C0020510400084170702052
:100440005461736B204B657970616400CC0B0020A4
:100450001FB503AC002101AB02AA0846009409F0C5
:10046000F9FABDF80C100029F4D11CF0E3FBF1E718
:100470000EB500F0A1F800F079FC00F0F9F802A840
:1004800009F0B0F90BA01AF0A5FEFFF773FF15A055
:100490001AF0A0FEFFF76CFF002502AC05F0B0FBE0
:1004A0000022CDE900540F231146104609F0B4FC98
:1004B000F4E700003C3C2D4F532D494E464F2D3E56
:1004C0003E204372656174696E67204170706C698B
:1004D000636174696F6E205461736B732E2E2E0AE4
:1004E0000D0A00003C3C2D4F532D494E464F2D3EEA
:1004F0003E204372656174696E67204170706C695B
:10050000636174696F6E204576656E74732E2E2E4E
:100510000A0D0A000EB51B4C4FF47A7508E0A1785D
:10052000491CC9B2A1700A2906D228461CF022F83B
:100530000CF0EAFC0028F2D101274FF48079DFF8B3
:1005400048A0124E00250DF1080817E000200CF01D
:100550005BFD38B13078012800D1677049465046BC
:1005600002F079FD0022CDE90058642311461046BF
:1005700009F052FC4946504602F06BFDA0780A286B
:10058000F0D2E3E72800002000080140A00000208E
:1005900004480078552801D01CF0F0FA0CF0F2FE67
:1005A000FCE700002800002000B585B068460AF08E
:1005B000F7FF019805B000BD10B586B0002002908D
:1005C000039004900590012140200AF0BFFF00F045
:1005D00029FB08F081FB07F0B7FB07F0CBFB00F02D
:1005E00005FB0CF0EDFD0FF0A7FA04200EF02CFB3C
:1005F00004F0CCFA012219A119481CF0C1F81949DC
:100600000870194C18B1E020207006B010BD01220E
:100610004FF4FF1114480BF077FC20785528F4D1E3
:100620001022124902A80BF06FFCBDF80C000090DC
:10063000BDF81430BDF81020BDF80810002005F0FA
:1006400087FABDF80E000090BDF81630BDF81220F4
:10065000BDF80A10012005F07BFAD6E7303A000019
:100660002C4A00202B0000202800002002E01F0060
:1006700010B5FFF799FF04490968B0FBF1F0BDE838
:10068000104009F06DBC000014CE010838B5456873
:100690000446014628460CF017FF00282AD020689F
:1006A000304A0F2819D006DC0B2824D00C2810D093
:1006B0000E2851D12FE0112802D028284CD145E036
:1006C0009268002A16D02146284601B0BDE8304085
:1006D0001047214628465268F7E7284603F0F8F805
:1006E0000090406E0468684603F05CF9002C01D06D
:1006F0002846A04738BD284603F0EAF80090683045
:1007000003F040F8009803216C3003F049F8684684
:1007100003F048F920E0E168486809680D2902D033
:10072000202913D105E0002810DD284616F0CDFB66
:1007300006E0002804DD2846BDE8384016F0C5BBB9
:100740002846BDE83840022116F0D5BBE06818B94C
:100750000021284600F0CAF92046BDE838400DF0D7
:10076000A9BA0000180200202DE9FF410AAF70CF9E
:10077000002703958DE8D00000F003F804B0BDE831
:10078000F081F0B585B00DF1280CBCE8F0004FF019
:10079000000C8DE8F01000F025F805B0F0BDF0B5C4
:1007A000044685B08069B4F90850668A0027CDE90F
:1007B0000265CDE900170490B4F90C00B4F910609B
:1007C000C118B4F90A00B4F90E50104433462A4651
:1007D00000F008F80546616800F0A7F905B0284662
:1007E000F0BD00002DE9F04F85B01F46DDE911B4E2
:1007F000DDE90E5690468946824604F031FA4C34C3
:100800001548CDE90204CDE900563B46424649462B
:1008100050460DF095F9040018D003F059F8102255
:10082000594604900DF098F8049830220B49343062
:10083000FFF7B4FC094D04990C3D2868486604A8EC
:1008400003F0B0F8286841682046884705F080FC2E
:1008500005B02046BDE8F08F8D0600082402002078
:10086000F0B5044680688B4989B051F82050606823
:1008700000287DD0052804D006287AD0122879D106
:10088000AEE0E86900284FD095E80E008DE80F0033
:1008900004F110010FC906F0E3F9002655F826000F
:1008A00004F0A1FFA169E8690A1A2169014460699D
:1008B000304403F05DFEA169E8690A1A2169014428
:1008C000E069801B03F054FEE169E8690A1A616976
:1008D00001442069304403F021FFE169E8690A1A04
:1008E00061690144A069801B03F018FF761C022E89
:1008F000D4DBA86804F077FFE069E9696669431A08
:1009000020694218521E3144801C03F0ABFFE1699C
:10091000E869A2690B1A61690144101A401C921E11
:1009200003F0A0FFEE6913E05FF0000655F8260023
:1009300004F059FFE069831BA069821B606981197B
:100940002069304403F08AFE761C022EEEDB02267C
:10095000D5E90301CDE900016169E069084443106C
:10096000A069891C821B2069304403F0C5FD02E0A8
:1009700089E012E08AE0D5E90501CDE90001E369EB
:1009800060690121184401EB6001A0699B1E821B74
:100990002069304403F0B0FD78E0206802F098FF51
:1009A000049020680EF07EFD40B1A06808B10020E0
:1009B00008E00498006F28B1012003E00498406F1C
:1009C00000B10220049901EB8000C56E04A802F07A
:1009D000E9FF00231A462846216803F0BDFA55E0D6
:1009E000206802F075FF0490866EEEB3B0F95C707B
:1009F000A168D1B3032942D05FF0000100EB81016F
:100A0000406D0C6C04F00CFF204604F0ECFE05A8D1
:100A100003F0EAFFBDF81410A88B0144ADF81410E0
:100A2000BDF81810081AADF81800BDF81600801CA3
:100A3000ADF81600BDF81A00801EADF81A00049833
:100A40005E30B0F90220B0F9001005A804F07AFD7C
:100A500004A802F0A7FF022004F04EFF304602F087
:100A600037FF3A4605A901E00BE006E0079003F0E6
:100A700091FB07A802F096FF08E00121BEE70221E2
:100A8000BCE704A8F6E720680EF09EF909B0002044
:100A9000F0BD000080C60208044A03491160044901
:100AA0004A6A48621046704754020020180200202B
:100AB0002402002000294FF0100101D00CF093BD5A
:100AC0000CF0DABC38B50D4604000ED004F0C8F8BE
:100AD000204602F0FDFE00904565684602F062FF88
:100AE00020460DF04FFE05F033FB38BD4FF4807209
:100AF0000029114601D00CF076BD0CF0BDBC08B544
:100B00000023009300F001F808BD70B516460C46AE
:100B1000054619463046049A03F000FA024621467B
:100B20002846BDE8704000F042B82DE9FF410E466E
:100B300005004FF0010421D004F092F8284602F09D
:100B4000C7FE0190876E01A8009702F02BFF314687
:100B5000684606F033FC78B100980024B84208D00B
:100B6000284602F0B5FE01900099816601A802F0C6
:100B700019FF28460DF006FE05F0EAFA04B02046FB
:100B8000BDE8F08138B50C4605000FD004F068F8D8
:100B9000284602F09DFE0090A0F85C40684602F0F6
:100BA00001FF28460DF0EEFD05F0D2FA38BDF8B58C
:100BB00015460C46060018D004F052F8304602F0F4
:100BC00087FE0090032C0BD800EB84006C3002F001
:100BD000D9FD009800EB8400C56630460DF0D2FDCB
:100BE000684602F0DFFE05F0B3FAF8BD38B5012122
:100BF00004200AF0C7FC4FF48074ADF800401020C8
:100C00008DF8030003208DF80200054D6946284643
:100C100002F096F92146284602F01BFA38BD000082
:100C2000000801404FF4A06008F04ABBFEE7000056
:100C30002DE9FF470446006810B10EF033FC68B19F
:100C40000022314850F8221060680A2841D007DCA1
:100C5000F0B306280DD0072854D106E00122F0E7B2
:100C600012280AD019284DD137E0204610F09EFCFA
:100C700048E0204612F09EF844E0206802F028FE8A
:100C80000290B0F9548090F85650476C466B02A819
:100C900002F088FE206800F039F8814668460DF0C1
:100CA00029F9BDF8001009EB05000844ADF8000073
:100CB000246A304604F0B4FD022004F01DFE3846DC
:100CC00004F091FD42466946204603F063FA19E0BC
:100CD00007E0204612F039FE14E0886904B0BDE850
:100CE000F08720680EF070F8206802F0F1FD0390A4
:100CF000B0F90610B0F90220891A491CC16703A88F
:100D000002F050FE0020E9E790C6020838B504461C
:100D100003F0A6FF204602F0DBFD0090C46F68469A
:100D200002F040FE05F014FA204638BD044A03499B
:100D300011600449CA69C86110467047E00200208A
:100D4000E8070020EC07002000B589B024216846A0
:100D5000FFF74BFA1920019003480068806841684A
:100D60006846884709B000BDE8070020AFF300805F
:100D700002490020086000F009B800002C000020A3
:100D800001490860704700002C00002010B5094898
:100D9000016841F0807101600748002141600168ED
:100DA00041F001010160FFF7FFFBBDE81040FFF7D4
:100DB000E7BF0000FCED00E0001000E001484068E3
:100DC00070470000001000E070B586B00DF0C0F86C
:100DD00030214FF41472CDE9032105910321CDE9AF
:100DE0000001164800230293036A74224FF48171B4
:100DF0003E2006F01EFD06460024114D11A230468D
:100E000055F8341006F04CFC641CE4B2022CF5D307
:100E10000D4A0121304606F083FD4FF0FF31304688
:100E200006F0C8FD0A220021304606F0D2FD06B0C9
:100E30003046BDE87040082106F0A5BD8C5A002060
:100E400040CE01080000000080FFFF80F0B587B0B1
:100E500000240DF07DF82C4A0223CDE901322B4D00
:100E60000090042105F1080003910FC80CF068FE02
:100E700068623A213022CDE90421002640F2512354
:100E8000CDE902630321CDE90001E8692A68143045
:100E900000EB4003D21E3146032006F0CAFC064692
:100EA0001B4D6FF07F4705EBC40055F834104268C6
:100EB000304606F0F5FB3A462146304606F0AAFDDC
:100EC000641CE4B2022CEED3124A0121304606F033
:100ED00027FD1149304606F03FFD4FF0FF31304607
:100EE00006F068FD0A220021304606F072FD0C2251
:100EF0000121304606F06DFD07B03046BDE8F040F8
:100F0000082106F040BD00005DC201088C5A002097
:100F100050CE010880FFFF80C09B020870B586B0EC
:100F20000DF016F80C230226CDE901631DA14FF444
:100F3000B072CDE90321009010233C2231460020FD
:100F40000BF07CFA04461A4920460BF0F5FA6FF0D4
:100F50007F45294620460BF030FB0CF0F9FF154980
:100F60000E2440F261130A68CDE9016412A1CDE9B3
:100F70000331009002EBD2706FF0180101EB6000BA
:100F80001023322202210BF059FA0446294620464A
:100F90000BF013FB06B02046BDE8704009490BF08A
:100FA000CBBA000057696C6466697265204F5300C4
:100FB000C09B02088C5A002031313A35363A303025
:100FC00000000000B094020801480068704700006B
:100FD0002C030020F8B50546006802F079FC00906B
:100FE000448ED0F88860684602F0DCFC06B1012629
:100FF00004F0010428680EF055FA0EB1002006E056
:101000000CB1012003E008B1022000E003201B49DD
:1010100051F82010686858B302280CD0052802D077
:10102000122828D103E0284610F0ECFA23E02846E5
:1010300012F0DBFF1FE06A69E8694FF0FF33801AA6
:10104000A0F1080203EB6204421CAB69001B4510CF
:10105000A3EB6206C86904F0C6FB06E03219311B37
:10106000284603F085FA641E6D1C002CF6DA02E0B7
:1010700028680DF0A9FE0020F8BD0000F0C60208A7
:10108000044A0349116004490A6B0863104670471B
:1010900030030020280800202C08002038B50D4619
:1010A000002402F015FC0090C06B294602F012FDEE
:1010B0000546684602F076FC1DB1284602F008FCA1
:1010C0000446204638BD70472DE9FC470E465FEACE
:1010D00000097FD003F0C4FD484602F0F9FB009000
:1010E00090F85470D0F85880456BC46C684602F094
:1010F00059FCB8F1000F04D03146484642469047AB
:1011000061E0122E18D006DC082E43D0102E3CD001
:10111000112E06D112E0132E21D01D2E43D01E2EEB
:101120003DD0202E4FDB17B148460FF0B0FFB1B2D3
:10113000484615F06BFB60B3611C27E04DB32846B1
:1011400002F0C6FB05462146019004F0DDFE44197D
:10115000204604F079FE01462346012210E0C5B185
:10116000284602F0B5FB05462146019004F0CCFE6E
:101170004419204604F068FE014623464FF0FF3232
:1011800048460FF04FFC01A81BE0611E484600F0E6
:101190006EFA18E0BCB1611E484600F068FA484695
:1011A0000FF075FF0FE0484602F092FB0090012F10
:1011B00012D0012180F854102146484600F057FA19
:1011C000684602F0EFFB48460DF0DCFA00E001E073
:1011D00004F0BEFFBDE8FC87002180F85410EFE763
:1011E000FEB54468054620460EF05CF906462946E1
:1011F00020460CF069F9002834D028680E283DD02C
:1012000004DC0B282FD00C284AD116E00F2825D05B
:10121000A0F58070133843D120460DF039FC2046EC
:10122000002116F01EFB204602F052FB0190C06F19
:1012300000210DF005FC01A81DE0E86860B1017A0D
:1012400029B10168204600F0EAF8012100E00221FE
:1012500020460DF03AFB23E00321F9E70121204667
:1012600016F0FFFAFEBD204602F032FB009034304B
:1012700002F088FA684602F095FB11E086B1E86852
:10128000416800290CDD0168092909D00A2907D025
:101290000D2905D01B2903D02046FFF715FFFEBD01
:1012A00028460CF007FDFEBDF0B587B004460DF1F1
:1012B000080CD4E90567B0F90850408AACE8E100B1
:1012C0000020CDE90010B4F90C00B4F91060C11889
:1012D000B4F90A00B4F90E50104433462A4600F01F
:1012E00009F8050002D0618A00F072F907B02846BB
:1012F000F0BD00002DE9FF5F1F46DDE91254DDE976
:101300000E6A90468946834603F0AAFC0DF1040C50
:101310004AF4805058341E490096ACE813003B460E
:101320004246494658460CF00BFC04002AD002F015
:10133000CFFA1022009011990CF00EFB00981C229D
:1013400014496030FEF72AFF009A012082F8550008
:10135000681C00D0012082F88000002D00DC0825E8
:101360002DB215870020508750636D1C684602F02F
:1013700019FB2946204615F082F818B920460CF0D2
:10138000D1FC002404F0E4FE04B02046BDE8F09F48
:10139000E1110008EC0300202DE9FC4115460E0088
:1013A000044627D0002C25D003F05AFC204602F03A
:1013B0008FFA002701903770406BB0B102F088FAC5
:1013C000009005F07BFE0146009804F09DFD044668
:1013D000681E844200DD0446224630460099FEF72E
:1013E000DDFE684602F0DEFA375501A802F0DAFAAF
:1013F00004F0AEFEBDE8FC8138B505004FF00004F6
:101400000BD003F02DFC284602F062FA0090846CA9
:10141000684602F0C7FA04F09BFE204638BD2DE96D
:10142000F04186B00C46060055D003F019FC30465A
:1014300002F04EFA0090406B98B302F049FA039024
:101440000098806E04F0ECF9804630460CF0D2FE35
:101450000746039803F046FB0546009890F8601095
:1014600001F00301012916D002290DD0416EC06A96
:1014700000680844241A641E039805F01FFE014604
:10148000002C0FDA002115E0781B401C00EBD07017
:10149000A4EB6004F0E7406E791B081A241A641C60
:1014A000EAE713E0AC4205DC02462146039805F06A
:1014B000A5FD0146304600F0DAF803A802F072FA02
:1014C000404604F0ADF930460DF05CF9684602F094
:1014D00069FA04F03DFE06B0BDE8F08138B50C466F
:1014E00005000FD003F0BCFB284602F0F1F9009094
:1014F00018B1846628460DF045F9684602F052FAA4
:1015000004F026FE38BD2DE9FC4788465FEA000955
:101510004FF000055AD003F0A3FB484602F0D8F97B
:101520000090B0F93860446B684602F03BFA00273F
:10153000B8F1000F3ED04CB1204602F0C9F901903D
:10154000FEF75EFE451C01A802F02CFA404605F0AD
:10155000B5FD0446B04200DD34462146404604F065
:10156000D3FC461C711B484615F0A0FA08B3484648
:1015700002F0AEF90090406B02F0AAF93246414603
:101580000190FEF70BFE0198304400F8017C0098B2
:10159000C464B0F938108C4205D190F85410012978
:1015A00001D1641EC464684602F0FCF901A802F08F
:1015B000F9F906E00098343002F0E4F80098478723
:1015C000C76448460DF0DEF804F0C2FDBDE8FC87B4
:1015D00038B50C4605000FD003F042FB284602F058
:1015E00077F9009018B1046628460DF0CBF86846EC
:1015F00002F0D8F904F0ACFD38BD0000F8B51D4686
:1016000016460C46074603F02BFB2FB3384602F074
:101610005FF90090AC4201D92C4602E0B44200D2FE
:1016200034460F4981650F49C1650021C0E9124167
:10163000C0E90F65012180F85410B0F938100A296B
:1016400001DD0A210187684602F0ACF9384619F03D
:10165000D5F838460DF096F804F07AFDF8BD000094
:1016600039FD0008FDA70108002218F05EBF1CB577
:101670000C4602F02DF90090406BF0B102F028F911
:10168000019005F01BFD009991F8542002B1012250
:10169000002C00DA0024844200DD0446B1F9380051
:1016A000801AA04200DA0446C86CA04200D0CC6484
:1016B0000020086501A802F075F9684602F072F989
:1016C0001CBD012218F031BF2DE9F04389B09846C6
:1016D00015460F4606004FF000042DD000F0BCFB6D
:1016E0000446304600F09FFB814603F0B9FA03A997
:1016F000304600F014FDF80706D0BDF91C00001BB1
:10170000401B401C822109E0B8070028BDF91800E1
:10171000284402DA40F2022100E002210096CDE9DD
:10172000018123461A464946FFF71EF80446002168
:10173000FFF7C0F904F00CFD09B02046BDE8F083C6
:1017400010B50523FFF7C0FF0446054A0021FFF747
:10175000D6F9044920460DF0ECF9204610BD0000F2
:10176000A114010831B301082DE9F047456804468A
:101770008EB00026284602F0ABF800905C30B0F83E
:1017800020A0D0F80C90D0F82480C76A006800B17F
:101790000668684602F006F905E079682046884741
:1017A00000283DD13F68002FF7D12068142844D08D
:1017B00009DCA0F10B00072839D2DFE800F0BE39C0
:1017C00089B434B4110020287ED004DC17283ED020
:1017D0001E282CD14BE026283CD02A2827D110E007
:1017E0002846E66802F074F80190717A39B9317AC6
:1017F000012904D130F87C1F41F48071018001A8D7
:101800008FE0284602F064F80090E16811B1C0F85A
:10181000841002E0D0F88400E060684602F0C2F86C
:101820000EB0BDE8F087002E7DD02846B0477AE0A4
:101830002146284615F0FAFDF2E705A9284600F0F2
:101840006EFCE0680699016007994160E8E7C4F81A
:101850000C90E5E7E0680228E2D10C95E0680D9075
:1018600027200A900AA9A0680EF01EF8D8E7E068C1
:10187000012804D00021284600F066FBD0E740464E
:101880000CF0DBFF58B140460DF018FA40460CF062
:10189000A5FE88B1012140460BF0A5FE0CE04846AC
:1018A0000DF060FA8046284602F012F80090C0F869
:1018B0008080684602F076F80121284600F044FB5B
:1018C000B8F1000FACD100E00EE00020E060A7E727
:1018D0005FEA0A7027D4E068C06820B3007A10B3CA
:1018E00028460DF0EBF91EE0E668E6B1294670687F
:1018F0000DF0C1FD20B10121284618F039F812E0A1
:101900000021284618F034F8294630680DF0A2FD71
:1019100048B1284601F0DCFF03903168C0F8801020
:1019200003A802F03FF8214628460BF0CDFD002821
:101930008CD020460CF0BEF972E7284601F0C8FFB3
:101940000090703001F01EFF6846EAE7F0B587B0FE
:10195000B0F908400DF10C0C0C9E87694568ACE8A5
:10196000F000448A0025CDE900150294B0F90C106E
:10197000B0F91050B0F90E40B0F90A001944104403
:101980002B46224600F002F807B0F0BD2DE9F04FDB
:101990008BB09846DDE9155691468A468346149FDA
:1019A0001A9C03F05DF96034314845F48055CDE967
:1019B0000204CDE9007543464A46514658460CF0AC
:1019C000BFF804004DD001F083FF30220490179936
:1019D0000BF0C2FF0498282226493430FEF7DEFBC4
:1019E000049819995C30234F816006840026466272
:1019F0000661083FC6627968016004A801F0D2FF61
:101A000005A9204600F08BFB1B4841F2827103962A
:101A10000094CDE90110BDF91E00BDF91A10BDF901
:101A20001C20431ABDF918005B1C121A521C0CF042
:101A300087F806467868416820468847204601F0C6
:101A400047FF0490866604A801F0ACFF42F2040050
:101A5000054202D120460CF0CDF92046189900F03D
:101A6000E2FA04F075FB0BB02046BDE8F08F0000F1
:101A7000691700086C0800202D2400082DE9F041AA
:101A8000044694B0006800F0B7F908B1D94D01E000
:101A9000D84D2C35606815281ED00CDC0B281FD0C3
:101AA00004DC00287ED005287DD12EE10E287BD0D5
:101AB0001228F9D141E1162806D0172808D0182895
:101AC00008D01C28F0D109E0E86914B0BDE8F08125
:101AD000286AFAE7686AF8E7A86AF6E76869F4E747
:101AE00020680B901C200C90206801F0F1FE039000
:101AF000016D0BA88847064603A801F053FF022E8C
:101B00000EDB95E807008DE80700D4E904023346B0
:101B1000A16905F06BF820698719A069801B2BE08B
:101B2000286803F060FE2169E8690A18521E60699E
:101B300002F01EFDA269E869111A491C606902F0F1
:101B400017FD676920697F1C394602F061FD39463F
:101B5000A06902F05DFD686803F045FE2069394622
:101B6000401C02F055FDA0693946401E02F050FDB0
:101B70002769A069BF1C801E8046286803F033FED9
:101B800042463946606902F0F3FC686803F02BFEB8
:101B900060694246401C394602F0EAFC686A022845
:101BA0000FDD02E015E1AFE000E1A86803F01BFEE5
:101BB00061696A6A881C8B1801465B1E424638467A
:101BC00027E0296AB14226DD6069022E074600F14E
:101BD000020801DB374401E007F10207206901DB5D
:101BE000304401E000F1020022693B460A44A2F1C0
:101BF0000102414602F036FE022E02DBA069821B82
:101C000001E0A269921EA069E9693B46401A401CA6
:101C1000414602F027FE022E02DB6069064401E025
:101C20006669B61CE76928687F1E03F0DCFD3A464A
:101C30003146206902F072FD3A463146A06902F051
:101C40006DFDE7696868BF1E03F0CDFD20693A4667
:101C5000401C314602F062FDA0693A46401E314602
:101C600002F05CFDE869022802DC286A022823DD14
:101C7000A86A022802DDE1690F1A01E0E769BF1EC8
:101C8000A86803F0B0FDE969022909DD20693B4637
:101C9000421800F1020C521E3146604602F0E2FD8D
:101CA000286A022808DDA269E8693B46101A401C30
:101CB000921E314602F0D6FD286803F094FDD4E967
:101CC0000620216902F054FC686803F08CFDA269CB
:101CD0002169E069521E491C401E02F049FCA86AB5
:101CE000022811DD2669A169E469B61C271AA1F151
:101CF00002087F1CA41EA86803F075FD2346424617
:101D00003946304602F0AEFD72E0208A06B2ADF8E8
:101D10001460A08A01B2ADF81610208B02B2ADF8A3
:101D20001820A08B03B2ADF81A30D5E90304CDE931
:101D30000004304602F0E0FB5AE0208A298B084478
:101D4000ADF81400A08AADF81600208B298B401A3C
:101D5000ADF81800A08BADF81A00206801F0B8FDAE
:101D60000390006FF0B1022003F0C6FD039991F8D3
:101D70007C00C0F3C00001EB8000006C03F033FD79
:101D80000398406B03F04CFD0398006F01F0A0FD39
:101D900003990A90B1F95A2005A902F0FBF90AA8A3
:101DA00001F000FE03A801F0FDFD21E0208AADF85E
:101DB0001400A08AADF81600208BADF81800A08B97
:101DC000ADF81A00A86803F00EFD05A802F076FD34
:101DD0000EE0206801F07CFD039030F85A1F41F0BE
:101DE0000C01018003A801F0DDFD20680CF0ECFF80
:101DF00000206AE61C04002038B505004FF00004FE
:101E00000FD002F02DFF284601F062FD009090F8FF
:101E10007C00000700D50124684601F0C3FD04F0F2
:101E200097F9204638BD38B505004FF0000411D0B1
:101E300002F016FF284601F04BFD0090C06D002116
:101E400080680268284690470446684601F0AAFD6B
:101E500004F07EF9204638BD30B587B005004FF05C
:101E6000000413D002F0FCFE01A9284600F057F947
:101E7000284601F02DFD0090B0F95440684601F06D
:101E800091FD0CB9BDF9044004F062F907B0204699
:101E900030BD30B504468BB0006801F019FD0090EC
:101EA00090F87C10246A006FC1F3C00508B101F0FE
:101EB0000FFD0690E068029020690390A088401E04
:101EC000ADF81000E089ADF812002089401CADF893
:101ED0001400608AADF81600BDF80800401CADF88B
:101EE0000800BDF80A00401CADF80A00BDF80C005F
:101EF000401EADF80C000098406B03F091FC009878
:101F000008AA02A9B0F95A30069804F0B3FA00986A
:101F100000EB8500806B06F0B7FB009800EB8500B6
:101F2000006C06F0E9FB08AB02AA04A906980BF0C6
:101F300023FC684601F036FD069810B106A801F0B2
:101F400031FD0BB0002030BD70B50D46040009D046
:101F500002F086FE2946204617F00AFDBDE87040D3
:101F600004F0F6B870BD0000074A0649054B116041
:101F7000064A083BD16958601B68C2E9063008462A
:101F80007047000010040020680800206C08002042
:101F90002DE9FC410D46804602F062FE5FEA080032
:101FA00028D001F095FC0190C16D8C6800F01EF9FD
:101FB00007460198456301A801F0F4FC226801215D
:101FC0004046904706462268032140469047054612
:101FD00022680021404690470446404600F0EFF951
:101FE0002B46324639464046009400F077F9404689
:101FF0000CF0C8FB04F0ACF8BDE8FC8138B50C4629
:10200000054602F02DFE55B1284601F061FC009016
:102010000466684601F0C6FC28460CF0B3FBBDE838
:10202000384004F095B87CB50D4604001DD002F090
:1020300017FE204601F04CFC0090006F01906846AE
:1020400001F0B0FC294601A805F0B8F958B12046C6
:1020500001F03EFC009001990167684601F0A2FC86
:1020600020460CF08FFB04F073F87CBD38B50C46AD
:10207000050015D002F0F4FD284601F029FC0022ED
:10208000CDF8000000EB8201521C0C64022AF9D347
:10209000684601F087FC28460CF074FB04F058F801
:1020A00038BD2DE9FC470D465FEA00094FF00004FA
:1020B00032D002F0D5FD484601F00AFC0190B0F99B
:1020C0005440A54223D000F091F8804601980121A8
:1020D000A0F85450C06D856848462A689047074666
:1020E0002A6803214846904706462A680021484648
:1020F00090470546484600F062F933463A46414665
:102100004846009500F0EAF848460CF03BFB01A871
:1021100001F048FC04F01CF82046BDE8FC872DE9DE
:10212000F34F85B000270C46B846059801F0D0FB68
:102130000090C06D0121856805982A689047824605
:102140002A6803210598904704902A68022105987F
:10215000904703902A68002105989047064600980A
:102160000DF026F8834600980DF029F88146009876
:1021700090F83210890601D5B0F9588000F036F891
:1021800005460098C06E10B10CF04BF8074625804C
:102190006780A4F804A0049AABEB020006EB0802E7
:1021A000401E2A4420813A44E280039BA9EB0302AB
:1021B000521E6281A4F80CA020827019E681401E94
:1021C0006082684601F0EEFBB4F90C000190B4F9AE
:1021D0001000029002AA01A9059800F039F80198B0
:1021E000A0810298208207B0BDE8F08F10B50146AB
:1021F000002091F83220920607D5B1F9540000284A
:1022000003D1486B02F09CFC801C10BD70B58AB0F5
:102210000C46054601F05CFB0990C06D866809A874
:1022200001F0C0FB009534B1012C06D0022C0BD07C
:10223000032C04D10AE0182000E0162001907168F8
:10224000684688470AB070BD1520F7E71720F5E704
:102250002DE9FC4790468946044601F039FB009081
:10226000C16D056868468E6801F09CFB32680021EC
:1022700020469047064620460BF091FE2F14044658
:102280002DB227E001F024FB0190B0F90010B0F965
:102290000420B0F90230491B521BDB1BB34212D1A0
:1022A00090F82800000607D5D8F8000088420ADB1D
:1022B000491EC8F8001006E0D9F80000904202DC80
:1022C000521CC9F8002001A801F06CFB20460BF05D
:1022D0000BFF0446002CD5D1BDE8FC872DE9FF4F4C
:1022E00083B00E460746DDF8409001F0F1FA019008
:1022F000C16D8D68FFF77AFF044601A801F052FB1B
:102300002A6801213846904783462A6803213846C7
:10231000904782462A680021384690470546B442D5
:1023200007D105998B4504D106998A4501D14D45C0
:1023300042D0A41B0026B04638460BF030FE39E0F0
:1023400001F0C6FA0090806A010602D54FEA80507B
:1023500002E0810528D50006002825DB24B12246AD
:10236000114638460CF0F1FA009890F82800000663
:102370000AD50698A5EB0902A0EB0A0004FB16019A
:10238000761C38460CF092FA0098008D80050BD52B
:102390000599A5EB0902ABEB010004FB080108F16C
:1023A000010838460CF082FA684601F0FBFA38461C
:1023B0000BF09AFE0700C3D107B0BDE8F08F70B5EF
:1023C00086B0064601F084FA0590D0E91A4505A8C2
:1023D00001F0E8FA54EA050026D069463046FFF7D6
:1023E0009EFEACB1BDF90620BDF9041020460CF0EC
:1023F00030FABDF90A00BDF90610421ABDF908000D
:10240000BDF90410521C411A491C20460CF028FD4D
:10241000002D09D0BDF90600BDF90210421ABDF920
:10242000041028460CF015FA06B070BD2DE9F043F3
:102430000446406885B006460BF063FE814601F015
:1024400047FA0090D0F88080876C456E684601F0AE
:10245000A9FA2068172859D008DC0E2837D00F2891
:102460000BD0142852D015283AD14FE01E2818D08E
:102470001F2827D0222833D146E06FF070408742D2
:1024800004D0384606F000F901F0D6FB002D12D03A
:10249000D4E902122068CDE90106CDE9031201A8B2
:1024A00022E0E068002806D05FEA080006D0B045C8
:1024B00004D00CF003FC05B0BDE8F08330460CF00E
:1024C00051FC16E0214648460AF0FEFFF3E7E068BB
:1024D0004168002904DD00680928EFD00A2805D0EA
:1024E000A5B12046C4F80490A847E4E730460CF0B4
:1024F00048FC0446484601F0EBF90090C0F88040E3
:10250000684601F04FFAD6E7E760D4E720460BF0C3
:10251000D1FBD0E78000A0F1C040002904D00168C1
:1025200041F00101016070470168024A11400160F9
:1025300070470000FEFF0F0010B5D0E901121143F3
:10254000D0E903231A4311434269114382691143BD
:10255000C2691143026A1143426A1143826A1143FC
:10256000C26A1143026B114302689200A2F1C04299
:1025700011608168082907D101688900A1F1C04173
:102580000A6842F040020A60416BD1E9002342EA46
:1025900003128B688C891B0243EA04431A430B8A9B
:1025A00042EA03520B7D896942EA03620A430168E9
:1025B000491C8900A1F1C0410A60C16AB1F5804F90
:1025C00008D000686FF070418000A0F1C040C0F8F2
:1025D000041110BD816BD1E9002342EA03128B681C
:1025E0000C8A1B0243EA04531A430B7D896942EAB1
:1025F000036200680A438000A0F1C040C0F80421D3
:1026000010BD000001A018F0E5BD000046554E5F6A
:1026100049434F4E303030436C69636B65640A0048
:1026200001A018F0D7BD000046554E5F49434F4EFC
:10263000303031436C69636B65640A007CB50BF024
:1026400087FC0346002000900190224A0521224881
:1026500001F03EFB064621A018F0BCFD27492848A2
:1026600005F09EFB26482749083005F099FB264CCB
:10267000264D2BE0224805F0A1FB2148083005F04B
:102680009DFB00211E4805F093FB38B1206880F0C7
:102690000100206001211A4805F08AFB184800213A
:1026A000083005F085FB40B1206880F00200206012
:1026B00013480121083005F07BFB1548007810B164
:1026C00030460BF02FFB0A2001F07EFC2878002812
:1026D000D0D17CBD45B70108242602083C3C2D4FD3
:1026E000532D494E464F2D3E3E204B45596170704B
:1026F000206372656174650A0A000000F5750008C0
:10270000B8000020117600080C0C0140A300002046
:10271000290000207CB5164CDA202070252060703E
:10272000C420A07013A018F055FD0AF079F8A27823
:102730006178207809F0A2FD0BF00AFC0346002026
:1027400000900190144A0721144801F0C1FA06468E
:10275000134C144D07E0217811B130460BF0E2FA2A
:102760000A2001F031FC29780029F4D17CBD000059
:10277000C80000203C3C2D4F532D494E464F2D3E66
:102780003E20427265617468696E67617070206393
:1027900072656174650A0A0045B30108B026020833
:1027A00029000020A400002001A018F013BD0000A3
:1027B00046554E5F49434F4E313032436C69636B2F
:1027C00065640A0001A018F005BD000046554E5F83
:1027D00049434F4E313033436C69636B65640A0083
:1027E00001A018F0F7BC000046554E5F49434F4E1C
:1027F000313034436C69636B65640A0001A018F0E2
:10280000E9BC000046554E5F49434F4E31303543D9
:102810006C69636B65640A0001A018F0DBBC000002
:1028200046554E5F49434F4E313036436C69636BBA
:1028300065640A0001A018F0CDBC000046554E5F4B
:1028400049434F4E313037436C69636B65640A000E
:1028500001A018F0BFBC000046554E5F49434F4EE3
:10286000313038436C69636B65640A0001A018F06D
:10287000B1BC000046554E5F49434F4E313039439D
:102880006C69636B65640A0001A018F0A3BC0000CA
:1028900046554E5F49434F4E313130436C69636B4F
:1028A00065640A0001A018F095BC000046554E5F13
:1028B00049434F4E313131436C69636B65640A00A3
:1028C0002DE9F0430446C56887B09046894600204C
:1028D00002F09AFF064625B1287910B146F00200B1
:1028E00001E026F0020002F08FFF2069012558B1B7
:1028F000D4E902128DE826000395638822880468D3
:1029000041464846A0471EE0124F134B2146386807
:102910001B68427CE068984730B9E088012801D004
:10292000002001E03868806BA288E388A1680095E8
:10293000CDE90410CDE90232019563882288414631
:10294000484605F0A3FA07B03046BDE8F04302F070
:102950005BBF000078010020700100201CB500243E
:10296000019401AC009400F0E7F81CBD2DE9FF4F85
:1029700083B0814606988A46A0EB0A08109E002084
:102980000090A2EB09043568934654EA080018D079
:102990002046FDF7E9FC07464046FDF7E5FC874287
:1029A0000BDA2046444680464846D1468246584681
:1029B000DDF818B0069001200090002C07DD2046BD
:1029C00006E007B04846BDE8F04F00F03BB9604272
:1029D000A0420AD04846D9466442C8F1000883465E
:1029E0004FF0FF37DDF818A000E001275148B8F19B
:1029F000000F11D004EBD4714FEA610B01DACBF177
:102A0000000B4C480068807E88B3002F02DA3068E3
:102A10002044306000257BE000990029016821D026
:102A2000897E11B10027804615E007B05A46494615
:102A30005046BDE8F04F05F08DBB28466D1C17F0E1
:102A40005BF938B9D8F8000009EB0701C06E42689D
:102A5000504690477F1CA742EFDD6D1E356007B0E2
:102A6000BDE8F08F8A7E1AB10027804617E019E092
:102A7000C86E5A465146036807B04846BDE8F04F55
:102A8000184728466D1C17F037F938B9D8F80010E8
:102A900009EB0700C96E4A68514690477F1CA74260
:102AA000EFDDDAE700250FE008FB05B090FBF4F15D
:102AB00001EB0A00009951B11E4A09EB05011268A9
:102AC000D26E526890476D1CA542EDDDC7E71949EB
:102AD00009EB05030968C96E4A6801461846F1E723
:102AE00008FB05B090FBF4F101EB0A00019030689F
:102AF0003844306017F000F948B9009890B10D489B
:102B000009EB05010068C06E4268019890476D1C92
:102B1000A542E5DD3068002F01DA20443060C01B9B
:102B200030609CE7034909EB05000968C96E4A68F3
:102B30000199EBE7780100202DE9FF470F46404956
:102B40001646804609680C981D460A7E012A1CD04C
:102B5000A8EB0600791B50EA01031CD0A2F1010981
:102B600018F06CFB00F58060824604F015FD00FB58
:102B700009F4504604F014FD00FB09F1002C0CDAB6
:102B8000C4F50070801240420AE000903246394697
:102B90004046FFF7EBFEBDE8FF8704F50074A01286
:102BA000002904DAC1F5007189124C4202E001F5F6
:102BB00000718C12002804DD411C01EBD171491019
:102BC00003E000EBD0714910401E00EBD0704210C2
:102BD000002C04DD601C00EBD070401003E004EB1F
:102BE000D4704010641E04EBD47308EB0104ADF8FC
:102BF00000403C18ADF80240A8EB02045B10B21A8A
:102C0000ADF80440ADF808203144FC1AEA1AADF8DA
:102C10000C102844ADF80A20ADF80E000023ADF8E2
:102C200006401A460421684600F07AF839464046C4
:102C300011F0D8F82946304611F0D4F8ABE700007F
:102C400078010020064A13681A7E012A05D0521E18
:102C500002EBD272521000F005B8DA6E52681047DB
:102C6000780100202DE9F05F0646884640F2C32037
:102C700050434FF47A7190FBF1F702FB02F002EB44
:102C8000D27100EB610B254914467F1C0968324460
:102C9000301BC96E0B684146984701253AE000BFDA
:102CA00005FB05F004FB040159451CDDBC4219DDA0
:102CB0001A4B06EB050AA6EB05091B68AAF10102EF
:102CC00008EB0401DB6E09F101001B689847134B08
:102CD000AAF10102A8EB04011B6809F10100DB6EF7
:102CE0001B689847641E0D4806EB040AA6EB04090E
:102CF000006808EB05015246C06E036848469847D5
:102D00000648A8EB050152460068C06E03684846B5
:102D100098476D1CBD42C3DDBDE8F09F78010020DF
:102D20002DE9FF4F40F6FF740F46664283B09B4685
:102D3000814600210BE000BF09EB8100B0F90200E1
:102D4000A04200DA0446B04200DD0646491CB94202
:102D5000F2DB68480068406900280DD0B0F9061021
:102D60001A46A1EB0B01B14200DA0E46B0F902009F
:102D7000801AA04200DD0446B5E0DFF87CA1002007
:102D80000546CAF8000089E0781E854201DA6B1C0E
:102D900000E0002309EB850C09EB8302BCF902007B
:102DA000B2F90210A04245D1A14215D139F9233020
:102DB000059A39F9251003EB020C4E4A0598126862
:102DC000084404EB0B01D26E6045136801DA6246D9
:102DD0002BE00246604628E02846A4464FF0000853
:102DE0007A1E0BE008B1401E00E0781E09EB80035C
:102DF000B3F90230634504D108F101089045F1DBD5
:102E00002346A34249D0A3EB040239F92500A1EBE4
:102E1000040C059B92EA0C0209D4364A184404EBD0
:102E20000B011268D26E13680246984735E00CF029
:102E30002BFF32E0A14230D001DBA04203DDA042F3
:102E40002BDBA14229DCE04688420ADC0346A04293
:102E500023DC0846A14220DBB8F900C0B2F900101B
:102E600008E00B46A14218DCA04216DBB2F900C014
:102E7000B8F90010E21AA1EB0C0151430029A0EBB4
:102E8000030202DD01EB620102E0A1EB6201491CD9
:102E9000C01A91FBF0F06044C9E76D1CBD42FFF61B
:102EA00073AF0598009004EB0B0001900020804662
:102EB000054613E01149B8F1000F31F915A009D00A
:102EC000009901EB0A0208440A490968C96E0B68B7
:102ED0000199984788F0010850466D1C0649096819
:102EE0008D42E7DB641CB4427FF747AF07B0BDE813
:102EF000F08F0000780100205C09002018C5002038
:102F000010B5002002F058FC6FF07F4002F06BFC1F
:102F1000012002F0D3FC002002F0DEFC002002F0D1
:102F2000EBFC002002F070FC0448006802F078FC22
:102F3000BDE81040002002F093BC000074010020A6
:102F40002DE9F0410022CC7804F00F03E40601D50E
:102F50008C7823430C784FF00F0714F0FF0F4FF0DD
:102F6000010C1CD005680CFA02F40E882640A6421B
:102F700011D1960007FA06F825EA080503FA06F8C3
:102F800048EA0505CE78282E02D0482E02D002E06D
:102F9000446100E00461521C082AE4D305600A88F9
:102FA000FF2A1ED94568002202F108060CFA06F431
:102FB0000E882640A64210D1960007FA06F825EAA8
:102FC000080503FA06F848EA0505CE78282E00D150
:102FD0004461CE78482E00D10461521C082AE3D304
:102FE0004560BDE8F0810000F0B5154C002801DA1D
:102FF000E36900E06368C0F30346420D120185B245
:10300000C0F301579540032F07D0C2020CD503220D
:10301000B240934343F0706209E023F0706263684A
:1030200023F07063636002E0AB4343F0706201B170
:103030002A43002801DAE261F0BD6260F0BD0000C1
:10304000000001400246002092680A4200D00120A0
:103050007047416170470161704770B50C46054685
:1030600000F0F0F8A8682168C16261680163A16896
:103070004163490707D5D0E90021C0E90012D0E932
:103080000221C0E90212A18981842169002903D0AB
:1030900001DC4FF00001016270BD2DE9F0411E46D8
:1030A00017468846054600F0CDF8AC6868224146D0
:1030B00004F58470FDF772F82846B8472846B047F3
:1030C000286980688047A062BDE8F08110B5044699
:1030D00000F0B8F8A0680E494C30114AC1650D499E
:1030E00081650D4901660D4981660021C16613683D
:1030F00043660C4BC0E91E315168416730F8261C0D
:1031000021F0030120F8261C0749416410BD00008E
:10311000F99D010831A20108C19D0108E19501084E
:103120001002002045970108C99C010810B504460B
:1031300000F088F8A4680C489034102120650B48F2
:1031400060650B48A0650B48E0650B48E0600B48E4
:103150002061206BA06654F89029204690471020EB
:10316000A0630748606410BDC12C0108C14A010872
:1031700085310008B53200089B95010811AA0108A5
:1031800010D30208F8B5846815460F4694F8260057
:1031900080074CD5D4F8FC30204698470646D4F832
:1031A00000312A46394620469847D4F894300546DF
:1031B0001BB100220121204698472069B04201DD61
:1031C000012000E00020A169B14201DA012100E004
:1031D000002108436169A94201DD012100E00021CD
:1031E0000843E169A94201DA012100E00021084316
:1031F0000AD06068401E00902368D4F8A4705B1E5B
:10320000002211462046B847D4F8A8302A46314655
:1032100020469847D4F89C1020468847D4F894302C
:1032200005466BB1012200212046984708E0D4F8FA
:10323000A83020469847D4F89C1020468847054679
:103240002846F8BD70B504468068002812D14FF4B6
:10325000B875284600F0B2FA2A460021A06004F0B2
:103260001FF9A0680221C18401210464016202499E
:10327000C0F8041170BD00007D32000810B590B098
:10328000044620220A496846FCF788FF08492022A4
:10329000203108A8FCF782FF606B5DF82010C4F8AD
:1032A000FC1008A951F82000C4F8000110B010BDAE
:1032B000748E02082DE9F84384689846154694F800
:1032C00026000F46800740D5D4F8FC3020469847AA
:1032D0000646D4F800312A46394620469847054626
:1032E0002069B04201DD012000E00020A169B14267
:1032F00001DA012100E0002108436169A94201DDF2
:10330000012100E000210843E169A94201DA01211D
:1033100000E0002108430AD06068401E0090236846
:10332000D4F8A4705B1E002211462046B847D4F89A
:10333000A8302A46314620469847D4F8A02001B04C
:1033400041462046BDE8F0431047D4F8A830F2E7E4
:103350002DE9F04FDFF828B191B04FF0FF35DBF8E1
:103360000030B3F922100691DE69B3F924A0F469A4
:10337000A189814206D8E289824203D3471AD4F850
:10338000008012E0D4E90181002970D00A888242CD
:103390006DD84D8885426AD3801A82B2486800EBA6
:1033A0008200B0F90070B0F90250781C5FD0307E16
:1033B000A27C014600FB02F9207CCDE90810B3F99C
:1033C0002A60304605F0AAF9C0B20E90DBF8001072
:1033D00007FB0980A37C8A6B0127CDE90402CDE9B4
:1033E0000273C869DDE90832C17E807ECDE9000143
:1033F0005146069804F04AFD681C18D046F00200B9
:1034000005F08CF9DBF80000A37C05FB0981826BD9
:10341000CDE90273CDE90412C069DDE90832C17E4D
:10342000807ECDE900015146069804F02FFDDBF8BF
:1034300000005D46C069417E007E814214D9022EA3
:1034400012D086F0040005F069F92868C069027E90
:10345000C37E857E02FB03A1437E099A06985344EE
:1034600002FB050204F0A0FE0E9805F057F9DBF808
:103470000000627C418C1144418411B0BDE8F08FA2
:103480007801002004480068C069C06909B1027C65
:103490000A60407C7047000078010020022008800C
:1034A0007047C06982898A4202D8C2898A4210D292
:1034B000806880B102888A420DD843888B420AD343
:1034C000406800EB8100A0EB8200B0F9000000280A
:1034D00001DB012070470020704700002DE9F04318
:1034E0002F4C034687B020681946B0F92A80C0697E
:1034F000C06900F082F800284ED041680088181A90
:1035000001EBC0054046AE7805F008F98146206819
:103510006A680123816BCDE90236CDE90421C169D6
:10352000CB7E8A7ECDE900230B7EB0F924102A7869
:10353000B0F9220004F0AAFC2068C069477E067E2C
:10354000B7421DD9C07E47434643B8F1020F17D09A
:1035500001F04FFA804601F015FA02F044F92168B3
:103560002A78CB69B1F92200B1F92410DB7E02FB85
:103570000302CB19314404F017FE404602F033F940
:10358000484605F0CBF820686A78C369B0F9221084
:103590009B7E02FB0311418407B0BDE8F08300006D
:1035A0007801002030B50E4C05460B4620682946B0
:1035B000C069C06900F021F8002810D04168008877
:1035C00024682A1A0120E46900EBC200085CA47E8A
:1035D0006043002B03D011F832106143196030BDF5
:1035E0007801002001200880704700B5C06900F014
:1035F00004F8002800D0012000BD06E002888A42BD
:1036000002D842888A4202D280680028F6D17047E8
:1036100070B500240E4D16E028690E4900EBC41069
:10362000001D78220968FCF7B9FD2869002100EB2C
:10363000C410016000F10C018161011D0A1DC0E987
:103640000F12641C4164A8688442E5DB70BD000071
:10365000940700207801002070B50D490B480860E0
:10366000084603F0A3FE0A4C143CA068C501284696
:1036700000F0A4F82A460021206103F011FF4FF06A
:10368000FF302060BDE8704002F098BE2570010850
:10369000A8070020F8B50C0005460FD001F0E0FAAD
:1036A000204600F017F8060010D000F011F922466D
:1036B00000902DB12946FCF771FD04E00020F8BD13
:1036C000002103F0EDFE684600F06CF902F040FDC9
:1036D0003046F8BD10B5040009D001F0C1FA20460B
:1036E0000CF042FE044602F033FD204610BD0020DF
:1036F00010BD38B5054601F0B3FA2846FFF7EAFFDA
:10370000040009D000F0E4F82A460021009003F0FC
:10371000C7FE684600F046F902F01AFD204638BDA3
:10372000024A106021F003005060704750C300202F
:1037300010B5040016D001F093FA0B48006B10F896
:10374000341059B1022909D2042101EBC4014158B6
:1037500048680CF0B5FA204615F002FFBDE81040AD
:1037600002F0F6BC10BD000094C20020002805D075
:10377000034A916B016001B148609063704700009B
:1037800094C2002010B5044601F06AFA2068FFF7E1
:10379000CFFF00202060BDE8104002F0D9BC00003F
:1037A00070B50D460646002405E000BF06EB840018
:1037B000FFF7E8FF641CAC42F8DB70BD2DE9F04177
:1037C000044612F0D1FF2648E41C24F00305C16B27
:1037D0002D1DA94200D90D46846B13E054F8042C2A
:1037E000AA420ED184B1216809B162684A60616859
:1037F00009B122680A60826BA2422ED121688163DE
:103800002BE02468002CE9D18046416B80680F18BA
:1038100057F8040C3E1A306838B1002016F018F83A
:1038200057F8040C3E1A3068B8B97068A84214DB27
:103830003044441B304615F0C3FFD8F80810491B2C
:10384000C8F80810D8F810102944C8F8101070688B
:103850003146401B0CF034FA20C42046BDE8F0810C
:1038600094C2002010B5002412F07EFF0C490F20F6
:1038700001EBC002126C1AB101EBC000006C08E051
:10388000401EF5D508E04168A14200D90C46806889
:1038900010B180680028F6D1A4F10C0010BD000022
:1038A00094C20020002138B10449042202EBC00078
:1038B000096B085841680C390846704794C20020CB
:1038C00002484169491C41617047000094C20020D0
:1038D00005498A69521C8A61096B01EBC0010A78AB
:1038E000521C0A7000F076B894C200207CB50646DF
:1038F0000C460846FFF7EEFE050020D0FEB130462C
:10390000FFF7D0FFA04200DA044601F0A9F92846EB
:10391000FFF7DEFF00903046FFF7DAFF0146019027
:1039200022460098FCF73AFC684600F03BF801A8F4
:1039300000F038F83046FFF7FBFE02F009FC28469D
:103940007CBD000010B501F08BF9FFF78BFF6422FE
:103950000849B0F5800F04D990FBF2F4C8694443DC
:1039600003E0C9694143B1FBF2F402F0F1FB2046E8
:1039700010BD000094C200200549102805D94A68EE
:10398000B0EB520F02D3500800E01020886070475F
:1039900050C3002002484169491E41617047000040
:1039A00094C200200A4902680B6B52F8082C03EB02
:1039B000C2021378022B03D38B690BB15B1E8B61A0
:1039C0001178491E117000210160084670470000FF
:1039D00094C20020002806D00349042202EBC00054
:1039E000096B08580830704794C200202DE9FC414B
:1039F0004FF000060B465FEA000834462BD032B188
:103A000011461846FFF746FE060000D10124404645
:103A1000FFF75EFF0090078845686846FFF7C2FF22
:103A2000CCB9B900091D2846FFF760FF050015D085
:103A3000FFF74EFF019040F8276001A8FFF7B2FFA3
:103A40004046FFF745FF009045600188491C018012
:103A50006846FFF7A7FF2046BDE8FC813046FFF728
:103A600067FE0124F7E70820FFF743BE7CB5050099
:103A700023D0FFF72DFF00904068C0B1FFF728FF6B
:103A80000024019005E0019800EB8400FFF77AFE26
:103A9000641C00980088A042F5DC01A8FFF782FFB3
:103AA0000098001DFFF76EFE009900200880684610
:103AB000FFF778FF2846FFF73BFE7CBD38B50024B2
:103AC00030B1FFF705FF009004886846FFF76AFFF2
:103AD000204638BD38B50D46002448B1FFF7F8FE42
:103AE0002946009000F016F804466846FFF75AFF92
:103AF000204638BD38B50D46002448B1FFF7E8FE32
:103B00002946009000F018F804466846FFF74AFF7F
:103B1000204638BD38B50D4601880024A94209D990
:103B2000406838B1FFF7D4FE009050F82540684651
:103B3000FFF738FF204638BD10B50024FFF7EAFF35
:103B400010B1FFF7C5FE0446204610BD10B513683E
:103B500008290FD85C18146000222270064A04E07D
:103B600000F00F040009145D5C540C00A1F1010188
:103B7000C9B2F5D110BD00001CE5020870B51446AD
:103B80000D46064601F06CF8204600F03FFF0300AA
:103B9000174804EB840109D050F82100416880687F
:103BA000711A2A1A184601F04BFE1CE000EB810442
:103BB000A268B24201D0012200E00022E368AB42D9
:103BC00001D0012300E000231A430CD0236943B144
:103BD00050F82100816840686A1A311A184601F0CD
:103BE0006FFDC4E90265BDE8704002F0B1BA0000A3
:103BF000F0C4002010B5C2B2CBB2D21A02D5C2F1C5
:103C0000000212B293B2C0F30722C1F3072403FBF0
:103C100003F3121B01D5524212B2000C92B2A0EB78
:103C2000114002FB023200B2002801DA404200B229
:103C300080B200FB002010BD10B50021084600F046
:103C400093FF40F6FF725042BDE810401346014614
:103C5000AFF300802DE9FC411C4615460E46074691
:103C600000F0FEFF042004F059FD80461248C068B1
:103C7000C16C006D0F4406440D440444ADF800705F
:103C8000ADF80450ADF80260ADF8064068460BF0A0
:103C90009DFA07E023462A463146384604F084FA66
:103CA0000BF048FA0028F5D1404604F037FD02F049
:103CB0004FFABDE8FC8100006C010020B0F906302D
:103CC000B0F90420B0F90210B0F90000FFF7C2BF4C
:103CD0002DE9F8431C00DDE9089816460F46054615
:103CE00002D10AF035F9044600962E6843464A464A
:103CF00021462846B047060039D00AF01EF9814611
:103D0000698A304609F06FFC30460BF0DDF8484612
:103D10000BF0DAF84FF000080CE000BFCDF800809F
:103D200055F81CCF00231A4649462846E04700B301
:103D30000BF0CAF87F1E002FF0DC1D2148460AF068
:103D4000D8FE601C12D000F08BFF0AF045F930B1AC
:103D5000FFF740FE8469B44201D02000F8D1B4429C
:103D600002D030460AF0FEFF02F0F2F93046BDE81C
:103D7000F883304609F0D6FF0020F8E72DE9F0413E
:103D80001C4616460D460746022B02DB0020BDE806
:103D9000F0811C20FFF712FD0028F8D00DB105615D
:103DA0000AE0094A52F8241009B905E011460A68E8
:103DB000002AFBD1096901618461868200210160CA
:103DC0004160C0E90217E2E79001002070B51D468E
:103DD000FFF7D4FF040001D000F00EF8E06800689F
:103DE00020B90348006800EB85008465204670BD5B
:103DF00078010020FFF7BABC70B590B38269022A3F
:103E000030DA1C4C54F8221019B944F822002FE083
:103E100019464B68002BFBD106E0CB68C5681B68D0
:103E20002D68AB4203DD09680029F6D11AE0C1B163
:103E3000CB68C6681B683668B3420CD1838A012BF5
:103E400005D008E01946DB681B68AB4203DB0B6852
:103E5000002BF7D129B14B6833B118604A68426032
:103E600004E0FFE7012070BD44F8220048600160D3
:103E7000002070BD9001002010B503E00468FFF73A
:103E8000BBFF20460028F9D110BD16F09FBC0000F2
:103E90002DE9F0410026DFF834800D4F354600BF94
:103EA00058F8254009E0E0680068385C20B12046F9
:103EB00016F08CFC266026462468002CF3D16D1C7D
:103EC000022DEDDB3046BDE8F081000090010020BE
:103ED000048E0208022801DB00207047054A52F8D0
:103EE000200004E0C26812688A42F6D00068002808
:103EF000F8D1704790010020022801DB00207047B4
:103F0000054951F8200004E0C16809680029F6D08D
:103F100000680028F8D1704790010020F8B50746E6
:103F200015460E460C20FFF7E4FB04000FD000F00E
:103F300097FE2046FFF7CCFC06490090C0E9001729
:103F4000068145816846FFF72DFD02F001F9204604
:103F5000F8BD000008E402082DE9F8431D461646A6
:103F6000884604000CD0FFF7B3FC00900068076897
:103F70006846FFF717FD2B46324641462046B847B4
:103F8000BDE8F88338B504004FF000000AD02046A1
:103F9000FFF79EFC0090006845686846FFF702FD49
:103FA0002046A84738BD38B504004FF000000AD0BD
:103FB0002046FFF78DFC0090006885686846FFF793
:103FC000F1FC2046A84738BD2DE9F041044602F037
:103FD000E1F906191EE000BF00F00AFC052F00DD24
:103FE000052700F03DFE11480568FFF769FC2C002D
:103FF00017D000BF02F0ACF8641EFBD1384602F0C7
:10400000B7F91DB100F02CFE6D1EFBD1FFF7C2FC0D
:1040100002F09EF802F0BEF9371A002FDCDCBDE892
:10402000F081384602F0A4F9F0E70000A007002074
:104030002DE9FC4706005FD000F012FE00F0FEFC08
:104040003C4C81462068B0F9228000F057FD216881
:1040500007468A8CD01B888441E000BF47F6FF7179
:10406000304603F00FF882460146304602F0E0FF8A
:104070002168054691F82C0000F00300012841D08A
:1040800002283BD000204A8C101A4884ADF800006A
:104090006A1E1044ADF80400888CADF80200A9F146
:1040A00001010844ADF806006A465146304602F068
:1040B000B7FB2168BDF8020088845146304601F004
:1040C00023FF064430780A281ED00D281CD0BDF8E6
:1040D0000000216828444884307818B1761C307874
:1040E0000028BBD12068818C39448184818D21F0E6
:1040F0000301818502F02CF8BDE8FC8705EBD57043
:104100004010C0E72846BEE7206890F82C1001F068
:10411000030101290BD0022909D0018C4184317897
:104120000A29D9D1828C02EB09018184D4E7A0F855
:104130002280F4E77801002070B514460D4606464B
:1041400000F08EFD05480068458484843046FFF702
:104150006FFFBDE8704001F0FBBF00007801002058
:104160002DE9F04107460A4815460E460068B0F9A9
:104170002C0040F0020001F0AFFB04462A46314615
:104180003846FFF7D9FF2046BDE8F04101F0A4BB57
:104190007801002047F6FF7300F042B82DE9FF4791
:1041A0001F460C9E90460D46814686B3002400941F
:1041B000019400F055FD9DB128680090174A696888
:1041C00001911060516028460AF06EFE040007D08D
:1041D0000246294602A802F0C2FF02A80AF064FEC5
:1041E000304616F091F805467168684688473B46A8
:1041F00042466946484602F06BFB20460AF054FEF0
:10420000284616F081F801F0A3FFBDE8FF87FFE71D
:1042100004B0BDE8F04700F003B800004C070020F0
:104220002DE9FC411F4690460D4606004FF0000464
:104230001AD000F015FD65B128460AF035FE0400DD
:1042400007D002462946684602F089FF68460AF010
:104250002BFE3B4642462946304602F039FB2046BB
:104260000AF022FE01F074FFBDE8FC812DE9FF4F4A
:1042700085B090468A4607007DD000F0F1FCDAF860
:104280000040DAF8046021B230B2401A401C0290BB
:1042900000F0D4FB054618F00C0F1ED03846089AE3
:1042A000029901F05FFF08F00C01042904D00829ED
:1042B00002D00C2911D104E0311400FB1510401C70
:1042C00009E02114C1EB264200FB1520401C00EB45
:1042D000D07001EB600060F31F44504601F077FAA4
:1042E000A5F1010B04903846089A029903F0A6F84C
:1042F00003904FEA244909EB0B0060F31F46CDE918
:1043000000463846039902F093FE18F003010ED0E0
:1043100001292AD002290ED1BAF90420BAF90010D5
:10432000521A101A00EBD07001EB600001E0BAF8ED
:104330000000ADF800006A463846039902F070FAB2
:104340003846089A029903F06FF8074409EB050014
:1043500060F31F4438780028C5D1049801F037FA7B
:1043600009B0BDE8F04F01F0F3BEBAF80410081A26
:10437000401CDEE7FFE709B0BDE8F08F7CB51446CE
:104380000D46064600F06CFC11480068C16C006DDB
:104390000D4404443188681E0844ADF80400ADF8AB
:1043A00000507188601E0844ADF80600ADF8024068
:1043B00068460AF00BFF06E0224629463046FEF723
:1043C0007FFA0AF0B7FE0028F6D101F0C1FE7CBDED
:1043D000780100201CB50A460146684602F0D8FF65
:1043E00000F03EFC2548BDF80010006830F84C2F66
:1043F0001144ADF80010BDF8021082881144ADF8E8
:104400000210BDF8041002881144ADF80410BDF884
:10441000061080880844ADF8060068460AF0D6FE0B
:1044200027E000BFBDF900400BE000BFBDF902105E
:10443000204603F05BFEBDF90610204603F056FE51
:10444000A41CBDF90400A042F0DABDF902400AE064
:10445000BDF90000214603F049FEBDF904002146E4
:1044600003F044FEA41CBDF90600A042F0DA0AF0F5
:1044700061FE0028D6D101F06BFE1CBD7801002042
:104480002DE9F04F87B09B46DDE9109892460C4627
:10449000054600F0E5FB16480168C86C096D471930
:1044A0000E1900EB0A0501EB0B04ADF81070ADF826
:1044B0001450ADF81260ADF8164004A80AF086FE5C
:1044C00088B1DFF830B04FF0000ACDE90098CDE9AF
:1044D00002BA2B462246394630460FF01AFB0AF044
:1044E00029FE0028F1D101F033FE07B0BDE8F08FBE
:1044F00078010020558100082DE9F04F87B09B46D8
:10450000DDE9109892460C46054600F0A9FB1648D6
:104510000168C86C096D47190E1900EB0A0501EB1B
:104520000B04ADF81070ADF81450ADF81260ADF892
:10453000164004A80AF04AFE88B1DFF830B04FF008
:10454000010ACDE90098CDE902BA23462A46314650
:1045500038460FF0DEFA0AF0EDFD0028F1D101F047
:10456000F7FD07B0BDE8F08F7801002095800008C6
:104570002DE9FC4114460D46064600F071FB114F33
:104580003968C86C096D054404440E44ADF8005008
:10459000ADF80440ADF80260ADF8066068460AF078
:1045A00015FE08E0386822463146C06E036828468A
:1045B00098470AF0BFFD0028F4D101F0C9FDBDE81D
:1045C000FC810000780100202DE9F0411C461546D1
:1045D0000E46074600F044FB0C480168C86C096DA4
:1045E000074405440E440C4400200AF0EFFD07E0A8
:1045F00023462A4631463846FEF7B0F90AF09AFDBE
:104600000028F5D1BDE8F04101F0A2BD78010020FD
:104610007CB50C46064600F023FB0F4D2868C16CA4
:10462000006D0E440444ADF80460ADF80060ADF8D0
:104630000640ADF8024068460AF0C8FD07E0286869
:104640002146C06E4268304690470AF073FD00284C
:10465000F5D101F07DFD7CBD780100202DE9FC4104
:104660001C4616460D46074600F0FAFA1A4801683D
:10467000087ECA6C096D401E17440D440C44391A5B
:104680001644ADF800103118ADF80410291A204472
:10469000ADF80600ADF8021068460AF097FD15E087
:1046A00032462946384603F0F5FC32462146384664
:1046B00003F0F0FC621E691C384603F04BFD621EDD
:1046C000691C304603F046FD0AF034FD0028E7D1AE
:1046D00001F03EFDBDE8FC817801002070B58EB090
:1046E00015460E46044600F0BBFA214606A802F025
:1046F0002CFEBDF81A30642B0CD1002000900AABC0
:1047000001AA214606A802F06DF82A46314601A802
:10471000FFF734FE01F01CFD0EB070BD7CB51446F1
:104720000D46064600F09CFA0F480068C16C006D0B
:104730000E4405440444ADF80060ADF80460ADF8E3
:104740000250ADF8064068460AF040FD06E02246F9
:104750002946304603F0FEFC0AF0ECFC0028F6D1B6
:1047600001F0F6FC7CBD00007801002070B50C461D
:10477000054600F055F910B10121C0E9001400F020
:104780006FFA28460AF058FCBDE8704001F0E0BC22
:1047900010B5044601F0F2FD04490968002903D070
:1047A0002046BDE81040084710BD00005407002017
:1047B00030B59DB00D460446CDF870D06F22002173
:1047C000684602F06DFE6422214668460CF03AFA13
:1047D0006846FBF715FD1C991CAA08441C9008218B
:1047E000284601F01DFE6846FFF7D2FF1DB030BD20
:1047F00010B5002400E0012400F004F80028FAD1EC
:10480000204610BD064810B50068002410B180474E
:1048100000B1012409F006FB00B10124204610BDBF
:104820009801002070B516460C46054600F018FAAF
:104830000B480068C16C006D0D44044400200AF070
:10484000C5FC06E0324621462846FEF70BFA0AF080
:1048500071FC0028F6D1BDE8704001F079BC000081
:10486000780100202DE9FC411C4615460E460746FE
:1048700000F0F6F910480068C16C006D0F44064462
:104880000D440444ADF80070ADF80450ADF802607A
:10489000ADF8064068460AF099FC07E023462A4630
:1048A0003146384603F080FC0AF044FC0028F5D17C
:1048B00001F04EFCBDE8FC8178010020B0F9063023
:1048C000B0F90420B0F90210B0F90000FFF7CABF38
:1048D00008B50B46002805D0009281888268C08800
:1048E00000F001F808BD10B50828029C30D008DCA3
:1048F00004FB01F401280AD0022813D0042804D1B3
:104900001CE0102828D020282CD0002010BD04EB5B
:10491000D30003F00701105CC1F10701C84000F0AB
:10492000010010BD04EB93000621105C01EA430175
:10493000C1F10601C84000F0030010BD04EB5300B4
:10494000D907105C02D000F00F0010BD000910BDA7
:1049500004FB0130105C10BD481004FB003032F83D
:10496000100010BD881004FB003052F8200010BD6C
:10497000034951F82000C1688A6A082110470000E5
:104980009001002010B500F06BF903F03DFC03F03E
:1049900015FD044601F0DCFB204610BD10B50446B1
:1049A00000F05EF9054800210068C06942682046B1
:1049B0009047044601F0CCFB204610BD7801002052
:1049C00070B50C46054600F04BF9064821460068D4
:1049D000C069426828469047044601F0B9FB20466A
:1049E00070BD000078010020002801D009F082BAD3
:1049F000704710B500F034F903F00EFC03F0DEFC54
:104A0000044601F0A5FB204610BD0000002102284D
:104A100002D2024951F82010084670476C07002066
:104A20001FB500210191029103912A21009169464D
:104A30000AF050F8039804B010BD000010B500F063
:104A40000FF904480068C069447E01F081FB2046EC
:104A500010BD00007801002070B50D46044600F03E
:104A6000FFF814B909480068C46929460834207E53
:104A7000A870A07E2871607EE87054F8082920464E
:104A80009047BDE8704001F063BB00007801002052
:104A900010B500F0E5F802F0C1FA044601F058FB49
:104AA000204610BD70B514460D46064600F0D8F8F5
:104AB00022462946304603F021FC10B10020286030
:104AC0002060BDE8704001F043BB70B50C46054660
:104AD00000F0C6F82146284602F0FEFABDE8704014
:104AE00001F036BB10B5044602F0E8FA0146204654
:104AF000BDE8104002F09CBA01F04CBC10B5002497
:104B000000F0AEF80B48006890F82C1001F00C0192
:104B1000042904D0082906D00C2907D103E0C06974
:104B2000047E641E02E0C069007E440801F010FBB0
:104B3000204610BD78010020417EC07E484370476A
:104B4000017EC07E48437047024951F82000006949
:104B50000068704790010020024951F82000006968
:104B6000406870479001002070B50D46044600F083
:104B700077F8204611F058FC0446284611F05CFCFA
:104B8000044301F0E5FA204670BD0000144810B55A
:104B9000016821F001010160124801218160124980
:104BA000016000681149884200D0FEE701F000FE74
:104BB0000F492E20087001F0F3FB0E4811F09CFD08
:104BC000FEF74AFD17F096FD04460021084600F066
:104BD00055FE09F02DFDFEF71BFD204610BD00001F
:104BE000002000E000300240C2A507F4CDB5E8B5D2
:104BF0006C0100205CC300202DE9FC411C461546D9
:104C00000E46074600F02CF8012000F0FDFD80461E
:104C100012480068C16C006D0F4406440D44044402
:104C2000ADF80070ADF80450ADF80260ADF8064084
:104C300068460AF0CBFA07E023462A463146384652
:104C400003F0B2FA0AF076FA0028F5D1404600F0F7
:104C5000DBFD01F07DFABDE8FC8100007801002059
:104C600070B51F4CE06820B101F08CFB6168884290
:104C700004D001F0BFFB01F085FB6060E068401CE0
:104C8000E060012825D100250AE000BF01F07AFB91
:104C9000216901EBC5110968814205D0D1B16D1CB4
:104CA000A0688542F2DB00252068854211D00028EB
:104CB0000EDBFFF7EDF82268216901EBC212D06725
:104CC000084A01EBC510011D1160C06FFFF7D4F851
:104CD000256070BD216901EBC5110860E4E70000A3
:104CE00094070020780100201CB5040004D10E4870
:104CF0000068046E002C16D0FFF7B2FF2046FEF7C6
:104D0000E7FD009044696846FEF74CFE4CB1204632
:104D1000FEF7DEFD019081688968884701A8FEF7EB
:104D200041FE01F015FA1CBD7801002001490A4638
:104D300000F002B801F0FFFF2DE9F04387B01546FF
:104D40000C465FEA000846D0FFF78AFF002000F01B
:104D50005BFD814621480068066E4046FEF7B8FDBF
:104D600000900068806900F0D3FC074640F6FF70B1
:104D7000001904D10098B0F90440B0F90650009829
:104D8000611E0289ADF804401144ADF80810418954
:104D9000681E0844ADF80650ADF80A0008F006FE9B
:104DA0006846FEF7FFFD01A80AF010FA06E02A4661
:104DB0002146404600F07CFB0AF0BCF90028F6D101
:104DC000384600F0A5FC304600F0B8F9484600F03F
:104DD0001BFD01F0BDF907B0BDE8F08378010020AC
:104DE0002DE9FE4F984691468A46834600270C9E41
:104DF000FFF736FF174818490068407C51F82040FB
:104E0000E1680968042903D02468002CF8D100E087
:104E100014B9FFF771F804460121E068C26A204620
:104E20009047050011D02469A0688047401C02D13A
:104E30000A4C46F001060096CDE9015443464A4625
:104E40005146584600F014FA074601F081F93846F9
:104E5000BDE8FE8F780100209001002030CA0208D2
:104E600038B504001CD0FFF7FBFE0E480068006E4A
:104E7000A04201D100F03EFC2046FEF729FD009043
:104E8000406908B101F04DF900980068FEF7B2FFE3
:104E90006846FEF787FD2046FEF74AFC01F058F908
:104EA00038BD0000780100202DE9FF4F83B0454C4C
:104EB000DDF840B098468A4607002BD002A901A829
:104EC000FFF703FEB7F90060002E00DA0026B7F9FD
:104ED0000250002D00DA00252068A146407C03F036
:104EE00026FA01990144491EB7F9040011F078FF30
:104EF0000446D9F80000407C03F01FFA02990144EF
:104F0000491EB7F9060011F06BFFA71B7F1C441B5D
:104F1000641C0BE0206800263546407C03F007FA4D
:104F200007462068407C03F008FA0446B8F1000FF9
:104F300001D1C4F10008002F01DD002C03DC0020AA
:104F400007B0BDE8F08F43463A4629463046CDF8D3
:104F500000B0FFF745FF5FEA000909D000F0AEF8A6
:104F60008046484600F0EAF80027DFF85CB01FE012
:104F70005146059888470120E2E7E11B414502DAE6
:104F8000484600F0BFF83FB1EA193146484600F004
:104F900003F94846FFF7A8FE514605988847DBF815
:104FA000001009B1002088474846FFF7BFFE47447C
:104FB000A742E2DB4846FFF753FF002000F0BEF8AF
:104FC000BDE7000078010020E007002038B50500AB
:104FD0004FF0000411D0FFF743FE2846FEF778FC9F
:104FE0000090006800698068804703F05BFE04461B
:104FF0006846FEF7D7FC01F0ABF8204638BD38B55F
:105000000446FFF72DFE2046FEF762FC00F118046F
:1050100000906846FEF7C6FC01F09AF8204638BDBD
:1050200038B504460025FFF71BFE1CB90848006888
:10503000046E44B12046FEF74BFC0090B0F90450DA
:105040006846FEF7AFFC01F083F8284638BD000043
:105050007801002038B504460025FFF701FE1CB991
:1050600008480068046E44B12046FEF731FC009009
:10507000B0F908506846FEF795FC01F069F828463B
:1050800038BD00007801002038B504460025FFF740
:10509000E7FD1CB908480068046E44B12046FEF7DD
:1050A00017FC0090B0F906506846FEF77BFC01F053
:1050B0004FF8284638BD00007801002038B5044676
:1050C0000025FFF7CDFD1CB908480068046E44B107
:1050D0002046FEF7FDFB0090B0F90A506846FEF747
:1050E00061FC01F035F8284638BD00007801002049
:1050F00010B50BF0F9FE002803D0BDE8104000F019
:105100007DB810BD38B50C46050004D10A480068CA
:10511000056E002D0FD0FFF7A3FD2846FEF7D8FB44
:105120000090B0F90A10A14200DD44816846FEF704
:1051300039FC01F00DF838BD78010020F8B50546BE
:10514000FFF78EFD134E3068046E65B10CB100F0B0
:10515000D1FA08F09FFD2846FEF7BAFB00903168AF
:105160000A6E1AB106E000F0C5FA0EE0D1E902239A
:10517000C1E919230D660068FEF73EFE6846FEF79A
:1051800011FC03F001FC03F0A9FA00F0E1FF204656
:10519000F8BD0000780100207CB515460E460400DD
:1051A00004D115480068046E002C24D0FFF758FD88
:1051B0002046FEF78DFB2DB20090C58034B284806E
:1051C00003F08CFA0098406980B1FEF781FB009AE9
:1051D0000190B2F908108180B2F90A20C28011B1A1
:1051E0000AB10480458001A8FEF7DCFB6846FEF7A3
:1051F000D9FB00F0ADFF7CBD7801002001490A46D3
:1052000000F002B801F0FFFF7FB515460C4606001E
:105210002DD0FFF725FD3046FEF75AFB40F6FF7113
:105220000190091903D1B0F90440B0F90650028980
:10523000611E1144ADF80840ADF80C104189681E9C
:105240000844ADF80E00ADF80A5001A8FEF7AAFB1D
:1052500002A809F0BBFF06E02A462146304600F0CE
:105260000FF909F067FF0028F6D100F071FF7FBD4C
:105270002DE9FF4FDFF8E0B083B01C46DBF80010EB
:10528000DDE91060924600274B7C3A461299FEF702
:1052900075FD05005DD028698068804703F002FD38
:1052A00081460AFB09F0C01D4FEAD008FEF74AFB11
:1052B000F10705D1C11700EB9170801000EB4000A1
:1052C000002C06DC1838B0FBF8F06442A04200DC89
:1052D0000446F00707D10090DDE90301234652465A
:1052E00000F092FE0746002C03DC2846FEF782FD04
:1052F0002FE004FB08F01830F10702D0FEF7EAF9BE
:1053000001E0FEF7F6F906001CD0FEF7E1FA019085
:105310000560039981800499C180A0F808A04481A8
:10532000C0F80C80C0E9049701A8FEF73BFB129877
:10533000AE602861DBF80000407CA861304607B011
:10534000BDE8F08F2846FEF755FD17B13846FEF749
:10535000EFF90020F3E70000780100200149086020
:1053600070470000E00700202DE9F74F92B090460B
:105370001298FEF7ADFA0B90B0F908100691B0F94B
:105380000A100D9100680069D0F804B00BA8FEF770
:1053900009FB384C384D2068407C55F82000C16826
:1053A0008A6A082190478146182801D34FF02009C6
:1053B0002068407C55F820000069079003C80C90D5
:1053C0002E48814201D0012000E0002010900020F2
:1053D00001F033F8002849D10026DDE91207B24672
:1053E0000FAB069C4546761C0193FFF708FE01466D
:1053F00004FB0AF001EB8002234629463846CDF82B
:1054000000B001F015FB050030D01098D0B1DDE9F7
:1054100006134A46284601F010F998B9DDE90670EE
:105420002C46D0F810C0BCF1000F05D0294604234B
:105430003A460846E04705E00C992068884701C4D1
:105440007F1EF9D10020CDE90305059001200090D1
:10545000CDE901094146034608F10108069A13986F
:1054600002F014FD0D98401E0D90B6D115B0BDE8A8
:10547000F08F0000780100209001002007840008D0
:10548000F8B515460E460746FEF722FA009000686A
:105490001621C068426A0020904704466846FEF71D
:1054A00081FA002C03D02A4631463846A047F8BD81
:1054B000F8B515460E460746FEF70AFA009044690D
:1054C0006846FEF76FFA3846FFF780FD0346082866
:1054D00000DD2CB12A463146384615F0AFFAF8BD4A
:1054E0002A463146384615F041FCF8BD10B5002873
:1054F00021D009B30AB3B1F90040B2F900309C429F
:1055000000DA23460380B1F90240B2F902309C422E
:1055100000DA23464380B1F90440B2F904309C42DA
:1055200000DD23468380B1F90610B2F906209142CE
:1055300000DC1146C18010BD11460A68026049684E
:10554000416010BD00280BD003880B440380838882
:1055500019448180418811444180C1881144C1802F
:105560007047000070B5104D0446D5E9000188422F
:105570000ED10E49884203D1D0E90F12406C03E0EE
:105580000C38D0E9001280682160C4E9012006E0EF
:1055900090E80E0084E80E0010F064FF2860207A86
:1055A000002800D0012070BD6407002060C40020E6
:1055B0000448D0E90010814201D101207047002049
:1055C0007047000064070020054A10B503491160C8
:1055D00014F0E0FFBDE8104000F09EB951E2000871
:1055E0009C01002070B50025FFF73AFB094CD4E977
:1055F000002082420AD0D2E90056104610F03CFF4B
:1056000020603146284609F069F9012500F0A0FD27
:10561000284670BD580700202DE9FC41154DDDE9F5
:1056200008742D68B5F90860864200DD3046B5F98A
:105630000C60964200DA3246824219DBB5F90A6004
:105640008E4200DD3146B5F90E509D4200DA2B4600
:105650008B420DDB00E02C46E5682D6825B1042D5A
:1056600002D02568002DF6D1CDE9007402F01EFFAE
:10567000BDE8FC8178010020B0F90220B1F90630C4
:105680009A4213DCB1F90220B0F906309A420DDCDF
:10569000B0F90020B1F904309A4207DCB1F90010EA
:1056A000B0F90400814201DC0120704700207047FE
:1056B0000146024878220068FAF770BD78010020A0
:1056C00070B515460E4604000AD0FFF7C9FA2A46FF
:1056D0003146204614F056FCBDE8704000F038BD5D
:1056E00070BD0000024978220968FAF757BD000032
:1056F0007801002010B5FFF7B3FA02F0A3FF03F022
:1057000043F908F053F9BDE8104000F021BD000056
:1057100070B5094D04462868467CFFF7A1FA022CB3
:1057200003D228684474FFF7E5FF0448046000F0E2
:105730000FFD304670BD000078010020A406002057
:105740002DE9F041194E050019493068194F407C88
:1057500051F820108C6917F8048003D010F080FFF6
:1057600060B11FE00521FEF7B5FB06001AD000204E
:10577000FFF7F4FD3046FEF788FB12E030680521A4
:10578000407CFEF7A7FB60B9AFF24B00FFF7E6FDE8
:1057900030680849407C183151F8200008B1FEF704
:1057A0002BFB3D554046BDE8F0810000780100200C
:1057B000900100207407002010B50446FFF750FA4E
:1057C000204602F061FFBDE8104000F0C1BC10B5FA
:1057D0000446FFF745FA204609F066FB044600F050
:1057E000B7FC204610BD10B50446FFF739FA204635
:1057F00002F082FFBDE8104000F0AABC01498860B9
:10580000704700006C01002010B50446FFF728FA2D
:10581000204602F083FF044600F09AFC204610BDAB
:1058200070B50446FFF71CFA04480068C56904B166
:10583000C46100F08DFC284670BD00007801002096
:1058400070B514460D460646FFF70AFA2246294669
:10585000304603F057F8044600F07AFC204670BD4D
:1058600070B50546FFF7FCF903480068847E85762D
:1058700000F06EFC204670BD7801002070B50C462B
:105880000546FFF7EDF909482246058008480480DF
:1058900008480068417C084850F82100C1680B6A3C
:1058A00029469847BDE8704000F052BCA80100208E
:1058B000AA010020780100209001002070B5054663
:1058C000FFF7CEF903480068047E057600F040FC3F
:1058D000204670BD7801002070B50446FFF7C0F97E
:1058E00004480068B0F92C50848500F031FC28464B
:1058F00070BD00007801002070B50446FFF7B0F9D4
:1059000004480068B0F92A50448500F021FC28467C
:1059100070BD00007801002002480068002800D017
:1059200000477047B807002002498A6802B98860BA
:10593000FFF7F2BF580700202DE9FC4198461546B5
:105940000E460746FFF78CF91C20FDF7D2FE040037
:1059500028D01A49184808602046FDF7B9FF009082
:105960000760C0E90456A0F80C806846FEF71AF8F4
:10597000204611F0E7F8124DA86840B90120A86050
:1059800005F10C010F480860084601F00FFD2046A4
:10599000FDF79EFF0190296849B181602C6001A844
:1059A000FEF700F800F0D4FB2046BDE8FC810021A2
:1059B0002C608160F3E70000F15900089801002095
:1059C000600900204D70010810B504000ED0FFF7EB
:1059D00047F9204613F00EFF204614F0CFFE204674
:1059E000FDF7A6FEBDE8104000F0B2BB10BD000000
:1059F0002DE9F04188B00025FFF732F9184C6768AF
:105A000025E000BFFFF778F806466068FDF760FF05
:105A100001904169891B002915DC61680296049197
:105A20000169039146686660D0F8008001A8FDF71F
:105A3000B9FF02A84146884766B160680125B842AF
:105A400005D1002506E001A8FDF7ACFF02E0606883
:105A50000028D7D100F07CFB08B02846BDE8F081D3
:105A60006009002038B50C46050011D0FFF7F8F8A2
:105A70002846FDF72DFF00908089204201D00124A7
:105A800000E000246846FDF78DFF00F061FB00E0B8
:105A90000124204638BD38B5040017D0FFF7E0F8E0
:105AA0002046FDF715FF0090FFF726F80146009805
:105AB0008269114441616846FDF774FF204614F085
:105AC0005DFE204611F03EF800F042FB38BD38B5CF
:105AD0000C4605000BD0FFF7C3F82846FDF7F8FE8B
