:020000040800F2
:1000000020ED002045010008ABD300082DAB00080F
:10001000A9D3000879160008732B0108000000001E
:10002000000000000000000000000000350F010883
:10003000BD26000800000000D30A000829E00008DF
:100040005F0100085F0100085F01000899F90008DE
:100050005F0100085F0100085F0100085F01000800
:100060005F0100089D3300085F0100085F01000880
:100070005F0100085F0100085F0100085F010008E0
:100080005F0100085F0100085F010008192A0108EC
:10009000E52A01085F0100085F0100085F01000810
:1000A0005F0100085F0100085F0100085F010008B0
:1000B0005F0100085F0100085F0100085F010008A0
:1000C0005F0100085F0100085F0100085F01000890
:1000D0005F0100085F0100085F010008A126010818
:1000E0005F0100085F0100085F0100085F01000870
:1000F0005F0100085F0100085F0100085F01000860
:100100005F0100085F0100085F0100085F0100084F
:100110005F0100085F0100085F0100085F0100083F
:100120005F0100085F0100085F0100085F0100082F
:10013000DFF80CD000F06CFC004800479D6302081B
:1001400020ED00200648804706480047FEE7FEE70E
:10015000FEE7FEE7FEE7FEE7FEE7FEE7FEE7FEE777
:10016000111601083101000872B6704762B6704777
:10017000EFF3108072B6704780F31088704730BF7D
:10018000704720BF7047B0FA80F0704790FAA0F037
:10019000B0FA80F0704790FAA0F070472DE9F05F58
:1001A0000546002092469B468846064681464024E6
:1001B0001BE0284641464746224600F03EFA534699
:1001C0005A46C01A914110D311461846224600F0F3
:1001D00025FA2D1A67EB01084F462246012000211F
:1001E00000F01CFA17EB00094E41201EA4F1010497
:1001F000DFDC484631462A464346BDE8F09F10B54D
:10020000431A934209D28318881803E010F8011D9D
:1002100003F8011D521EF9D210BD40EA01039B07ED
:1002200003D009E008C9121F08C0042AFAD203E06B
:1002300011F8013B00F8013B521EF9D210BDD2B2B9
:1002400001E000F8012B491EFBD270470022F6E7BF
:1002500010B513460A4604461946FFF7F0FF20463C
:1002600010BD30B505462A460B4612F8010B13F8AF
:10027000014B08B1A042F8D01CB1002802D06D1C7F
:10028000F1E7284630BD421C10F8011B0029FBD1C4
:10029000801A704730B504460020034600E05B1C1E
:1002A000934203D2E05CCD5C401BF8D030BD0346E6
:1002B00011F8012B00F8012B002AF9D118467047DC
:1002C000F0B480EA0102D40F4200B2EB410F02D237
:1002D0000246084611464A0042D0C30DDDB2C1F3C2
:1002E000C752AD1A202D35DAC1F3160141F40002D0
:1002F00004B15242C5F1200602FA06F12A41104427
:10030000B3EBD05F23D0C4B1012DA0EBC35009DC07
:10031000F0BC4FF0004202EAC352DBB200F500002D
:1003200000F0A4B9400000F1807000EBC350A0F1D0
:10033000807040EAD170490009E0490841EAC07183
:10034000A0EBC35000F50000400800EBC350F0BC28
:1003500000F083B96142012202EB4101001BF6E784
:10036000F0BC704781F00041AAE780F00040A7E7A9
:1003700080EA010210B502F00043400022D04A009A
:100380001FD0010E01EB1261C0F35600C2F35602FA
:1003900040F4000042F40002A0FB022000047F3978
:1003A000140400D0401C50EA124001D44000491E01
:1003B000C2B20C0604EBD010401C4008802A02D0C8
:1003C00003E0002010BD20F00100002900DA002029
:1003D000184310BD2DE9FE4F81EA030404F00044E8
:1003E00021F0004100944FF0000B23F0004350EA4D
:1003F00001045ED052EA03045BD0C3F30A54C1F394
:100400000A552C44A4F2F3340194A0FB0254C1F326
:10041000130141F48011C3F3130343F4801301FB70
:10042000024400FB034E840A970A44EA815447EAD7
:100430008357A4FB076802958D0A05FB07854FEAE1
:10044000932C04FB0C542705029D4FEA065847EAFB
:100450001637B5EB08056EEB070C870E920E47EAD0
:10046000811742EA8312A7FB0201B6EB0B0164EB92
:1004700000042B0D43EA0C335E1844EB1C50DA46A3
:100480005146E7FB0201C5F313044FEA0B3343EA7D
:1004900014534FEA0432019C43EA0603A4F10C040E
:1004A0000294009CCDE900B400F01DF903B0BDE852
:1004B000F08F00200146F9E770B521F000430343B7
:1004C0000CD0C1F30A550024D5EB040564EB0403FA
:1004D000D617AD1AB34102DB0020014670BD2018CB
:1004E00041EB025170BDC10F80EAE0700844CA07B9
:1004F0009623002100F0BAB896230022114600F09E
:10050000B5B80EB5C10F80EAE0700844CA070021F3
:1005100040F233438DE80E000A460B4600F0E3F844
:1005200003B000BD00F0004220F00040C10DC0F358
:10053000160040F400007F2901DA00207047962958
:1005400003DCC1F19601C84001E096398840002AD9
:10055000F4D04042704720F00040C10DC0F31600B7
:1005600040F400007F2901DA00207047962903DC5F
:10057000C1F19601C840704796398840704700F035
:10058000004230F000400AD0C10D01F56071C0F3A7
:10059000160042EA0151C20840071143704700208B
:1005A0000146704701F0004330B421F0004150EAA9
:1005B000010206D00A0DA2F56072C1F31301002AF0
:1005C00002DC30BC00207047440F44EAC104C10083
:1005D000E01830BC00EBC25000F03FB8002801DB4F
:1005E000C0F10040002901DBC1F1004181427047A8
:1005F00030B50B46014600202022012409E021FAF3
:1006000002F59D4205D303FA02F5491B04FA02F5EF
:100610002844151EA2F10102F1DC30BD202A04DBC2
:10062000203A00FA02F1002070479140C2F1200305
:1006300020FA03F3194390407047202A04DB203A44
:1006400021FA02F00021704721FA02F3D040C2F1F2
:10065000200291400843194670470029A8BF7047FF
:10066000401C490008BF20F00100704710B4B0FAE8
:1006700080FC00FA0CF050EA010404BF10BC704783
:1006800049B1CCF1200421FA04F411FA0CF118BF9D
:10069000012121430843A3EB0C01CB1D4FEA00616C
:1006A0004FEA102042BF002010BC704700EBC3503F
:1006B00010440029A4BF10BC7047401C490008BF6B
:1006C00020F0010010BC704710B5141E73F1000437
:1006D00008DA401C41F1000192185B411A4301D134
:1006E00020F0010010BD2DE9F04D92469B4611B15E
:1006F000B1FA81F202E0B0FA80F220329046FFF7C0
:100700008DFF04460F4640EA0A0041EA0B015346BA
:100710005A46084313D0114653EA010019D0C8F1D4
:1007200040025046FFF789FF05460E46504659469F
:100730004246FFF773FF084305D0012004E020463E
:100740003946BDE8F08D0020054346EAE0762C43AB
:1007500037430A986305E40AA0EB08000022FD0A6B
:1007600044EA47540A3002D500200146E9E7010572
:1007700010196941DDE9084500196941BDE8F04DEE
:10078000A2E72DE9FE4F804681EA0300C00F0C4628
:10079000009021F0004123F00045B8EB0200A94190
:1007A00005D24046214690461C460B46024623F0A1
:1007B0000040104347D0270DC7F30A00C3F30A5186
:1007C0000290401A019040286BDAC3F3130040F402
:1007D000801B0098924620B10023D2EB030A63EB02
:1007E0000B0B01985946C0F140025046FFF716FF27
:1007F00006460D4650465946019A00F01BF910EB8B
:1008000008006141002487EA115284EAE7731A4321
:1008100040D0009A62B3019A012A4FEA075215DCD0
:10082000001B61EB02014FF0004202EA0752CDE9E2
:100830000042001C41F5801132462B46FFF753FF62
:1008400003B0BDE8F08F40462146F9E7001B61EB9D
:100850000201001C41F5801300185B412018A2F52D
:10086000001747EB030140EAD570B6196D4111E05E
:100870006D084FEA360645EAC0754FEA0752001B7D
:1008800061EB0201001C41F5801149084FEA30007C
:100890000019514132462B4603B0BDE8F04FFFF737
:1008A00013BF0098012240000023D0EB020263EB4B
:1008B000E073009821464FEAE074B8EB000061EB6A
:1008C0000401E9E783F000435BE781F0004158E76A
:1008D0002DE9F04D81EA030404F0004B21F00045BE
:1008E00014464FF0000A23F0004150EA050220D0E0
:1008F00054EA01021DD0C5F30A570246C5F313039B
:10090000C1F31300C1F30A5640F4801543F4801379
:10091000A7EB0608101BD64608F2FD3873EB05005E
:1009200002D308F1010801E092185B41B8F1000F11
:1009300003DA00200146BDE8F08D00204FF480115D
:10094000064684460EE0171B73EB050705D3121B02
:1009500063EB050306434CEA010C49084FEA3000FB
:1009600092185B4150EA0107EDD152EA030012D020
:1009700082EA040083EA0501084305D0101BAB415D
:1009800006D20122002306E000224FF0004302E0DD
:100990006FF0010253101AEB06004CEB085110EBFC
:1009A0000A0041EB0B01BDE8F04DFFF78DBEC1F32E
:1009B0000A52C1F3130140F2FF3341F480119A420D
:1009C00002DA00200146704740F233439A42A2F215
:1009D000334202DC5242FFF730BEFFF71FBE000079
:1009E00030B5041E71F1000404DB4FF000444042B6
:1009F00064EB0101141E73F1000405DB1C464FF08B
:100A00000043524263EB0403994208BF904230BD59
:100A1000064C074D06E0E06840F0010394E807004B
:100A200098471034AC42F6D3FFF786FB3C590408D4
:100A30005C590408202A06DBCB17203A41FA02F061
:100A400043EAE07306E041FA02F3D040C2F120022B
:100A5000914008431946704770B58C1810F8015B37
:100A600015F0070301D110F8013B2A1106D110F847
:100A7000012B03E010F8016B01F8016B5B1EF9D14B
:100A80002B0705D40023521E0DD401F8013BFAE7D1
:100A900010F8013BCB1A921C03E013F8015B01F83C
:100AA000015B521EF9D5A142D8D3002070BD0000D1
:100AB00018484FF0FF010170002080F309881648A4
:100AC000016881F3088815484FF08051016062B6D3
:100AD000FEE772B6EFF3098028B1203880E8F00F06
:100AE0000F490968086000B50E4880475DF804EBBF
:100AF0000D480E490A78027009480D490A680260DB
:100B0000106890E8F00F203080F309884EF0040E52
:100B100062B6704722ED00E09000002004ED00E096
:100B20008800002051DE000844000020450000201D
:100B30008C00002008B5012108460EF069FD012156
:100B40004FF404700EF080FD0220ADF8000000208C
:100B50008DF803006946024804F0E2FE08BD00007B
:100B60000010014010B5FFF7E5FFBDE8104000F0B0
:100B700001B8000070B590B02B4E304601F026FA57
:100B80002A4805902A4806900024079401250895D4
:100B900009940A9428020B9080000C9020200D905C
:100BA00000020E900F9405A9304601F08BFA012146
:100BB000304601F0FDF900948DF804408DF80550A1
:100BC0004FF46020029003948DF81050174C694642
:100BD0004C3C204600F054F84FF440400EF00EFD1F
:100BE000052301220B21204600F06EF8012120464A
:100BF00000F02CF80121204600F01CF8204600F0FF
:100C00009DF8204600F035F80028FAD1204600F083
:100C1000A6F8204600F026F80028FAD10121204647
:100C200000F091F810B070BD080002404C24014063
:100C300030020020002904D0816841F00101816068
:100C40007047816821F0010181607047002904D05C
:100C5000816841F4807181607047816821F48071FE
:100C600081607047014600208968490700D501204E
:100C70007047014600208968090700D501207047A8
:100C800010B542680E4B1A400C790B6842EA0422F8
:100C90001343436082680B4B1A40D1E9024323435C
:100CA0004C7942EA440213438360C26A22F4700220
:100CB000097C491EC9B242EA0151C16210BD00005F
:100CC000FFFEF0FFFDF7F1FF70B5072609290AD9ED
:100CD000C568A1F10A0404EB4404A640B543A3404F
:100CE0001D43C56007E0056901EB4104A640B5431B
:100CF000A3401D4305611F23072A09D2446B521EDE
:100D000002EB820293409C4391400C43446370BDCC
:100D10000D2A09D2046BD21F02EB820293409C433E
:100D200091400C43046370BDC46A0D3A02EB820229
:100D300093409C4391400C43C46270BD816841F074
:100D4000080181607047002904D0816841F4A00146
:100D500081607047816821F4A001816070478168DB
:100D600041F0040181607047002800DC4042704778
:100D70007047000070B58AB0002405940C20144B15
:100D8000CDE9013009AE0325CDE9075601218022C6
:100D90000694CDE90321009023460E4A0EA1124885
:100DA0000CF092FE06AB059470C34FF48060CDE961
:100DB000030466210D4ACDE901210D2000900A4867
:100DC00000230B4A0BA1B4300CF07EFE0AB070BDBC
:100DD0004C110020AD0E0008417070205461736BFF
:100DE0002055706461746500E40D002050130020EC
:100DF000290F0008417070205461736B2055736592
:100E000072617070000000000EB500F0BFF800F0D5
:100E100047FE00F023F902A80CF0FEFD0BA021F024
:100E200045FBFFF7A7FF15A021F040FBFFF7A0FF50
:100E3000002502AC08F034F80022CDE900540F235D
:100E4000114610460DF05EF8F4E700003C3C2D4FD3
:100E5000532D494E464F2D3E3E20437265617469C5
:100E60006E67204170706C69636174696F6E2054A5
:100E700061736B732E2E2E0A0D0A00003C3C2D4F21
:100E8000532D494E464F2D3E3E2043726561746995
:100E90006E67204170706C69636174696F6E204584
:100EA00076656E74732E2E2E0A0D0A000EB51B4C3D
:100EB0004FF47A7508E0A178491CC9B2A1700A29DB
:100EC00006D2284624F060FB11F0E2F90028F2D1A6
:100ED00001274FF48079DFF848A0124E00250DF16C
:100EE000080817E0002011F053FA38B130780128D3
:100EF00000D167704946504604F09DFD0022CDE9BF
:100F000000586423114610460CF0FCFF4946504639
:100F100004F08FFDA0780A28F0D2E3E72800002033
:100F2000000801407801002004480078552801D0CD
:100F300025F068F811F01EFEFCE7000028000020F4
:100F400010B501200EF08EFBBDE8104000200EF021
:100F500089BB000008B50349084400900098008848
:100F600008BD0000006C004008B5034A1044009022
:100F70000098016008BD0000006C004000B585B01D
:100F800068460EF07DFB019805B000BD10B586B037
:100F900000200290039004900590012140200EF063
:100FA00037FB00F065FB0BF05FF90AF093F90AF0EC
:100FB000A7F900F021FB11F027FB14F045FB0420FA
:100FC00013F03AFB06F0E2FE01221DA11D4824F0B9
:100FD00075FD1D4908701D4C18B1E020207006B049
:100FE00010BD01224FF4FF1118480FF0EBFD2078DF
:100FF00055281CD11022164902A80FF0E3FDBDF8B8
:101000000C000090BDF81430BDF81020BDF8081099
:10101000002007F0EDFEBDF80E000090BDF8163080
:10102000BDF81220BDF80A10012007F0E1FE0EF015
:10103000DFFC08480EF0BAFB07490870CFE7000054
:10104000303A0000FC3800202B000020280000204F
:1010500002E01F002C4900209400002010B5FFF78B
:101060008DFF04490968B0FBF1F0BDE810400CF0B9
:10107000EDBF00001866020838B545680446014611
:10108000284611F07DFE00282AD02068304A0F281B
:1010900019D006DC0B2824D00C2810D00E2851D1F2
:1010A0002FE0112802D028284CD145E09268002A70
:1010B00016D02146284601B0BDE8304010472146F1
:1010C00028465268F7E7284605F0A0FB0090406EDE
:1010D0000468684605F004FC002C01D02846A047AF
:1010E00038BD284605F092FB0090683005F0E8FA1C
:1010F000009803216C3005F0F1FA684605F0F0FB2A
:1011000020E0E168486809680D2902D0202913D140
:1011100005E0002810DD28461CF0D1FC06E0002880
:1011200004DD2846BDE838401CF0C9BC2846BDE8AF
:10113000384002211CF0D9BCE06818B900212846CB
:1011400000F0DAF92046BDE8384012F01BBA000082
:10115000500500202DE9FF410AAF70CF002703950D
:101160008DE8D00000F003F804B0BDE8F081F0B5E0
:1011700085B00DF1280CBCE8F0004FF0000C8DE8B4
:10118000F01000F025F805B0F0BDF0B5044685B0CC
:101190008069B4F90850668A0027CDE90265CDE977
:1011A00000170490B4F90C00B4F91060C118B4F938
:1011B0000A00B4F90E50104433462A4600F008F8ED
:1011C0000546616800F0B7F905B02846F0BD00009B
:1011D0002DE9F04F85B01F46DDE911B4DDE90E566B
:1011E00090468946824606F03BFE4C341548CDE9D0
:1011F0000204CDE900563B4642464946504612F0AD
:1012000007F9040018D005F001FB1022594604909C
:1012100012F00AF8049830220B493430FEF7EFFF41
:10122000094D04990C3D2868486604A805F058FB50
:10123000286841682046884708F016F905B020461E
:10124000BDE8F08F791000085C050020F0B5044679
:1012500080688B4989B051F82050606800287DD0A3
:10126000052804D006287AD0122879D1AEE0E869A2
:1012700000284FD095E80E008DE80F0004F1100112
:101280000FC908F0A9FE002655F8260007F0C7FB95
:10129000A169E8690A1A216901446069304406F0CD
:1012A00007FAA169E8690A1A21690144E069801B0B
:1012B00006F0FEF9E169E8690A1A616901442069EA
:1012C000304406F0CBFAE169E8690A1A6169014421
:1012D000A069801B06F0C2FA761C022ED4DBA86837
:1012E00007F09DFBE069E9696669431A20694218C5
:1012F000521E3144801C06F067FBE169E869A2696F
:101300000B1A61690144101A401C921E06F05CFB26
:10131000EE6913E05FF0000655F8260007F07FFB4A
:10132000E069831BA069821B6069811920693044D0
:1013300006F034FA761C022EEEDB0226D5E9030114
:10134000CDE900016169E06908444310A069891C86
:10135000821B2069304406F045F902E089E012E082
:101360008AE0D5E90501CDE90001E3696069012161
:10137000184401EB6001A0699B1E821B2069304468
:1013800006F030F978E0206805F040FA0490206813
:1013900013F090FD40B1A06808B1002008E0049867
:1013A000006F28B1012003E00498406F00B10220D3
:1013B000049901EB8000C56E04A805F091FA0023A2
:1013C0001A462846216805F0DDFD55E0206805F045
:1013D0001DFA0490866EEEB3B0F95C70A168D1B3CB
:1013E000032942D05FF0000100EB8101406D0C6CDD
:1013F00007F03EFB204607F012FB05A806F0A6FB0F
:10140000BDF81410A88B0144ADF81410BDF81810E5
:10141000081AADF81800BDF81600801CADF81600CB
:10142000BDF81A00801EADF81A0004985E30B0F9BD
:101430000220B0F9001005A807F0A1F904A805F0F2
:101440004FFA022007F080FB304605F0DFF93A46FC
:1014500005A901E00BE006E0079005F011FF07A8E1
:1014600005F03EFA08E00121BEE70221BCE704A82E
:10147000F6E7206813F0A0F909B00020F0BD0000E5
:10148000B43D040870B516460C460546194630466C
:10149000049A05F039FD024621462846BDE8704011
:1014A00000F08BB8044A0349116004494A6A486253
:1014B000104670478C050020500500205C05002078
:1014C00000294FF0100101D011F0E9BC11F031BC3E
:1014D00038B50D4604000ED006F0C2FC204605F0DB
:1014E00095F900904565684605F0FAF9204612F036
:1014F00001FE07F0B9FF38BD4FF480720029114694
:1015000001D011F0CCBC11F014BC08B5002300933D
:1015100000F001F808BD70B516460C4605461946A0
:101520003046049A05F010FD024621462846BDE8E3
:10153000704000F042B82DE9FF410E4605004FF023
:10154000010421D006F08CFC284605F05FF90190DB
:10155000876E01A8009705F0C3F93146684609F087
:10156000E9F878B100980024B84208D0284605F080
:101570004DF901900099816601A805F0B1F928465E
:1015800012F0B8FD07F070FF04B02046BDE8F0810E
:1015900038B50C4605000FD006F062FC284605F071
:1015A00035F90090A0F85C40684605F099F92846A6
:1015B00012F0A0FD07F058FF38BDF8B515460C46EF
:1015C000060018D006F04CFC304605F01FF90090DC
:1015D000032C0BD800EB84006C3005F071F80098F8
:1015E00000EB8400C566304612F084FD684605F0C5
:1015F00077F907F039FFF8BD38B5012104200EF066
:1016000023F84FF48074ADF8004010208DF80300EB
:1016100003208DF80200054D6946284604F080F944
:101620002146284604F005FA38BD000000080140B4
:1016300010B500280FD04FF48054012811D0022893
:1016400015D1102101200FF029FD2146BDE81040E1
:1016500002200FF0D9BC1021BDE8104001200FF08E
:101660001DBD2146BDE8104002200FF0CDBC10BDCD
:101670004FF4A0600BF0CEBEFEE7C1B2000A40EA14
:101680000120704770B500208F4B904C5988A4F111
:10169000400202E0155C2554401C8842FAD38B4876
:1016A000626820304260A26882601F290FD0022049
:1016B000FFF7BEFF00202060607B1A2205210FF09B
:1016C0008DFDBDE87040002101200FF067BDE17B7A
:1016D000282901D02A290FD1207D627CE57C40EAAF
:1016E0000260A27C120442EA052210435860E07DA9
:1016F000A27D40EA02209860754A206890427DD120
:10170000744A607B1268904203D8A27B0AB1102A07
:101710000DD90220FFF78CFF607B242205210FF0FA
:101720005DFDBDE87040002101200FF037BD252987
:1017300068D01ADC15297CD00DDC08297AD005DCAC
:10174000F1B303293FD004292DD177E00A2972D0C3
:10175000122928D13BE01A390A2924D2DFE801F006
:10176000433B237A3F232323234B8A297DD00EDC5E
:10177000552967D006DC28294CD02A2950D02F299A
:1017800011D153E05A2932D088290CD172E0A8290E
:1017900068D004DC8F2969D09E2904D16EE0AA2983
:1017A00074D0AF297AD00220FFF742FF607B20225D
:1017B00005210FF013FDBDE870400021012000E07D
:1017C00024E00FF0EBBCBDE870400EF0A7BFBDE811
:1017D00070400EF0B1BEBDE870400EF0ABBFBDE88A
:1017E00070400EF0A7BFBDE870400EF0E5BEBDE84A
:1017F00070400EF0DBBEBDE8704001E056E001E055
:101800000EF056BFBDE870400EF018BFBDE8704046
:101810000EF094BFD3E90112BDE870400EF0D2BEC5
:10182000D3E90112BDE870400EF0C2BFBDE87040C0
:1018300002E00BE012E025E00EF09CBFBDE8704036
:101840000EF062BEBDE870400EF090BEBDE8704084
:101850000EF08CBEBDE870400EF088BEBDE8704052
:101860000EF084BEBDE8704002E013E01AE00DE027
:101870000EF07CBEBDE870400EF078BEBDE8704052
:101880000EF074BEBDE870400EF070BEBDE8704052
:101890000EF06CBEBDE870400EF068BEBDE8704052
:1018A0000EF064BEBDE870400EF060BE0220FFF78F
:1018B000BFFE607B202205210FF090FCBDE8704048
:1018C000002101200FF06ABC7C0300201CDA0020FC
:1018D00055534243E00300202DE9FF4704460068CA
:1018E00010B113F0E7FA68B10022314850F8221025
:1018F00060680A2841D007DCF0B306280DD007281D
:1019000054D106E00122F0E712280AD019284DD15F
:1019100037E0204615F09EFC48E0204617F0B0FA6C
:1019200044E0206804F072FF0290B0F9548090F80F
:101930005650476C466B02A804F0D2FF206800F0B6
:1019400039F88146684611F03DFFBDF8001009EBFB
:1019500005000844ADF80000246A304607F088F816
:10196000022007F0F1F8384607F059F84246694678
:10197000204605F085FC19E007E0204618F00DFA36
:1019800014E0886904B0BDE8F087206812F014FF05
:10199000206804F03BFF0390B0F90610B0F9022074
:1019A000891A491CC16703A804F09AFF0020E9E7DF
:1019B000C43D040838B5044606F052FA204604F047
:1019C00025FF0090C46F684604F08AFF07F04CFDC5
:1019D000204638BD044A034911600449CA69C861F8
:1019E0001046704718060020B00B0020B40B0020F2
:1019F00000B589B024216846FEF728FC1920019023
:101A000003480068806841686846884709B000BD9F
:101A1000B00B00207CB5214C0546216831F8220F1F
:101A20004A8D104408804888CA8D10444880284652
:101A300006F066F82168498CADF800104618284673
:101A400008F014FD3044401EADF8040006F0D2F852
:101A50002168898CADF802100844401EADF80600DC
:101A6000684613F0BBF804E0284603F0E5FB13F0EA
:101A700069F80028F8D10A2D04D0BDF804002168C7
:101A8000401C4884206830F8221F428D891A01804A
:101A90004188C28D891A41807CBD00008C040020E1
:101AA000AFF3008002490020086000F009B8000090
:101AB000300000200149086070470000300000201D
:101AC00010B50948016841F08071016007480021A4
:101AD0004160016841F001010160FFF74FFABDE884
:101AE0001040FFF7E7BF0000FCED00E0001000E051
:101AF0000148406870470000001000E02DE9F04107
:101B0000194E1A4F1A4C1B4D28E047F6FF70206003
:101B1000288800F00F01317007EB8100D0F8002C0D
:101B200092B213040CD5D0F8002C40F68F731A40F3
:101B3000C0F8002C1048491E50F8210080470DE0E5
:101B400012060BD5D0F8002C48F60F731A40C0F8D7
:101B5000002C0A48491E50F8210080472068288040
:101B60000004D2D4BDE8F081AC0200200050004057
:101B7000445C0040DC030020C0030020A4030020DC
:101B80002DE9F84F002000904BF6BF7748F280080F
:101B9000614E624D40F68F7ADFF8849148F60F7BF4
:101BA000604C2CE0088800F00F0089F8000078B342
:101BB00004EB8001D1F8002C0092BDF80020120443
:101BC0000AD5D1F8002C02EA0A02C1F8002C5649C5
:101BD000401E51F820008047BDF8000000060ED5D9
:101BE00099F8000004EB8001D1F8002C02EA0B0206
:101BF000C1F8002C4D49401E51F82000804746484E
:101C0000443000684A4908800004CBD4BDE8F88F0E
:101C1000FFE730682880288800F030006880288836
:101C200000F4405028803068384080F4005080F044
:101C3000200040EA080030600888C00620D43068E0
:101C400000EA0B00306009F0F7FA30683840298864
:101C5000C90401D580F480502988890401D580F415
:101C600000506988C90601D580F01000698889068E
:101C700001D580F0200080B240EA08003060C5E75E
:101C800030680090BDF80000000520D5306800EAFB
:101C90000A0030600FF0B4FA306838402988C9046F
:101CA00001D580F480502988890401D580F4005042
:101CB0006988C90601D580F010006988890601D5B8
:101CC00080F0200080B240EA080030609EE7BDF856
:101CD0000000000493D5306800EA0A0030600DF07F
:101CE0005DFA306838402988C90401D580F48050F5
:101CF0002988890401D580F400506988C90601D576
:101D000080F010006988890601D580F0200080B23B
:101D100040EA0800306079E7005C0040BE02002025
:101D2000AC02002000500040C0030020A4030020AB
:101D3000DC030020810008480844D0F8001C490456
:101D400009D5D0F8001C48F68F7211404CF2800281
:101D50001143C0F8001C7047005000408100084843
:101D60000844D0F8001C490609D5D0F8001C48F6F4
:101D70008F72114048F2C0021143C0F8001C704736
:101D800000500040810006480844D0F8001C48F686
:101D90008F62114048F280021143C0F8001C704766
:101DA0000050004070B586B011F03AFD30214FF47C
:101DB0001472CDE9032105910321CDE900011648F4
:101DC00000230293036A74224FF481713E2008F0CD
:101DD00082FF06460024114D11A2304655F83410FA
:101DE00008F0B0FE641CE4B2022CF5D30D4A0121C8
:101DF000304608F0E7FF4FF0FF31304609F02CF88D
:101E00000A220021304609F036F806B03046BDE817
:101E10007040082109F009B87C4D00207466020862
:101E20000000000080FFFF80F0B587B0002411F0B3
:101E3000F7FC2C4A0223CDE901322B4D00900421FE
:101E400005F1080003910FC811F0E2FA68623A2127
:101E50003022CDE90421002640F25123CDE902636E
:101E60000321CDE90001E8692A68143000EB400342
:101E7000D21E3146032008F02EFF06461B4D6FF0A0
:101E80007F4705EBC40055F834104268304608F02F
:101E900059FE3A462146304609F00EF8641CE4B279
:101EA000092CEED3124A0121304608F08BFF11496C
:101EB000304608F0A3FF4FF0FF31304608F0CCFF6A
:101EC0000A220021304608F0D6FF0C2201213046BC
:101ED00008F0D1FF07B03046BDE8F040082108F017
:101EE000A4BF0000994B02087C4D002084660208C4
:101EF00080FFFF8060DD030870B586B011F090FCB4
:101F00000C230226CDE901631DA14FF4B072CDE987
:101F10000321009010233C22314600200FF018FCD2
:101F200004461A4920460FF0B5FC6FF07F4529465C
:101F300020460FF005FD11F073FC15490E2440F208
:101F400061130A68CDE9016412A1CDE90331009063
:101F500002EBD2706FF0180101EB60001023322207
:101F600002210FF0F5FB0446294620460FF0E8FC5D
:101F700006B02046BDE8704009490FF08BBC000058
:101F800057696C6466697265204F530060DD030811
:101F90007C4D002031313A35363A303000000000B7
:101FA00050D603080148006870470000640600200E
:101FB000002904D0016841F0010101607047016807
:101FC0004FF6FE72114001607047000001684FF645
:101FD000FE72114001600021016041608160C160BA
:101FE0003649364A0839904204D1486840F00F001B
:101FF00048607047314A1432904204D1486840F03A
:10200000F000486070472D4A2832904204D1486859
:1020100040F4706048607047284A3C32904204D1D6
:10202000486840F4704048607047244A50329042FB
:1020300004D1486840F47020486070471F4A6432F9
:10204000904204D1486840F47000486070471B4AD1
:102050007832904204D1486840F070604860704720
:10206000174A111F904204D1086840F00F00086021
:102070007047134A1432904204D1086840F0F000CF
:10208000086070470E4A2832904204D1086840F434
:102090007060086070470A4A3C32904204D1086878
:1020A00040F4704008607047054A50329042FAD1BF
:1020B000086840F470200860704700000800024083
:1020C0000804024030B5026847F6F0739A430C6A80
:1020D0008B682343D1E904452C4323438C69234374
:1020E000CC6923434C6A23438C6A23431343036024
:1020F000CA6842600A6882604968C16030BD0000F9
:10210000F8B50546006804F081FB0090448ED0F8D5
:102110008860684604F0E4FB06B1012604F001047F
:10212000286812F0C7FE0EB1002006E00CB10120B5
:1021300003E008B1022000E003201B4951F8201001
:10214000686858B302280CD0052802D0122828D17C
:1021500003E0284615F0AAF823E0284618F0EFFA25
:102160001FE06A69E8694FF0FF33801AA0F10802A6
:1021700003EB6204421CAB69001B4510A3EB620633
:10218000C86906F04CFC06E03219311B284605F000
:102190008FFA641E6D1C002CF6DA02E0286812F03B
:1021A0000BFB0020F8BD0000243E0408044A03494C
:1021B000116004490A6B08631046704768060020E6
:1021C000F00B0020F40B002038B50D46002404F07D
:1021D0001DFB0090C06B294604F01AFC05466846BA
:1021E00004F07EFB1DB1284604F010FB0446204697
:1021F00038BD10B500F094F800F03AF8CC2000F0AB
:10220000A7F8442000F0A4F800F08AF800F030F8B5
:10221000CC2000F09DF8BE2000F09AF800F072F893
:10222000044600F06FF8000200B220436FF0030490
:1022300000280ADAC043401CFEF763F92246FEF785
:102240003BF9BDE81040FEF7ADB9FEF75AF922465A
:10225000FEF732F9BDE81040FEF7A4B910B50FF053
:10226000FFF900F05DF8BDE8104000F001B8000093
:1022700070B500240FF00AFA124D04E0641CE4B2B9
:10228000012023F081F94021284603F0CBFB08B15F
:10229000642CF3D3642C01D3002070BD002404E02F
:1022A000641CE4B2012023F06FF94021284603F0BA
:1022B000B9FB08B9F02CF3D3F02C01D3002070BD8A
:1022C000012070BD0018014010B50FF0EDF90C4C65
:1022D0004021204603F0ADFB0A2023F055F90FF012
:1022E000D5F94021204603F09DFB012805D00024AC
:1022F0002D2023F049F9204610BD0124F8E7000005
:102300000018014070B500250024FFF7DDFFA04054
:102310002843C5B2641CE4B2082CF6D3284670BD2D
:1023200010B50FF0C1F9094C4021204603F081FBA4
:1023300040F2EE2023F028F94021204603F07BFBF9
:10234000BDE810400F2023F01FB900000018014025
:1023500070B505460FF0A8F90024134E05F00100F2
:102360006D0870B14021304603F063FB082023F074
:102370000BF94021304603F05EFB3A2023F004F9CC
:102380000DE04021304603F054FB462023F0FCF8DA
:102390004021304603F04FFB022023F0F5F8641C87
:1023A000E4B2082CDAD370BD001801402DE9F047E3
:1023B000DFF89880D8F8001001F1100528880E7A0F
:1023C000234F4FF03009002801D1042E04D0AC88EF
:1023D000A04215D8042614E01E480178012903D034
:1023E0000726102038802BE01B4A002112681B4B67
:1023F00092B2921C43F81210A7F8009001701FE0EF
:102400000226844200D90446A968A0B288478246C1
:10241000002008F0CBFA0146A2B2504610F02CFC86
:10242000A1B200200EF02CFE2888001B28806888AE
:1024300020446880A7F8009009494FF44050088074
:10244000D8F800000672BDE8F0870000B002002056
:10245000C0020020A8020020505C00400060004044
:10246000BE0200202DE9F041214E3468103420884E
:10247000A168002915D0A0B1A588854200D90546DC
:10248000A8B2884707462088401B208060882844DF
:102490006080002008F06AFA0146AAB238460CF0C3
:1024A000DBFE2088134F302538B1134928020880FD
:1024B000002108460EF0E4FD3D802088A188884276
:1024C00004D3316803200872BDE8F08118B1316887
:1024D00005200872F8E731680620087207480021D5
:1024E0000068074A80B2801C42F810103D80EBE77C
:1024F000B0020020C0020020BE020020505C00405C
:10250000006000402DE9F843634E306842780024B3
:10251000624D062A296801D08AB117E00278520676
:1025200069D18078012804D0022804D0032804D07F
:1025300061E0CC695FE00C6A5DE04C6A5BE0438877
:1025400023B9C388022B01D1037923B1082A39D0DA
:102550000A2A3CD04FE00278530601D1838833B178
:1025600002F07F02012A04D0022A0CD043E04C4C36
:1025700041E08A6940790021904710BB3068807A39
:10258000F8B1474C37E0417901F00F0001F07002DB
:102590000B06444907D501EB8001D1F8001CC1F3BB
:1025A0000111090106E001EB8001D1F8001CC1F323
:1025B000013109033C4B1B7883421CD90AB901B194
:1025C000374C18E00078400615D1384C13E00278FB
:1025D00002F07F02012A0ED1827A62B1428852B99A
:1025E000027942B9C288012A05D18A69407900215D
:1025F000904700B92E4C09274FF000083CB13068D5
:10260000A0F8128084610020A047002006E029681D
:102610003068096940788847032816D031680A8AEB
:10262000A2F57F43FF3B0DD0022811D082B108787C
:1026300000062AD5C8880090009882420CD90098DC
:1026400008821AE00F72BDE8F88330680772FAE773
:102650004FF008000872F6E70FD22868154B90F883
:102660002C00824202D283F8008006E0B2FBF0F434
:1026700000FB142008B901201870286890F82C007D
:102680008882BDE8F843FFF791BE032008720A492B
:1026900000030880D7E70000B0020020B402002049
:1026A00019140108005000404C040020A91301082F
:1026B000F1130108A8020020BE02002070470000AC
:1026C0002DE9FF41224D4021284603F0B4F9802135
:1026D000284603F0B0F90824019400268DF80A601A
:1026E00001A800F0ABFE09208DF80C008DF80F60FA
:1026F00003A80AF05DFE10266E61164904200860EA
:102700002020286114480460081F0460012108206B
:102710000CF09AFF4FF47F40ADF800008DF8036095
:1027200003278DF8027069460C4803F0F9F801217F
:1027300010200CF089FFADF800408DF803608DF893
:1027400002706946284603F0EBF8BDE8FF810000FF
:10275000001001401408014010140140000C014019
:102760002DE9FC470E465FEA00097FD005F078FBB3
:10277000484604F04BF8009090F85470D0F8588018
:10278000456BC46C684604F0ABF8B8F1000F04D098
:10279000314648464246904761E0122E18D006DC8A
:1027A000082E43D0102E3CD0112E06D112E0132E4D
:1027B00021D01D2E43D01E2E3DD0202E4FDB17B131
:1027C000484614F0ECF9B1B248461AF053FC60B335
:1027D000611C27E04DB3284604F018F80546214651
:1027E000019006F01DFD4419204606F0B9FC014693
:1027F0002346012210E0C5B1284604F007F805463B
:102800002146019006F00CFD4419204606F0A8FC74
:10281000014623464FF0FF32484613F08BFE01A8D5
:102820001BE0611E484600F088FA18E0BCB1611E4A
:10283000484600F082FA484614F0B1F90FE04846E5
:1028400003F0E4FF0090012F12D0012180F8541012
:102850002146484600F071FA684604F041F84846BF
:1028600011F048FC00E001E006F0FEFDBDE8FC8749
:10287000002180F85410EFE7FEB544680546204675
:1028800012F018FB06462946204610F079FA002877
:1028900034D028680E283DD004DC0B282FD00C281B
:1028A0004AD116E00F2825D0A0F58070133843D107
:1028B000204611F0E5FD204600211CF079F8204665
:1028C00003F0A4FF0190C06F002111F0B1FD01A839
:1028D0001DE0E86860B1017A29B10168204600F086
:1028E000EAF8012100E00221204611F0E6FC23E095
:1028F0000321F9E7012120461CF05AF8FEBD2046CD
:1029000003F084FF0090343003F0DAFE684603F0F1
:10291000E7FF11E086B1E868416800290CDD016835
:10292000092909D00A2907D00D2905D01B2903D070
:102930002046FFF715FFFEBD284610F023FEFEBD22
:10294000F0B587B004460DF1080CD4E90567B0F97D
:102950000850408AACE8E1000020CDE90010B4F94D
:102960000C00B4F91060C118B4F90A00B4F90E50A3
:10297000104433462A4600F009F8050002D0618A67
:1029800000F072F907B02846F0BD00002DE9FF5FA6
:102990001F46DDE91254DDE90E6A904689468346FA
:1029A00005F05EFA0DF1040C4AF4805058341E49CB
:1029B0000096ACE813003B4642464946584610F0A4
:1029C00027FD04002AD003F021FF10220090119966
:1029D00010F02AFC00981C2214496030FDF70FFC0F
:1029E000009A012082F85500681C00D0012082F86E
:1029F0008000002D00DC08252DB2158700205087AF
:102A000050636D1C684603F06BFF294620461AF0A0
:102A10006AF918B9204610F0EDFD002406F024FDF7
:102A200004B02046BDE8F09F792800082407002064
:102A30002DE9FC4115460E00044627D0002C25D078
:102A400005F00EFA204603F0E1FE002701903770F2
:102A5000406BB0B103F0DAFE009007F0EBFC0146EA
:102A6000009806F0DDFB0446681E844200DD044643
:102A7000224630460099FDF7C2FB684603F030FF5E
:102A8000375501A803F02CFF06F0EEFCBDE8FC81F1
:102A900038B505004FF000040BD005F0E1F92846E9
:102AA00003F0B4FE0090846C684603F019FF06F052
:102AB000DBFC204638BD2DE9F04186B00C4606000F
:102AC00055D005F0CDF9304603F0A0FE0090406BE4
:102AD00098B303F09BFE03900098806E05F0C8FF4A
:102AE0008046304611F03EF80746039805F0B9F8E5
:102AF0000546009890F8601001F00301012916D0F6
:102B000002290DD0416EC06A00680844241A641E70
:102B1000039807F08FFC0146002C0FDA002115E026
:102B2000781B401C00EBD070A4EB6004F0E7406E13
:102B3000791B081A241A641CEAE713E0AC4205DC8E
:102B400002462146039807F015FC0146304600F086
:102B5000F4F803A803F0C4FE404605F089FF3046B0
:102B600011F0C8FA684603F0BBFE06F07DFC06B023
:102B7000BDE8F08138B50C4605000FD005F070F9BE
:102B8000284603F043FE009018B18466284611F0F1
:102B9000B1FA684603F0A4FE06F066FC38BD2DE9E4
:102BA000FC4788465FEA00094FF000055AD005F05F
:102BB00057F9484603F02AFE0090B0F93860446B9C
:102BC000684603F08DFE0027B8F1000F3ED04CB1EF
:102BD000204603F01BFE0190FDF755FB451C01A8A4
:102BE00003F07EFE404607F025FC0446B04200DDBF
:102BF00034462146404606F013FB461C711B4846EE
:102C00001AF01BFC08B3484603F000FE0090406B2E
:102C100003F0FCFD324641460190FDF7F0FA0198C1
:102C2000304400F8017C0098C464B0F938108C423C
:102C300005D190F85410012901D1641EC46468467E
:102C400003F04EFE01A803F04BFE06E0009834307E
:102C500003F036FD00984787C764484611F04AFAEA
:102C600006F002FCBDE8FC8738B50C4605000FD025
:102C700005F0F6F8284603F0C9FD009018B1046687
:102C8000284611F037FA684603F02AFE06F0ECFBFE
:102C900038BDF8B515460C46060013D005F0E0F82F
:102CA000304603F0B3FD009038B1022C05D200EBA2
:102CB0008400C566304611F01DFA684603F010FE28
:102CC00006F0D2FBF8BD0000F8B51D4616460C46CE
:102CD000074605F0C5F82FB3384603F097FD00907E
:102CE000AC4201D92C4602E0B44200D234460F492E
:102CF00081650F49C1650021C0E91241C0E90F6536
:102D0000012180F85410B0F938100A2901DD0A2198
:102D10000187684603F0E4FD38461EF095FE38460C
:102D200011F0E8F906F0A0FBF8BD000049580108D1
:102D3000491A020800221EF0DEBC1CB50C4603F046
:102D400065FD0090406BF0B103F060FD019007F06D
:102D500071FB009991F8542002B10122002C00DA95
:102D60000024844200DD0446B1F93800801AA042F4
:102D700000DA0446C86CA04200D0CC64002008658C
:102D800001A803F0ADFD684603F0AAFD1CBD0122B9
:102D90001EF0B1BC08B568460AF0F2FC0AF078FAF9
:102DA00068460AF00DFD08BD08B568460AF0E8FC63
:102DB0000AF09EFA68460AF003FD08BD70B50024CB
:102DC0004FF400710D4802F036FE4FF47A7004F0B3
:102DD00011F94FF4FA750CE02B46002208A109A066
:102DE00000F012F808B1012070BD00F0CBF9641CAE
:102DF000E4B2052CF0D3002070BD0000000C0140AF
:102E00004F4B0000415400002DE9F04184460C4630
:102E100015461F461D4EB6F800046FF30E00A6F8C7
:102E2000000462461AA11C480FF048FD54EA050050
:102E300010D0384604F0DEF8B6F800140020C1F3D4
:102E40000E0170548CB185B121463046FDF709FA68
:102E500048B902E00120BDE8F08129460B48FDF7A2
:102E600000FA0028F7D00120F5E73CB121460748D9
:102E7000FDF7F7F90028EED00120ECE729460348DA
:102E8000FDF7EFF90028E6D00120E4E748490020EB
:102E900025730D0A000000000048004030B585B0E1
:102EA0000024002801D0012200E000220BA1684686
:102EB0001FF00CFB4FF4FA750BE02B4600220BA120
:102EC0006846FFF7A1FF10B1012005B030BD641CBA
:102ED000E4B2052CF1D30020F7E7000041542B4366
:102EE00049504D55583D2564000000004F4B0000EF
:102EF00010B54FF47A7004F07DF805A105480FF085
:102F0000DDFCBDE810404FF4FA7004F073B8000027
:102F10002B2B2B000048004038B5012108200CF075
:102F200093FB4FF48070ADF8000010208DF8030083
:102F300003208DF80200064C6946204602F0F0FCA2
:102F40006115ADF800106946204602F0E9FC38BD75
:102F5000000C014010B54FF4FA7300220DA10EA031
:102F6000FFF752FFA0B110A11248FDF77AF908B19E
:102F7000022010BD10A10F48FDF773F908B103201E
:102F800010BD10A10B48FDF76CF908B1042010BD6D
:102F9000002010BD4F4B000041542B434950535467
:102FA00041545553000000005354415455533A3294
:102FB0000D0A0000484900205354415455533A33F8
:102FC0000D0A00005354415455533A340D0A000081
:102FD00010B5FFF7A1FF00F031F9064C4FF4007176
:102FE000204602F028FDA1152046BDE8104002F061
:102FF00020BD0000000C014030B59FB000240B46FE
:1030000002460BA101A81FF061FA41F288350BE0DE
:103010002B4600220BA101A8FFF7F6FE10B10120FC
:103020001FB030BD641CE4B2052CF1D30020F7E7DB
:1030300041542B43574A41503D222573222C2225CF
:10304000732200004F4B0000F0B5B9B004460F46A4
:1030500015461E46642120A8FDF7F8F814B1012C8E
:103060000FD107E03B4612A212A120A800951FF045
:103070002DFA06E03B4613A20EA120A800951FF0F2
:1030800025FA052E06D220AB32460FA102A81FF06A
:103090001DFA04E020AA11A102A81FF017FA4FF4AC
:1030A0007A6312A215A102A8FFF7AEFE39B0F0BDF7
:1030B00054435000222573222C222573222C257381
:1030C000000000005544500041542B4349505354D4
:1030D0004152543D25642C257300000041542B437C
:1030E000495053544152543D25730000414C5245C0
:1030F000415920434F4E4E45435400004F4B000072
:1031000070B50446002540F6C4165CB1012C10D001
:10311000022C15D00020002803D16D1CEDB2052D26
:10312000F3D370BD33460AA20CA10DA0FFF76CFECD
:10313000F1E7334606A209A10CA0FFF765FEEAE716
:10314000334603A205A10CA0FFF75EFEE3E70000F3
:103150006E6F206368616E67650000004F4B000072
:1031600041542B43574D4F44453D310041542B436F
:10317000574D4F44453D320041542B43574D4F442A
:10318000453D330070B5084D4FF400742146284684
:1031900002F04FFC4FF4FA7003F02CFF2146284652
:1031A000BDE8704002F047BC000C014030B5044659
:1031B00085B00D461846002C07D02A4611A11248AA
:1031C0000FF07CFB012005B030BD052806D2931C12
:1031D00002460EA168461FF079F904E0921C10A186
:1031E00068461FF073F94FF47A742346002210A149
:1031F0006846FFF709FE234600220EA12846FFF786
:1032000003FEE0E7257300000048004041542B43D3
:10321000495053454E443D25642C25640000000070
:1032200041542B43495053454E443D256400000012
:103230003E20000053454E44204F4B0010B586B051
:10324000012188040CF0F2F9012108200CF0FCF9AE
:103250004FF48060ADF8140018208DF8170003209B
:103260008DF816001B4C05A9204602F059FBE1140D
:10327000ADF8141004218DF8171005A9204602F0AE
:103280004FFB4FF4E13001900020ADF80800ADF89D
:103290000A00ADF80C00ADF810000C20ADF80E00DF
:1032A0000D4C01A920460FF0A3FA012240F225514E
:1032B00020460FF082FA012240F2244120460FF00E
:1032C0007CFA00F00BF8012120460FF043FA06B01B
:1032D00010BD0000000C01400048004008B5272048
:1032E0008DF8000000208DF8010002208DF802000A
:1032F00001208DF8030068460AF05AF808BD000066
:1033000010B54FF47A742346002207A107A0FFF7F7
:103310007BFD38B12346BDE8104008A202A108A0F9
:10332000FFF772BD002010BD4F4B000041542B43EE
:1033300049504D4F44453D31000000003E00000023
:1033400041542B43495053454E44000010B5114C95
:103350004FF40071204602F06CFBA115204602F0EC
:1033600068FB0D4C002240F2255120460FF025FA53
:10337000002240F2244120460FF01FFA002120468F
:103380000FF0E8F9BDE8104000214FF480200CF068
:103390004DB90000000C01400048004070B5FCF73A
:1033A000E7FE134A1178491C1170FCF7E5FE08206E
:1033B00000F034F8C0B10F490822087810B1012894
:1033C0000AD00EE00C4B102058610C4C22600125F5
:1033D0000D702260186104E00848001D02600220A0
:1033E0000870082000F00CF8BDE870400AF02CB915
:1033F0003C00002073010020001001401014014027
:1034000001490860704700001404014002490A683D
:1034100002430A607047000010040140014600208A
:10342000054A12680A40044B14331B680B4202D051
:10343000002A00D0012070470004014030B51B4A2B
:1034400083790168002B2AD013688B431360111D08
:103450000B680468A3430B60017911440B6804688E
:1034600023430B60114C08342168036899432160A1
:10347000231D19680568A94319604179102905D0F1
:1034800011440A68006802430A6030BD216802687E
:1034900011432160196800680143196030BD00794B
:1034A000104402688A43026030BD000000040140FD
:1034B0002DE9F84310258DF8035003268DF802609E
:1034C000012120200CF0C0F80824ADF80040694626
:1034D000234802F025FA012110200CF0B5F8ADF8D0
:1034E0000050204F6946384602F01AFA01210420A4
:1034F0000CF0AAF80425ADF80050DFF86C8069469E
:10350000404602F00DFA012104200CF09DF8ADF8C0
:1035100000406946404602F003FA012110200CF0F9
:1035200093F82021ADF800106946384602F0F8F90A
:10353000012108200CF088F84FF47F40ADF800001E
:103540008DF803508DF802606946084802F0E8F9EA
:10355000054814300460024810300460BDE8F88368
:10356000001401400010014000080140000C01401F
:103570002DE9F04389B0984615460F4606004FF0F6
:1035800000042DD000F0DCFB0446304600F09FFB29
:10359000814604F065FC03A9304600F064FDF8079D
:1035A00006D0BDF91C00001B401B401C822109E015
:1035B000B8070028BDF91800284402DA40F20221B9
:1035C00000E002210096CDE9018123461A464946D2
:1035D000FDF7C0FD04460021FDF772FF05F044FF32
:1035E00009B02046BDE8F08310B50523FFF7C0FF02
:1035F0000446054A0021FDF788FF0449204610F0E3
:1036000090FF204610BD0000497101087526020890
:103610002DE9F047456804468EB00026284603F0A1
:10362000F5F800905C30B0F820A0D0F80C90D0F8FD
:103630002480C76A006800B10668684603F050F944
:1036400005E079682046884700283DD13F68002F73
:10365000F7D12068142844D009DCA0F10B0007281A
:1036600039D2DFE800F0BE3989B434B41100202823
:103670007ED004DC17283ED01E282CD14BE0262813
:103680003CD02A2827D110E02846E66803F0BEF88F
:103690000190717A39B9317A012904D130F87C1F4F
:1036A00041F48071018001A88FE0284603F0AEF854
:1036B0000090E16811B1C0F8841002E0D0F88400F5
:1036C000E060684603F00CF90EB0BDE8F087002E0C
:1036D0007DD02846B0477AE0214628461AF0E2FE1F
:1036E000F2E705A9284600F0BEFCE06806990160F3
:1036F00007994160E8E7C4F80C90E5E7E068022824
:10370000E2D10C95E0680D9027200A900AA9A068E4
:1037100011F0EAFDD8E7E068012804D0002128462E
:1037200000F086FBD0E7404610F03FFD58B1404620
:1037300010F0BCFF404610F009FC88B10121404662
:103740000FF0ADFB0CE0484611F004F88046284627
:1037500003F05CF80090C0F88080684603F0C0F881
:103760000121284600F064FBB8F1000FACD100E065
:103770000EE00020E060A7E75FEA0A7027D4E06867
:10378000C06820B3007A10B3284610F08FFF1EE007
:10379000E668E6B12946706811F075FB20B1012199
:1037A00028461DF0AFF912E0002128461DF0AAF9C5
:1037B0002946306811F056FB48B1284603F026F838
:1037C00003903168C0F8801003A803F089F82146FF
:1037D00028460FF0D5FA00288CD020460FF0D2FEF4
:1037E00072E7284603F012F80090703002F068FF8C
:1037F0006846EAE7F0B587B0B0F908400DF10C0C67
:103800000C9E87694568ACE8F000448A0025CDE944
:1038100000150294B0F90C10B0F91050B0F90E4038
:10382000B0F90A00194410442B46224600F002F871
:1038300007B0F0BD2DE9F04F8BB09846DDE9155685
:1038400091468A468346149F1A9C04F009FB603413
:10385000314845F48055CDE90204CDE90075434671
:103860004A46514658460FF0D3FD04004DD002F0B1
:10387000CDFF3022049017990FF0D6FC049828222F
:1038800026493430FCF7BBFC049819995C30234F6F
:1038900081600684002646620661083FC662796838
:1038A000016004A803F01CF805A9204600F0DBFB2A
:1038B0001B4841F2827103960094CDE90110BDF9D5
:1038C0001E00BDF91A10BDF91C20431ABDF91800DD
:1038D0005B1C121A521C0FF09BFD0646786841686B
:1038E00020468847204602F091FF0490866604A88F
:1038F00002F0F6FF42F20400054202D120460FF02A
:10390000E1FE2046189900F018FB05F0ADFD0BB064
:103910002046BDE8F08F000011360008480700205F
:10392000754300082DE9F041044694B0006800F0AA
:10393000B7F908B1D94D01E0D84D2C35606815288C
:103940001ED00CDC0B281FD004DC00287ED00528FC
:103950007DD12EE10E287BD01228F9D141E1162825
:1039600006D0172808D0182808D01C28F0D109E064
:10397000E86914B0BDE8F081286AFAE7686AF8E7F8
:10398000A86AF6E76869F4E720680B901C200C90A1
:10399000206802F03BFF0390016D0BA888470646A4
:1039A00003A802F09DFF022E0EDB95E807008DE8CC
:1039B0000700D4E904023346A16906F0D3FA20696E
:1039C0008719A069801B2BE0286805F028F8216979
:1039D000E8690A18521E606903F06AFEA269E86984
:1039E000111A491C606903F063FE676920697F1C36
:1039F000394603F0ADFE3946A06903F0A9FE6868B8
:103A000005F00DF820693946401C03F0A1FEA069BD
:103A10003946401E03F09CFE2769A069BF1C801E2A
:103A20008046286804F0FBFF42463946606903F08F
:103A30003FFE686804F0F3FF60694246401C394667
:103A400003F036FE686A02280FDD02E015E1AFE000
:103A500000E1A86804F0E3FF61696A6A881C8B18BA
:103A600001465B1E4246384627E0296AB14226DD00
:103A70006069022E074600F1020801DB374401E0CD
:103A800007F10207206901DB304401E000F1020088
:103A900022693B460A44A2F10102414603F094FF29
:103AA000022E02DBA069821B01E0A269921EA069BE
:103AB000E9693B46401A401C414603F085FF022E4F
:103AC00002DB6069064401E06669B61CE7692868A4
:103AD0007F1E04F0A4FF3A463146206903F0BEFE83
:103AE0003A463146A06903F0B9FEE7696868BF1E2F
:103AF00004F095FF20693A46401C314603F0AEFEC3
:103B0000A0693A46401E314603F0A8FEE869022843
:103B100002DC286A022823DDA86A022802DDE169A6
:103B20000F1A01E0E769BF1EA86804F078FFE96991
:103B3000022909DD20693B46421800F1020C521EA1
:103B40003146604603F040FF286A022808DDA2697A
:103B5000E8693B46101A401C921E314603F034FFC0
:103B6000286804F05CFFD4E90620216903F0A0FD79
:103B7000686804F054FFA2692169E069521E491C7B
:103B8000401E03F095FDA86A022811DD2669A1698F
:103B9000E469B61C271AA1F102087F1CA41EA868BC
:103BA00004F03DFF234642463946304603F00CFF01
:103BB00072E0208A06B2ADF81460A08A01B2ADF8B6
:103BC0001610208B02B2ADF81820A08B03B2ADF80E
:103BD0001A30D5E90304CDE90004304603F002FDB4
:103BE0005AE0208A298B0844ADF81400A08AADF869
:103BF0001600208B298B401AADF81800A08BADF869
:103C00001A00206802F002FE0390006FF0B102205B
:103C100004F09AFF039991F87C00C0F3C00001EB17
:103C20008000006C04F0FBFE0398406B04F020FF62
:103C30000398006F02F0EAFD03990A90B1F95A2047
:103C400005A903F01DFB0AA802F04AFE03A802F032
:103C500047FE21E0208AADF81400A08AADF81600D6
:103C6000208BADF81800A08BADF81A00A86804F0FE
:103C7000D6FE05A803F0D4FE0EE0206802F0C6FDD3
:103C8000039030F85A1F41F00C01018003A802F0A4
:103C900027FE206810F090FD00206AE684070020CF
:103CA00038B505004FF000040FD004F0D9F82846CD
:103CB00002F0ACFD009090F87C00000700D50124D4
:103CC000684602F00DFE05F0CFFB204638BD38B542
:103CD00005004FF0000411D004F0C2F8284602F0AD
:103CE00095FD0090C06D00218068026828469047CD
:103CF0000446684602F0F4FD05F0B6FB204638BDE8
:103D0000F8B50E4605004FF0000411D004F0A8F8F5
:103D1000284602F07BFD0090C06D31468068026845
:103D2000284690470446684602F0DAFD05F09CFB01
:103D30002046F8BD01480068704700004807002091
:103D400030B587B005004FF0000413D004F088F8B8
:103D500001A9284600F087F9284602F057FD009097
:103D6000B0F95440684602F0BBFD0CB9BDF90440FF
:103D700005F07AFB07B0204630BD30B504468BB065
:103D8000006802F043FD009090F87C10246A006FF8
:103D9000C1F3C00508B102F039FD0690E068029059
:103DA00020690390A088401EADF81000E089ADF8AE
:103DB00012002089401CADF81400608AADF816008E
:103DC000BDF80800401CADF80800BDF80A00401C12
:103DD000ADF80A00BDF80C00401EADF80C000098CC
:103DE000406B04F045FE009808AA02A9B0F95A30C9
:103DF000069805F0FBFC009800EB8500806B07F04F
:103E00000BFF009800EB8500006C07F03DFF08AB4E
:103E100002AA04A906980FF017F9684602F060FD9F
:103E2000069810B106A802F05BFD0BB0002030BD73
:103E300070B50D46040009D004F012F8294620465A
:103E40001CF060FEBDE8704005F00EBB70BD38B5DB
:103E50000C46050011D004F003F8284602F0D6FC09
:103E60000090816CA14203D08464806E10F042F90E
:103E7000684602F035FD05F0F7FA38BD074A0649F5
:103E8000054B1160064A083BD16958601B68C2E9BE
:103E900006300846704700007807002044070020DD
:103EA000480700202DE9FC410D46804603F0D8FF6D
:103EB0005FEA080028D002F0A9FC0190C16D8C686F
:103EC00000F038F907460198456301A802F008FDA3
:103ED0002268012140469047064622680321404659
:103EE00090470546226800214046904704464046D8
:103EF00000F009FA2B46324639464046009400F05D
:103F000091F9404610F0F6F805F0AEFABDE8FC81F4
:103F100038B50C46054603F0A3FF55B1284602F01C
:103F200075FC00900466684602F0DAFC284610F042
:103F3000E1F8BDE8384005F097BA7CB50D460400BD
:103F40001DD003F08DFF204602F060FC0090006F52
:103F50000190684602F0C4FC294601A806F0EAFB7D
:103F600058B1204602F052FC009001990167684662
:103F700002F0B6FC204610F0BDF805F075FA7CBDE5
:103F800038B50C46050013D003F06AFF284602F04E
:103F90003DFC0090B0F95A10A14204D0A0F85A405C
:103FA000284610F0A7F8684602F09AFC05F05CFA83
:103FB00038BD000038B50C46050015D003F050FFA1
:103FC000284602F023FC0022CDF8000000EB82011D
:103FD000521C0C64022AF9D3684602F081FC284680
:103FE00010F088F805F040FA38BD2DE9FC470D4681
:103FF0005FEA00094FF0000432D003F031FF484679
:1040000002F004FC0190B0F95440A54223D000F026
:1040100091F8804601980121A0F85450C06D856840
:1040200048462A68904707462A6803214846904731
:1040300006462A680021484690470546484600F053
:1040400062F933463A4641464846009500F0EAF8A0
:10405000484610F04FF801A802F042FC05F004FABF
:104060002046BDE8FC872DE9F34F85B000270C46BC
:10407000B846059802F0CAFB0090C06D0121856822
:1040800005982A68904782462A6803210598904738
:1040900004902A6802210598904703902A6800211D
:1040A000059890470646009810F08AFD83460098D0
:1040B00010F08DFD8146009890F83210890601D5E8
:1040C000B0F9588000F036F805460098C06E10B17F
:1040D0000FF05FFD074625806780A4F804A0049ACE
:1040E000ABEB020006EB0802401E2A4420813A4452
:1040F000E280039BA9EB0302521E6281A4F80CA08C
:1041000020827019E681401E6082684602F0E8FB5A
:10411000B4F90C000190B4F91000029002AA01A9B0
:10412000059800F039F80198A0810298208207B024
:10413000BDE8F08F10B50146002091F832209206BC
:1041400007D5B1F95400002803D1486B03F0F8FDFE
:10415000801C10BD70B58AB00C46054602F056FBB7
:104160000990C06D866809A802F0BAFB009534B1C9
:10417000012C06D0022C0BD0032C04D10AE018200D
:1041800000E0162001907168684688470AB070BD4B
:104190001520F7E71720F5E72DE9FC4790468946FB
:1041A000044602F033FB0090C16D056868468E68D6
:1041B00002F096FB326800212046904706462046D2
:1041C0000FF055FB2F1404462DB227E002F01EFB22
:1041D0000190B0F90010B0F90420B0F90230491B89
:1041E000521BDB1BB34212D190F82800000607D502
:1041F000D8F8000088420ADB491EC8F8001006E023
:10420000D9F80000904202DC521CC9F8002001A835
:1042100002F066FB20460FF0EFFB0446002CD5D1E0
:10422000BDE8FC872DE9FF4F83B00E460746DDF859
:10423000409002F0EBFA0190C16D8D68FFF77AFFB4
:10424000044601A802F04CFB2A6801213846904739
:1042500083462A6803213846904782462A6800210F
:10426000384690470546B44207D105998B4504D19D
:1042700006998A4501D14D4542D0A41B0026B0467F
:1042800038460FF0F4FA39E002F0C0FA0090806A84
:10429000010602D54FEA805002E0810528D50006CC
:1042A000002825DB24B122461146384610F045F897
:1042B000009890F8280000060AD50698A5EB090298
:1042C000A0EB0A0004FB1601761C38460FF0E6FF4F
:1042D0000098008D80050BD50599A5EB0902ABEB85
:1042E000010004FB080108F1010838460FF0D6FF71
:1042F000684602F0F5FA38460FF07EFB0700C3D19E
:1043000007B0BDE8F08F70B586B0064602F07EFAC1
:104310000590D0E91A4505A802F0E2FA54EA050032
:1043200026D069463046FFF79EFEACB1BDF90620A7
:10433000BDF9041020460FF075FFBDF90A00BDF964
:104340000610421ABDF90800BDF90410521C411AAA
:10435000491C204610F07CFA002D09D0BDF906005A
:10436000BDF90210421ABDF9041028460FF05AFF99
:1043700006B070BD2DE9F0430446406885B006469E
:104380000FF058FB814602F041FA0090D0F880808F
:10439000876C456E684602F0A3FA2068172859D04A
:1043A00008DC0E2837D00F280BD0142852D015283F
:1043B0003AD14FE01E2818D01F2827D0222833D109
:1043C00046E06FF07040874204D0384607F024FC86
:1043D00002F028FC002D12D0D4E902122068CDE9A9
:1043E0000106CDE9031201A822E0E068002806D00A
:1043F0005FEA080006D0B04504D010F057F905B0C8
:10440000BDE8F083304610F0A5F916E02146484695
:104410000EF0B6FCF3E7E0684168002904DD0068AF
:104420000928EFD00A2805D0A5B12046C4F8049089
:10443000A847E4E7304610F09CF90446484602F0ED
:10444000E5F90090C0F88040684602F049FAD6E7E6
:10445000E760D4E720460FF095F8D0E78000A0F1A0
:10446000C040002904D0016841F00101016070479B
:104470000168024A1140016070470000FEFF0F0012
:1044800010B5D0E901121143D0E903231A431143B7
:104490004269114382691143C2691143026A11439F
:1044A000426A1143826A1143C26A1143026B11438B
:1044B00002689200A2F1C04211608168082907D108
:1044C00001688900A1F1C0410A6842F040020A6017
:1044D000416BD1E9002342EA03128B688C891B02ED
:1044E00043EA04431A430B8A42EA03520B7D89696B
:1044F00042EA03620A430168491C8900A1F1C041F4
:104500000A60C16AB1F5804F08D000686FF0704151
:104510008000A0F1C040C0F8041110BD816BD1E94A
:10452000002342EA03128B680C8A1B0243EA0453FD
:104530001A430B7D896942EA036200680A438000DE
:10454000A0F1C040C0F8042110BD000001A01DF082
:10455000ADBF000046554E5F49434F4E30303043AB
:104560006C69636B65640A0001A01DF09FBF0000C9
:1045700046554E5F49434F4E303031436C69636B53
:1045800065640A007CB50FF04BF9034600200090EB
:104590000190224A0521224802F090FB064621A004
:1045A0001DF084FF2749284806F0C0FE2648274909
:1045B000083006F0BBFE264C264D2BE0224806F0C4
:1045C000C3FE2148083006F0BFFE00211E4806F059
:1045D000B5FE38B1206880F00100206001211A4842
:1045E00006F0ACFE18480021083006F0A7FE40B1E6
:1045F000206880F00200206013480121083006F096
:104600009DFE1548007810B130460EF0F3FF0A20E9
:1046100002F0F0FC28780028D0D17CBDC93802080F
:104620007C6203083C3C2D4F532D494E464F2D3E96
:104630003E204B4559617070206372656174650A54
:104640000A000000C9A9000890010020E5A900089F
:104650000C0C01407B010020290000207CB5164C89
:10466000DA20207025206070C420A07013A01DF0F7
:104670001DFF0DF099FAA278617820780CF064FCA7
:104680000FF0CEF80346002000900190144A072155
:10469000144802F013FB0646134C144D07E0217832
:1046A00011B130460EF0A6FF0A2002F0A3FC2978D3
:1046B0000029F4D17CBD0000A00100203C3C2D4F1E
:1046C000532D494E464F2D3E3E204272656174681F
:1046D000696E67617070206372656174650A0A00B3
:1046E000C927020808630308290000207C01002074
:1046F0002DE9F04F8BB000261C2104A8FBF7A6FD86
:1047000059A01DF0D3FE0FF08BF80025034600954D
:104710005D4A03215D48019502F0D0FA8346584670
:104720000FF073F802228DE825004FF40871039111
:10473000C823DC225021052001F00AFA0746002395
:104740001A46FA21FF2001F071FA514CA0600122B3
:1047500032231146192001F0C3FA81463223002288
:104760000221BE2001F0BCFA82464FF6FF78414696
:10477000504601F0FFFA474938460EF0A9FB0023E6
:104780001A4619463846009501F00EFB4249384654
:1047900001F085FB3221384601F027FB0121384624
:1047A00001F061FB0121384601F039FB0021A068CE
:1047B00001F07CFA3949484601F0BEFA41464846C4
:1047C00001F0D8FA3846A16801F037F94946384671
:1047D00001F055F95146384601F051F9304F3CE0AF
:1047E000761CF6B2322E2FD320880646FBF784FEC5
:1047F000FBF7C5FE4FF066322A4BFBF7EBFD6FF07F
:104800000B02FBF759FEFBF7CDFE6060FBF7B7FE2E
:10481000CDE90001324624A104A81DF057FE8DF811
:10482000285040F2611158460FF010F804A90DF01D
:1048300048F821496068FBF79BFDFBF773FE01B266
:10484000A06801F0D5F900261C48007810B1584640
:104850000EF0D0FE0A2002F0CDFB38780028BFD140
:104860000BB0BDE8F08F00003C3C2D4F532D494E5E
:10487000464F2D3E3E204144436170702063726577
:104880006174650A0A000000892602083CCA030810
:10489000300200203C3E0408051B02080AD7A33C56
:1048A0007D01002066660A40307825303458202D7E
:1048B0002D3E2025665600000000484229000020B9
:1048C0002DE9F041ADF5027D00253CA01DF0EEFD87
:1048D0000EF0A6FF002703460097414A09214148F0
:1048E000019702F0EBF90646012002F083FBA020BD
:1048F00021F010FC21F024F83B4C4FF4B07140B192
:104900000120207030460EF0A1FF38A10CF0D9FF35
:1049100006E030460EF09AFF36A10CF0D2FF277069
:10492000207840F2611770B3002042A90854401C5F
:1049300080B2FF28FAD94FF480784246002142A87D
:1049400021F03EF870B1FA24641E2404240CFBD13B
:104950004246002102A820F0FEFF18B1641CA4B258
:10496000FF2CFBD93DB1394630460EF06FFF21A137
:104970000CF0A7FF0FE0394630460EF067FF1BA191
:104980000CF09FFF07E0FFE7394630460EF05EFF70
:1049900018A10CF096FF194C194D07E0207810B1C2
:1049A00030460EF027FE0A2002F024FB287800286B
:1049B000F4D10DF5027DBDE8F08100003C3C2D4FA7
:1049C000532D494E464F2D3E3E20454550524F4DAA
:1049D000617070206372656174650A0A00000000EE
:1049E0000D32020890CA03083C020020E68890E5D8
:1049F0008A9F0000E587BAE9949900002900002009
:104A00007E0100207CB513A01DF050FD0EF008FFC4
:104A10000346002000900190164A0E21164802F02D
:104A20004DF9064630460EF0F0FE00234FF47A7240
:104A300019460EF0BFFC114C114D07E0207810B163
:104A400030460EF0D7FD0A2002F0D4FA287800286C
:104A5000F4D17CBD3C3C2D4F532D494E464F2D3E4D
:104A60003E20436C6F636B6170702063726561748C
:104A7000650A0A00B12B02088CCB0308290000202C
:104A80007F0100202DE9FC470EF0CAFE00260346F8
:104A900000961E4A02211E48019602F00FF9824636
:104AA0001CA01DF003FD4FF48051224820F0A6FE0B
:104AB0002149204808600DF095FF204D204C214FE2
:104AC000DFF88480DFF884901AE0287858B10CF081
:104AD0008BFB0CF08BFB0DF0C5FF0DF0AFFF2068DA
:104AE0000528FCD12E70386880F00100386098F8F5
:104AF000000010B150460EF07DFDC82002F07AFA99
:104B000099F800000028E0D1BDE8FC87813B02084D
:104B100014CD03083C3C2D4F532D494E464F2D3E9E
:104B20003E20555342617070206372656174650A5E
:104B30000A000000A44D0020F802002041020020DD
:104B4000740400200C0C014029000020800100208A
:104B50002DE9FE4F0025C5A01DF0A8FCCB4E002777
:104B6000377001207070B7700103C94820F046FE0D
:104B7000FEF72EFA0EF054FE03460097C54A0A21AE
:104B8000C548019702F09AF80290012002F032FA2B
:104B90004FF48071C14800F04EFFFEF70FF918B9CD
:104BA000B07840F00100B0700020FEF7A9FA18B903
:104BB000B07840F00200B070DFF8E492D9F800005D
:104BC0000EF095FDB078DFF8DCB2DFF8DC8280070C
:104BD00014D00222B5A1B7A007F00AFD02F0C2FE70
:104BE0009BF8000010B102980EF004FD98F8000048
:104BF000002872D00A2002F0FDF9F1E74FF4B871F5
:104C000002980EF023FE0EF072FDDFF8CCA226E132
:104C1000B07800287DD1307800287AD07078B8B389
:104C2000D9F800000EF060FD4FF4B87102980EF054
:104C30000DFEAAA1FCF77FFC94492331A1F11500D8
:104C4000FEF7DAF918B9B07840F00400B070B07827
:104C500010B90020FEF722F900240CE0307878B17A
:104C60008A4A0523083202F130010020FEF7ECF9F0
:104C700030B9641CA4B2052C02D2B0780028EDD063
:104C8000052C03D1B07840F00800B070002407E094
:104C900024E0307848B1FEF733FB30B9641CA4B28D
:104CA000052C02D2B0780028F3D0052C03D1B078BF
:104CB00040F01000B070BAF800046FF30E00AAF8CC
:104CC0000004BAF8000420F40040AAF80004777049
:104CD000D9F800000EF00BFD7FE0C5E0142D7CD369
:104CE0004FF4B875294602980EF0B0FD7EA1FCF78E
:104CF00022FC691C02980EF0A9FD0EF0F8FCBAF82F
:104D00000004000425D54FF48061614820F076FD51
:104D100000E099E0BAF80004C0F30E000AF8007051
:104D20006D4C0523002221460120FEF73FFA584929
:104D3000204620F06BFD706807F0E6FFB0F57A7F43
:104D400003DB6CA1706808F07DF85149706807F0CA
:104D50005AFD6948007898B3FEF7CAF8FEF7FAF8EA
:104D60000028FBD004282BD13770777040F2031154
:104D700002980EF06BFD0EF0BAFC4FF481710298B0
:104D80000EF064FD0EF0B3FC40F2011102980EF03B
:104D90005DFD0EF0ACFC4FF4807102980EF056FDF4
:104DA0000EF0A5FC40F2711102980EF04FFD0EF0CE
:104DB0009BFC294602980EF049FD50A1FCF7BBFB75
:104DC000BAF800046FF30E00AAF80004BAF8000461
:104DD00020F40040AAF800040025B078A0B398F8A9
:104DE000000088B340F2031102980EF02FFD0EF080
:104DF0007EFC4FF4817102980EF028FD0EF077FCD6
:104E000040F2011102980EF021FD0EF070FC4FF4FB
:104E1000807102980EF01AFD0EF069FC40F27111DB
:104E200002980EF013FD0EF05FFC4FF4B87102987B
:104E30000EF00CFD31A1FCF77EFB3770777001227C
:104E40001AA11CA003F094FC6D1CEDB29BF80000AD
:104E500010B102980EF0CEFB0A2002F0CBF898F8C1
:104E6000000000287FF4D4AEBDE8FE8F3C3C2D4FFF
:104E7000532D494E464F2D3E3E205769666961705D
:104E800070206372656174650A0A000044020020A4
:104E9000A44D0020313D02084CCD0308000C014018
:104EA0007401002029000020810100206572726FCA
:104EB000720000000D0A2054686520576966692059
:104EC00064726976652063616E6E6F7420776F72AD
:104ED0006B21200D0A00000048490020E8BF9EE633
:104EE0008EA5E4B8AD000000E9809AE4BFA1E4B863
:104EF000AD000000000000002C000020E69CAAE8A5
:104F0000BF9EE68EA5000000F0B587B00024002605
:104F100004960596029603963EA01DF0C7FA464DEC
:104F20002E700CF09DFBFDF799F9012806D005F1D4
:104F300008000AF0DDFD012806D007E001202870F6
:104F4000FDF757F9686001E0022028700EF068FC58
:104F500003460096394A04213948019601F0AEFE15
:104F60000746384E51E0287808B1641CE4B2782C2A
:104F700042D306A808F004FC2878022802D00128B1
:104F800023D035E02C4808300AF0B2FD2A4C2EA17F
:104F9000083404A8E378A2781DF098FA40F2611171
:104FA00038460EF053FC04A90CF08BFC6378227891
:104FB00025A102A81DF08AFA4FF4B17138460EF00F
:104FC00045FC02A90CF07DFC12E0FDF712F96860C7
:104FD000FBF7D5FA02460B461DA104A81DF076FA90
:104FE0004FF4B07138460EF031FC04A90CF069FCA6
:104FF00006A808F0E5FB00241748007810B13846F1
:105000000EF0F8FA0A2001F0F5FF30780028AAD156
:1050100007B0F0BD3C3C2D4F532D494E464F2D3E21
:105020003E2048756D697475726561707020637299
:10503000656174650A0A00008C020020413602088E
:1050400064CE03088201002025642E256400000040
:1050500025302E3266000000290000202DE9F04F97
:1050600085B0002443A01DF021FA0EF0D9FB0027E3
:1050700002224949CDE90002CDE902174FF4A0739D
:10508000F022394638460EF0C3F98346642001F019
:10509000B1FF0AF0A9F84FF47A7507E00AF0ACF80E
:1050A00030B9284620F070FA641CE4B20A2CF5D31B
:1050B000DFF8E8A00A2C0CD00DF022FE384E377035
:1050C000022005F0B3FF0A2020F05EFA2024354DBF
:1050D00049E058460FF00EF8022233A134A007F041
:1050E00087FA02F03FFC58460EF084FA9AF8000066
:1050F00000283CD00A2001F07DFFF4E73078022838
:1051000028D104A808F03CFB3249042008606C61F7
:105110002C61091F08606C612C610021DFF8B8C0A8
:10512000DFF8B8804FF496396C61DCF8002002F4A7
:105130007F422C616C61DCF80030C3F3072313431A
:105140002C61A8F80030491C4945EDD304A808F0AB
:1051500037FB37702248007810B158460EF04AFAF3
:10516000012001F047FF9AF800000028C6D105B0E1
:10517000BDE8F08F3C3C2D4F532D494E464F2D3E00
:105180003E2043616D65726161707020637265617C
:1051900074650A0A00000000195602088301002005
:1051A00073010020001001406572726F72000000F0
:1051B0000D0A205468652043616D65726120647238
:1051C0006976652063616E6E6F7420776F726B21F4
:1051D000200D0A0014080140080C01400000026084
:1051E0002900002001A01DF061B9000046554E5F66
:1051F00049434F4E313039436C69636B65640A0033
:1052000001A01DF053B9000046554E5F49434F4E73
:10521000313130436C69636B65640A0001A01DF095
:1052200045B9000046554E5F49434F4E3131314339
:105230006C69636B65640A0010B504460A2812D0D5
:105240000D2C14D002F00CFE09480068C0690168FA
:10525000204688470748016809B120468847BDE8CD
:10526000104004F001B9BDE8104001F02FBF10BD9F
:105270008C040020B40400202DE9F0430446C568E6
:1052800087B090468946002003F0E5FB064625B12D
:10529000287910B146F0020001E026F0020003F088
:1052A000DAFB2069012558B1D4E902128DE8260005
:1052B000039563882288046841464846A0471EE05B
:1052C000124F134B214638681B68427CE0689847B0
:1052D00030B9E088012801D0002001E03868806BF7
:1052E000A288E388A1680095CDE90410CDE90232D7
:1052F0000195638822884146484606F08DF807B03C
:105300003046BDE8F04303F0A6BB00008C0400204B
:10531000840400201CB50024019401AC009400F02A
:10532000E7F81CBD2DE9FF4F83B0814606988A46F9
:10533000A0EB0A08109E00200090A2EB090435683B
:10534000934654EA080018D02046FBF70DFD0746A7
:105350004046FBF709FD87420BDA2046444680466B
:105360004846D14682465846DDF818B006900120DE
:105370000090002C07DD204606E007B04846BDE857
:10538000F04F00F03BB96042A0420AD04846D946EF
:105390006442C8F1000883464FF0FF37DDF818A0DB
:1053A00000E001275148B8F1000F11D004EBD4718F
:1053B0004FEA610B01DACBF1000B4C480068807EAC
:1053C00088B3002F02DA30682044306000257BE08B
:1053D00000990029016821D0897E11B100278046FB
:1053E00015E007B05A4649465046BDE8F04F06F072
:1053F00077B928466D1C1BF065FD38B9D8F8000058
:1054000009EB0701C06E4268504690477F1CA742D7
:10541000EFDD6D1E356007B0BDE8F08F8A7E1AB1F2
:105420000027804617E019E0C86E5A4651460368C7
:1054300007B04846BDE8F04F184728466D1C1BF0E2
:1054400041FD38B9D8F8001009EB0700C96E4A6869
:10545000514690477F1CA742EFDDDAE700250FE0B9
:1054600008FB05B090FBF4F101EB0A00009951B183
:105470001E4A09EB05011268D26E526890476D1CF6
:10548000A542EDDDC7E7194909EB05030968C96EB7
:105490004A6801461846F1E708FB05B090FBF4F1B5
:1054A00001EB0A0001903068384430601BF00AFDBF
:1054B00048B9009890B10D4809EB05010068C06E2D
:1054C0004268019890476D1CA542E5DD3068002FC9
:1054D00001DA20443060C01B30609CE7034909EBCF
:1054E00005000968C96E4A680199EBE78C04002041
:1054F0002DE9FF470F4640491646804609680C983B
:105500001D460A7E012A1CD0A8EB0600791B50EA32
:1055100001031CD0A2F101091CF0FCFF00F5806022
:10552000824605F0F5F900FB09F4504605F0F4F960
:1055300000FB09F1002C0CDAC4F500708012404227
:105540000AE00090324639464046FFF7EBFEBDE8E0
:10555000FF8704F50074A012002904DAC1F5007178
:1055600089124C4202E001F500718C12002804DD22
:10557000411C01EBD171491003E000EBD0714910DF
:10558000401E00EBD0704210002C04DD601C00EBCC
:10559000D070401003E004EBD4704010641E04EBA4
:1055A000D47308EB0104ADF800403C18ADF802409C
:1055B000A8EB02045B10B21AADF80440ADF8082065
:1055C0003144FC1AEA1AADF80C102844ADF80A2050
:1055D000ADF80E000023ADF806401A4604216846D7
:1055E00000F07AF83946404614F0A6FF29463046C6
:1055F00014F0A2FFABE700008C040020064A1368F9
:105600001A7E012A05D0521E02EBD272521000F00F
:1056100005B8DA6E526810478C0400202DE9F05F5F
:105620000646884640F2C32050434FF47A7190FBFF
:10563000F1F702FB02F002EBD27100EB610B25499E
:1056400014467F1C09683244301BC96E0B68414602
:10565000984701253AE000BF05FB05F004FB040173
:1056600059451CDDBC4219DD1A4B06EB050AA6EBB9
:1056700005091B68AAF1010208EB0401DB6E09F1C0
:1056800001001B689847134BAAF10102A8EB040123
:105690001B6809F10100DB6E1B689847641E0D480A
:1056A00006EB040AA6EB0409006808EB0501524664
:1056B000C06E0368484698470648A8EB0501524665
:1056C0000068C06E0368484698476D1CBD42C3DD44
:1056D000BDE8F09F8C0400202DE9FF4F40F6FF74D9
:1056E0000F46664283B09B46814600210BE000BF17
:1056F00009EB8100B0F90200A04200DA0446B04292
:1057000000DD0646491CB942F2DB68480068406982
:1057100000280DD0B0F906101A46A1EB0B01B142DA
:1057200000DA0E46B0F90200801AA04200DD0446FD
:10573000B5E0DFF87CA100200546CAF8000089E04A
:10574000781E854201DA6B1C00E0002309EB850C12
:1057500009EB8302BCF90200B2F90210A04245D164
:10576000A14215D139F92330059A39F9251003EBF7
:10577000020C4E4A05981268084404EB0B01D26EE5
:105780006045136801DA62462BE00246604628E075
:105790002846A4464FF000087A1E0BE008B1401ED0
:1057A00000E0781E09EB8003B3F90230634504D1B1
:1057B00008F101089045F1DB2346A34249D0A3EB51
:1057C000040239F92500A1EB040C059B92EA0C02B6
:1057D00009D4364A184404EB0B011268D26E1368E0
:1057E0000246984735E00FF0D7FF32E0A14230D0B3
:1057F00001DBA04203DDA0422BDBA14229DCE04615
:1058000088420ADC0346A04223DC0846A14220DB92
:10581000B8F900C0B2F9001008E00B46A14218DC4C
:10582000A04216DBB2F900C0B8F90010E21AA1EBF1
:105830000C0151430029A0EB030202DD01EB6201E0
:1058400002E0A1EB6201491CC01A91FBF0F0604438
:10585000C9E76D1CBD42FFF673AF0598009004EBDD
:105860000B00019000208046054613E01149B8F175
:10587000000F31F915A009D0009901EB0A02084484
:105880000A490968C96E0B680199984788F00108B0
:1058900050466D1C064909688D42E7DB641CB44222
:1058A0007FF747AF07B0BDE8F08F00008C04002001
:1058B000000D0020E0DC002010B5002003F098F877
:1058C0006FF07F4003F0ABF8012003F01FF90020D8
:1058D00003F02AF9002003F037F9002003F0BBF8A9
:1058E0000448006803F0C4F8BDE81040002003F04D
:1058F000DFB800008804002010B58A07120F0F23BC
:10590000934021F00304054921448C689C438C603A
:105910008B68904003438B6010BD00000000014085
:105920002DE9F0410022CC7804F00F03E40601D504
:105930008C7823430C784FF00F0714F0FF0F4FF0D3
:10594000010C1CD005680CFA02F40E882640A64211
:1059500011D1960007FA06F825EA080503FA06F8B9
:1059600048EA0505CE78282E02D0482E02D002E063
:10597000446100E00461521C082AE4D305600A88EF
:10598000FF2A1ED94568002202F108060CFA06F427
:105990000E882640A64210D1960007FA06F825EA9E
:1059A000080503FA06F848EA0505CE78282E00D146
:1059B0004461CE78482E00D10461521C082AE3D3FA
:1059C0004560BDE8F0810000F0B5154C002801DA13
:1059D000E36900E06368C0F30346420D120185B23B
:1059E000C0F301579540032F07D0C2020CD5032204
:1059F000B240934343F0706209E023F07062636841
:105A000023F07063636002E0AB4343F0706201B166
:105A10002A43002801DAE261F0BD6260F0BD0000B7
:105A2000000001400246002092680A4200D0012096
:105A30007047416170470161704733B583B004001E
:105A40001BD002F00DFA204600F0E0FE0190456EFA
:105A500001A800F045FF049800F0D8FE0090846093
:105A6000684600F03DFF042204A9284600F05CFFD0
:105A700020460EF03FFB03F0F7FC05B030BD33B518
:105A800083B004001BD002F0EBF9204600F0BEFE0C
:105A90000090856E684600F023FF049800F0B6FE83
:105AA0000190846001A800F01BFF042204A928468D
:105AB00000F03AFF20460EF01DFB03F0D5FC05B0C8
:105AC00030BD2DE9F04104460025D4E90007B0F5CA
:105AD000407F00D10125214638460DF051F9064698
