:020000040800F2
:10000000C8EF0020450100083FDB000839B20008B6
:100010003DDB0008151B0008BB3401080000000090
:10002000000000000000000000000000E5160108CC
:10003000592B000800000000630F0008D9E70008F2
:100040005F0100085F0100085F0100084901010825
:100050005F0100085F0100085F0100085F01000800
:100060005F010008393800085F0100085F010008DF
:100070005F0100085F0100085F0100085F010008E0
:100080005F0100085F0100085F010008613301089B
:100090002D3401085F0100085F0100085F010008BE
:1000A0005F0100085F0100085F0100085F010008B0
:1000B0005F0100085F0100085F0100085F010008A0
:1000C0005F0100085F0100085F0100085F01000890
:1000D0005F0100085F010008E12E0108E92F010817
:1000E0005F0100085F0100085F0100085F01000870
:1000F0005F0100085F0100085F0100085F01000860
:100100005F0100085F0100085F0100085F0100084F
:100110005F0100085F0100085F0100085F0100083F
:100120005F0100085F0100085F0100085F0100082F
:10013000DFF80CD000F0E4FC00480047AD7A02087C
:10014000C8EF00200648804706480047FEE7FEE764
:10015000FEE7FEE7FEE7FEE7FEE7FEE7FEE7FEE777
:10016000C11D01083101000872B6704762B67047C0
:10017000EFF3108072B6704780F31088704730BF7D
:10018000704720BF7047B0FA80F0704790FAA0F037
:10019000B0FA80F0704790FAA0F070472DE9F05F58
:1001A0000546002092469B468846064681464024E6
:1001B0001BE0284641464746224600F06CFB53466A
:1001C0005A46C01A914110D311461846224600F0F3
:1001D00053FB2D1A67EB01084F46224601200021F0
:1001E00000F04AFB17EB00094E41201EA4F1010468
:1001F000DFDC484631462A464346BDE8F09F10B54D
:10020000431A934209D28318881803E010F8011D9D
:1002100003F8011D521EF9D210BD40EA01039B07ED
:1002200003D009E008C9121F08C0042AFAD203E06B
:1002300011F8013B00F8013B521EF9D210BDD2B2B9
:1002400001E000F8012B491EFBD270470022F6E7BF
:1002500010B513460A4604461946FFF7F0FF20463C
:1002600010BD30B505462A460B4612F8010B13F8AF
:10027000014B08B1A042F8D01CB1002802D06D1C7F
:10028000F1E7284630BD421C10F8011B0029FBD1C4
:10029000801A704730B504460020034600E05B1C1E
:1002A000934203D2E05CCD5C401BF8D030BD0346E6
:1002B00011F8012B00F8012B002AF9D118467047DC
:1002C000F0B480EA0102D40F4200B2EB410F02D237
:1002D0000246084611464A0042D0C30DDDB2C1F3C2
:1002E000C752AD1A202D35DAC1F3160141F40002D0
:1002F00004B15242C5F1200602FA06F12A41104427
:10030000B3EBD05F23D0C4B1012DA0EBC35009DC07
:10031000F0BC4FF0004202EAC352DBB200F500002D
:1003200000F033BB400000F1807000EBC350A0F13F
:10033000807040EAD170490009E0490841EAC07183
:10034000A0EBC35000F50000400800EBC350F0BC28
:1003500000F012BB6142012202EB4101001BF6E7F3
:10036000F0BC704781F00041AAE780F00040A7E7A9
:1003700080EA010210B502F00043400022D04A009A
:100380001FD0010E01EB1261C0F35600C2F35602FA
:1003900040F4000042F40002A0FB022000047F3978
:1003A000140400D0401C50EA124001D44000491E01
:1003B000C2B20C0604EBD010401C4008802A02D0C8
:1003C00003E0002010BD20F00100002900DA002029
:1003D000184310BD2DE9FE4F804681EA0300C00F8F
:1003E0000C46009021F0004123F00045B8EB0200DC
:1003F000A94105D24046214690461C460B4602467E
:1004000023F00040104347D0270DC7F30A00C3F381
:100410000A510290401A019040286BDAC3F313008E
:1004200040F4801B0098924620B10023D2EB030ACF
:1004300063EB0B0B01985946C0F14002504600F0A7
:100440001BFA06460D4650465946019A00F033FA0B
:1004500010EB08006141002487EA115284EAE77337
:100460001A4340D0009A62B3019A012A4FEA075218
:1004700015DC001B61EB02014FF0004202EA07525B
:10048000CDE90042001C41F5801132462B4600F0B8
:10049000B9FA03B0BDE8F08F40462146F9E7001BEA
:1004A00061EB0201001C41F5801300185B4120182C
:1004B000A2F5001747EB030140EAD570B6196D416C
:1004C00011E06D084FEA360645EAC0754FEA07525B
:1004D000001B61EB0201001C41F5801149084FEA45
:1004E00030000019514132462B4603B0BDE8F04FB1
:1004F00000F079BA0098012240000023D0EB0202FC
:1005000063EBE073009821464FEAE074B8EB00001B
:1005100061EB0401E9E783F000435BE781F0004110
:1005200058E72DE9FE4F81EA030404F0004421F06E
:10053000004100944FF0000B23F0004350EA010407
:100540005ED052EA03045BD0C3F30A54C1F30A55E8
:100550002C44A4F2F3340194A0FB0254C1F3130120
:1005600041F48011C3F3130343F4801301FB0244ED
:1005700000FB034E840A970A44EA815447EA8357F2
:10058000A4FB076802958D0A05FB07854FEA932CAB
:1005900004FB0C542705029D4FEA065847EA16371C
:1005A000B5EB08056EEB070C870E920E47EA811734
:1005B00042EA8312A7FB0201B6EB0B0164EB0004D5
:1005C0002B0D43EA0C335E1844EB1C50DA465146BF
:1005D000E7FB0201C5F313044FEA0B3343EA14535C
:1005E0004FEA0432019C43EA0603A4F10C0402948E
:1005F000009CCDE900B400F005FA03B0BDE8F08F2F
:1006000000200146F9E72DE9F04D81EA030404F0EA
:10061000004B21F0004514464FF0000A23F0004142
:1006200050EA050220D054EA01021DD0C5F30A5752
:100630000246C5F31303C1F31300C1F30A5640F495
:10064000801543F48013A7EB0608101BD64608F26A
:10065000FD3873EB050002D308F1010801E09218A0
:100660005B41B8F1000F03DA00200146BDE8F08DD0
:1006700000204FF48011064684460EE0171B73EBF2
:10068000050705D3121B63EB050306434CEA010C77
:1006900049084FEA300092185B4150EA0107EDD15A
:1006A00052EA030012D082EA040083EA05010843FB
:1006B00005D0101BAB4106D20122002306E0002228
:1006C0004FF0004302E06FF0010253101AEB0600F6
:1006D0004CEB085110EB0A0041EB0B01BDE8F04D6B
:1006E00000F081B970B521F0004303430CD0C1F391
:1006F0000A550024D5EB040564EB0403D617AD1AA4
:10070000B34102DB0020014670BD201841EB0251CD
:1007100070BDC10F80EAE0700844CA07962300212B
:1007200000F033B996230022114600F02EB90EB521
:10073000C10F80EAE0700844CA07002140F2334349
:100740008DE80E000A460B4600F05CF903B000BDD0
:1007500000F0004220F00040C10DC0F3160040F44C
:1007600000007F2901DA00207047962903DCC1F1DF
:100770009601C84001E096398840002AF4D04042F2
:10078000704720F00040C10DC0F3160040F4000097
:100790007F2901DA00207047962903DCC1F1960118
:1007A000C840704796398840704700F0004230F0EA
:1007B00000400AD0C10D01F56071C0F3160042EA95
:1007C0000151C2084007114370470020014670479D
:1007D00030B5041E71F1000404DB4FF000444042C8
:1007E00064EB0101141E73F1000405DB1C464FF09D
:1007F0000043524263EB04038B4208BF824230BD88
:1008000001F0004330B421F0004150EA010206D06B
:100810000A0DA2F56072C1F31301002A02DC30BC9C
:1008200000207047440F44EAC104C100E01830BC06
:1008300000EBC25000F0A0B8002801DBC0F100407E
:10084000002901DBC1F100418142704730B50B4600
:10085000014600202022012409E021FA02F59D42F0
:1008600005D303FA02F5491B04FA02F52844151EC4
:10087000A2F10102F1DC30BD202A04DB203A00FAAB
:1008800002F1002070479140C2F1200320FA03F3E7
:10089000194390407047202A04DB203A21FA02F0E5
:1008A0000021704721FA02F3D040C2F120029140AA
:1008B000084319467047202A06DBCB17203A41FA35
:1008C00002F043EAE07306E041FA02F3D040C2F1DD
:1008D0002002914008431946704700000FB40023DE
:1008E00000B589B00CA900910B996FF00042CB6064
:1008F0001E4B06931E4B07930423CDE901321D4A7C
:10090000089202466B46002000F092F909B05DF8AB
:1009100014FB70B586B006464FF0FF300091CDE96C
:100920000101002015460C4604903246694604A891
:10093000FFF7D4FF03460498211825B108B10A46F1
:1009400000E022462A6000280DD0002B02DD00982E
:10095000884208D0081B0094CDE90104324669465C
:1009600004A8FFF7BBFF06B070BD0000690E0008C9
:10097000870E0008250B00080029A8BF7047401CFF
:10098000490008BF20F00100704710B4B0FA80FCA5
:1009900000FA0CF050EA010404BF10BC704749B1E2
:1009A000CCF1200421FA04F411FA0CF118BF012152
:1009B00021430843A3EB0C01CB1D4FEA00614FEA32
:1009C000102042BF002010BC704700EBC350104401
:1009D0000029A4BF10BC7047401C490008BF20F08C
:1009E000010010BC704710B5141E73F1000408DA42
:1009F000401C41F1000192185B411A4301D120F0E3
:100A0000010010BD2DE9F04D92469B4611B1B1FA9F
:100A100081F202E0B0FA80F220329046FFF72CFF1C
:100A200004460F4640EA0A0041EA0B0153465A4683
:100A3000084313D0114653EA010019D0C8F140020F
:100A40005046FFF728FF05460E4650465946424697
:100A5000FFF712FF084305D0012004E02046394685
:100A6000BDE8F08D0020054346EAE0762C4337438D
:100A70000A986305E40AA0EB08000022FD0A44EA94
:100A800047540A3002D500200146E9E70105101954
:100A90006941DDE9084500196941BDE8F04DA2E76B
:100AA000C1F30A52C1F3130140F2FF3341F4801144
:100AB0009A4202DA00200146704740F233439A42DC
:100AC000A2F2334202DC5242FFF7E5BEFFF7D4BE8A
:100AD00030B5041E71F1000404DB4FF000444042C5
:100AE00064EB0101141E73F1000405DB1C464FF09A
:100AF0000043524263EB0403994208BF904230BD69
:100B0000064C074D06E0E06840F0010394E807005A
:100B100098471034AC42F6D3FFF70EFBB8CD04086B
:100B2000D8CD0408C0B24FF4F05100F0BDB90000B8
:100B30002DE9FF4F087881B09946FF2805D0491C60
:100B40002D2804D00024002308E000230BE001241A
:100B5000F9E703EB830300EB4303491C0878FF2804
:100B6000F7D104B15B4200200090147801462D2C8F
:100B700001D02B2C04D1521C2D2C12D00024009417
:100B800000251678FF2E0ED00A24A0FB04C801FB16
:100B90000481002700FB0711521C16EB0C00694171
:100BA000EFE70124EBE7994450EA01020ED000245C
:100BB000AA4D2646DFF8A88200F08AF982468B46C5
:100BC000B9F1000009DAC9F100071BE00198002122
:100BD000C0E9001105B0BDE8F08F074612E0F80744
:100BE00007D022462B4630464146FFF79AFC064680
:100BF000884622462B4610461946FFF792FC0446CB
:100C00000D467F10002FEAD1B9F1000F324643465E
:100C10005046594602DAFFF7F6FC01E0FFF781FC87
:100C2000009A0AB181F00041019AC2E90001D1E7BE
:100C30002DE9FF4F1F468DB0D7E901464FF0FF3831
:100C40002E2045464FF000090B90B9696D1C0E9897
:100C50008847396A824688470028F6D1BAF1FF3FB3
:100C60000AD024F4D064002E11DDBAF12B0F08D085
:100C7000BAF12D0F0BD102E0404611B0ABE744F4BE
:100C80008064B9696D1C0E9888478246761E694655
:100C9000600501D52D2000E02B208DF8000001F12A
:100CA000010B0DF1200809E0B9696D1C0E98884709
:100CB00082460F9844F40074761E0560002E02DD13
:100CC000BAF1300FF0D00B998A453ED144F0800440
:100CD00006E00F99681CA9F1010944F4007408604A
:100CE000B9696D1C761E0E98884782463028F0D070
:100CF0002BE00B998A4505D1200603D444F08004EB
:100D0000761E18E0504625F0A5FB08B30DF113013F
:100D1000761E44F400748B4508D2AAF130000BF81B
:100D2000010B200607D5A9F1010003E0200602D43B
:100D300009F101008146A00502D50F99681C0860E1
:100D4000B9696D1C0E9888478246002ED1DC53E0AD
:100D5000002E51DDBAF1650F02D0BAF1450F4BD12B
:100D6000A00549D5B9696D1C24F44074761E0E980F
:100D700088478246002E0CDD2B2804D0BAF12D0FB7
:100D800007D144F48074B9696D1C0E988847824677
:100D9000761EE00501D52D2100E02B2108F8011B6E
:100DA000CDF82C8021E00DF12901761E44F4007469
:100DB00088450CD2AAF1300010F0FF0088F800003E
:100DC00002D10B99884509D908F1010806E0E00530
:100DD00001D5244801E042F20F708146B9696D1CCB
:100DE0000E98884782460F980560002E04DD504615
:100DF00025F030FB0028D6D1F9690E988847FF20EE
:100E00008BF8000088F800000020069007904B4601
:100E10006A4608A906A8FFF78BFEA00502D46FF06A
:100E200001002AE714F0240F0AD0E00714D1DDE90D
:100E300006123868031D3B600068C0E900120BE031
:100E4000DDE90601FFF7DCFC0146E00704D1386864
:100E5000021D3A600068016028460EE70000244049
:100E60000000F03FF1D8FFFF426842B1016811F87D
:100E7000013B23B1521EC0E9001218467047012100
:100E8000C160881E704742685AB1C368016843B99F
:100E900083688B4205D0491E521CC0E90012002015
:100EA00070474FF0FF3070477F2801D9002208E0DB
:100EB000064A02EB5002C007127800D1120902F074
:100EC0000F0201209040084070470000C8C8040885
:100ED0000EB540F2334202920022CDE900221346C1
:100EE000FFF790FD03B000BD70B58C1810F8015BE2
:100EF00015F0070301D110F8013B2A1106D110F8B3
:100F0000012B03E010F8016B01F8016B5B1EF9D1B6
:100F10002B0705D40023521E0DD401F8013BFAE73C
:100F200010F8013BCB1A921C03E013F8015B01F8A7
:100F3000015B521EF9D5A142D8D3002070BD00003C
:100F400018484FF0FF010170002080F3098816480F
:100F5000016881F3088815484FF08051016062B63E
:100F6000FEE772B6EFF3098028B1203880E8F00F71
:100F70000F490968086000B50E4880475DF804EB2A
:100F80000D480E490A78027009480D490A68026046
:100F9000106890E8F00F203080F309884EF0040EBE
:100FA00062B6704722ED00E09000002004ED00E002
:100FB0008800002001E600084400002045000020D1
:100FC0008C00002008B5012108460EF0F9FE012131
:100FD0004FF404700EF010FF0220ADF80000002066
:100FE0008DF803006946024805F020F808BD0000AE
:100FF0000010014010B5FFF7E5FFBDE8104000F01C
:1010000001B8000070B590B02B4E304601F02CFABC
:101010002A4805902A48069000240794012508953F
:1010200009940A9428020B9080000C9020200D90C7
:1010300000020E900F9405A9304601F091FA0121AB
:10104000304601F003FA00948DF804408DF8055005
:101050004FF46020029003948DF81050174C6946AD
:101060004C3C204600F054F84FF440400EF09EFEF9
:10107000052301220B21204600F06EF801212046B5
:1010800000F02CF80121204600F01CF8204600F06A
:101090009DF8204600F035F80028FAD1204600F0EF
:1010A000A6F8204600F026F80028FAD101212046B3
:1010B00000F091F810B070BD080002404C240140CF
:1010C00034020020002904D0816841F001018160D0
:1010D0007047816821F0010181607047002904D0C8
:1010E000816841F4807181607047816821F480716A
:1010F00081607047014600208968490700D50120BA
:101100007047014600208968090700D50120704713
:1011100010B542680E4B1A400C790B6842EA042263
:101120001343436082680B4B1A40D1E902432343C7
:101130004C7942EA440213438360C26A22F470028B
:10114000097C491EC9B242EA0151C16210BD0000CA
:10115000FFFEF0FFFDF7F1FF70B5072609290AD958
:10116000C568A1F10A0404EB4404A640B543A340BA
:101170001D43C56007E0056901EB4104A640B54386
:10118000A3401D4305611F23072A09D2446B521E49
:1011900002EB820293409C4391400C43446370BD38
:1011A0000D2A09D2046BD21F02EB820293409C43AA
:1011B00091400C43046370BDC46A0D3A02EB820295
:1011C00093409C4391400C43C46270BD816841F0E0
:1011D000080181607047002904D0816841F4A001B2
:1011E00081607047816821F4A00181607047816847
:1011F00041F0040181607047002800DC40427047E4
:101200007047000070B58AB0002405940C20144B80
:10121000CDE9013009AE0325CDE907560121802231
:101220000694CDE90321009023460E4A0EA11248F0
:101230000DF022F806AB059470C34FF48060CDE941
:10124000030466210D4ACDE901210D2000900A48D2
:1012500000230B4A0BA1B4300DF00EF80AB070BD9C
:10126000AC1100203D130008417070205461736B75
:101270002055706461746500440E0020B013002096
:10128000B9130008417070205461736B2055736569
:1012900072617070000000000EB500F0BFF800F041
:1012A0004DFE00F023F902A80CF08EFF0BA021F0F8
:1012B000BFFEFFF7A7FF15A021F0BAFEFFF7A0FFC2
:1012C000002502AC08F072F90022CDE900540F238A
:1012D000114610460DF0EEF9F4E700003C3C2D4FAE
:1012E000532D494E464F2D3E3E2043726561746931
:1012F0006E67204170706C69636174696F6E205411
:1013000061736B732E2E2E0A0D0A00003C3C2D4F8C
:10131000532D494E464F2D3E3E2043726561746900
:101320006E67204170706C69636174696F6E2045EF
:1013300076656E74732E2E2E0A0D0A000EB51B4CA8
:101340004FF47A7508E0A178491CC9B2A1700A2946
:1013500006D2284625F038FC11F072FB0028F2D1A5
:1013600001274FF48079DFF848A0124E00250DF1D7
:10137000080817E0002011F0E3FB38B130780128AD
:1013800000D167704946504604F0DBFE0022CDE9EB
:1013900000586423114610460DF08CF9494650461A
:1013A00004F0CDFEA0780A28F0D2E3E72800002060
:1013B000000801407C01002004480078552801D035
:1013C00026F07AF912F07AF8FCE7000028000020F5
:1013D00010B501200EF01EFDBDE8104000200EF0FB
:1013E00019BD000008B50349084400900098008822
:1013F00008BD0000006C004008B5034A104400908E
:101400000098016008BD0000006C004000B585B088
:1014100068460EF00DFD019805B000BD10B586B010
:1014200000200290039004900590012140200EF0CE
:10143000C7FC00F06BFB0BF0E1FA0AF0FFFA0AF0D0
:1014400013FB00F027FB11F0B7FC14F0A1FD042002
:1014500013F096FD07F020F801221DA11D4825F08C
:101460007DFE1D4908701D4C18B1E020207006B0AB
:1014700010BD01224FF4FF1118480FF07BFF2078B8
:1014800055281CD11022164902A80FF073FFBDF891
:101490000C000090BDF81430BDF81020BDF8081005
:1014A000002008F02BF8BDF80E000090BDF81630B3
:1014B000BDF81220BDF80A10012008F01FF80EF048
:1014C0006FFE08480EF04AFD07490870CFE700009C
:1014D000303A00005C3900202B000020280000205A
:1014E00002E01F008C4900209400002010B5FFF797
:1014F0008DFF04490968B0FBF1F0BDE810400DF024
:101500007DB900008C7E020838B545680446014666
:10151000284612F0D9F800282AD02068304A0F282F
:1015200019D006DC0B2824D00C2810D00E2851D15D
:101530002FE0112802D028284CD145E09268002ADB
:1015400016D02146284601B0BDE83040104721465C
:1015500028465268F7E7284605F0DEFC0090406E0A
:101560000468684605F042FD002C01D02846A047DB
:1015700038BD284605F0D0FC0090683005F026FC08
:10158000009803216C3005F02FFC684605F02EFD15
:1015900020E0E168486809680D2902D0202913D1AC
:1015A00005E0002810DD28461DF04BF806E0002875
:1015B00004DD2846BDE838401DF043B82846BDE8A4
:1015C000384002211DF053B8E06818B900212846C0
:1015D00000F0E0F92046BDE8384012F077BC00008A
:1015E000B00500202DE9FF410AAF70CF0027039519
:1015F0008DE8D00000F003F804B0BDE8F081F0B54C
:1016000085B00DF1280CBCE8F0004FF0000C8DE81F
:10161000F01000F025F805B0F0BDF0B5044685B037
:101620008069B4F90850668A0027CDE90265CDE9E2
:1016300000170490B4F90C00B4F91060C118B4F9A3
:101640000A00B4F90E50104433462A4600F008F858
:101650000546616800F0BDF905B02846F0BD000000
:101660002DE9F04F85B01F46DDE911B4DDE90E56D6
:1016700090468946824606F079FF4C341548CDE9FC
:101680000204CDE900563B4642464946504612F018
:1016900063FB040018D005F03FFC1022594604906B
:1016A00012F066FA049830220B493430FEF7A7FD99
:1016B000094D04990C3D2868486604A805F096FC7D
:1016C000286841682046884708F054FA05B020464B
:1016D000BDE8F08F09150008BC050020F0B50446F0
:1016E00080688B4989B051F82050606800287DD00F
:1016F000052804D006287AD0122879D1AEE0E8690E
:1017000000284FD095E80E008DE80F0004F110017D
:101710000FC908F0E7FF002655F8260007F005FD81
:10172000A169E8690A1A216901446069304406F038
:1017300045FBA169E8690A1A21690144E069801B37
:1017400006F03CFBE169E8690A1A61690144206915
:10175000304406F009FCE169E8690A1A616901444C
:10176000A069801B06F000FC761C022ED4DBA86862
:1017700007F0DBFCE069E9696669431A20694218F1
:10178000521E3144801C06F0A5FCE169E869A2699B
:101790000B1A61690144101A401C921E06F09AFC53
:1017A000EE6913E05FF0000655F8260007F0BDFC77
:1017B000E069831BA069821B60698119206930443C
:1017C00006F072FB761C022EEEDB0226D5E9030141
:1017D000CDE900016169E06908444310A069891CF2
:1017E000821B2069304406F083FA02E089E012E0AF
:1017F0008AE0D5E90501CDE90001E36960690121CD
:10180000184401EB6001A0699B1E821B20693044D3
:1018100006F06EFA78E0206805F07EFB0490206800
:1018200013F0ECFF40B1A06808B1002008E0049874
:10183000006F28B1012003E00498406F00B102203E
:10184000049901EB8000C56E04A805F0CFFB0023CE
:101850001A462846216805F01BFF55E0206805F070
:101860005BFB0490866EEEB3B0F95C70A168D1B3F7
:10187000032942D05FF0000100EB8101406D0C6C48
:1018800007F07CFC204607F050FC05A806F0E4FCBD
:10189000BDF81410A88B0144ADF81410BDF8181051
:1018A000081AADF81800BDF81600801CADF8160037
:1018B000BDF81A00801EADF81A0004985E30B0F929
:1018C0000220B0F9001005A807F0DFFA04A805F01F
:1018D0008DFB022007F0BEFC304605F01DFB3A46AA
:1018E00005A901E00BE006E0079006F04FF807A815
:1018F00005F07CFB08E00121BEE70221BCE704A85B
:10190000F6E7206813F0FCFB09B00020F0BD0000F2
:1019100084B1040808B50023009300F001F808BD65
:1019200070B516460C46054619463046049A05F031
:1019300071FE024621462846BDE8704000F08BB893
:10194000044A0349116004494A6A486210467047D4
:10195000EC050020B0050020BC05002000294FF058
:10196000100101D011F03FBF11F087BE38B50D4610
:1019700004000ED006F0FAFD204605F0CDFA0090E6
:101980004565684605F032FB204613F057F808F02D
:10199000F1F838BD4FF480720029114601D011F0E2
:1019A00022BF11F06ABE08B50023009300F001F8D1
:1019B00008BD70B516460C46054619463046049AD1
:1019C00005F048FE024621462846BDE8704000F07A
:1019D00042B82DE9FF410E4605004FF0010421D029
:1019E00006F0C4FD284605F097FA0190876E01A81D
:1019F000009705F0FBFA3146684609F021FA78B104
:101A000000980024B84208D0284605F085FA0190D5
:101A10000099816601A805F0E9FA284613F00EF84E
:101A200008F0A8F804B02046BDE8F08138B50C46AF
:101A300005000FD006F09AFD284605F06DFA0090DB
:101A4000A0F85C40684605F0D1FA284612F0F6FF8F
:101A500008F090F838BDF8B515460C46060018D0C9
:101A600006F084FD304605F057FA0090032C0BD8A1
:101A700000EB84006C3005F0A9F9009800EB8400BD
:101A8000C566304612F0DAFF684605F0AFFA08F096
:101A900071F8F8BD38B5012104200EF0ADF94FF40E
:101AA0008074ADF8004010208DF8030003208DF8FD
:101AB0000200054D6946284604F0B8FA214628463A
:101AC00004F03DFB38BD00000008014010B50028BF
:101AD0000FD04FF48054012811D0022815D11021C5
:101AE00001200FF0B3FE2146BDE8104002200FF0A8
:101AF00063BE1021BDE8104001200FF0A7BE2146B3
:101B0000BDE8104002200FF057BE10BD4FF4A0609A
:101B10000CF058B8FEE7C1B2000A40EA0120704755
:101B200070B500208F4B904C5988A4F1400202E020
:101B3000155C2554401C8842FAD38B4862682030DB
:101B40004260A26882601F290FD00220FFF7BEFF0B
:101B500000202060607B1A2205210FF017FFBDE8EE
:101B60007040002101200FF0F1BEE17B282901D057
:101B70002A290FD1207D627CE57C40EA0260A27CAC
:101B8000120442EA052210435860E07DA27D40EA3B
:101B900002209860754A206890427DD1744A607B2B
:101BA0001268904203D8A27B0AB1102A0DD90220F4
:101BB000FFF78CFF607B242205210FF0E7FEBDE8D4
:101BC0007040002101200FF0C1BE252968D01ADC29
:101BD00015297CD00DDC08297AD005DCF1B3032966
:101BE0003FD004292DD177E00A2972D0122928D1BB
:101BF0003BE01A390A2924D2DFE801F0433B237A7B
:101C00003F232323234B8A297DD00EDC552967D01F
:101C100006DC28294CD02A2950D02F2911D153E095
:101C20005A2932D088290CD172E0A82968D004DC66
:101C30008F2969D09E2904D16EE0AA2974D0AF29DA
:101C40007AD00220FFF742FF607B202205210FF0AF
:101C50009DFEBDE870400021012000E024E00FF06F
:101C600075BEBDE870400FF031B9BDE870400FF0AF
:101C70003BB8BDE870400FF035B9BDE870400FF0DB
:101C800031B9BDE870400FF06FB8BDE870400FF09B
:101C900065B8BDE8704001E056E001E00FF0E0B843
:101CA000BDE870400FF0A2B8BDE870400FF01EB95B
:101CB000D3E90112BDE870400FF05CB8D3E901121E
:101CC000BDE870400FF04CB9BDE8704002E00BE099
:101CD00012E025E00FF026B9BDE870400EF0ECBF31
:101CE000BDE870400FF01AB8BDE870400FF016B8AC
:101CF000BDE870400FF012B8BDE870400FF00EB8AC
:101D0000BDE8704002E013E01AE00DE00FF006B805
:101D1000BDE870400FF002B8BDE870400EF0FEBFA5
:101D2000BDE870400EF0FABFBDE870400EF0F6BF9F
:101D3000BDE870400EF0F2BFBDE870400EF0EEBF9F
:101D4000BDE870400EF0EABF0220FFF7BFFE607BE7
:101D5000202205210FF01AFEBDE87040002101206D
:101D60000FF0F4BDC4030020A4DC0020555342430F
:101D7000280400202DE9FF470446006810B113F045
:101D80003DFD68B10022314850F8221060680A28F1
:101D900041D007DCF0B306280DD0072854D106E067
:101DA0000122F0E712280AD019284DD137E0204649
:101DB00015F0F4FE48E0204617F0E8FD44E0206806
:101DC00005F0AAF80290B0F9548090F85650476C8C
:101DD000466B02A805F00AF9206800F039F8814640
:101DE000684612F093F9BDF8001009EB05000844AD
:101DF000ADF80000246A304607F0C0F9022007F071
:101E000029FA384607F091F942466946204605F01E
:101E1000BDFD19E007E0204618F05FFD14E0886979
:101E200004B0BDE8F087206813F06AF9206805F077
:101E300073F80390B0F90610B0F90220891A491C12
:101E4000C16703A805F0D2F80020E9E794B10408BF
:101E500038B5044606F08AFB204605F05DF8009090
:101E6000C46F684605F0C2F807F084FE204638BD0E
:101E7000044A034911600449CA69C86110467047A1
:101E800078060020100C0020140C002000B589B04A
:101E900024216846FEF7DAF919200190034800680A
:101EA000806841686846884709B000BD100C002072
:101EB0007CB5214C0546216831F8220F4A8D10442B
:101EC00008804888CA8D10444880284606F09EF94C
:101ED0002168498CADF800104618284608F04CFEE1
:101EE0003044401EADF8040006F00AFA2168898CDF
:101EF000ADF802100844401EADF80600684613F025
:101F000011FB04E0284603F01DFD13F0BFFA002882
:101F1000F8D10A2D04D0BDF804002168401C488483
:101F2000206830F8221F428D891A01804188C28DB5
:101F3000891A41807CBD0000D4040020AFF30080EA
:101F400002490020086000F009B8000030000020BD
:101F500001490860704700003000002010B50948B2
:101F6000016841F08071016007480021416001680B
:101F700041F001010160FFF749FABDE81040FFF7A9
:101F8000E7BF0000FCED00E0001000E00148406801
:101F900070470000001000E02DE9F041194E1A4F83
:101FA0001A4C1B4D28E047F6FF702060288800F08F
:101FB0000F01317007EB8100D0F8002C92B21304AE
:101FC0000CD5D0F8002C40F68F731A40C0F8002CC6
:101FD0001048491E50F8210080470DE012060BD52D
:101FE000D0F8002C48F60F731A40C0F8002C0A48AD
:101FF000491E50F821008047206828800004D2D470
:10200000BDE8F081F402002000500040445C004034
:102010002404002008040020EC0300202DE9F84FE0
:10202000002000904BF6BF7748F28008614E624D69
:1020300040F68F7ADFF8849148F60F7B604C2CE0F5
:10204000088800F00F0089F8000078B304EB8001E5
:10205000D1F8002C0092BDF8002012040AD5D1F866
:10206000002C02EA0A02C1F8002C5649401E51F821
:1020700020008047BDF8000000060ED599F800004A
:1020800004EB8001D1F8002C02EA0B02C1F8002C0D
:102090004D49401E51F820008047464844300068B2
:1020A0004A4908800004CBD4BDE8F88FFFE73068C8
:1020B0002880288800F030006880288800F440508C
:1020C00028803068384080F4005080F0200040EADA
:1020D000080030600888C00620D4306800EA0B0091
:1020E000306009F02FFC306838402988C90401D5D8
:1020F00080F480502988890401D580F400506988D3
:10210000C90601D580F010006988890601D580F0E4
:10211000200080B240EA08003060C5E730680090D7
:10212000BDF80000000520D5306800EA0A003060E4
:102130000FF03EFC306838402988C90401D580F48E
:1021400080502988890401D580F400506988C90627
:1021500001D580F010006988890601D580F0200043
:1021600080B240EA080030609EE7BDF8000000043D
:1021700093D5306800EA0A0030600DF0E7FB306864
:1021800038402988C90401D580F480502988890401
:1021900001D580F400506988C90601D580F010008F
:1021A0006988890601D580F0200080B240EA0800E5
:1021B000306079E7005C004006030020F402002054
:1021C0000050004008040020EC03002024040020FC
:1021D000810008480844D0F8001C490409D5D0F80B
:1021E000001C48F68F7211404CF280021143C0F877
:1021F000001C704700500040810008480844D0F897
:10220000001C490609D5D0F8001C48F68F72114011
:1022100048F2C0021143C0F8001C70470050004053
:10222000810006480844D0F8001C48F68F6211402F
:1022300048F280021143C0F8001C70470050004073
:1022400070B586B011F090FF30214FF41472CDE9D3
:10225000032105910321CDE90001164800230293D3
:10226000036A74224FF481713E2009F0BAF80646E1
:102270000024114D11A2304655F8341008F0E8FF43
:10228000641CE4B2022CF5D30D4A0121304609F05A
:102290001FF94FF0FF31304609F064F90A2200219E
:1022A000304609F06EF906B03046BDE870400821AE
:1022B00009F041B9DC4F0020E87E02080000000070
:1022C00080FFFF80F0B587B0002411F04DFF2C4A4D
:1022D0000223CDE901322B4D0090042105F10800C5
:1022E00003910FC811F038FD68623A213022CDE920
:1022F0000421002640F25123CDE902630321CDE9F8
:102300000001E8692A68143000EB4003D21E314610
:10231000032009F066F806461B4D6FF07F4705EB7A
:10232000C40055F834104268304608F091FF3A4630
:102330002146304609F046F9641CE4B20A2CEED37B
:10234000124A0121304609F0C3F81149304609F01C
:10235000DBF84FF0FF31304609F004F90A22002182
:10236000304609F00EF90C220121304609F009F936
:1023700007B03046BDE8F040082109F0DCB80000A5
:102380009D610208DC4F0020F87E020880FFFF807C
:10239000D01F040870B586B011F0E6FE0C230226AB
:1023A000CDE901631DA14FF4B072CDE90321009086
:1023B00010233C22314600200FF0A2FD04461A49AA
:1023C00020460FF03FFE6FF07F45294620460FF074
:1023D0008FFE11F0C9FE15490E2440F261130A6800
:1023E000CDE9016412A1CDE90331009002EBD27076
:1023F0006FF0180101EB60001023322202210FF070
:102400007FFD0446294620460FF072FE06B02046A6
:10241000BDE8704009490FF015BE000057696C64B3
:1024200066697265204F5300D01F0408DC4F0020FE
:1024300031313A35363A303000000000C018040817
:102440000148006870470000C4060020002904D03D
:10245000016841F001010160704701684FF6FE72AA
:10246000114001607047000001684FF6FE72114094
:1024700001600021016041608160C1603649364AD7
:102480000839904204D1486840F00F004860704716
:10249000314A1432904204D1486840F0F00048605C
:1024A00070472D4A2832904204D1486840F4706049
:1024B00048607047284A3C32904204D1486840F452
:1024C000704048607047244A5032904204D14868B6
:1024D00040F47020486070471F4A6432904204D133
:1024E000486840F47000486070471B4A7832904258
:1024F00004D1486840F0706048607047174A111F67
:10250000904204D1086840F00F0008607047134AF9
:102510001432904204D1086840F0F000086070471F
:102520000E4A2832904204D1086840F47060086076
:1025300070470A4A3C32904204D1086840F4704027
:1025400008607047054A50329042FAD1086840F45A
:102550007020086070470000080002400804024034
:1025600030B5026847F6F0739A430C6A8B682343D0
:10257000D1E904452C4323438C692343CC6923438D
:102580004C6A23438C6A234313430360CA68426046
:102590000A6882604968C16030BD0000F8B5054630
:1025A000006804F0B9FC0090448ED0F8886068465A
:1025B00004F01CFD06B1012604F00104286813F0A4
:1025C0001DF90EB1002006E00CB1012003E008B1B6
:1025D000022000E003201B4951F82010686858B31E
:1025E00002280CD0052802D0122828D103E0284662
:1025F00015F000FB23E0284618F041FE1FE06A6951
:10260000E8694FF0FF33801AA0F1080203EB62047F
:10261000421CAB69001B4510A3EB6206C86906F0BB
:1026200084FD06E03219311B284605F0C7FB641E05
:102630006D1C002CF6DA02E0286812F061FD002023
:10264000F8BD0000F4B10408044A034911600449CC
:102650000A6B086310467047C8060020500C002023
:10266000540C002038B50D46002404F055FC0090B1
:10267000C06B294604F052FD0546684604F0B6FCDE
:102680001DB1284604F048FC0446204638BD10B56C
:1026900000F094F800F03AF8CC2000F0A7F84420BD
:1026A00000F0A4F800F08AF800F030F8CC2000F038
:1026B0009DF8BE2000F09AF800F072F8044600F091
:1026C0006FF8000200B220436FF0030400280ADA1A
:1026D000C043401CFEF72BF82246FEF703F8BDE886
:1026E0001040FEF78DB8FEF722F82246FDF7FAFFFC
:1026F000BDE81040FEF784B810B50FF089FB00F07C
:102700005DF8BDE8104000F001B8000070B500248D
:102710000FF094FB124D04E0641CE4B2012024F09D
:1027200053FA4021284603F003FD08B1642CF3D38B
:10273000642C01D3002070BD002404E0641CE4B2CA
:10274000012024F041FA4021284603F0F1FC08B9A9
:10275000F02CF3D3F02C01D3002070BD012070BD0C
:102760000018014010B50FF077FB0C4C40212046BB
:1027700003F0E5FC0A2024F027FA0FF05FFB40216C
:10278000204603F0D5FC012805D000242D2024F09C
:102790001BFA204610BD0124F8E700000018014094
:1027A00070B500250024FFF7DDFFA0402843C5B227
:1027B000641CE4B2082CF6D3284670BD10B50FF0A7
:1027C0004BFB094C4021204603F0B9FC40F2EE20BF
:1027D00024F0FAF94021204603F0B3FCBDE8104094
:1027E0000F2024F0F1B900000018014070B5054633
:1027F0000FF032FB0024134E05F001006D0870B19C
:102800004021304603F09BFC082024F0DDF94021F4
:10281000304603F096FC3A2024F0D6F90DE0402132
:10282000304603F08CFC462024F0CEF9402130469F
:1028300003F087FC022024F0C7F9641CE4B2082CE2
:10284000DAD370BD001801402DE9F047DFF8988019
:10285000D8F8001001F1100528880E7A234F4FF0A8
:102860003009002801D1042E04D0AC88A04215D82C
:10287000042614E01E480178012903D00726102001
:1028800038802BE01B4A002112681B4B92B2921C2D
:1028900043F81210A7F8009001701FE0022684424E
:1028A00000D90446A968A0B288478246002008F0F3
:1028B00003FC0146A2B2504610F082FEA1B20020F5
:1028C0000EF0B6FF2888001B2880688820446880A6
:1028D000A7F8009009494FF440500880D8F800004C
:1028E0000672BDE8F0870000F8020020080300200F
:1028F000F0020020505C0040006000400603002011
:102900002DE9F041214E346810342088A168002957
:1029100015D0A0B1A588854200D90546A8B2884740
:1029200007462088401B2080608828446080002063
:1029300008F0A2FB0146AAB238460DF065F82088DF
:10294000134F302538B1134928020880002108466A
:102950000EF06EFF3D802088A188884204D3316844
:1029600003200872BDE8F08118B1316805200872B3
:10297000F8E7316806200872074800210068074A16
:1029800080B2801C42F810103D80EBE7F802002076
:102990000803002006030020505C00400060004057
:1029A0002DE9F843634E306842780024624D062AD0
:1029B000296801D08AB117E00278520669D180787F
:1029C000012804D0022804D0032804D061E0CC6997
:1029D0005FE00C6A5DE04C6A5BE0438823B9C38822
:1029E000022B01D1037923B1082A39D00A2A3CD01D
:1029F0004FE00278530601D1838833B102F07F02A1
:102A0000012A04D0022A0CD043E04C4C41E08A69F0
:102A100040790021904710BB3068807AF8B1474C6C
:102A200037E0417901F00F0001F070020B064449D4
:102A300007D501EB8001D1F8001CC1F30111090198
:102A400006E001EB8001D1F8001CC1F3013109035C
:102A50003C4B1B7883421CD90AB901B1374C18E0B2
:102A60000078400615D1384C13E0027802F07F025E
:102A7000012A0ED1827A62B1428852B9027942B9F2
:102A8000C288012A05D18A6940790021904700B99E
:102A90002E4C09274FF000083CB13068A0F8128096
:102AA00084610020A047002006E029683068096999
:102AB00040788847032816D031680A8AA2F57F43F8
:102AC000FF3B0DD0022811D082B1087800062AD52C
:102AD000C8880090009882420CD9009808821AE0B9
:102AE0000F72BDE8F88330680772FAE74FF008000C
:102AF0000872F6E70FD22868154B90F82C00824236
:102B000002D283F8008006E0B2FBF0F400FB142050
:102B100008B901201870286890F82C008882BDE858
:102B2000F843FFF791BE032008720A4900030880AA
:102B3000D7E70000F8020020FC020020C91B0108B2
:102B40000050004094040020591B0108A11B0108FB
:102B5000F002002006030020704700002DE9FF412D
:102B6000224D4021284603F0ECFA8021284603F04C
:102B7000E8FA0824019400268DF80A6001A800F004
:102B8000ABFE09208DF80C008DF80F6003A80AF049
:102B9000E7FF10266E611649042008602020286196
:102BA00014480460081F0460012108200DF024F976
:102BB0004FF47F40ADF800008DF8036003278DF8D7
:102BC000027069460C4803F031FA012110200DF023
:102BD00013F9ADF800408DF803608DF80270694676
:102BE000284603F023FABDE8FF81000000100140F1
:102BF0001408014010140140000C01402DE9FC476D
:102C00000E465FEA00097FD005F0B0FC484604F0AC
:102C100083F9009090F85470D0F85880456BC46CDC
:102C2000684604F0E3F9B8F1000F04D03146484695
:102C30004246904761E0122E18D006DC082E43D0A1
:102C4000102E3CD0112E06D112E0132E21D01D2EB5
:102C500043D01E2E3DD0202E4FDB17B1484614F036
:102C600042FCB1B248461AF0C7FF60B3611C27E0CE
:102C70004DB3284604F050F905462146019006F070
:102C800055FE4419204606F0F1FD01462346012277
:102C900010E0C5B1284604F03FF9054621460190F1
:102CA00006F044FE4419204606F0E0FD01462346A6
:102CB0004FF0FF32484614F0E1F801A81BE0611E16
:102CC000484600F088FA18E0BCB1611E484600F0A2
:102CD00082FA484614F007FC0FE0484604F01CF95D
:102CE0000090012F12D0012180F85410214648464F
:102CF00000F071FA684604F079F9484611F09EFE3A
:102D000000E001E006F036FFBDE8FC87002180F816
:102D10005410EFE7FEB544680546204612F06EFDFC
:102D200006462946204610F0CFFC002834D02868FB
:102D30000E283DD004DC0B282FD00C284AD116E0F9
:102D40000F2825D0A0F58070133843D1204612F00B
:102D50003BF8204600211CF0EDFB204604F0DCF897
:102D60000190C06F002112F007F801A81DE0E8688B
:102D700060B1017A29B10168204600F0EAF801212A
:102D800000E00221204611F03CFF23E00321F9E797
:102D9000012120461CF0CEFBFEBD204604F0BCF80D
:102DA0000090343004F012F8684604F01FF911E086
:102DB00086B1E868416800290CDD0168092909D05D
:102DC0000A2907D00D2905D01B2903D02046FFF77B
:102DD00015FFFEBD284611F079F8FEBDF0B587B0AD
:102DE00004460DF1080CD4E90567B0F90850408A93
:102DF000ACE8E1000020CDE90010B4F90C00B4F912
:102E00001060C118B4F90A00B4F90E5010443346EA
:102E10002A4600F009F8050002D0618A00F072F934
:102E200007B02846F0BD00002DE9FF5F1F46DDE931
:102E30001254DDE90E6A90468946834605F096FBFA
:102E40000DF1040C4AF4805058341E490096ACE849
:102E500013003B4642464946584610F07DFF0400A9
:102E60002AD004F059F810220090119910F080FE39
:102E700000981C2214496030FDF7C1F9009A012026
:102E800082F85500681C00D0012082F88000002DD7
:102E900000DC08252DB215870020508750636D1C7B
:102EA000684604F0A3F8294620461AF0DEFC18B95B
:102EB000204611F043F8002406F05CFE04B02046E2
:102EC000BDE8F09F152D0008840700202DE9FC4186
:102ED00015460E00044627D0002C25D005F046FBF1
:102EE000204604F019F8002701903770406BB0B10C
:102EF00004F012F8009007F023FE0146009806F057
:102F000015FD0446681E844200DD04462246304614
:102F10000099FDF774F9684604F068F8375501A880
:102F200004F064F806F026FEBDE8FC8138B5050023
:102F30004FF000040BD005F019FB284603F0ECFF1E
:102F40000090846C684604F051F806F013FE2046A9
:102F500038BD2DE9F04186B00C46060055D005F08D
:102F600005FB304603F0D8FF0090406B98B303F0A8
:102F7000D3FF03900098806E06F000F9804630463B
:102F800011F094FA0746039805F0F1F90546009808
:102F900090F8601001F00301012916D002290DD02C
:102FA000416EC06A00680844241A641E039807F042
:102FB000C7FD0146002C0FDA002115E0781B401CEC
:102FC00000EBD070A4EB6004F0E7406E791B081AA8
:102FD000241A641CEAE713E0AC4205DC02462146F1
:102FE000039807F04DFD0146304600F0F4F803A8C1
:102FF00003F0FCFF404606F0C1F8304611F01EFD1C
:10300000684603F0F3FF06F0B5FD06B0BDE8F081B9
:1030100038B50C4605000FD005F0A8FA284603F095
:103020007BFF009018B18466284611F007FD6846C2
:1030300003F0DCFF06F09EFD38BD2DE9FC47884615
:103040005FEA00094FF000055AD005F08FFA4846B4
:1030500003F062FF0090B0F93860446B684603F0FB
:10306000C5FF0027B8F1000F3ED04CB1204603F059
:1030700053FF0190FDF707F9451C01A803F0B6FFC7
:10308000404607F05DFD0446B04200DD344621466F
:10309000404606F04BFC461C711B48461AF08FFF59
:1030A00008B3484603F038FF0090406B03F034FF4C
:1030B000324641460190FDF7A2F80198304400F8ED
:1030C000017C0098C464B0F938108C4205D190F8A6
:1030D0005410012901D1641EC464684603F086FFC0
:1030E00001A803F083FF06E00098343003F06EFE81
:1030F00000984787C764484611F0A0FC06F03AFDE7
:10310000BDE8FC8738B50C4605000FD005F02EFA57
:10311000284603F001FF009018B10466284611F01C
:103120008DFC684603F062FF06F024FD38BDF8B55B
:1031300015460C46060013D005F018FA304603F089
:10314000EBFE009038B1022C05D200EB8400C5667E
:10315000304611F073FC684603F048FF06F00AFDA4
:10316000F8BD0000F8B51D4616460C46074605F0AA
:10317000FDF92FB3384603F0CFFE0090AC4201D9E1
:103180002C4602E0B44200D234460F4981650F4913
:10319000C1650021C0E91241C0E90F65012180F835
:1031A0005410B0F938100A2901DD0A210187684658
:1031B00003F01CFF38461FF009FA384611F03EFCB8
:1031C00006F0D8FCF8BD000091610108CD25020889
:1031D00000221FF052B81CB50C4603F09DFE009073
:1031E000406BF0B103F098FE019007F0A9FC009944
:1031F00091F8542002B10122002C00DA002484420C
:1032000000DD0446B1F93800801AA04200DA044615
:10321000C86CA04200D0CC640020086501A803F06F
:10322000E5FE684603F0E2FE1CBD01221FF025B852
:1032300008B568460AF07CFE0AF0F4FB68460AF01E
:1032400097FE08BD08B568460AF072FE0AF01AFC3F
:1032500068460AF08DFE08BD70B500244FF4007179
:103260000D4802F06EFF4FF47A7004F049FA4FF403
:10327000FA750CE02B46002208A109A000F012F814
:1032800008B1012070BD00F0CBF9641CE4B2052C3C
:10329000F0D3002070BD0000000C01404F4B000037
:1032A000415400002DE9F04184460C4615461F4666
:1032B0001D4EB6F800046FF30E00A6F80004624637
:1032C0001AA11C480FF09EFF54EA050010D03846A2
:1032D00004F016FAB6F800140020C1F30E01705481
:1032E0008CB185B121463046FCF7BBFF48B902E0FE
:1032F0000120BDE8F08129460B48FCF7B2FF002809
:10330000F7D00120F5E73CB121460748FCF7A9FFBB
:103310000028EED00120ECE729460348FCF7A1FF86
:103320000028E6D00120E4E7A849002025730D0A13
:10333000000000000048004030B585B0002400289F
:1033400001D0012200E000220BA168461FF080FEA0
:103350004FF4FA750BE02B4600220BA16846FFF7ED
:10336000A1FF10B1012005B030BD641CE4B2052CF2
:10337000F1D30020F7E7000041542B4349504D554D
:10338000583D2564000000004F4B000010B54FF47D
:103390007A7004F0B5F905A105480FF033FFBDE8D8
:1033A00010404FF4FA7004F0ABB900002B2B2B0047
:1033B0000048004038B5012108200CF01DFD4FF4F5
:1033C0008070ADF8000010208DF8030003208DF808
:1033D0000200064C6946204602F028FE6115ADF851
:1033E00000106946204602F021FE38BD000C014065
:1033F00010B54FF4FA7300220DA10EA0FFF752FF93
:10340000A0B110A11248FCF72CFF08B1022010BD9A
:1034100010A10F48FCF725FF08B1032010BD10A133
:103420000B48FCF71EFF08B1042010BD002010BDA2
:103430004F4B000041542B43495053544154555372
:10344000000000005354415455533A320D0A000015
:10345000A84900205354415455533A330D0A0000F3
:103460005354415455533A340D0A000010B5FFF738
:10347000A1FF00F031F9064C4FF40071204602F034
:1034800060FEA1152046BDE8104002F058BE0000C5
:10349000000C014030B59FB000240B4602460BA142
:1034A00001A81FF0D5FD41F288350BE02B46002224
:1034B0000BA101A8FFF7F6FE10B101201FB030BD2F
:1034C000641CE4B2052CF1D30020F7E741542B43F0
:1034D000574A41503D222573222C22257322000099
:1034E0004F4B0000F0B5B9B004460F4615461E46D6
:1034F000642120A8FCF7AAFE14B1012C0FD107E02B
:103500003B4612A212A120A800951FF0A1FD06E0E3
:103510003B4613A20EA120A800951FF099FD052E91
:1035200006D220AB32460FA102A81FF091FD04E0A5
:1035300020AA11A102A81FF08BFD4FF47A6312A2FA
:1035400015A102A8FFF7AEFE39B0F0BD54435000FC
:10355000222573222C222573222C257300000000C3
:103560005544500041542B43495053544152543D0B
:1035700025642C257300000041542B4349505354BB
:103580004152543D25730000414C5245415920435E
:103590004F4E4E45435400004F4B000070B504465B
:1035A000002540F6C4165CB1012C10D0022C15D0B9
:1035B0000020002803D16D1CEDB2052DF3D370BDA2
:1035C00033460AA20CA10DA0FFF76CFEF1E73346CB
:1035D00006A209A10CA0FFF765FEEAE7334603A2A5
:1035E00005A10CA0FFF75EFEE3E700006E6F20630D
:1035F00068616E67650000004F4B000041542B432B
:10360000574D4F44453D310041542B43574D4F4496
:10361000453D320041542B43574D4F44453D330007
:1036200070B5084D4FF400742146284602F087FD1E
:103630004FF4FA7004F064F821462846BDE8704063
:1036400002F07FBD000C014030B5044685B00D4648
:103650001846002C07D02A4611A112480FF0D2FDBF
:10366000012005B030BD052806D2931C02460EA1EC
:1036700068461FF0EDFC04E0921C10A168461FF0A4
:10368000E7FC4FF47A742346002210A16846FFF746
:1036900009FE234600220EA12846FFF703FEE0E7BD
:1036A000257300000048004041542B4349505345C6
:1036B0004E443D25642C25640000000041542B43FA
:1036C000495053454E443D25640000003E20000013
:1036D00053454E44204F4B0010B586B0012188045D
:1036E0000CF07CFB012108200CF086FB4FF480607D
:1036F000ADF8140018208DF8170003208DF816007F
:103700001B4C05A9204602F091FCE114ADF8141001
:1037100004218DF8171005A9204602F087FC4FF40C
:10372000E13001900020ADF80800ADF80A00ADF8D6
:103730000C00ADF810000C20ADF80E000D4C01A9E6
:1037400020460FF0F9FC012240F2255120460FF0EF
:10375000D8FC012240F2244120460FF0D2FC00F0B8
:103760000BF8012120460FF099FC06B010BD0000B7
:10377000000C01400048004008B527208DF80000EB
:1037800000208DF8010002208DF8020001208DF844
:10379000030068460AF0E4F908BD000010B54FF4D4
:1037A0007A742346002207A107A0FFF77BFD38B1FA
:1037B0002346BDE8104008A202A108A0FFF772BD91
:1037C000002010BD4F4B000041542B4349504D4F3A
:1037D00044453D31000000003E00000041542B43B1
:1037E000495053454E44000010B5114C4FF4007140
:1037F000204602F0A4FCA115204602F0A0FC0D4CCE
:10380000002240F2255120460FF07BFC002240F2BE
:10381000244120460FF075FC002120460FF03EFCAD
:10382000BDE8104000214FF480200CF0D7BA000012
:10383000000C01400048004070B5FCF799FC134AA9
:103840001178491C1170FCF797FC082000F034F83F
:10385000C0B10F490822087810B101280AD00EE043
:103860000C4B102058610C4C226001250D70226019
:10387000186104E00848001D02600220087008205A
:1038800000F00CF8BDE870400AF0B6BA3C00002029
:10389000730100200010014010140140014908602C
:1038A000704700001404014002490A6802430A609C
:1038B000704700001004014001460020054A1268CC
:1038C0000A40044B14331B680B4202D0002A00D07C
:1038D000012070470004014030B51B4A837901681C
:1038E000002B2AD013688B431360111D0B680468EA
:1038F000A3430B60017911440B68046823430B60F8
:10390000114C08342168036899432160231D19680C
:103910000568A94319604179102905D011440A6846
:10392000006802430A6030BD2168026811432160CB
:10393000196800680143196030BD007910440268BD
:103940008A43026030BD0000000401402DE9F843C5
:1039500010258DF8035003268DF8026001212020E8
:103960000CF04AFA0824ADF800406946234802F0FA
:103970005DFB012110200CF03FFAADF80050204F04
:103980006946384602F052FB012104200CF034FA5B
:103990000425ADF80050DFF86C806946404602F01F
:1039A00045FB012104200CF027FAADF800406946E0
:1039B000404602F03BFB012110200CF01DFA2021B3
:1039C000ADF800106946384602F030FB01210820AE
:1039D0000CF012FA4FF47F40ADF800008DF8035060
:1039E0008DF802606946084802F020FB0548143053
:1039F0000460024810300460BDE8F8830014014000
:103A00000010014000080140000C01402DE9F04386
:103A100089B0984615460F4606004FF000042DD099
:103A200000F0DCFB0446304600F09FFB814604F0CA
:103A30009DFD03A9304600F064FDF80706D0BDF9EE
:103A40001C00001B401B401C822109E0B807002815
:103A5000BDF91800284402DA40F2022100E00221F8
:103A60000096CDE9018123461A464946FDF7BAFD85
:103A700004460021FDF772FF06F07CF809B02046ED
:103A8000BDE8F08310B50523FFF7C0FF0446054AE3
:103A90000021FDF788FF0449204611F0E6F9204691
:103AA00010BD0000917A0108153202082DE9F04797
:103AB000456804468EB00026284603F02DFA009093
:103AC0005C30B0F820A0D0F80C90D0F82480C76A01
:103AD000006800B10668684603F088FA05E0796876
:103AE0002046884700283DD13F68002FF7D1206845
:103AF000142844D009DCA0F10B00072839D2DFE8F4
:103B000000F0BE3989B434B4110020287ED004DC22
:103B100017283ED01E282CD14BE026283CD02A283E
:103B200027D110E02846E66803F0F6F90190717A93
:103B300039B9317A012904D130F87C1F41F4807100
:103B4000018001A88FE0284603F0E6F90090E168C3
:103B500011B1C0F8841002E0D0F88400E06068463B
:103B600003F044FA0EB0BDE8F087002E7DD0284661
:103B7000B0477AE0214628461BF056FAF2E705A93D
:103B8000284600F0BEFCE068069901600799416094
:103B9000E8E7C4F80C90E5E7E0680228E2D10C956C
:103BA000E0680D9027200A900AA9A06812F040F85A
:103BB000D8E7E068012804D00021284600F086FB01
:103BC000D0E7404610F095FF58B1404611F012FA88
:103BD000404610F05FFE88B1012140460FF003FE21
:103BE0000CE0484611F05AFA8046284603F094F952
:103BF0000090C0F88080684603F0F8F9012128465B
:103C000000F064FBB8F1000FACD100E00EE0002042
:103C1000E060A7E75FEA0A7027D4E068C06820B3D5
:103C2000007A10B3284611F0E5F91EE0E668E6B127
:103C30002946706811F0CBFD20B1012128461DF006
:103C400023FD12E0002128461DF01EFD29463068A4
:103C500011F0ACFD48B1284603F05EF903903168DD
:103C6000C0F8801003A803F0C1F9214628460FF0E0
:103C70002BFD00288CD0204610F028F972E728464A
:103C800003F04AF90090703003F0A0F86846EAE7C4
:103C9000F0B587B0B0F908400DF10C0C0C9E8769A7
:103CA0004568ACE8F000448A0025CDE9001502948F
:103CB000B0F90C10B0F91050B0F90E40B0F90A008C
:103CC000194410442B46224600F002F807B0F0BD1C
:103CD0002DE9F04F8BB09846DDE9155691468A469E
:103CE0008346149F1A9C04F041FC6034314845F42B
:103CF0008055CDE90204CDE9007543464A46514658
:103D0000584610F029F804004DD003F005F9302290
:103D1000049017990FF02CFF04982822264934307C
:103D2000FCF76DFA049819995C30234F8160068482
:103D3000002646620661083FC6627968016004A8F1
:103D400003F054F905A9204600F0DBFB1B4841F2C3
:103D5000827103960094CDE90110BDF91E00BDF9F2
:103D60001A10BDF91C20431ABDF918005B1C121A69
:103D7000521C0FF0F1FF06467868416820468847DC
:103D8000204603F0C9F80490866604A803F02EF9D3
:103D900042F20400054202D1204610F037F92046D5
:103DA000189900F018FB05F0E5FE0BB02046BDE8C1
:103DB000F08F0000AD3A0008A80700201148000865
:103DC0002DE9F041044694B0006800F0B7F908B15D
:103DD000D94D01E0D84D2C35606815281ED00CDC7B
:103DE0000B281FD004DC00287ED005287DD12EE1D1
:103DF0000E287BD01228F9D141E1162806D01728C9
:103E000008D0182808D01C28F0D109E0E86914B0BF
:103E1000BDE8F081286AFAE7686AF8E7A86AF6E779
:103E20006869F4E720680B901C200C90206803F070
:103E300073F80390016D0BA88847064603A803F0AA
:103E4000D5F8022E0EDB95E807008DE80700D4E9CF
:103E500004023346A16906F00BFC20698719A069AA
:103E6000801B2BE0286805F060F92169E8690A18D1
:103E7000521E606903F0A2FFA269E869111A491C89
:103E8000606903F09BFF676920697F1C394603F076
:103E9000E5FF3946A06903F0E1FF686805F045F9E0
:103EA00020693946401C03F0D9FFA0693946401EFD
:103EB00003F0D4FF2769A069BF1C801E80462868D4
:103EC00005F033F942463946606903F077FF6868C8
:103ED00005F02BF960694246401C394603F06EFF3D
:103EE000686A02280FDD02E015E1AFE000E1A86892
:103EF00005F01BF961696A6A881C8B1801465B1E14
:103F00004246384627E0296AB14226DD6069022E22
:103F1000074600F1020801DB374401E007F1020720
:103F2000206901DB304401E000F1020022693B46D8
:103F30000A44A2F10102414604F0CCF8022E02DB51
:103F4000A069821B01E0A269921EA069E9693B4653
:103F5000401A401C414604F0BDF8022E02DB6069A5
:103F6000064401E06669B61CE76928687F1E05F013
:103F7000DCF83A463146206903F0F6FF3A4631460E
:103F8000A06903F0F1FFE7696868BF1E05F0CDF88E
:103F900020693A46401C314603F0E6FFA0693A46E4
:103FA000401E314603F0E0FFE869022802DC286A7F
:103FB000022823DDA86A022802DDE1690F1A01E068
:103FC000E769BF1EA86805F0B0F8E969022909DDB4
:103FD00020693B46421800F1020C521E31466046F1
:103FE00004F078F8286A022808DDA269E8693B46EF
:103FF000101A401C921E314604F06CF8286805F037
:1040000094F8D4E90620216903F0D8FE686805F029
:104010008CF8A2692169E069521E491C401E03F018
:10402000CDFEA86A022811DD2669A169E469B61CE3
:10403000271AA1F102087F1CA41EA86805F075F8D4
:10404000234642463946304604F044F872E0208A5E
:1040500006B2ADF81460A08A01B2ADF81610208B3C
:1040600002B2ADF81820A08B03B2ADF81A30D5E932
:104070000304CDE90004304603F03AFE5AE0208AFA
:10408000298B0844ADF81400A08AADF81600208BE7
:10409000298B401AADF81800A08BADF81A002068E3
:1040A00002F03AFF0390006FF0B1022005F0D2F861
:1040B000039991F87C00C0F3C00001EB8000006C14
:1040C00005F033F80398406B05F058F80398006F3B
:1040D00002F022FF03990A90B1F95A2005A903F0D2
:1040E00055FC0AA802F082FF03A802F07FFF21E03E
:1040F000208AADF81400A08AADF81600208BADF828
:104100001800A08BADF81A00A86805F00EF805A8F5
:1041100004F00CF80EE0206802F0FEFE039030F888
:104120005A1F41F00C01018003A802F05FFF2068D4
:1041300010F0E6FF00206AE6E407002038B505002D
:104140004FF000040FD004F011FA284602F0E4FE0C
:10415000009090F87C00000700D50124684602F02A
:1041600045FF05F007FD204638BD38B505004FF086
:10417000000411D004F0FAF9284602F0CDFE0090B8
:10418000C06D002180680268284690470446684652
:1041900002F02CFF05F0EEFC204638BDF8B50E46C7
:1041A00005004FF0000411D004F0E0F9284602F0B9
:1041B000B3FE0090C06D3146806802682846904783
:1041C0000446684602F012FF05F0D4FC2046F8BD14
:1041D0000148006870470000A807002030B587B08C
:1041E00005004FF0000413D004F0C0F901A92846DF
:1041F00000F087F9284602F08FFE0090B0F9544095
:10420000684602F0F3FE0CB9BDF9044005F0B2FCBB
:1042100007B0204630BD30B504468BB0006802F0D0
:104220007BFE009090F87C10246A006FC1F3C005FB
:1042300008B102F071FE0690E068029020690390D8
:10424000A088401EADF81000E089ADF8120020896A
:10425000401CADF81400608AADF81600BDF80800E7
:10426000401CADF80800BDF80A00401CADF80A007B
:10427000BDF80C00401EADF80C000098406B04F037
:104280007DFF009808AA02A9B0F95A30069805F0F7
:1042900033FE009800EB8500806B08F087F80098EB
:1042A00000EB8500006C08F0B9F808AB02AA04A97D
:1042B00006980FF06DFB684602F098FE069810B164
:1042C00006A802F093FE0BB0002030BD70B50D467D
:1042D000040009D004F04AF9294620461DF0D4F91B
:1042E000BDE8704005F046BC70BD38B50C46050011
:1042F00011D004F03BF9284602F00EFE0090816CCC
:10430000A14203D08464806E10F098FB684602F0EE
:104310006DFE05F02FFC38BD074A0649054B1160BC
:10432000064A083BD16958601B68C2E90630084656
:1043300070470000D8070020A4070020A80700202D
:104340002DE9FC410D46804604F010F95FEA0800B3
:1043500028D002F0E1FD0190C16D8C6800F038F9C1
:1043600007460198456301A802F040FE226801213A
:10437000404690470646226803214046904705463E
:1043800022680021404690470446404600F009FA62
:104390002B46324639464046009400F091F940469B
:1043A00010F04CFB05F0E6FBBDE8FC8138B50C468F
:1043B000054604F0DBF855B1284602F0ADFD00904B
:1043C0000466684602F012FE284610F037FBBDE88E
:1043D000384005F0CFBB7CB50D4604001DD004F07D
:1043E000C5F8204602F098FD0090006F01906846E5
:1043F00002F0FCFD294601A806F022FD58B1204636
:1044000002F08AFD009001990167684602F0EEFD16
:10441000204610F013FB05F0ADFB7CBD38B50C4613
:10442000050013D004F0A2F8284602F075FD0090B4
:10443000B0F95A10A14204D0A0F85A40284610F012
:10444000FDFA684602F0D2FD05F094FB38BD00008D
:1044500038B50C46050015D004F088F8284602F05F
:104460005BFD0022CDF8000000EB8201521C0C64C1
:10447000022AF9D3684602F0B9FD284610F0DEFAA8
:1044800005F078FB38BD2DE9FC470D465FEA0009D1
:104490004FF0000432D004F069F8484602F03CFDC9
:1044A0000190B0F95440A54223D000F091F8804625
:1044B00001980121A0F85450C06D856848462A68CB
:1044C000904707462A6803214846904706462A68CF
:1044D0000021484690470546484600F062F93346B9
:1044E0003A4641464846009500F0EAF8484610F042
:1044F000A5FA01A802F07AFD05F03CFB2046BDE8D4
:10450000FC872DE9F34F85B000270C46B846059887
:1045100002F002FD0090C06D0121856805982A68AF
:10452000904782462A6803210598904704902A689C
:1045300002210598904703902A680021059890472A
:104540000646009810F0E0FF8346009810F0E3FF65
:104550008146009890F83210890601D5B0F958804C
:1045600000F036F805460098C06E10B10FF0B5FFA8
:10457000074625806780A4F804A0049AABEB0200EC
:1045800006EB0802401E2A4420813A44E280039B45
:10459000A9EB0302521E6281A4F80CA020827019BC
:1045A000E681401E6082684602F020FDB4F90C00EE
:1045B0000190B4F91000029002AA01A9059800F038
:1045C00039F80198A0810298208207B0BDE8F08FE9
:1045D00010B50146002091F83220920607D5B1F9B6
:1045E0005400002803D1486B03F030FF801C10BD3D
:1045F00070B58AB00C46054602F08EFC0990C06D7D
:10460000866809A802F0F2FC009534B1012C06D0AE
:10461000022C0BD0032C04D10AE0182000E0162055
:1046200001907168684688470AB070BD1520F7E7A9
:104630001720F5E72DE9FC4790468946044602F02D
:104640006BFC0090C16D056868468E6802F0CEFC78
:104650003268002120469047064620460FF0ABFD09
:104660002F1404462DB227E002F056FC0190B0F959
:104670000010B0F90420B0F90230491B521BDB1BBB
:10468000B34212D190F82800000607D5D8F80000F0
:1046900088420ADB491EC8F8001006E0D9F800007D
:1046A000904202DC521CC9F8002001A802F09EFCD6
:1046B00020460FF045FE0446002CD5D1BDE8FC870E
:1046C0002DE9FF4F83B00E460746DDF8409002F01B
:1046D00023FC0190C16D8D68FFF77AFF044601A8A5
:1046E00002F084FC2A6801213846904783462A68F4
:1046F00003213846904782462A6800213846904771
:104700000546B44207D105998B4504D106998A45DF
:1047100001D14D4542D0A41B0026B04638460FF0CB
:104720004AFD39E002F0F8FB0090806A010602D5EC
:104730004FEA805002E0810528D50006002825DBDD
:1047400024B122461146384610F09BFA009890F8A2
:10475000280000060AD50698A5EB0902A0EB0A007E
:1047600004FB1601761C384610F03CFA0098008DC8
:1047700080050BD50599A5EB0902ABEB010004FB05
:10478000080108F10108384610F02CFA684602F0DA
:104790002DFC38460FF0D4FD0700C3D107B0BDE8AB
:1047A000F08F70B586B0064602F0B6FB0590D0E9F2
:1047B0001A4505A802F01AFC54EA050026D06946FD
:1047C0003046FFF79EFEACB1BDF90620BDF90410DE
:1047D000204610F0CBF9BDF90A00BDF90610421AC7
:1047E000BDF90800BDF90410521C411A491C2046AD
:1047F00010F0D2FC002D09D0BDF90600BDF9021061
:10480000421ABDF90410284610F0B0F906B070BD88
:104810002DE9F0430446406885B006460FF0AEFD32
:10482000814602F079FB0090D0F88080876C456E5D
:10483000684602F0DBFB2068172859D008DC0E28F8
:1048400037D00F280BD0142852D015283AD14FE07A
:104850001E2818D01F2827D0222833D146E06FF019
:104860007040874204D0384607F0A0FD02F060FD9A
:10487000002D12D0D4E902122068CDE90106CDE95D
:10488000031201A822E0E068002806D05FEA0800D1
:1048900006D0B04504D010F0ADFB05B0BDE8F08304
:1048A000304610F0FBFB16E0214648460EF00CFFA8
:1048B000F3E7E0684168002904DD00680928EFD0CB
:1048C0000A2805D0A5B12046C4F80490A847E4E71B
:1048D000304610F0F2FB0446484602F01DFB009003
:1048E000C0F88040684602F081FBD6E7E760D4E775
:1048F00020460FF0EBFAD0E78000A0F1C04000297D
:1049000004D0016841F00101016070470168024A6A
:104910001140016070470000FEFF0F0010B5D0E9A4
:1049200001121143D0E903231A4311434269114391
:1049300082691143C2691143026A1143426A1143F9
:10494000826A1143C26A1143026B114302689200EA
:10495000A2F1C04211608168082907D1016889006D
:10496000A1F1C0410A6842F040020A60416BD1E9FE
:10497000002342EA03128B688C891B0243EA04433A
:104980001A430B8A42EA03520B7D896942EA0362A9
:104990000A430168491C8900A1F1C0410A60C16A4B
:1049A000B1F5804F08D000686FF070418000A0F131
:1049B000C040C0F8041110BD816BD1E9002342EA68
:1049C00003128B680C8A1B0243EA04531A430B7DC3
:1049D000896942EA036200680A438000A0F1C0408E
:1049E000C0F8042110BD00002DE9F0478AB0142161
:1049F00005A8FBF72BFC00244E4D00262E7005F178
:104A0000100031210170417032218170C6704AA0BE
:104A10001EF00EFB0FF0A8FB034600964E4A07213E
:104A20004E48019602F0D0FC07464D480221CDE9E0
:104A30000071CDE90206BE23E622412105200FF0D8
:104A40008BF968600FF00AF923F02AF9454EDFF878
:104A5000188198B1022245A146A008F093F903F00D
:104A600007FB307810B138460FF068FA98F800006C
:104A700000285CD00A2002F043FEF2E722F0FCF9A5
:104A800045A248A148480EF03DFA4FF48079DFF87E
:104A90001CA148E0642C3CD905A806F0A1FF88BB06
:104AA0004946504601F04DFB05A9E8680DF0E1FAD2
:104AB00068680FF0FFFEA8680FF0FCFE40F261147A
:104AC000214638460FF066FB39A10DF0D2FA214697
:104AD00038460FF05FFB10F0A2FB40F27111384630
:104AE0000FF058FB10F09BFB4FF4B97138460FF0F4
:104AF00051FB10F094FB40F2731138460FF04AFB63
:104B00000FF0D8FE22F0B8F94946504601F017FBE5
:104B10000024641CE4B2307810B138460FF00EFA6D
:104B20000A2002F0EDFD98F800000028B2D10AB08A
:104B3000BDE8F087B80200203C3C2D4F532D494E74
:104B4000464F2D3E3E2050686F6E65617070206349
:104B500072656174650A0A00C54C02087410040885
:104B600055580208290000207D0100206572726FEF
:104B7000720000000D0A204E6F2064657465637436
:104B800065642053494D39303041206D6F64756C38
:104B90006521200D0A00000041542B434C49503D33
:104BA000310D000025730000004400400008014062
:104BB000E696B0E69DA5E794B52E2E2E00000000E7
:104BC00001A01EF035BA000046554E5F49434F4ED6
:104BD000303031436C69636B65640A007CB50FF05B
:104BE000C3FA0346002000900190224A0521224882
:104BF00002F0EAFB064621A01EF01AFA27492848CF
:104C000006F048FF26482749083006F043FF264CA7
:104C1000264D2BE0224806F04BFF2148083006F0D5
:104C200047FF00211E4806F03DFF38B1206880F0A4
:104C30000100206001211A4806F034FF18480021C5
:104C4000083006F02FFF40B1206880F0020020609D
:104C500013480121083006F025FF1548007810B1EF
:104C600030460FF06BF90A2002F04AFD2878002840
:104C7000D0D17CBD0D4A02085CA103083C3C2D4FFD
:104C8000532D494E464F2D3E3E204B455961707085
:104C9000206372656174650A0A000000D5B00008DF
:104CA00094010020F1B000080C0C01407F010020AD
:104CB000290000207CB5164CDA2020702520607079
:104CC000C420A07013A01EF0B3F90DF045FBA2782C
:104CD000617820780CF010FD0FF046FA03460020B2
:104CE00000900190144A0721144802F06DFB06461B
:104CF000134C144D07E0217811B130460FF01EF926
:104D00000A2002F0FDFC29780029F4D17CBD0000C6
:104D1000A40100203C3C2D4F532D494E464F2D3EC3
:104D20003E20427265617468696E676170702063CD
:104D300072656174650A0A0069330208E8A1030814
:104D400029000020800100202DE9F04F8BB00026C3
:104D50001C2104A8FBF77AFA59A01EF069F90FF09C
:104D600003FA0025034600955D4A03215D4801953D
:104D700002F02AFB834658460FF0EBF902228DE839
:104D800025004FF408710391C823DC22502105202F
:104D900001F064FA074600231A46FA21FF2001F0C9
:104DA000CBFA514CA060012232231146192001F0A8
:104DB0001DFB8146322300220221BE2001F016FB9A
:104DC00082464FF6FF784146504601F059FB47496D
:104DD00038460EF021FD00231A4619463846009544
:104DE00001F068FB4249384601F0DFFB32213846CA
:104DF00001F081FB0121384601F0BBFB012138465F
:104E000001F093FB0021A06801F0D6FA3949484629
:104E100001F018FB4146484601F032FB3846A168D4
:104E200001F091F94946384601F0AFF9514638464C
:104E300001F0ABF9304F3CE0761CF6B2322E2FD3A6
:104E400020880646FBF76EFCFBF7AFFC4FF066329E
:104E50002A4BFBF766FB6FF00B02FBF743FCFBF7FB
:104E6000CFFC6060FBF7A1FCCDE90001324624A134
:104E700004A81EF0EDF88DF8285040F26111584654
:104E80000FF088F904A90DF0F4F821496068FBF7E8
:104E90006FFAFBF75DFC01B2A06801F02FFA002663
:104EA0001C48007810B158460FF048F80A2002F06C
:104EB00027FC38780028BFD10BB0BDE8F08F000088
:104EC0003C3C2D4F532D494E464F2D3E3E204144F4
:104ED00043617070206372656174650A0A000000A6
:104EE000293202081C090408340200200CB204080C
:104EF000892602080AD7A33C8101002066660A4081
:104F0000307825303458202D2D3E2025665600005F
:104F100000004842290000202DE9F041ADF5027D56
:104F200000253CA01EF084F80FF01EF90027034670
:104F30000097414A09214148019702F045FA064687
:104F4000012002F0DDFBA02022F03EFC22F048F818
:104F50003B4C4FF4B07140B10120207030460FF04F
:104F600019F938A10DF085F806E030460FF012F976
:104F700036A10DF07EF82770207840F2611770B3EB
:104F8000002042A90854401C80B2FF28FAD94FF4EF
:104F900080784246002142A822F062F870B1FA24DB
:104FA000641E2404240CFBD14246002102A822F0F6
:104FB00022F818B1641CA4B2FF2CFBD93DB13946CC
:104FC00030460FF0E7F821A10DF053F80FE0394615
:104FD00030460FF0DFF81BA10DF04BF807E0FFE7BC
:104FE000394630460FF0D6F818A10DF042F8194CAA
:104FF000194D07E0207810B130460EF09FFF0A20CF
:1050000002F07EFB28780028F4D10DF5027DBDE882
:10501000F08100003C3C2D4F532D494E464F2D3E14
:105020003E20454550524F4D61707020637265615E
:1050300074650A0A00000000514302087009040860
:1050400040020020E68890E58A9F0000E587BAE9E3
:105050009499000029000020820100207CB51FA047
:105060001DF0E6FF0FF080F803460020009001904D
:10507000224A0E21224802F0A7F9064630460FF0D8
:1050800068F80023FA2219460EF038FE0A2002F0D2
:1050900037FB1C4C207818B11B480AF05FFF2070CA
:1050A000207828B1012219A11AA003F0E7FE06E03A
:1050B0004FF4B87130460FF06DF80EF0BCFF1B4C8A
:1050C0001B4D07E0207810B130460EF037FF0A2064
:1050D00002F016FB28780028F4D17CBD3C3C2D4F13
:1050E000532D494E464F2D3E3E20436C6F636B61FE
:1050F0007070206372656174650A0A00F93C0208E9
:105100006C0A0408940000208C4900206572726FBC
:10511000720000000D0A2052544320576F726B201A
:10512000446F776E212121200D0A00002900002004
:10513000830100202DE9FC470FF016F800260346F6
:1051400000961E4A02211E48019602F03DF9824651
:105150001CA01DF06DFF4FF48051224821F09EFEEF
:105160002149204808600EF0E1F8204D204C214FE5
:10517000DFF88480DFF884901AE0287858B10CF0CA
:105180000BFC0CF00BFC0EF011F90EF0FBF8206894
:105190000528FCD12E70386880F00100386098F83E
:1051A000000010B150460EF0C9FEC82002F0A8FA67
:1051B00099F800000028E0D1BDE8FC87855002087E
:1051C000F40B04083C3C2D4F532D494E464F2D3EC9
:1051D0003E20555342617070206372656174650AA8
:1051E0000A00000004500020400300204502002077
:1051F000BC0400200C0C0140290000208401002088
:105200002DE9FE4F0025C5A01DF012FFCB4E002753
:10521000377001207070B7700103C94821F03EFE5D
:10522000FEF724F90EF0A0FF03460097C54A0A21B5
:10523000C548019702F0C8F80290012002F060FA18
:105240004FF48071C14800F07CFFFEF705F818B9F3
:10525000B07840F00100B0700020FEF79FF918B957
:10526000B07840F00200B070DFF8E492D9F80000A6
:105270000EF0E1FEB078DFF8DCB2DFF8DC82800708
:1052800014D00222B5A1B7A007F07CFD02F0F0FE19
:105290009BF8000010B102980EF050FE98F8000044
:1052A000002872D00A2002F02BFAF1E74FF4B8710F
:1052B00002980EF06FFF0EF0BEFEDFF8CCA226E1E2
:1052C000B07800287DD1307800287AD07078B8B3D3
:1052D000D9F800000EF0ACFE4FF4B87102980EF051
:1052E00059FFAAA1FCF775FB94492331A1F11500E0
:1052F000FEF7D0F818B9B07840F00400B070B0787C
:1053000010B90020FEF718F800240CE0307878B1CE
:105310008A4A0523083202F130010020FEF7E2F844
:1053200030B9641CA4B2052C02D2B0780028EDD0AC
:10533000052C03D1B07840F00800B070002407E0DD
:1053400024E0307848B1FEF729FA30B9641CA4B2E1
:10535000052C02D2B0780028F3D0052C03D1B07808
:1053600040F01000B070BAF800046FF30E00AAF815
:105370000004BAF8000420F40040AAF80004777092
:10538000D9F800000EF057FE7FE0C5E0142D7CD365
:105390004FF4B875294602980EF0FCFE7EA1FCF78A
:1053A00018FB691C02980EF0F5FE0EF044FEBAF8E8
:1053B0000004000425D54FF48061614821F06EFDA2
:1053C00000E099E0BAF80004C0F30E000AF800709B
:1053D0006D4C0523002221460120FEF735F958497E
:1053E000204621F063FD706808F058F8B0F57A7F28
:1053F00003DB6CA1706808F0EFF85149706807F0A2
:10540000CCFD6948007898B3FDF7C0FFFDF7F0FFC9
:105410000028FBD004282BD13770777040F203119D
:1054200002980EF0B7FE0EF006FE4FF4817102985E
:105430000EF0B0FE0EF0FFFD40F2011102980EF0EA
:10544000A9FE0EF0F8FD4FF4807102980EF0A2FE56
:105450000EF0F1FD40F2711102980EF09BFE0EF07D
:10546000E7FD294602980EF095FE50A1FCF7B1FA2F
:10547000BAF800046FF30E00AAF80004BAF80004AA
:1054800020F40040AAF800040025B078A0B398F8F2
:10549000000088B340F2031102980EF07BFE0EF07C
:1054A000CAFD4FF4817102980EF074FE0EF0C3FD38
:1054B00040F2011102980EF06DFE0EF0BCFD4FF4AB
:1054C000807102980EF066FE0EF0B5FD40F271118B
:1054D00002980EF05FFE0EF0ABFD4FF4B87102982B
:1054E0000EF058FE31A1FCF774FA37707770012284
:1054F0001AA11CA003F0C2FC6D1CEDB29BF80000C9
:1055000010B102980EF01AFD0A2002F0F9F898F88E
:10551000000000287FF4D4AEBDE8FE8F3C3C2D4F48
:10552000532D494E464F2D3E3E20576966696170A6
:1055300070206372656174650A0A000048020020E9
:1055400004500020355202082C0C0408000C0140C5
:105550007801002029000020850100206572726F0B
:10556000720000000D0A20546865205769666920A2
:1055700064726976652063616E6E6F7420776F72F6
:105580006B21200D0A000000A8490020E8BF9EE61C
:105590008EA5E4B8AD000000E9809AE4BFA1E4B8AC
:1055A000AD000000000000002C000020E69CAAE8EE
:1055B000BF9EE68EA5000000F0B587B0002400264F
:1055C00004960596029603963EA01DF031FD464DC9
:1055D0002E700CF01DFCFDF78FF8012806D005F1A8
:1055E00008000AF05DFE012806D007E001202870BF
:1055F000FDF74DF8686001E0022028700EF0B4FD60
:1056000003460096394A04213948019601F0DCFE30
:105610000746384E51E0287808B1641CE4B2782C73
:1056200042D306A808F084FC2878022802D001287A
:1056300023D035E02C4808300AF032FE2A4C2EA147
:10564000083404A8E378A2781DF002FD40F261114D
:1056500038460EF09FFD04A90CF00BFD637822780C
:1056600025A102A81DF0F4FC4FF4B17138460EF0EC
:1056700091FD02A90CF0FDFC12E0FDF708F868604E
:10568000FBF793F802460B461DA104A81DF0E0FCB1
:105690004FF4B07138460EF07DFD04A90CF0E9FC22
:1056A00006A808F065FC00241748007810B13846B9
:1056B0000EF044FC0A2002F023F830780028AAD12A
:1056C00007B0F0BD3C3C2D4F532D494E464F2D3E6B
:1056D0003E2048756D6974757265617070206372E3
:1056E000656174650A0A000090020020854702087F
:1056F000440D04088601002025642E256400000066
:1057000025302E3266000000290000202DE9F04FE0
:1057100085B0002443A01DF08BFC0EF025FD002772
:1057200002224949CDE90002CDE902174FF4A073E6
:10573000F022394638460EF00FFB8346642001F014
:10574000DFFF0AF029F94FF47A7507E00AF02CF927
:1057500030B9284621F038FA641CE4B20A2CF5D39B
:10576000DFF8E8A00A2C0CD00DF06EFF384E377031
:10577000022005F0E1FF0A2021F026FA2024354D11
:1057800049E058460FF05AF9022233A134A007F03D
:10579000F9FA02F06DFC58460EF0D0FB9AF80000C2
:1057A00000283CD00A2001F0ABFFF4E73078022853
:1057B00028D104A808F0BCFB3249042008606C61C1
:1057C0002C61091F08606C612C610021DFF8B8C0F2
:1057D000DFF8B8804FF496396C61DCF8002002F4F1
:1057E0007F422C616C61DCF80030C3F30723134364
:1057F0002C61A8F80030491C4945EDD304A808F0F5
:10580000B7FB37702248007810B158460EF096FB6F
:10581000012001F075FF9AF800000028C6D105B0FC
:10582000BDE8F08F3C3C2D4F532D494E464F2D3E49
:105830003E2043616D6572616170702063726561C5
:1058400074650A0A00000000956C020887010020B8
:1058500073010020001001406572726F7200000039
:105860000D0A205468652043616D65726120647281
:105870006976652063616E6E6F7420776F726B213D
:10588000200D0A0014080140080C014000000260CD
:10589000290000207CB50FA01DF0CAFB0EF064FCAF
:1058A0000346002000900190144A0321144801F09F
:1058B0008BFD0646134C144D07E0217811B130469C
:1058C0000EF03CFB0A2001F01BFF29780029F4D1DF
:1058D0007CBD00003C3C2D4F532D494E464F2D3E84
:1058E0003E2043616C63756C61746F7261707020EF
:1058F0006372656174650A0A00000000513702088E
:10590000300F0408290000208801002001A01DF0AC
:105910008FBB000046554E5F49434F4E31313043F7
:105920006C69636B65640A0001A01DF081BB000017
:1059300046554E5F49434F4E313131436C69636B7D
:1059400065640A0010B504460A2812D00D2C14D044
:1059500002F00CFE09480068C069016820468847CB
:105960000748016809B120468847BDE8104004F0A7
:1059700001B9BDE8104001F02FBF10BDD4040020D4
:10598000FC0400202DE9F0430446C56887B090462A
:105990008946002003F0E5FB064625B1287910B1C1
:1059A00046F0020001E026F0020003F0DAFB206975
:1059B000012558B1D4E902128DE8260003956388C9
:1059C0002288046841464846A0471EE0124F134B08
:1059D000214638681B68427CE068984730B9E08807
:1059E000012801D0002001E03868806BA288E3889C
:1059F000A1680095CDE90410CDE9023201956388D4
:105A000022884146484606F0BBF807B03046BDE85C
:105A1000F04303F0A6BB0000D4040020CC04002017
:105A20001CB50024019401AC009400F0E7F81CBD03
:105A30002DE9FF4F83B0814606988A46A0EB0A08FD
:105A4000109E00200090A2EB09043568934654EAAA
:105A5000080018D02046FBF7CFFB07464046FBF76F
:105A6000CBFB87420BDA2046444680464846D14667
:105A700082465846DDF818B0069001200090002CB0
:105A800007DD204606E007B04846BDE8F04F00F0CD
:105A90003BB96042A0420AD04846D9466442C8F1A8
:105AA000000883464FF0FF37DDF818A000E001271B
:105AB0005148B8F1000F11D004EBD4714FEA610BDB
:105AC00001DACBF1000B4C480068807E88B3002FD0
:105AD00002DA30682044306000257BE0009900291C
