:020000040800F2
:100000003004002045010008A104000899040008FC
:100010009D040008B901000815090008000000004F
:10002000000000000000000000000000990500082A
:100030003D03000800000000A30400088506000836
:100040005F0100085F0100085F0100085F01000810
:100050005F0100085F0100085F0100085F01000800
:100060005F0100085F0100085F0100085F010008F0
:100070005F0100085F0100085F0100085F010008E0
:100080005F0100085F0100085F0100085F010008D0
:100090005F0100085F0100085F0100085F010008C0
:1000A0005F0100085F0100085F0100085F010008B0
:1000B0005F0100085F0100085F0100085F010008A0
:1000C0005F0100085F0100085F0100085F01000890
:1000D0005F0100085F0100085F0100085F01000880
:1000E0005F0100085F0100085F0100085F01000870
:1000F0005F0100085F0100085F0100085F01000860
:100100005F0100085F0100085F0100085F0100084F
:100110005F0100085F0100085F0100085F0100083F
:100120005F0100085F0100085F0100085F0100082F
:10013000DFF80CD000F02EF800480047D10A000884
:10014000300400200648804706480047FEE7FEE7E7
:10015000FEE7FEE7FEE7FEE7FEE7FEE7FEE7FEE777
:10016000090700083101000830B50B4601460020A0
:100170002022012409E021FA02F59D4205D303FA69
:1001800002F5491B04FA02F52844151EA2F10102EA
:10019000F1DC30BD064C074D06E0E06840F001039D
:1001A00094E8070098471034AC42F6D3FFF7C4FF39
:1001B000980B0008B80B000800BFFEE708B5012146
:1001C000402000F06FF94020ADF8000010208DF8BD
:1001D000030003208DF802006946024800F0C4F8CD
:1001E00008BD00000018014010B5FFF7E7FF4021EF
:1001F000014800F04FF910BD0018014008B540203B
:10020000ADF8000048208DF803006946014800F071
:10021000ABF808BD0018014008B54020ADF800005B
:1002200010208DF8030003208DF802006946024873
:1002300000F09AF808BD00000018014070B50025D4
:10024000002424E000BF4021134800F018F90028E2
:10025000F9D0282000F074F840210F4800F00FF981
:1002600001280DD100BF40210B4800F008F90128FA
:10027000F9D0C4F1070101208840C0B2054304E071
:10028000C4F10701012088408543601CC4B2082CDA
:10029000D8DB284670BD00000018014010B50446A8
:1002A000FFF7BAFF4021244800F0F2F844F2506012
:1002B00000F046F84021204800F0ECF81E2000F045
:1002C0003FF8FFF79BFF40211B4800F0D8F870BBB8
:1002D00000BF4021184800F0D2F80028F9D000BF34
:1002E0004021154800F0CBF80128F9D0FFF7A6FF10
:1002F0002070FFF7A3FF6070FFF7A0FFA070FFF76B
:100300009DFFE070FFF79AFF2071FFF785FF402106
:10031000094800F0BFF8207861780844A1780844C3
:10032000E17808442179884202D1012010BD01E022
:100330000020FBE70020F9E70018014070470000AB
:1003400001B50849009808604FF0E020006940F0CE
:1003500001004FF0E021086100BF0248006800285A
:10036000FBD108BD280000202DE9F0410246002500
:100370000026002000230024002791F803C00CF081
:100380000F0591F803C00CF0100CBCF1000F03D066
:1003900091F802C04CEA050591F800C0BCF1000FCD
:1003A00031D0146800202BE04FF0010C0CFA00F360
:1003B000B1F800C00CEA03069E4220D183004FF042
:1003C0000F0C0CFA03F7BC4305FA03FC4CEA0404D7
:1003D00091F803C0BCF1280F06D14FF0010C0CFAC4
:1003E00000FCC2F814C00AE091F803C0BCF1480F49
:1003F00005D14FF0010C0CFA00FCC2F810C0401CF3
:100400000828D1D31460B1F800C0BCF1FF0F34DD6F
:10041000546800202EE000F1080C4FF0010808FAA3
:100420000CF3B1F800C00CEA03069E4221D1830010
:100430004FF00F0C0CFA03F7BC4305FA03FC4CEA2F
:10044000040491F803C0BCF1280F05D100F1080C99
:1004500008FA0CF8C2F8148091F803C0BCF1480FF8
:1004600007D100F1080C4FF0010808FA0CF8C2F8A7
:100470001080401C0828CED35460BDE8F0810246AD
:10048000002093680B400BB1012000E00020704772
:10049000416170470161704700BFFEE700BFFEE7A2
:1004A0007047704729B1064A92690243044B9A612A
:1004B00004E0034A92698243014B9A61704700004D
:1004C0000010024030B500210022002400232D4DF1
:1004D0006D6805F00C0121B1042905D0082923D14C
:1004E00005E0294D056022E0274D05601FE0254D00
:1004F0006D6805F47012234D6D6805F48034022593
:1005000005EB92421CB9214D554305600BE01D4D92
:100510006D6805F400351DB11C4D5543056002E0C2
:10052000194D5543056002E0174D056000BF00BF3F
:10053000144D6D6805F0F0010909154D6B5C0568F7
:10054000DD4045600F4D6D6805F4E061090A104D0E
:100550006B5C4568DD4085600A4D6D6805F460514F
:10056000C90A0B4D6B5C4568DD40C560054D6D6883
:1005700005F44041890B074D6B5CC568B5FBF3F58D
:10058000056130BD0010024000127A0000093D00F4
:100590001400002024000020704710B500F002F87D
:1005A00010BD00000CB50020019000903348006899
:1005B00040F480303149086000BF3048006800F4E2
:1005C000003000900198401C0190009818B90198E3
:1005D000B0F5A06FF1D12948006800F4003010B1E7
:1005E0000120009001E0002000900098012843D1F4
:1005F0002348006840F01000214908600846006860
:1006000020F0030008600846006840F0020008601F
:100610001A484068194948600846406848600846DA
:10062000406840F4806048600846406820F47C10D0
:1006300048600846406840F4E81048600846006892
:1006400040F08070086000BF0C48006800F0007047
:100650000028F9D00948406820F0030007494860A5
:100660000846406840F00200486000BF0348406808
:1006700000F00C000828F9D10CBD00000010024069
:100680000020024010B500F06FF810BD30B51A48D8
:1006900000681A4AB0FBF2F1B1F1807F01D301206A
:1006A0001DE021F07F40401E4FF0E02250615017C6
:1006B0000F22002807DA13071D0E114B00F00F045C
:1006C000241F1D5503E013071C0E0E4B1C5400BFC6
:1006D00000204FF0E022906107201061002008B157
:1006E00000BFFEE74FF0E020006920F001004FF06E
:1006F000E021086130BD00000000002040420F00F2
:1007000018ED00E000E400E010B51348006840F088
:1007100001001149086008464068104908400E4928
:100720004860084600680E4908400B4908600846C2
:10073000006820F4802008600846406820F4FE002D
:1007400048604FF41F008860FFF727FF4FF00060FC
:100750000449086010BD0000001002400000FFF8CE
:10076000FFFFF6FE08ED00E00448006820B10348F2
:100770000068401E01490860704700002800002002
:1007800021B1828942F40052828104E082894DF6CF
:10079000FF731A408281704700B585B001210420A3
:1007A000FFF780FE01218803FFF77CFE4FF4007005
:1007B000ADF8100018208DF8130003208DF81200FA
:1007C00004A91348FFF7D0FD4FF48060ADF8100086
:1007D00004208DF8130004A90D48FFF7C5FD4FF460
:1007E000E13000900020ADF80400ADF80600ADF84F
:1007F0000800ADF80C000C20ADF80A006946054869
:1008000000F018F801210348FFF7BAFF05B000BD5A
:10081000000801400038014002460020B1F5007F89
:1008200000D100BF13880B400BB1012000E0002075
:10083000704700002DE9F04786B005460E460024BB
:10084000A24600BFA1460027B08900B100BF2F46D5
:100850002C8A4CF6FF700440F08804432C82AC894B
:100860004EF6F3100440B08831890843718908437B
:100870000443AC81AC8A4FF6FF400440B089044386
:10088000AC8201A8FFF71EFE1F48874202D1DDF8A7
:1008900010A001E0DDF80CA0A88900F4004040B1F0
:1008A0000AEBCA0000EB0A1031684900B0FBF1F80E
:1008B00007E00AEBCA0000EB0A1031688900B0FBC0
:1008C000F1F86420B8FBF0F004012009642101FB79
:1008D0001089A88900F4004040B1322000EBC90023
:1008E000B0FBF1F000F00700044308E0322000EB19
:1008F00009106421B0FBF1F000F00F0004432C81DB
:1009000006B0BDE8F087000000380140C1F30802DE
:100910008280704700BFFEE70FB4054B10B503A9F6
:10092000044A029800F018F810BC5DF814FB0000AF
:10093000AD0A00082C00002002E008C8121F08C100
:10094000002AFAD170477047002001E001C1121F50
:10095000002AFBD1704700002DE9FF4F89B09B466C
:100960000446002506E025280BD05A460B999047EF
:10097000641C6D1C20780028F5D10DB02846BDE818
:10098000F08F0027B8460122474900E0074314F8DA
:10099000013F203B02FA03F00842F7D120782E28CD
:1009A00019D114F8010F47F004072A280ED06FF070
:1009B0002F022078A0F1300109290CD808EB88011A
:1009C00002EB410100EB0108641CF2E70A98641C89
:1009D00050F8048B0A9020780028CED0642808D0E4
:1009E000692806D075281ED05A460B9990476D1C71
:1009F00058E00A994FF00A0901C90A91002802DA61
:100A000040422D2102E0390504D52B218DF820101C
:100A1000012103E0F90704D02021F7E78A4608AE58
:100A20000DE00021FAE70A994FF00A0901C90A917D
:100A3000F7E74946FFF798FB303106F8011D00281B
:100A4000F7D1ADEB060000F12009780701D44FF093
:100A50000108C84502DDA8EB090000E0002080463F
:100A6000002706E008A85A46C05D0B9990476D1C08
:100A70007F1C5745F6DB04E030205A460B9990471F
:100A80006D1CB8F10001A8F10108F5DC05E016F8CD
:100A9000010B5A460B9990476D1CB9F10001A9F161
:100AA0000109F4DC641C65E70928010070B50446FF
:100AB0000D46E1B20548FFF729FF00BF802103483A
:100AC000FFF7AAFE0028F9D0204670BD003801408B
:100AD0000EB5FFF7DBFDFFF75FFE0FA0FFF71CFF72
:100AE000FFF782FB17E001A8FFF7D8FB01280CD124
:100AF0009DF8070000909DF806309DF805209DF8B0
:100B0000041010A0FFF708FF02E01DA0FFF704FF8C
:100B10002048FFF715FCE6E70D0A2A2A2AB1FCBB9C
:100B2000F053544D333220646874313120CEC2CA40
:100B3000AAB6C8B4ABB8D0C6F7CAB5D1E92A2A2A32
:100B40000D0A00000D0AB6C1C8A14448543131B3A2
:100B5000C9B9A6210D0A0D0ACAAAB6C8CEAA25642B
:100B60002E256420A3A5524820A3ACCEC2B6C8CE81
:100B7000AA2025642E2564A1E6200D0A00000000AD
:100B800052656164204448543131204552524F52DD
:100B9000210D0A0040420F00B80B000800000020A1
:100BA0003000000038090008E80B00083000002081
:100BB000000400004809000800A24A0400000000E8
:100BC00000000000010203040607080900000000FD
:100BD00001020304010203040607080902040608CF
:080BE00000000000000000000D
:0400000508000131BD
:00000001FF
