:020000040800F2
:100000004826002045010008490A00084B0A00085C
:100010004F0A0008530A0008570A000800000000B1
:100020000000000000000000000000005B0A000863
:100030005D0A00080000000027730008FD0D00089D
:100040005F0100085F0100085F0100085F01000810
:100050005F0100085F0100085F0100085F01000800
:100060005F0100085F0100085F0100085F010008F0
:100070005F0100085F0100085F0100085F010008E0
:100080005F0100085F0100085F0100085F010008D0
:100090005F0100085F0100085F0100085F010008C0
:1000A0005F0100085F0100085F0100085F010008B0
:1000B0005F0100085F0100085F0100085F010008A0
:1000C0005F0100085F0100085F0100085F01000890
:1000D0005F0100085F0100085F0100085F01000880
:1000E0005F0100085F0100085F0100085F01000870
:1000F0005F0100085F0100085F0100085F01000860
:100100005F0100085F0100085F0100085F0100084F
:100110005F0100085F0100085F0100085F0100083F
:100120005F0100085F0100085F0100085F0100082F
:10013000DFF80CD007F0D4F8004800472F71000812
:10014000482600200648804706480047FEE7FEE7AD
:10015000FEE7FEE7FEE7FEE7FEE7FEE7FEE7FEE777
:1001600047020008310100080CB500200190009002
:100170006C48006840F480306A49086000BF6948F4
:10018000006800F4003000900198401C0190009835
:1001900018B90198B0F5A06FF1D16248006800F479
:1001A000003010B10120009001E000200090009884
:1001B000012843D15C48006840F010005A490860AB
:1001C0000846006820F0030008600846006840F018
:1001D0000200086053484068524948600846406839
:1001E00048600846406840F48060486008464068BF
:1001F00020F47C1048600846406840F4E8104860ED
:100200000846006840F08070086000BF45480068FC
:1002100000F000700028F9D04248406820F0030048
:10022000404948600846406840F00200486000BF0E
:100230003C48406800F00C000828F9D10CBD10B50E
:10024000FFF792FF10BD10B53648006840F001007E
:1002500034490860084640683449084031494860DC
:1002600008460068324908402E4908600846006880
:1002700020F4802008600846406820F4FE004860B2
:100280004FF41F008860FFF7DAFF4FF00060294944
:10029000086010BD10B5002100200022214B5B68D2
:1002A00003F00C0121B1042906D0082928D107E068
:1002B000214B224C236027E01F4B204C236023E07E
:1002C000184B5B6803F47010164B5B6803F48032C4
:1002D000022303EB904022B9194B4343174C236090
:1002E0000DE0104B5B6803F4003323B1144B434320
:1002F000124C236003E0104B4343104C236003E097
:100300000D4B0E4C236000BF00BF064B5B68C3F370
:1003100003130C4CE15C094B1B68CB40074C23607A
:1003200010BD000000100240002002400000FFF855
:10033000FFFFF6FE08ED00E000127A00000000204A
:1003400000093D000400002010B50446CC4884425A
:1003500008D10121042000F02DFB0021042000F031
:1003600029FB46E0C748844208D10121082000F05B
:1003700021FB0021082000F01DFB3AE0C248844226
:1003800008D10121102000F015FB0021102000F001
:1003900011FB2EE0BD48844208D10121202000F04D
:1003A00009FB0021202000F005FB22E0B848844230
:1003B00008D10121402000F0FDFA0021402000F08A
:1003C000F9FA16E0B348844208D10121802000F0F8
:1003D000F1FA0021802000F0EDFA0AE0AE488442F4
:1003E00007D10121801500F0E5FA0021A01500F0E9
:1003F000E1FA10BD10B50121084600F0DBFA00213A
:10040000012000F0D7FA10BD2DE9F0410246002589
:100410000026002000230024002791F803C00CF0E0
:100420000F0591F803C00CF0100CBCF1000F03D0C5
:1004300091F802C04CEA050591F800C0BCF1000F2C
:1004400031D0146800202BE04FF0010C0CFA00F3BF
:10045000B1F800C00CEA03069E4220D183004FF0A1
:100460000F0C0CFA03F7BC4305FA03FC4CEA040436
:1004700091F803C0BCF1280F06D14FF0010C0CFA23
:1004800000FCC2F814C00AE091F803C0BCF1480FA8
:1004900005D14FF0010C0CFA00FCC2F810C0401C52
:1004A0000828D1D31460B1F800C0BCF1FF0F34DDCF
:1004B000546800202EE000F1080C4FF0010808FA03
:1004C0000CF3B1F800C00CEA03069E4221D1830070
:1004D0004FF00F0C0CFA03F7BC4305FA03FC4CEA8F
:1004E000040491F803C0BCF1280F05D100F1080CF9
:1004F00008FA0CF8C2F8148091F803C0BCF1480F58
:1005000007D100F1080C4FF0010808FA0CF8C2F806
:100510001080401C0828CED35460BDE8F0814FF60F
:10052000FF710180022181700421C1707047024671
:10053000002093680B400BB1012000E000207047C1
:100540000146886880B2704702460020D3680B409D
:100550000BB1012000E0002070470146C86880B25E
:10056000704701617047416170470AB1016100E065
:1005700041617047C16070474FF480320A43826125
:100580008161826182698269704702460020434B23
:1005900018684FF68073184040EA021008433F4B3A
:1005A000186070473E49C8617047F0B50A4600239D
:1005B00000240021002500F00046B6F1004F02D1D2
:1005C000364EF16901E0354E7168C0F3034583B2E0
:1005D00000F44016B6F5401F08D121F070612F4E8F
:1005E000766826F070662D4F7E6012E000F480166B
:1005F000B6F5801F06D1032606FA05F4A14341F0A3
:10060000706106E0460D360103FA06F6B14341F08B
:10061000706122B1460D360103FA06F6314300F04F
:100620000046B6F1004F02D11C4EF16101E01B4EB5
:100630007160F0BD30B500228B071C0F0F2303FA49
:1006400004F2164B08338C1053F824309343134CA8
:1006500008348D1044F8253023468C1053F824308C
:100660008C07240F00FA04F423430C4C08348D103B
:1006700044F8253030BD0A49DC310860704700007D
:1006800000080140000C014000100140001401402E
:1006900000180140001C0140002001400000014002
:1006A00000002042DF48006840F00100DD4908609A
:1006B00008464068DC490840DA4948600846006856
:1006C000DA490840D74908600846006820F48020CD
:1006D00008600846406820F4FE0048604FF41F00A0
:1006E00088607047CF49096821F48031CD4A116094
:1006F0001146096821F480211160B0F5803F03D0D4
:10070000B0F5802F0ED106E0C649096841F480316A
:10071000C44A116007E0C349096841F4A021C14AF5
:10072000116000E000BF00BF704710B50146002215
:10073000002300204A11012A02D1BA4C236806E0A6
:10074000022A02D1B74C236A01E0B64C636A01F079
:100750001F02012494401C400CB1012000E0002045
:1007600010BD38B5002000900024002500BF3120C6
:10077000FFF7DBFF05460098401C00900098B0F59D
:10078000A06F01D0002DF2D03120FFF7CEFF08B1CD
:10079000012400E00024204638BD01460020A14A83
:1007A000106820F0F80040EAC10010607047A049CE
:1007B00008607047024600209A4B586820F47C106D
:1007C00042EA01031843974B5860704798490866FE
:1007D000704701460020934A506820F00300084308
:1007E000506070478F48406800F00C007047014629
:1007F00000208C4A506820F0F00008435060704799
:1008000001460020874A506820F4E06008435060A9
:10081000704701460020834A506820F4605040EA47
:10082000C1005060704729B17E4A527A02437D4B25
:100830005A7204E07B4A527A82437A4B5A7270476A
:100840007B49D8310860704701460020754A5068DE
:1008500020F440400843506070470021714A203224
:100860001170704A82F82010012802D004280AD1A1
:1008700004E001216B4A2032117005E00521694A2C
:100880002032117000E000BF00BF70476949086066
:1008900070476449096A0143624A116270476549B9
:1008A00044390860704730B500210022002400233D
:1008B0005C4D6D6805F00C0121B1042905D00829B3
:1008C00023D105E05C4D056022E05B4D05601FE033
:1008D000544D6D6805F47012524D6D6805F4803406
:1008E000022505EB92421CB9544D554305600BE0BF
:1008F0004C4D6D6805F400351DB1504D55430560F4
:1009000002E04D4D5543056002E04B4D056000BFD0
:1009100000BF444D6D6805F0F0010909484D6B5C5E
:100920000568DD4045603F4D6D6805F4E061090AEA
:10093000434D6B5C4568DD4085603A4D6D6805F45C
:100940006051C90A3E4D6B5C4568DD40C560354D60
:100950006D6805F44041890B3A4D6B5CC568B5FB89
:10096000F3F5056130BD29B12E4A526902432D4B82
:100970005A6104E02B4A526982432A4B5A617047FC
:1009800029B1284A92690243264B9A6104E0254A1C
:1009900092698243234B9A61704729B1214AD269F7
:1009A0000243204BDA6104E01E4AD26982431D4BA8
:1009B000DA61704729B11B4AD2680243194BDA60E9
:1009C00004E0184AD2688243164BDA60704729B1B6
:1009D000144A12690243134B1A6104E0114A126966
:1009E0008243104B1A6170471249403908607047C2
:1009F0000F49C86470470B49C87170470948406A7D
:100A000040F0807007494862704701460020054A5F
:100A100092680A400AB1012000E0002070470149B5
:100A200088727047001002400000FFF8FFFFF6FEDA
:100A3000000042428004424200127A0000093D0058
:100A40001400002024000020704700BFFEE700BF14
:100A5000FEE700BFFEE700BFFEE770477047704744
:100A60007047000008B501210820FFF789FF012029
:100A7000ADF8000010208DF8030003208DF802006F
:100A800069460F48FFF7C0FC0220ADF80000694638
:100A90000B48FFF7B9FC2020ADF800006946084874
:100AA000FFF7B2FC01210648FFF75BFD0221044875
:100AB000FFF757FD20210248FFF753FD08BD000056
:100AC000000C014072B6704762B67047EFF31080B9
:100AD00072B6704780F31088704730BF704720BFF0
:100AE0007047B0FA80F0704790FAA0F0B0FA80F04A
:100AF000704790FAA0F0704710B500206E4908606A
:100B000006F062FB10BD10B5FFF7F6FF10BD00BF89
:100B1000FEE710B506F06EFB0446204610BD704798
:100B200000B5014611B900BFFFF7F1FF624A106836
:100B300008B1002201E04FF4FA620A8000BD5E496C
:100B40000860704770B505462846FFF7CAFF04469F
:100B5000183C204670BD70B505462846FFF7C1FF1A
:100B60000446103C204670BD70B505462846FFF788
:100B7000B8FF044600BF204670BD30B502460B46A4
:100B80000024D2F1FF359C4126D24FF6FF74D2F1FA
:100B9000FF359C410FD26FF07F44D2F1FF359C416D
:100BA00003D2190E454C605C44E0190C434C645C64
:100BB00004F108003EE0FF24D2F1FF359C4105D24C
:100BC000190A3E4C645C04F1100033E019463B4CBA
:100BD000645C04F118002DE04FF6FF750024AD1A97
:100BE0009C4115D26FF07F450024AD1A9C4107D27D
:100BF000140E44EA0321314C645C04F1200019E036
:100C0000140C44EA03412D4C645C04F1280011E00B
:100C10000024D2F1FF059C4107D2140A44EA036183
:100C2000264C645C04F1300004E01146234C645C03
:100C300004F1380030BD70B504460CB9082070BD11
:100C40002046FFF751FF05462846F8E770B50446F1
:100C50000CB9102070BD2046FFF746FF0546284618
:100C6000F8E770B504460CB9202070BD2046FFF7A8
:100C70003BFF05462846F8E72DE9F04304460D46BC
:100C8000002184EA01006940084302D14020BDE808
:100C9000F083E243E843521C40F1000102EA0406FB
:100CA00001EA050730463946FFF767FF8046C8F17D
:100CB0003F094846EBE7000028000020A673000823
:100CC0007047664A1168002002E0002204C1401CFF
:100CD000634A12689042F8D3604A1268604B1B68FE
:100CE00002EB8302121F5F4B1A6070477047704718
:100CF00070477047F0B50446DDE9055602EB850004
:100D00004FF0807C071F3846C7F800C0071F3846E1
:100D10003C60DFF854C1071F3846C7F800C04FF0E9
:100D2000123C071F3846C7F800C04FF0033C071FAE
:100D30003846C7F800C04FF0023C071F3846C7F8D6
:100D400000C0071F38463B60071F384639604FF028
:100D5000113C071F3846C7F800C04FF0103C071F72
:100D60003846C7F800C04FF0093C071F3846C7F89F
:100D700000C04FF0083C071F3846C7F800C04FF0CE
:100D8000073C071F3846C7F800C04FF0063C071F56
:100D90003846C7F800C04FF0053C071F3846C7F873
:100DA00000C04FF0043C071F3846C7F800C0F0BD34
:100DB00010B506F01FFA04462C4800682C49096853
:100DC000884215D029480068D0F89800201A274991
:100DD0000968C1F8940025480068D0F89C002349B0
:100DE0000968D1F89410084420490968C1F89C00AA
:100DF0001F480068C0F8984010BD704710B5002427
:100E000000BF00BFFFF762FE044600BF00BF1948E5
:100E10000078401C1749087000BF00BF2046FFF74C
:100E200059FE00BF00BF05F0FDFD00F00AF910BD3E
:100E300001464A1E4FF0E0235A610F4A106820F025
:100E40007F4000BF10601A46126942F005021A6125
:100E50001A46126942F002021A617047D4740008FF
:100E6000D87400082C00002087600008A80000202B
:100E7000AC0000203800002020ED00E070470000AA
:100E8000002400BF19E000BF00BFFFF71FFE0446AB
:100E900000BF00BFF8480068401CF7490860F748E9
:100EA0000068401CF549086000BF00BF2046FFF7FE
:100EB00011FE00BF00BFFFF703FFE4E710B58AB0E3
:100EC00004460020EC4908600B2000210591CDE983
:100ED000070406910846EA490968EA4A1268EA4B9B
:100EE0001B68CDE90132CDE903100F200023AFF2DA
:100EF0006F02E6A10090EA4803F0A7FD0AB010BD1A
:100F000000210AE001EB4102E64B03EB82000022E4
:100F10000281026042604A1CD1B21029F2D37047AC
:100F200070B50446FFF7CDFE0020DF490870DF49A9
:100F30000870DF490870DF490860DF490860DF4951
:100F40000870DF490870DF490870DF490870DF4822
:100F500000680A21B0FBF1F0DD490860DD48006857
:100F600058B1DD48056845B1DA48066803E0761EE9
:100F7000002028602D1D002EF9D10020D7490870CF
:100F800002F0F2FBFFF7BCFF204601F08BFB20884C
:100F900000B170BD204601F071FE208800B1F8E775
:100FA000204601F077FE208800B1F2E7204602F0EB
:100FB000CDFB208800B1ECE7204602F04DFF2088F1
:100FC00000B1E6E7204603F05AFA208800B1E0E7D6
:100FD000204605F051F8208800B1DAE7204601F0FC
:100FE000E4FC208800B1D4E72046FFF767FF2088A3
:100FF00000B1CEE7204605F094F9208800B1C8E79B
:10100000204603F082FB208800B1C2E7204605F0AD
:10101000D3FF208800B1BCE7FFF730FF00BFB8E77F
:10102000A2480078012800D070479F480078FA282D
:1010300000DBF9E79C480078401C9B49087000BF22
:10104000F2E710B5002499480078012800D010BDBF
:1010500000BFFFF73BFD044600BF9348007828B966
:1010600000BF2046FFF736FD00BFF0E78E4800784E
:10107000401E8D49087008460078002805DD00BF35
:101080002046FFF727FD00BFE1E7894800780028E8
:1010900005DD00BF2046FFF71DFD00BFD7E702F0CA
:1010A0006DFB874908700846007800EB40007D49D9
:1010B00051F8200080490860084600687D490968A9
:1010C000884205D100BF2046FFF704FD00BFBEE700
:1010D00079480068D0F89000401C77490968C1F849
:1010E00090007F480068401C7D4908604FF08050A8
:1010F0007C49086000BF2046FFF7ECFC00BF00BF42
:10110000A5E710B5002468480078002800DD10BD70
:1011100067480078002800DDF9E700BFFFF7D6FC3C
:10112000044600BF02F02AFB6549087008460078B3
:1011300000EB40005B4951F820005F490860084619
:1011400000685C490968884205D100BF2046FFF766
:10115000C1FC00BFDBE758480068D0F89000401C95
:1011600055490968C1F890005D480068401C5C4919
:1011700008604FF080505B49086000BF2046FFF7D1
:10118000A9FC00BF00BFC2E770B504460025474870
:101190000078012803D045F68960208070BD44485E
:1011A0000078FA2803DB45F209202080F6E700BF2B
:1011B00000BFFFF78BFC054600BF00BF3C4800782E
:1011C000401C3B49087000BF00BF2846FFF782FC67
:1011D00000BF00BF0020208000BFDFE770B50446DD
:1011E000002532480078012803D045F68960208028
:1011F00070BD2F48007818B946F664502080F7E794
:1012000000BF00BFFFF762FC054600BF00BF2848D3
:101210000078401E264908700846007800280ADD3C
:1012200000BF00BF2846FFF755FC00BF00BF46F6D1
:1012300063502080DCE700BF00BF2846FFF74AFC70
:1012400000BF00BFFFF75DFF0020208000BFCFE799
:101250002DE9F04105460C461646002700BF00BFA9
:10126000FFF734FC074600BF00BF012D3CD0002033
:10127000154908703BE00000340000207000002099
:10128000B0740008AC740008A874000875432F4FB0
:10129000532D4949492049646C65205461736B00A2
:1012A00040150020B416002038000020390000202E
:1012B0005C000020A8000020AC00002056000020A8
:1012C0005700002058000020640000200875000826
:1012D00060000020D8740008D47400088A00002040
:1012E0008400002004ED00E00120F749087014B1EB
:1012F000F648046006E0F64800680A21B0FBF1F009
:10130000F249086000BF00BF3846FFF7E3FB00BFAB
:1013100000BF00203080BDE8F08110B501460C8987
:1013200024B1012C03D0022C0CD101E000BF14E049
:1013300008684A6802610024C4601461D0600A60D1
:1013400048600AE008684A68C36800241C61C460F9
:101350000261D0600B60486000BF00BF10BD2DE986
:10136000F04104460027DB480078002804DD46F6FB
:1013700063502080BDE8F081D3480078012803D075
:1013800046F67B102080F5E700BF00BFFFF79EFB0D
:10139000074600BF00BFD048007800EB4000CF49AF
:1013A00001EB8006308902280ADA00BF00BF384608
:1013B000FFF790FB00BF00BF46F67A102080D9E708
:1013C0003046FFF7AAFF3568686D18B9BF48006856
:1013D000A86501E0686DA86500BF00BF3846FFF74B
:1013E00079FB00BF00BFFFF78CFE0020208000BF0C
:1013F000C0E710B50446BA480078E8B902F0BEF973
:10140000B849087008460078B3490870B5480078B4
:1014100000EB4000B14951F82000B349086008468C
:101420000068B24908600120AD49087005F06AFF04
:1014300043F69920208002E045F68A60208010BDA6
:1014400001460020088047F25D607047F0B58E6865
:1014500096F8375007893FB90127078100274F6069
:101460000F600160416023E007897F1C07810268EB
:1014700006E0946894F83770AF4200DD02E05268ED
:10148000002AF6D100BF32B900274F6043680B60D5
:10149000596041600CE017682FB9116000270F6098
:1014A0004A60016004E013680B604A605960116093
:1014B000F0BD10B5C287016300230AE000244C6030
:1014C0000C600C614C610C83CC61886020315C1C29
:1014D000A3B29342F2DB10BD2DE9F041054695F829
:1014E000370000EB40007D4901EB80042F69EE6876
:1014F00087B946B9002020812060606095F83700E8
:1015000002F05EF90EE02089401E2081002030614B
:10151000266007E02089401E2081FE600EB96760CA
:1015200000E0376100202861E860BDE8F08138B54F
:1015300004460D4685B16B4602222946204604F03A
:1015400031FFBDF8000018B9032084F8360006E02A
:10155000022084F8360002E0022084F8360020469B
:10156000FFF7BAFF38BD2DE9F04105460C46164697
:101570001F465E48006880F8346000205B490968B7
:1015800081F83500394659480068FFF7D0FF6CB143
:1015900004F10808EC600122294654480068FFF76E
:1015A00088FF29464046FFF751FF06E000204F49DB
:1015B0000968C8874D4909680863BDE8F08110B51E
:1015C0000489012C03D100240460446011E00C68FC
:1015D00024B94A680024146002600AE04C6824B907
:1015E0000B6800245C60436003E00B684A685A6043
:1015F00013600489641E048100244C600C6010BDDB
:101600002DE9F0410446256BE68F0AE0D5F80C8001
:1016100008F1080729463846FFF7D1FF2035701E2C
:1016200086B2002EF2DC0020E0872063BDE8F08166
:1016300030B50346086BCC8F08E0C5689D4202D1E7
:101640000361C26104E02030651EACB2002CF4DC02
:1016500000BF30BD10B590F8373003EB43031F4C8B
:1016600004EB83010B893BB901230B810023C36089
:1016700003610860486009E00B895B1C0B810B6803
:10168000C360002303610A681061086010BD10B5D3
:1016900090F8373003EB4303104C04EB83010B89C4
:1016A0003BB901230B810023C360036108604860DC
:1016B00008E00B895B1C0B810023C3604A68026150
:1016C000D060486010BD0000640000206000002071
:1016D000087500085C00002056000020B4160020A9
:1016E0003900002057000020AC000020A800002096
:1016F00010B5044694F8370002F052F894F8370019
:10170000FB490978884203D12046FFF7C0FF02E079
:101710002046FFF79FFF10BD10B50446204604F099
:10172000D1FC94F8360000F0040010B92046FFF711
:10173000DFFF10BD70B505460C46164694F836001E
:10174000082847D2DFE800F0040508090607272823
:1017500000BF00BF00BF3EE000BF94F83400032884
:1017600004D1324621462846FFF762FF0020E0659B
:10177000A4F86000266415B12046FFF741FF20461B
:10178000FFF7CAFF00203434A070012060700020F1
:1017900004F834091FE000BF94F83400032804D192
:1017A000324621462846FFF743FF0020E065A4F8B3
:1017B0006000266415B12046FFF722FF204604F0A2
:1017C00081FC04203434A07001206070002004F8F3
:1017D000340900E000BF00BF70BD2DE9F0430446AE
:1017E0000F4684F83770256BB4F83E8013E0D5F8C7
:1017F0000C9009F108063089012807D9294630469E
:10180000FFF7DDFE29463046FFF720FE2035A8F120
:1018100001001FFA80F8B8F1000FE8D1BDE8F083AD
:101820000021016041600181704703895B1C0381D5
:1018300003684B6000230B60026802B11160016015
:101840000389012B00D14160704730B50346086B16
:10185000CC8F08E0C5689D4202D10361C26104E0FB
:101860002030651EACB2002CF4DC00BF30BD70B57A
:1018700006460C46154694F83600082845D2DFE89F
:1018800000F0040508090607262700BF00BF00BFB7
:101890003CE000BF94F83400032804D12A462146D6
:1018A0003046FFF7D2FF0020E065A4F86000256411
:1018B0002046FFF7A5FE2046FFF72EFF0020343418
:1018C000A07002206070002004F834091EE000BF00
:1018D00094F83400032804D12A4621463046FFF705
:1018E000B4FF0020E065A4F860002564204604F001
:1018F000E9FB2046FFF784FE04203434A070022068
:101900006070002004F8340900E000BF00BF70BD23
:10191000F0B50446059E086BCD8F0AE0C768A74264
:1019200004D1046142610383C66104E020306F1E6C
:10193000BDB2002DF2DC00BFF0BD2DE9F843064634
:101940000C4617469846089D94F83600082848D259
:10195000DFE800F0040508090607272800BF00BFDC
:1019600000BF3FE000BF94F83400032807D143468E
:101970003A46214630460095FFF7CAFF03E0E76587
:10198000A4F86080256416B12046FFF739FE204692
:10199000FFF7C2FE00203434A070607004F83409F0
:1019A00020E000BF94F83400032807D143463A46AC
:1019B000214630460095FFF7ABFF03E0E765A4F84A
:1019C00060802564204604F07DFB16B12046FFF7B9
:1019D00017FE04203434A0700020607004F834092D
:1019E00000E000BF00BFBDE8F88310B5002400BFD1
:1019F000FFF76CF8044600BF00203E4908703E48DF
:101A00003E49086008460068D0F89000401C09680C
:101A1000C1F890003A480068401C394908604FF00E
:101A200080503849086000BF2046FFF753F800BFD8
:101A300010BD70B50546002633480078012800D057
:101A400070BD00BF00BFFFF741F8064600BF00BFF2
:101A50002C683CB900BF00BF3046FFF73BF800BF21
:101A600000BFEDE72948844207D100BF00BF3046E0
:101A7000FFF730F800BF00BFE2E7A06D10B1A06D26
:101A8000401EA065A06D38B100BF00BF3046FFF713
:101A900021F800BF00BFD3E72889022807DA00BF7A
:101AA00000BF3046FFF716F800BF00BFC8E7184870
:101AB0000078002807DD00BF00BF3046FFF70AF8B6
:101AC00000BF00BFBCE72846FFF727FC2C68606D0D
:101AD00018B910480068A06501E0606DA06500BFFE
:101AE00000BF3046FEF7F6FF00BF00BF00BFA7E70C
:101AF0005600002057000020F4150020AC00002004
:101B00008400002004ED00E0640000204015002067
:101B10005C000020600000202DE9F04104460D46E5
:101B200016461F464FF0000800BF00BF00BFFEF77B
:101B3000CDFF804600BF00BFF7480078401CF64943
:101B4000087000BF00BF4046FEF7C4FF00BF00BFE3
:101B500000BFF2482060656066610020A06104F16A
:101B60000800FFF75DFEEE480088401CEC49088045
:101B700000BF00BF00BFFEF7A9FF804600BF00BF47
:101B8000E5480078401EE449087000BF00BF4046A9
:101B9000FEF7A0FF00BF00BF00BF00203880BDE8F7
:101BA000F08170B50446DF482060DFA0606000204F
:101BB000606104F108052846FFF732FE70BD2DE98B
:101BC000FC5F8046894614460020009000BF00BF9D
:101BD00000BFFEF77BFF009000BF00BFCE4800783B
:101BE000401CCD49087000BF00BF0098FEF772FF8F
:101BF00000BF00BF00BF08F108073D892E46B9F1BC
:101C0000000F03D0B9F1010F6FD16AE0002E37D178
:101C1000C3480088401EC24908804046FFF7C1FF04
:101C200000BF00BF00BFFEF751FF009000BF00BF24
:101C3000B9480078401EB849087008460078A0B935
:101C4000BB480088002809DD00BF00BF0098FEF7F0
:101C500041FF00BF00BFFFF7C8FE0DE000BF00BF9F
:101C60000098FEF737FF00BF06E000BF00BF0098F6
:101C7000FEF730FF00BF00BF00BF002020802FE034
:101C800000BF00BF00BFFEF721FF009000BF00BFF4
:101C9000A1480078401EA049087008460078A0B905
:101CA000A3480088002809DD00BF00BF0098FEF7A8
:101CB00011FF00BF00BFFFF798FE0DE000BF00BF9F
:101CC0000098FEF707FF00BF06E000BF00BF0098C6
:101CD000FEF700FF00BF00BF00BF47F25F1020808B
:101CE00064E005F087FA01900BE02EE0D7F800A041
:101CF000DAF808B059464046019AFFF7B8FD681E69
:101D000085B2002DF2D186480088401E84490880A3
:101D10004046FFF746FF00BF00BF00BFFEF7D6FEFC
:101D2000009000BF00BF7C480078401E7A490870D0
:101D300000BF00BF0098FEF7CDFE00BF00BF00BF90
:101D4000FFF7DFF90020208030E000BF00BF00BFB8
:101D5000FEF7BCFE009000BF00BF6F480078401E39
:101D60006D49087008460078A0B9714800880028BD
:101D700009DD00BF00BF0098FEF7ACFE00BF00BF4A
:101D8000FFF733FE0DE000BF00BF0098FEF7A2FE94
:101D900000BF06E000BF00BF0098FEF79BFE00BF3B
:101DA00000BF00BF45F62560208000BF00BF304661
:101DB000BDE8FC9F2DE9F04106460F4614461D463E
:101DC000DDF818805B480068C0F88040594800681A
:101DD000A0F88850002057490968C1F8840043469C
:101DE000012239463046FFF7BEFBBDE8F0812DE900
:101DF000F04F8BB00446884693469946DDE914754A
:101E00000020019009F4807010B14FF0010A01E048
:101E10004FF0000A0FB10020386009F00F000A905F
:101E200000BF00BFFEF752FE019000BF00BF0A983E
:101E3000012870D002287FD0042802D008287CD145
:101E40007CE0606900EA0806464519D1BAF1010F45
:101E500002D16069B043606136480068C0F88460B0
:101E60000FB1A069386000BF00BF0198FEF732FED5
:101E700000BF00BF0020288030460BB0BDE8F08FC7
:101E800009F4004058B100BF00BF0198FEF722FEE0
:101E900000BF00BF46F2B01028800020EDE71E48CA
:101EA000007800280BDD00BF00BF0198FEF712FE8E
:101EB00000BF00BF46F6635028800020DDE700BF6A
:101EC00015480078401C1449087000BF00BF0198F5
:101ED000FEF700FE00BF00BF00BF4B464246214652
:101EE00002A8CDF800B0FFF765FF00BF00BF00BF3C
:101EF000FEF7ECFD019000BF00BF07480078401ED0
:101F00000549087000BF00BF0198FEF7E3FD00BF60
:101F100000BF00BF54E178E05C000020464C414720
:101F2000500000204E4F4E453F464C4147000000B8
:101F300044000020A8000020CFE035E1606900EAFD
:101F40000806BEB1BAF1010F02D16069B043606109
:101F5000FC480068C0F884600FB1A069386000BF19
:101F600000BF0198FEF7B6FD00BF00BF002028802B
:101F7000304682E709F4004058B100BF00BF019825
:101F8000FEF7A8FD00BF00BF46F2B0102880002079
:101F900073E7ED48007800280BDD00BF00BF019813
:101FA000FEF798FD00BF00BF46F663502880002072
:101FB00063E700BFE4480078401CE349087000BFB5
:101FC00000BF0198FEF786FD00BF00BF00BF4B4673
:101FD0004246214602A8CDF800B0FFF7EBFE00BF55
:101FE00000BF00BFFEF772FD019000BF00BFD648E2
:101FF0000078401ED449087000BF00BF0198FEF76A
:1020000069FD00BF00BF00BFDAE0606928EA000692
:10201000464517D1BAF1010F02D1606930436061C2
:10202000C8480068C0F884600FB1A069386000BF7C
:1020300000BF0198FEF74EFD00BF00BF00202880C2
:1020400030461AE709F4004058B100BF00BF0198BC
:10205000FEF740FD00BF00BF46F2B0102880002010
:102060000BE7B948007800280BDD00BF00BF0198DE
:10207000FEF730FD00BF00BF46F663502880002009
:10208000FBE600BFB0480078401CAF49087000BFB5
:1020900000BF0198FEF71EFD00BF00BF00BF4B460A
:1020A0004246214602A8CDF800B0FFF783FE00BFEC
:1020B00000BF00BFFEF70AFD019000BF00BFA248AD
:1020C0000078401EA049087000BF00BF0198FEF7CD
:1020D00001FD00BF00BF00BF72E0606928EA000692
:1020E000BEB1BAF1010F02D1606930436061954819
:1020F0000068C0F884600FB1A069386000BF00BFFD
:102100000198FEF7E7FC00BF00BF002028803046A2
:10211000B3E609F4004058B100BF00BF0198FEF7D4
:10212000D9FC00BF00BF46F2B01028800020A4E612
:102130008548007800280BDD00BF00BF0198FEF73E
:10214000C9FC00BF00BF46F663502880002094E61B
:1021500000BF7D480078401C7B49087000BF00BF6D
:102160000198FEF7B7FC00BF00BF00BF4B464246D8
:10217000214602A8CDF800B0FFF71CFE00BF00BF4B
:1021800000BFFEF7A3FC019000BF00BF6E480078BF
:10219000401E6D49087000BF00BF0198FEF79AFC11
:1021A00000BF00BF00BF0BE000BF00BF0198FEF7FB
:1021B00091FC00BF00BF45F62560288000205CE64A
:1021C00000BFFEF79EFF00BF00BFFEF77FFC01903F
:1021D00000BF00BF5B48006890F8350030B10128AF
:1021E0000CD0022828D0032836D117E01FB155485B
:1021F0000068006C38600020288038E01FB151482A
:102200000068006C386000BF00BF0198FEF762FCF8
:1022100000BF00BF46F2A910288028E00FB10020BF
:10222000386000BF00BF0198FEF754FC00BF00BF3C
:1022300047F2D92028801AE01FB142480068006C9C
:10224000386000BF00BF0198FEF744FC00BF00BF2C
:1022500045F6C25028800AE000BF00BF0198FEF793
:1022600039FC00BF00BF46F62E60288000BF00BFCB
:10227000288808B1002000E632480068D0F8846061
:10228000BAF1010F20D10A9801280BD002280AD0F8
:10229000042802D008280AD100E000BF6069B043DA
:1022A000606110E000BF6069304360610BE000BF17
:1022B00000BF0198FEF70EFC00BF00BF45F6256089
:1022C00028800020D9E500BF00BF00BF0198FEF7BD
:1022D00001FC00BF00BF002028803046CDE52DE97D
:1022E000F05F80460D4616464FF0000A00BF00BF63
:1022F000FEF7ECFB824600BF00BF08F1080420890E
:1023000060B900BF00BF5046FEF7E4FB00BF00BF4E
:1023100046F2AB1030800020BDE8F09F00BF0A48B5
:102320000078401C0849087000BF00BF5046FEF707
:10233000D1FB00BF00BF00BF002704F05BFF834656
:1023400012E00000A80000205C0000202068D0F807
:1023500008905A4649464046FFF7ECF9781C87B288
:10236000B5F5807F00D002E020890028EEDC00BFB8
:1023700000BF00BF00BFFEF7A9FB824600BF00BF41
:10238000CB480078401ECA49087000BF00BF5046C5
:10239000FEF7A0FB00BF00BF00BF05F4004008B976
:1023A000FEF7AFFE002030803846B5E770B5044632
:1023B000002600BF00BFFEF789FB064600BF00BF36
:1023C000BC480068D0F8845000BF00BF3046FEF71C
:1023D00081FB00BF00BF00202080284670BD70B583
:1023E00004460E4615463434266500206070207081
:1023F000E560A078343C082816D2DFE800F0040538
:1024000008090706101100BF00BF00BF0DE000BFA4
:102410002046FFF781F9002084F8360005E000BF70
:10242000042084F8360000E000BF00BF2046FFF71C
:10243000E7F870BD2DE9F04F85B004468946924615
:102440009B46DDF838800020009000BF00BFFEF7FB
:102450003DFB009000BF00BFBAF1000F0AD0BAF1F7
:10246000010F0DD0BAF5004F05D06FF40040504475
:1024700060B906E000BF606940EA0900606114E0ED
:1024800000BF606920EA090060610EE000BF00BF84
:102490000098FEF71FFB00BF00BF45F62560A8F8B7
:1024A0000000002005B0BDE8F08F00BFC4F818B0F0
:1024B00004F1080001900198008958B900BF00BFDD
:1024C0000098FEF707FB00BF00BF0020A8F800003F
:1024D0006069E7E700BF76480078401C74490870DF
:1024E00000BF00BF0098FEF7F5FA00BF00BF00BFB5
:1024F00001980768BD687FE07868029095F88800C9
:1025000000F00F0003900398012821D002282ED05C
:10251000042802D0082836D10EE06069D5F8801072
:1025200000EA0106D5F88000B04204D15A4631468F
:102530002846FFF754FF59E06069D5F8801000EA9B
:10254000010626B15A4631462846FFF748FF4DE0BE
:10255000D5F88000616920EA0106D5F88000B04214
:1025600004D15A4631462846FFF739FF3EE0D5F8F8
:102570008000616920EA010626B15A4631462846A4
:10258000FFF72DFF32E000BF00BF00BFFEF79EFA4D
:10259000009000BF00BF46480078401E44490870C4
:1025A00008460078A0B944480088002809DD00BF2B
:1025B00000BF0098FEF78EFA00BF00BFFFF715FAC4
:1025C0000DE000BF00BF0098FEF784FA00BF06E0F0
:1025D00000BF00BF0098FEF77DFA00BF00BF00BF3C
:1025E00043F6FF20A8F8000000205BE700BF029F31
:1025F0000FB1BD6800E00025002D7FF47DAF00BF66
:1026000000BF00BFFEF762FA009000BF00BF28487D
:102610000078401E2649087000BF00BF0098FEF7F2
:1026200059FA00BF00BF00BF0AF4004008B9FEF726
:1026300068FD00BF00BFFEF749FA009000BF00BF71
:102640006069049000BF00BF0098FEF743FA00BF26
:1026500000BF0020A8F80000049823E72DE9FF47F9
:1026600005460E4617461C4604F0C4FD8146134835
:10267000007800280CDD00231A46294610488DE812
:10268000C002039400F020F8002004B0BDE8F087F9
:102690004B463A46314628460094FFF7CBFE80462B
:1026A0004046F2E70021074A118001807047000090
:1026B0005C000020A800002044000020380000201A
:1026C000464C4147500000202DE9F84F04460D4686
:1026D00016461F46DDE90BABDDF82890DDF83480A7
:1026E0000020009000BF00BFFEF7F0F9009000BF8F
:1026F00000BFE2480088E249098888423EDADF48A4
:102700000088401CDD490880DE480088098888422E
:1027100003DADA480088DB490880DB480068046097
:10272000D94800688560D8480068C660D648006807
:102730000782D5480068C0F81490D3480068A0F814
:1027400018A0D1480068C0F81CB0CF4800684068A5
:10275000CD4908600120CD490881CD480860486016
:10276000002001F01DF8CB48007818B1C948007866
:10277000C94908700020A8F8000008E0C748008890
:10278000401CC649088044F25360A8F8000000BF0E
:1027900000BF0098FEF79EF900BF00BFBDE8F88FAC
:1027A0003EB5BF4800680068BE4A811A904279D0A1
:1027B0000FDCBD49084400283ED0BC490844A8B1FC
:1027C000BB490844002860D0BA49084400286AD1AF
:1027D0003FE0B9480844002850D0B84908440028D0
:1027E00062D0B74908440028F1D110E002A8AC4DEE
:1027F00000902D68EB69AA4D2D682A8BA84D2D6895
:102800006969A74D2D68A868FFF714FE7AE002A950
:10281000A3480068C069A24DCDE900012D682B8B4B
:102820009F4D2D682A8A9E4D2D68E9689C4D2D6824
:10283000A86801F049FA65E0994B1B68DA69984B82
:102840001B68198B964B1B68986802AB01F010FD52
:1028500058E002A992480068C069914DCDE9000195
:102860002D682B8B8E4D2D682A8A8D4D2D68E96839
:102870008B4D2D68A86802F04FFC43E08849096839
:10288000886802A902F0D9FD3CE0854B1B68DA6933
:10289000834B1B68198B824B1B68986802AB02F054
:1028A000FEFF2FE007E02CE07D490968886802A957
:1028B00003F0F0FA26E07849097801EB4101734A08
:1028C00002EB8100FFF7B5F87548006802AB002104
:1028D000C2697C4802F0E3FF7B480068401E7A49E9
:1028E00008600846006858B978480068086004F035
:1028F00081FC044602AB22460021754802F0CFFF5E
:1029000000E000BF00BF3EBD002700BF4CE0002636
:1029100048E000BF00BFFEF7D9F8074600BF00BF80
:102920005648008888B900205849088108604860E6
:1029300000F046FF00BF00BF3846FEF7CBF800BFEF
:1029400000BFFEF7DEFB01262CE000BF00BF3846CB
:10295000FEF7C0F800BF00BF04F04CFC0546FFF7CF
:102960001FFF04F047FC441B5A480068A04201D2F4
:102970005848046000BF00BFFEF7A8F8074600BF34
:1029800000BF474800684068454908603B480088E8
:10299000401E3A49088000BF00BF3846FEF79AF84B
:1029A00000BF00BF002EB4D0B1E7F0B589B0054636
:1029B00000203A4908804848006820B944F2526033
:1029C000288009B0F0BD2E480088022803DA44F2BE
:1029D00054602880F5E700203E4908603E480468BE
:1029E0002646203600270CE03C4820600020A060EE
:1029F000E060208260612083666020342036781C8D
:102A000087B21F4800888742EEDB203C32480668C8
:102A100066601D480660224806600020174908804D
:102A2000184908802E48006818B944F2556028807B
:102A3000C7E72C4800682C490968884203D244F251
:102A400056602880BDE7032000210591CDE90705E8
:102A5000069124480068254A1268214B1B68CDE97D
:102A60000301CDE9013200910B46AFF2631220A1C0
:102A7000074801F0EAFF00BFA3E700004400002080
:102A8000BC740008460000203C000020B416002062
:102A9000F4150020560000205800002048000020B7
:102AA000400000205449434BADBAB2BE0DF90BFAB9
:102AB000F2F8F7FF0006F6FF00F7FDF700FFEFFF63
:102AC00003FE0FFE28180020A4000020A000002014
:102AD000DC1800204C000020B87400084E4F4E4512
:102AE000C4740008CC74000804750008C874000899
:102AF00075432F4F532D4949492049535220517551
:102B0000657565205461736B000000002DE9FC5F62
:102B10000446894615461E46DDF830A00020009088
:102B2000A8462F46701E80B201904FF0000B07E0C0
:102B30005744C8F80070B8460BF101001FFA80FB3B
:102B400001988345F4DB0020C8F8000000BF00BFF7
:102B500000BFFDF7BBFF009000BF00BF4A480078F0
:102B6000401C4949087000BF00BF0098FDF7B2FF44
:102B700000BF00BF00BF45482060C4F808906560F2
:102B8000E560A6826682A4F810A041480088401C37
:102B90003F49088000BF00BF00BFFDF797FF0090CE
:102BA00000BF00BF38480078401E3749087000BF9A
:102BB00000BF0098FDF78EFF00BF00BF00BF0021DF
:102BC0000D980180BDE8FC9F2DE9F04104460D46BB
:102BD000002700BF00BFFDF779FF074600BF00BF19
:102BE000A08A60B900BF00BF3846FDF773FF00BF81
:102BF00000BF45F2C26028800020BDE8F081E66891
:102C00003068E060A08A401EA08200BF00BF384646
:102C1000FDF760FF00BF00BF002028803046ECE7D2
:102C20002DE9F04104460D461646002700BF00BFBF
:102C3000FDF74CFF074600BF00BFA08A618A8842AB
:102C40000BDB00BF00BF3846FDF744FF00BF00BFED
:102C500045F2BA603080BDE8F081E0682860E56048
:102C6000A08A401CA08200BF00BF3846FDF732FF9B
:102C700000BF00BF0020308000BFECE70021044A05
:102C800011800180704700005C0000204D454D2000
:102C90005200002070B502467D4D28682968103129
:102CA0007C4D2D886D1EACB2002308E0016000252C
:102CB00045600581C560103010315D1CABB2A34288
:102CC000F4DB0025056045600581C560704D2D6809
:102CD000714E35606F4D2D88B5800025F5803581AA
:102CE000158070BD10B5014648894B89002B17DD52
:102CF0000A68694B1B681360674C4B682360234666
:102D0000DB884C891B1B644CE38023469B884C89E1
:102D10002344614CA38000234B818B810B604B606B
:102D200010BD0181002242818281026042607047B1
:102D3000F0B504460D46608940B90020288002B1F4
:102D4000106046F2925018800020F0BD61684E6815
:102D5000088928800AB1C8681060086860606068E7
:102D600018B900202060608102E06089401E608107
:102D7000494800680860484801608088401C464F08
:102D8000B8803846C088401EF88000201880304641
:102D9000DBE72DE9F0410D46DDE90674B0F80AC025
:102DA000B0F80880C44505DB46F2935CA4F800C087
:102DB000BDE8F081DFF8E0C0BCF804C0BCF1000F52
:102DC00004D145F21D7CA4F800C0F1E7DFF8C8C0CB
:102DD000DCF80010DFF8C080D1F800C0C8F800C0EF
:102DE000C446BCF804C0ACF1010CA8F804C0C44649
:102DF000BCF806C00CF1010CA8F806C0C446BCF82B
:102E000008C0B8F80680C44507DADFF88CC0BCF803
:102E100006C0DFF88480A8F808C0B0F80AC0BCF18A
:102E2000000F0AD1016041604FF0010CA0F80AC008
:102E30004FF0000CC1F800C017E003F0100CBCF11B
:102E4000000F07D10668316001604FF0000CC1F837
:102E500000C004E0D0F804C0C1F800C04160B0F880
:102E60000AC00CF1010CA0F80AC0B0F80CC0B0F810
:102E70000A80C44503DAB0F80AC0A0F80CC04D605F
:102E80000A81CF604FF0000CA4F800C000BF8FE7AC
:102E9000E8740008E0740008A81600202DE9F0414D
:102EA00004460D461646002700BF00BF00BFFDF7D1
:102EB0000DFE074600BF00BFFD480078401CFC49DE
:102EC000087000BF00BF3846FDF704FE00BF00BF1A
:102ED00000BFF84820606560002060616076E061B6
:102EE0001020207604F10800FEF79AFCF2480088D2
:102EF000401CF149088000BF00BF00BFFDF7E6FDA0
:102F0000074600BF00BFEA480078401EE849087045
:102F100000BF00BF3846FDF7DDFD00BF00BF00BFAA
:102F200000203080BDE8F08110B50446E348206001
:102F3000E3A06060002060616076E0611020207690
:102F400004F10800FEF76CFC10BD2DE9FE4F0546AC
:102F50008A4616460020009000BF00BF00BFFDF764
:102F6000B5FD009000BF00BFD1480078401CD0499B
:102F7000087000BF00BF0098FDF7ACFD00BF00BFA8
:102F800000BF05F10809B9F80870B846BAF1000F9A
:102F900003D0BAF1010F79D16BE0B8F1000F37D14E
:102FA000C5480088401EC44908802846FFF7BCFF7A
:102FB00000BF00BF00BFFDF789FD009000BF00BF4C
:102FC000BB480078401EBA49087008460078A0B98E
:102FD000BD480088002809DD00BF00BF0098FDF74C
:102FE00079FD00BF00BFFEF700FD0DE000BF00BF90
:102FF0000098FDF76FFD00BF06E000BF00BF00981E
:10300000FDF768FD00BF00BF00BF002030802FE04B
:1030100000BF00BF00BFFDF759FD009000BF00BF1B
:10302000A3480078401EA249087008460078A0B95D
:10303000A5480088002809DD00BF00BF0098FDF703
:1030400049FD00BF00BFFEF7D0FC0DE000BF00BF90
:103050000098FDF73FFD00BF06E000BF00BF0098ED
:10306000FDF738FD00BF00BF00BF47F25F103080A2
:10307000C8E06C69002C60D094F83700297E884243
:103080005BD094F83600082823D200E089E0DFE81E
:1030900000F00412181913141A1B2046FEF71CFA2C
:1030A000287E84F8370094F8370000F079FB20463A
:1030B000FEF7EDFA40E000BF00BF287E84F837003D
:1030C0003AE000BF00BF00BF297E2046FEF785FB27
:1030D00032E000BF00BF00BFFDF7F8FC009000BF6A
:1030E00000BF73480078401E714908700846007898
:1030F000A0B975480088002809DD00BF00BF00980E
:10310000FDF7E8FC00BF00BFFEF76FFC0DE000BF5D
:1031100000BF0098FDF7DEFC00BF06E000BF00BF67
:103120000098FDF7D7FC00BF00BF00BF46F62D603A
:1031300030800020BDE8FE8F00BF04F05BF80190F6
:103140000BE0D9F800B0DBF8080002902846DDE972
:103150000121FEF78CFB781E87B2002FF1D1564873
:103160000088401E544908802846FFF7DDFE00BF56
:1031700000BF00BFFDF7AAFC009000BF00BF4C4895
:103180000078401E4A49087000BF00BF0098FDF754
:10319000A1FC00BF00BF00BFFDF7B3FF00203080DF
:1031A00030E000BF00BF00BFFDF790FC009000BF03
:1031B00000BF3F480078401E3D490870084600782F
:1031C000A0B941480088002809DD00BF00BF009871
:1031D000FDF780FC00BF00BFFEF707FC0DE000BF5D
:1031E00000BF0098FDF776FC00BF06E000BF00BFFF
:1031F0000098FDF76FFC00BF00BF00BF45F62560DB
:10320000308000BF00BF404694E72DE9F04788B00A
:103210000546884691461C46109E4FF0000A0CB1A8
:103220000020206000BF00BFFDF750FC824600BFB9
:1032300000BF687EC0B925480068686123480068FF
:1032400090F837002876012068760CB1E869206094
:1032500000BF00BF5046FDF73DFC00BF00BF00208F
:10326000308008B0BDE8F08718496869096888426D
:1032700010D1687E401C68760CB1E869206000BF00
:1032800000BF5046FDF726FC00BF00BF45F282702C
:103290003080E6E709F40040D0B100BF00BF5046DF
:1032A000FDF718FC00BF00BF46F2B0103080D8E731
:1032B0005C0000204D555458540000204E4F4E45A0
:1032C0003F4D55544558000044000020A800002000
:1032D000FE48007800280ADD00BF00BF5046FDF719
:1032E000F9FB00BF00BF46F663503080B9E700BF6E
:1032F000F6480078401CF549087000BF00BF5046F2
:10330000FDF7E8FB00BF00BF00BF6F6997F837000B
:10331000EF49096891F83710884260DD97F8360068
:1033200008282AD2DFE800F004151E1F17162021F6
:103330003846FEF7D1F8E648006890F8370087F87D
:10334000370097F8370000F02BFA3846FEF782F97D
:1033500044E000BF00BFDE48006890F8370087F8FF
:1033600037003BE000BF00BF00BFD948006890F8BD
:1033700037103846FEF731FA30E000BF00BF00BF1B
:10338000FDF7A4FB824600BF00BFD0480078401E76
:10339000CE49087008460078A0B9CE4800880028B9
:1033A00009DD00BF00BF5046FDF794FB00BF00BF22
:1033B000FEF71BFB0DE000BF00BF5046FDF78AFB88
:1033C00000BF06E000BF00BF5046FDF783FB00BF13
:1033D00000BF00BF46F62D60308042E700BF434685
:1033E000042229466846FEF7BEF800BF00BF00BFB2
:1033F000FDF76CFB824600BF00BFB4480078401E5A
:10340000B249087000BF00BF5046FDF763FB00BF24
:1034100000BF00BFFDF775FE00BF00BFFDF756FB04
:10342000824600BF00BFAA48006890F8350030B15E
:1034300001280CD002281AD0032821D110E01CB199
:10344000A3480068006C2060002030801CE01CB1A4
:103450009F480068006C206046F2A910308013E09D
:103460000CB10020206047F2D92030800CE01CB164
:1034700097480068006C206045F6C250308003E039
:1034800046F62E60308000BF00BF00BF00BF504630
:10349000FDF720FB00BF00BF00BFE2E62DE9F05FB3
:1034A00080460D4616464FF0000A00BF00BFFDF7EC
:1034B0000DFB824600BF00BF08F10804208960B9F7
:1034C00000BF00BF5046FDF705FB00BF00BF46F23E
:1034D000AB1030800020BDE8F09F00BF7B48007833
:1034E000401C7A49087000BF00BF5046FDF7F2FA51
:1034F00000BF00BF00BF002703F07CFE83460DE045
:103500002068D0F808905A4649464046FEF712F91E
:10351000781C87B2B5F5807F00D002E020890028B2
:10352000EEDC00BF00BF00BF00BFFDF7CFFA824650
:1035300000BF00BF65480078401E6449087000BFA6
:1035400000BF5046FDF7C6FA00BF00BF00BF05F43C
:10355000004008B9FDF7D5FD002030803846BAE7B5
:103560002DE9F84F0446894615464FF0000A00BF82
:1035700000BFFDF7ABFA824600BF00BF5449606947
:10358000096888420BD000BF00BF5046FDF7A2FA81
:1035900000BF00BF45F281702880BDE8F88F00BFF2
:1035A0004A480078401C4949087000BF00BF504697
:1035B000FDF790FA00BF00BF00BF03F01BFE0746F7
:1035C000E761607E401E6076607E002830DD00BFCF
:1035D00000BF00BFFDF77AFA824600BF00BF3B483C
:1035E0000078401E3949087008460078A0B939486B
:1035F0000088002809DD00BF00BF5046FDF76AFAC9
:1036000000BF00BFFEF7F1F90DE000BF00BF50465C
:10361000FDF760FA00BF06E000BF00BF5046FDF7AF
:1036200059FA00BF00BF00BF45F283702880B4E79D
:1036300004F10808B8F8080090BB002060616076CB
:1036400000BF00BF00BFFDF741FA824600BF00BFC8
:103650001E480078401E1D49087008460078A0B931
:103660001C480088002809DD00BF00BF5046FDF758
:1036700031FA00BF00BFFEF7B8F90DE000BF00BF90
:103680005046FDF727FA00BF06E000BF00BF5046D6
:10369000FDF720FA00BF00BF00BF002028807CE7B4
:1036A000FFE70B48006890F83700217E88421FD062
:1036B00007480068FDF710FF207E0549096881F87A
:1036C00037000349096891F8370005E05C000020E5
:1036D000A80000204400002000F062F81E480068A6
:1036E000FDF7D5FF1C48006890F837001B490870AB
:1036F000D8F800008668666196F8370020760120C9
:10370000607600231A46314620460097FEF715F9E9
:1037100000BF00BF00BFFDF7D9F9824600BF00BF60
:103720000F480078401E0E49087000BF00BF504689
:10373000FDF7D0F900BF00BF00BF09F4004008B991
:10374000FDF7DFFC0020288000BF26E70021054AA6
:103750001180018070470000A80000205600002062
:103760005C00002054000020002004E000211C4ADE
:1037700042F82010401C0028F8D0704770B5002592
:10378000174C03E005F12000C5B2241D2068002875
:10379000F8D02068FDF7A5F92844C5B2284670BDC9
:1037A00030B5420900F01F030121C3F11F04A140FD
:1037B0000B4C54F822400C43094D45F8224030BDD3
:1037C00030B5420900F01F030121C3F11F04A140DD
:1037D000034C54F822408C43014D45F8224030BD43
:1037E000300000202DE9F04104460D4616461F46E4
:1037F0004FF0000800BF00BF00BFFDF767F980462B
:1038000000BF00BFF8480078401CF749087000BFAF
:1038100000BF4046FDF75EF900BF00BF00BFF348A0
:1038200020606560314604F11400FFF77AFA04F174
:103830000800FDF7F5FFEE480088401CEC490880C1
:1038400000BF00BF00BFFDF741F9804600BF00BFC9
:10385000E5480078401EE449087000BF00BF4046BC
:10386000FDF738F900BF00BF00BF00203880BDE879
:10387000F08110B5044604F11400FFF733FADD4877
:103880002060DDA06060002104F11400FFF749FA18
:1038900004F10800FDF7C4FF10BD2DE9FC5F804670
:1038A000894614460020009000BF00BFFDF70EF9C6
:1038B000009000BF00BF08F108073D892E46B9F10E
:1038C000000F03D0B9F1010F5FD11DE08EB9C848D8
:1038D0000088401EC64908804046FFF7CAFF00BF67
:1038E00000BF0098FDF7F6F800BF00BF0020208061
:1038F00009E000BF00BF0098FDF7ECF800BF00BF73
:1039000047F25F1020804BE000BFB7480078401CB2
:10391000B549087000BF00BF0098FDF7DBF800BF95
:1039200000BF00BF03F066FC01900AE0D7F800A0DA
:10393000DAF808B059464046019AFDF798FF681E2C
:1039400085B2002DF2D1AA480088401EA8490880FF
:103950004046FFF78EFF00BF00BF00BFFDF7B6F87F
:10396000009000BF00BFA0480078401E9E4908702C
:1039700000BF00BF0098FDF7ADF800BF00BF00BF5B
:10398000FDF7BFFB002020800AE000BF00BF0098C9
:10399000FDF7A0F800BF00BF45F62560208000BFFE
:1039A00000BF3046BDE8FC9F2DE9F04104460D46BE
:1039B000002600BF00BF00BFFDF788F8064600BF25
:1039C00000BF89480078401C8749087000BF00BFCD
:1039D0003046FDF77FF800BF00BF00BF04F11400C0
:1039E000FFF780F9074600BF00BF00BFFDF76EF884
:1039F000064600BF00BF7C480078401E7A49087028
:103A000008460078A0B97D480088002809DD00BF7D
:103A100000BF3046FDF75EF800BF00BFFDF7E5FFD1
:103A20000DE000BF00BF3046FDF754F800BF06E0D0
:103A300000BF00BF3046FDF74DF800BF00BF00BF1C
:103A4000002028803846BDE8F0812DE9F04F89B08C
:103A50000746884691461E46DDE912454FF0000BA9
:103A60000CB10020206000BF00BFFDF72FF8834697
:103A700000BF00BF2B462246314607F11400FFF776
:103A800057F98246288850B900BF00BF5846FDF755
:103A900021F800BF00BF504609B0BDE8F08F09F41F
:103AA000004058B100BF00BF5846FDF713F800BFF3
:103AB00000BF46F2B01028800020EDE74A480078A9
:103AC00000280BDD00BF00BF5846FDF703F800BF1C
:103AD00000BF46F6635028800020DDE700BF424863
:103AE0000078401C4049087000BF00BF5846FCF7F2
:103AF000F1FF00BF00BF00BF43460522394601A8C1
:103B0000FDF731FD00BF00BF00BFFCF7DFFF8346BC
:103B100000BF00BF34480078401E3349087000BF22
:103B200000BF5846FCF7D6FF00BF00BF00BFFDF73F
:103B3000E8FA00BF00BFFCF7C9FF834600BF00BF23
:103B40002F48006890F8350030B1012815D00228C0
:103B50002AD0032835D11DE029480068D0F85CA0A0
:103B600027480068B0F8600030801CB12448006825
:103B7000006C2060002028802BE04FF0000A00201D
:103B800030801CB11E480068006C206046F2A9100D
:103B900028801EE04FF0000A0020308004B1206031
:103BA00047F2D920288014E04FF0000A002030802E
:103BB0001CB113480068006C206045F6C250288094
:103BC00007E04FF0000A0020308046F62E60288083
:103BD00000BF00BF00BF00BF5846FCF77BFF00BF1F
:103BE00000BF504658E700005C0000205155455585
:103BF0005A0000204E4F4E453F5100004400002027
:103C0000A80000202DE9F05F80460D4616464FF0D3
:103C1000000A00BF00BFFCF759FF824600BF00BF8B
:103C200008F10804208960B900BF00BF5046FCF7C6
:103C300051FF00BF00BF46F2AB1030800020BDE84E
:103C4000F09F00BF87480078401C8649087000BF7D
:103C500000BF5046FCF73EFF00BF00BF00BF00277B
:103C600003F0C8FA83460DE02068D0F808905A4661
:103C700049464046FDF75EFD781C87B2B5F5807F6A
:103C800000D002E020890028EEDC00BF00BF00BFAA
:103C900000BFFCF71BFF824600BF00BF71480078E1
:103CA000401E7049087000BF00BF5046FCF712FF6D
:103CB00000BF00BF00BF05F4004008B9FDF721FABE
:103CC000002030803846BAE72DE9F04F85B007462E
:103CD0008A4693461C460020029000BF00BF00BFEA
:103CE000FCF7F4FE029000BF00BF5E480078401C65
:103CF0005C49087000BF00BF0298FCF7EBFE00BFF4
:103D000000BF00BF07F108063089002842D104F047
:103D1000100010B94FF0000801E04FF01008DDE985
:103D20000E0143465A46CDE90001514607F1140001
:103D3000FFF72FF800BF00BF00BFFCF7C7FE0290DF
:103D400000BF00BF47480078401E4649087008463B
:103D50000078A0B944480088002809DD00BF00BFF2
:103D60000298FCF7B7FE00BF00BFFDF73EFE0DE076
:103D700000BF00BF0298FCF7ADFE00BF06E000BF29
:103D800000BF0298FCF7A6FE00BF00BF00BF05B051
:103D9000BDE8F08F04F4007008B1358900E001251A
:103DA000D6F8009011E0D9F808000390D9F8040083
:103DB00004900E985B465246009038460399FDF7F2
:103DC000BCFDDDF81090681E85B2002DEBD100BF60
:103DD00000BF00BFFCF77AFE029000BF00BF214881
:103DE0000078401E1F49087000BF00BF0298FCF712
:103DF00071FE00BF00BF00BF04F4004008B9FDF72A
:103E000080F900210F98018000BFC0E72DE9FF472E
:103E100004460D4616461F46DDF8308003F0EAF9E9
:103E200081461248007800280CDD002033462A46DF
:103E300021468DE88102CDF80C800D48FEF744FC48
:103E4000BDE8FF873B46324629462046CDE900982B
:103E5000FFF73AFF00BFF3E70021064A1180018017
:103E6000704700005C000020440000203800002063
:103E7000515545555A0000202DE9F04104460D46A4
:103E800016461F464FF0000800BF00BF00BFFCF7FA
:103E90001DFE804600BF00BFFE480078401CFD4963
:103EA000087000BF00BF4046FCF714FE00BF00BF13
:103EB00000BFF948206066610020A061656004F1E0
:103EC0000800FDF7ADFCF5480088401CF349088068
:103ED00000BF00BF00BFFCF7F9FD804600BF00BF78
:103EE000EC480078401EEB49087000BF00BF404618
:103EF000FCF7F0FD00BF00BF00BF00203880BDE828
:103F0000F08110B50446E648206000206061A061A1
:103F1000E4A0606004F10800FDF782FC10BD2DE90B
:103F2000FC5F8046894614460020009000BF00BF19
:103F3000FCF7CCFD009000BF00BF08F108073D89E9
:103F40002E46B9F1000F03D0B9F1010F5FD11DE08A
:103F50008EB9D2480088401ED04908804046FFF7FD
:103F6000D0FF00BF00BF0098FCF7B4FD00BF00BF4A
:103F70000020208009E000BF00BF0098FCF7AAFDE8
:103F800000BF00BF47F25F1020804BE000BFC14878
:103F90000078401CBF49087000BF00BF0098FCF7C4
:103FA00099FD00BF00BF00BF03F024F901900AE0B3
:103FB000D7F800A0DAF808B059464046019AFDF754
:103FC00056FC681E85B2002DF2D1B4480088401E10
:103FD000B24908804046FFF794FF00BF00BF00BF12
:103FE000FCF774FD009000BF00BFAA480078401E97
:103FF000A849087000BF00BF0098FCF76BFD00BF28
:1040000000BF00BFFDF77DF8002020800AE000BF60
:1040100000BF0098FCF75EFD00BF00BF45F62560BD
:10402000208000BF00BF3046BDE8FC9F2DE9F0476F
:1040300088B00546884691461C46109E4FF0000AFF
:104040000CB10020206000BF00BFFCF73FFD82469E
:1040500000BF00BF686998B16869401E68610CB113
:10406000A86920606F6900BF00BF5046FCF732FDB1
:1040700000BF00BF00203080384608B0BDE8F087A0
:1040800009F4004060B16F6900BF00BF5046FCF703
:1040900021FD00BF00BF46F2B01030803846ECE78B
:1040A0007C48007800280BDD00BF00BF5046FCF7BD
:1040B00011FD00BF00BF46F6635030800020DCE7F2
:1040C00000BF74480078401C7249087000BF00BFF0
:1040D0005046FCF7FFFC00BF00BF00BF434606226E
:1040E00029466846FDF73FFA00BF00BF00BFFCF756
:1040F000EDFC824600BF00BF66480078401E65495F
:10410000087000BF00BF5046FCF7E4FC00BF00BFD2
:1041100000BFFCF7F6FF00BF00BFFCF7D7FC8246EC
:1041200000BF00BF6148006890F8350030B1012839
:104130000CD002281AD0032821D110E01CB15B4812
:104140000068006C20600020308024E01CB15748DB
:104150000068006C206046F2A91030801BE00CB1B2
:104160000020206047F2D920308014E01CB14F4875
:104170000068006C206045F6C25030800BE046F6C7
:104180002E60308000BF00BF5046FCF7A3FC00BF8C
:1041900000BF002071E700BF6F6900BF00BF50463D
:1041A000FCF798FC00BF00BF384666E72DE9F05FDA
:1041B00080460D4616464FF0000A00BF00BFFCF7D0
:1041C00085FC824600BF00BF08F10804208960B961
:1041D00000BF00BF5046FCF77DFC00BF00BF46F2A9
:1041E000AB1030800020BDE8F09F00BF2948007868
:1041F000401C2849087000BF00BF5046FCF76AFC0D
:1042000000BF00BF00BF002702F0F4FF83460DE0AF
:104210002068D0F808905A4649464046FDF78AFA89
:10422000781C87B2B5F5807F00D002E02089002895
:10423000EEDC00BF00BF00BF00BFFCF747FC8246BA
:1042400000BF00BF13480078401E1249087000BF2D
:1042500000BF5046FCF73EFC00BF00BF00BF05F4A6
:10426000004008B9FCF74DFF002030803846BAE71F
:104270002DE9FF5F0446884691461D4600200190C7
:1042800000BF00BFFCF722FC019000BF00BF04F19B
:1042900008070DE05C00002053454D4166000020FA
:1042A0004E4F4E453F53454D00000000A8000020F2
:1042B000388900284FD10420012804D0022814D0C6
:1042C000042834D123E06069FF280DD100BF00BF6E
:1042D0000198FCF7FFFB00BF00BF46F6C5502880E1
:1042E000002004B0BDE8F09F22E04FF6FF71606946
:1042F00088420BD100BF00BF0198FCF7EBFB00BF69
:1043000000BF46F6C55028800020EAE710E060694B
:10431000401C58B900BF00BF0198FCF7DBFB00BF91
:1043200000BF46F6C55028800020DAE700E000BF55
:1043300000BF6069401C6061D4F814A0C4F81890F4
:1043400000BF00BF0198FCF7C5FB00BF00BF002005
:1043500028805046C5E700BF4B480078401C4A49BA
:10436000087000BF00BF0198FCF7B4FB00BF00BF9E
:1043700000BF08F4007008B13E8900E00126D7F8BC
:1043800000B011E0DBF808000290DBF804000390B5
:1043900000231A46CDF8009020460299FDF7CDFA89
:1043A000DDF80CB0701E86B2002EEBD1D4F814A04C
:1043B00000BF00BF00BFFCF789FB019000BF00BF3A
:1043C00031480078401E3049087000BF00BF019896
:1043D000FCF780FB00BF00BF00BF08F4004008B935
:1043E000FCF78FFE0020288050467AE72DE9FF4138
:1043F00005460E46144602F0FDFE074623480078A7
:1044000000280DDD00200346024629468DE8C10044
:1044100003941F48FEF758F9002004B0BDE8F0816E
:1044200023463A4631462846FFF722FF804640465B
:10443000F3E72DE9F04104460D4616464FF000081B
:104440000020308000BF00BFFCF740FB804600BF6B
:1044500000BF606908B1656108E004F108073889A8
:1044600008B9656102E047F25F10308000BF00BF0D
:104470004046FCF72FFB00BF00BFBDE8F0810021E4
:10448000044A1180018070475C0000203800002041
:1044900053454D416600002070B50446002500BF1D
:1044A00000BFFCF713FB054600BF00BF0020B94961
:1044B0000860B9490880B9490880B9490860B94914
:1044C0000860B9490860B949088100BF00BF2846A3
:1044D000FCF700FB00BF00BF02F05FF802F0D1FD67
:1044E0000020208070BDF8B5044600266946B0481B
:1044F00001F074FDBDF8000018B1BDF80000208087
:10450000F8BD6A460021022002F05AF8BDF800000A
:1045100018B1BDF800002080F2E700BF00BFFCF733
:10452000D5FA064600BF00BF0020A249086000BFC0
:1045300000BF3046FCF7CEFA00BF00BF00259E4802
:1045400000689E490968884205D99B4800689B49D4
:104550000968B0FBF1F525B9974800680A21B0FB5E
:10456000F1F56A460021284602F02AF8694690488B
:1045700001F00EF8BDF8000018B1BDF80000208071
:10458000BEE700BF00BFFCF7A1FA064600BF00BFB0
:104590000020834908608748006889490860012035
:1045A0008849087000BF00BF3046FCF793FA00BF8F
:1045B00000BF0020208000BFA2E708B54FF0000A2E
:1045C00000BF06E07D49096848006A46002101F005
:1045D000F7FF7C4800780128F4D16846FFF75CFFBC
:1045E00000247548006875490968884205D97248F1
:1045F000006872490968B0FBF1F424B96E4800689C
:104600000A21B0FBF1F47FE002F0F4FD054600BFA3
:1046100000BFFCF75BFA824600BF00BF6548006838
:104620006949086000206349086000BF00BF504628
:10463000FCF750FA00BF00BF614800686249096892
:10464000884243D95E4800686049884204D242F2F9
:1046500010784FF0010920E0594800685C49884211
:1046600004D24FF47A784FF00A0916E054480068F3
:104670005849884203D24FF06408C1460DE05048C3
:1046800000685549884204D24FF00A084FF47A79FD
:1046900003E04FF0010842F2107949480068B0FB8E
:1046A000F9F74948006808FB00F0B0FBF7F042F268
:1046B0001071081A494908803848008809888842DA
:1046C00008DA464800883549088003E042F2107055
:1046D00042490880FCF70AFB41480078012805D1CF
:1046E00000203F4908706846FFF7D6FE02F082FDC1
:1046F000461B2B480068B04201D2294806606A4632
:104700000021204601F05CFF7EE710B58AB0044628
:104710000020284908602C49086029490860294977
:1047200008702F4908702F48006820B946F62B60A2
:1047300020800AB010BD2C4800682C4909688842C6
:1047400003D246F62C602080F3E7294800780F2832
:1047500003D346F62A602080EBE703200021059171
:10476000CDE90704069108461F490968214A1268E5
:104770001C4B1B68CDE90132CDE903101C480078C1
:104780000023AFF2C9121CA10090204800F05DF98F
:1047900000BFCEE74C000020460000206C00002047
:1047A000800000209000002098000020A816002023
:1047B000DC1800207000002008750008F074000864
:1047C000740000207C00002078000020801A060081
:1047D00000093D00005A62020084D7176A000020D9
:1047E00068000020F4740008FC74000804750008D8
:1047F000EC740008F874000875432F4F532D494995
:10480000492053746174205461736B007417002045
:104810002DE9F04104460D4616464FF0000825B933
:1048200046F273203080BDE8F0810F2D03D346F2AD
:1048300073203080F7E78CB900BF00BFFCF746F962
:10484000804600BF00BFF948046800BF00BF404673
:10485000FCF740F900BF00BF012700E0002700BFC0
:1048600000BF00BFFCF732F9804600BF00BFF04830
:104870000078401CEE49087000BF00BF4046FCF7BE
:1048800029F900BF00BF00BF94F8360008283AD2CB
:10489000DFE800F004171C1D18191E1F2046FCF746
:1048A0001BFE84F8375094F83700FEF779FF012F8C
:1048B00003D12046FCF7CEFE02E02046FCF7E7FEDF
:1048C00052E000BF00BF84F837504DE000BF00BF8A
:1048D00000BF94F83400082812D2DFE800F0110677
:1048E000040A090B0C0500BF00BF84F8375008E02C
:1048F00000BF00BF00BF29462046FCF76EFF00E066
:1049000000BF00BF30E000BF00BF00BFFCF7DEF813
:10491000804600BF00BFC6480078401EC4490870EA
:1049200008460078A0B9C3480088002809DD00BF08
:1049300000BF4046FCF7CEF800BF00BFFDF755F8BA
:104940000DE000BF00BF4046FCF7C4F800BF06E022
:1049500000BF00BF4046FCF7BDF800BF00BF00BF6E
:1049600046F62D6030805EE700BF00BF00BF00BF8D
:10497000FCF7ACF8804600BF00BFAD480078401E91
:10498000AB49087000BF00BF4046FCF7A3F800BF6A
:1049900000BF00BFFCF7B5FB0020308000BF42E73E
:1049A00070B5044600202060A0606060E060206177
:1049B0006061A061E061A0A0206200206062A0624E
:1049C000E0622063E0872064E065A4F860000021D5
:1049D00004F16400FEF7A5F9002044F8740F60604C
:1049E000E060A0822061743C002506E0002104F113
:1049F0007C0040F82510681CC5B2002DF6D00020C0
:104A00003434206120676067606084F85600E06796
:104A1000A06720814FF0004060610020A061E0614C
:104A200020626062A4F85800A4F85A00E06520668D
:104A300002F0E0FB064666660020A066207060700B
:104A4000A0701020E070343C70BD2DE9FF4F85B0A0
:104A500004469146DDE9196A139D002003901298DF
:104A600048B97748844206D046F27320AAF800007D
:104A700009B0BDE8F08F12980F2807D17148844221
:104A800004D046F27320AAF80000F1E72046FFF7B1
:104A900087FF0020AAF8000006F0010080B106F0B0
:104AA000020068B1A8464FF0000B06E00020C8F8ED
:104AB000000008F104080BF1010B15988345F5D3AC
:104AC000149805EB800004901598CDE900062A465D
:104AD0004846049B0899FCF70DF98046C4F82890D5
:104AE0000898E06206982062129884F83700C4F8AB
:104AF00000800498A06017986065179818B952480C
:104B00000068A06501E01798A0651898606065626C
:104B10001598A063A687002706E0002104F17C0019
:104B200040F82710781CC7B2002FF6D004F16400BB
:104B30001699FEF7F6F82046FCF7D9F800BF00BF3B
:104B400000BFFBF7C3FF039000BF00BF38480078E9
:104B5000401C3749087000BF00BF0398FBF7BAFF3D
:104B600000BF00BF00BF94F83700FEF719FE2046D3
:104B7000FCF78DFD35480088401C344908803448D6
:104B8000007801282DD000BF00BF00BFFBF79EFFBB
:104B9000039000BF00BF26480078401E24490870DB
:104BA00008460078A0B923480088002809DD00BF26
:104BB00000BF0398FBF78EFF00BF00BFFCF715FF97
:104BC0000DE000BF00BF0398FBF784FF00BF06E0C5
:104BD00000BF00BF0398FBF77DFF00BF00BF00BF11
:104BE00046E700BF00BF00BFFBF770FF039000BFA8
:104BF00000BF0F480078401E0D49087000BF00BF7D
:104C00000398FBF767FF00BF00BF00BFFCF779FA0E
:104C100000BF2DE770B504460D46002609488442C2
:104C200018D147F24C10288070BD0000A800002069
:104C30005C000020440000203F5461736B000000C2
:104C4000F41500204015002060000020880000209E
:104C500039000020FE48844203D147F24D102880DD
:104C6000E2E77CB900BF00BFFBF730FF064600BF9C
:104C700000BFF848046800BF00BF3046FBF72AFFBA
:104C800000BF00BF00BF00BF00BFFBF71FFF06460D
:104C900000BF00BFF0480078401CEF49087000BF1B
:104CA00000BF3046FBF716FF00BF00BF00BF94F8FF
:104CB000360008282DD2DFE800F004090E10080A9B
:104CC0000F112046FCF708FC54E053E000BF2046DB
:104CD00001F0F8F94EE000BF00BF00BF204601F030
:104CE000F1F994F83400082810D2DFE800F0040746
:104CF0000508090A0B0600BF00BF08E000BF00BF9F
:104D000000BF00BF2046FCF77BFC00E000BF00BFF7
:104D100030E000BF00BF00BFFBF7D8FE064600BF73
:104D200000BFCD480078401ECB4908700846007887
:104D3000A0B9CA480088002809DD00BF00BF30467E
:104D4000FBF7C8FE00BF00BFFCF74FFE0DE000BF41
:104D500000BF3046FBF7BEFE00BF06E000BF00BF4D
:104D60003046FBF7B7FE00BF00BF00BF46F62D6020
:104D7000288059E700BF04F16400FDF7B3FF204627
:104D8000FBF7B6FFB6480088401EB54908802046AC
:104D9000FFF706FEFF2084F8360000BF00BF00BF0B
:104DA000FBF794FE064600BF00BFAB480078401EEC
:104DB000A949087000BF00BF3046FBF78BFE00BF5B
:104DC00000BF00BF00202880FCF79BF900BF2BE745
:104DD0002DE9F04104460D4600267CB900BF00BF16
:104DE000FBF774FE064600BF00BF9A48046800BF88
:104DF00000BF3046FBF76EFE00BF00BF00BF00BF24
:104E000000BFFBF763FE064600BF00BF9248007874
:104E1000401C9149087000BF00BF3046FBF75AFEA6
:104E200000BF00BF00BF04F16400FDF75BFF074651
:104E300000BF00BF00BFFBF749FE064600BF00BF32
:104E400085480078401E8449087008460078A0B95B
:104E500082480088002809DD00BF00BF3046FBF70C
:104E600039FE00BF00BFFCF7C0FD0DE000BF00BF72
:104E70003046FBF72FFE00BF06E000BF00BF304604
:104E8000FBF728FE00BF00BF00BF00202880384687
:104E9000BDE8F0812DE9F05F0746884616461C46BE
:104EA0000A9D4FF0000B0CB10020206000BF00BF36
:104EB000FBF70CFE834600BF00BF6648006800F1A8
:104EC00064092B46224631464846FDF731FF8246AB
:104ED0002888F8B9A4B102F08DF92168401A5D491B
:104EE000096848675B480068806F5A490968496FDC
:104EF000884205D257480068406F5649096888675C
:104F000000BF00BF5846FBF7E5FD00BF00BF50469D
:104F1000BDE8F09F08F4004058B146F2B010288078
:104F200000BF00BF5846FBF7D5FD00BF00BF002003
:104F3000EEE74948007800280BDD00BF00BF584667
:104F4000FBF7C8FD00BF00BF46F663502880002075
:104F5000DEE700BF40480078401C3F49087000BFB2
:104F600000BF5846FBF7B6FD00BF00BF00BF3B4681
:104F7000022200210846FCF7F6FA00BF00BF00BF7E
:104F8000FBF7A4FD834600BF00BF33480078401EF6
:104F90003149087000BF00BF5846FBF79BFD00BFBA
:104FA00000BF00BFFCF7ADF800BF00BFFBF78EFDF0
:104FB000834600BF00BF2748006890F8350020B145
:104FC00001282AD0032832D132E022480068D0F8E4
:104FD0005CA020480068B0F860003080D4B11D4863
:104FE0000068006C206002F005F91A490968096C34
:104FF000401A18490968486716480068806F1549C3
:105000000968496F884205D212480068406F11490B
:10501000096888670020288017E04FF0000A002008
:10502000308004B1206046F2A91028800DE000BF56
:105030004FF0000A002030801CB106480068006C68
:10504000206047F2D920288000BF00BF00BF09E0E0
:10505000F4150020A80000205C000020440000207F
:105060008800002000BF5846FBF734FD00BF00BF9A
:1050700050464DE72DE9F04104460E4615460027FF
:1050800000BF00BFFBF722FD074600BF00BF94F83A
:10509000340002280CD000BF00BF3846FBF71AFDD1
:1050A00000BF00BF46F2AB1028800020BDE8F081B1
:1050B00000BFFE480078401CFC49087000BF00BFDC
:1050C0003846FBF707FD00BF00BF00BF02F092F8B3
:1050D0008046424621460020FCF72CFB00BF00BF63
:1050E00000BFFBF7F3FC074600BF00BFEF480078A6
:1050F000401EEE49087000BF00BF3846FBF7EAFCCF
:1051000000BF00BF00BF06F4004008B9FBF7F9FF7D
:10511000002028800120C9E72DE9FC4704460F46FE
:1051200090469946DDE90A654FF0000A00BF00BFCE
:1051300000BFFBF7CBFC824600BF00BFDB48007816
:10514000401CDA49087000BF00BF5046FBF7C2FCA4
:1051500000BF00BF00BF0CB9D548046800202880FC
:1051600094F8360008287DD2DFE800F004053E3FC1
:105170000607404100BF00BF00BF4B4642463946CC
:1051800004F16400CDE90065FDF703FE00BF00BF38
:1051900000BFFBF79BFC824600BF00BFC3480078FE
:1051A000401EC249087008460078A0B9C14800886E
:1051B000002809DD00BF00BF5046FBF78BFC00BF95
:1051C00000BFFCF712FC0DE000BF00BF5046FBF72C
:1051D00081FC00BF06E000BF00BF5046FBF77AFC31
:1051E00000BF00BF00BF93E000BF00BF00BF94F846
:1051F0003400022821D143463A4621460020009639
:10520000FCF79BFB00BF00BF00BFFBF75FFC8246C3
:1052100000BF00BFA5480078401EA449087000BF29
:1052200000BF5046FBF756FC00BF00BF00BF09F4AB
:10523000004090BBFBF765FF38E04B4642463946DD
:1052400004F16400CDE90065FDF7A3FD00BF00BFD8
:1052500000BFFBF73BFC824600BF00BF93480078CD
:10526000401E00E023E09149087008460078A8B984
:1052700090480088002809DD00BF00BF5046FBF7BA
:1052800029FC00BF00BFFCF7B0FB0EE000BF00BF71
:105290005046FBF71FFC00BF07E007E000BF00BF60
:1052A0005046FBF717FC00BF00BF00BF30E000BF57
:1052B00000BF00BFFBF70AFC824600BF00BF7B486F
:1052C0000078401E7949087008460078A0B97948EE
:1052D0000088002809DD00BF00BF5046FBF7FAFB3D
:1052E00000BF00BFFCF781FB0DE000BF00BF5046D0
:1052F000FBF7F0FB00BF06E000BF00BF5046FBF726
:10530000E9FB00BF00BF00BF46F62D60288000BF4C
:1053100000BFBDE8FC872DE9FF4704460D46164651
:105320001F46DDF8308001F065FF81466248007855
:1053300000280CDD002033462A4621468DE88102F4
:10534000CDF80C805D48FDF7BFF9BDE8FF873B460F
:10535000324629462046CDE90098FFF7DDFE00BF22
:10536000F3E72DE9F04104460D4616464FF00008DC
:1053700000BF00BFFBF7AAFB804600BF00BF0CB90F
:105380004B48046804F17C0050F8257000BF00BF52
:105390004046FBF79FFB00BF00BF0020308038462F
:1053A000BDE8F08170B50446002600BF00BFFBF7E2
:1053B0008DFB064600BF00BF4148007858B145F656
:1053C000DA10208000BF00BF3046FBF783FB00BF30
:1053D00000BF012070BD3A4805780078401C38496C
:1053E000087000BF00BF3046FBF774FB00BF00BF72
:1053F000002020802846EDE72DE9F04104460D46C7
:1054000017461E464FF0000800BF00BFFBF75EFBCB
:10541000804600BF00BF0CB92548046804F17C0039
:1054200040F8257000BF00BF4046FBF753FB00BFAC
:1054300000BF00203080BDE8F08170B504460D4605
:10544000002600BF00BFFBF741FB064600BF00BFC0
:105450000020288094F83600082876D2DFE800F093
:10546000040506071251637600BF00BF00BF00BFEE
:1054700000BF3046FBF72EFB00BF00BF47F25310C2
:10548000288080E000BF09480078401C0749087068
:1054900000BF00BF3046FBF71DFB00BF00BF00BFD1
:1054A00014F88A0F401E20700CE000005C00002001
:1054B000A80000204400002038000020544D53472D
:1054C0008A00002014F88A0928B9002084F83600E0
:1054D0002046FCF721F900BF00BF00BFFBF7F6FA3A
:1054E000064600BF00BFFE480078401EFC49087019
:1054F00000BF00BF3046FBF7EDFA00BF00BF00BFA2
:1055000041E014F88A0F401E207014F88A0910B97F
:10551000012084F8360000BF00BF3046FBF7DAFAFE
:1055200000BF00BF2FE014F88A0F401E207014F84F
:105530008A0910B9022084F8360000BF00BF304647
:10554000FBF7C8FA00BF00BF1DE011E014F88A0F96
:10555000401E207014F88A0910B9032084F8360020
:1055600000BF00BF3046FBF7B5FA00BF00BF0AE03E
:1055700000BF00BF3046FBF7ADFA00BF00BF46F6E4
:105580002D60288070BD00BFFBF7BBFD00BFF9E7B1
:105590007FB504460D46002600BF00BFFBF796FA14
:1055A000064600BF00BF00BF00BF3046FBF792FABF
:1055B00000BF00BFCB48007800280BDD0020009022
:1055C0000190034602462146CDE90205C648FDF793
:1055D0007BF87FBD29462046FFF72FFF00BFF8E785
:1055E0002DE9F0470746884614461D464FF000094E
:1055F0000CB10020206000BF00BFFBF767FA8146B6
:1056000000BF00BFB9480068406CB0B3B74800683D
:10561000406C401EB54909684864B4480068466C4F
:105620001CB1B2480068006C206001F0E3FDAF4996
:105630000968096C401AAD490968C1F8A400AB4873
:105640000068D0F8A800A9490968D1F8A4108842D8
:1056500007D2A6480068D0F8A400A4490968C1F898
:10566000A80000BF00BF4846FBF734FA00BF00BFE8
:10567000002028803046BDE8F087FFE708F40040AE
:1056800058B100BF00BF4846FBF724FA00BF00BF77
:1056900046F2B01028800020EDE7914800780028FD
:1056A0000BDD00BF00BF4846FBF714FA00BF00BF88
:1056B00046F6635028800020DDE700BF8848007868
:1056C000401C8749087000BF00BF4846FBF702FA3C
:1056D00000BF00BF00BF3B46072200210846FBF782
:1056E00042FF00BF00BF00BFFBF7F0F9814600BFDB
:1056F00000BF7B480078401E7949087000BF00BF9A
:105700004846FBF7E7F900BF00BF00BFFBF7F9FC15
:1057100000BF00BFFBF7DAF9814600BF00BF734846
:10572000006890F8350020B1012826D0032834D134
:105730002CE0FCB16D480068006C206001F05AFD5F
:105740006A490968096C401A68490968C1F8A400E7
:1057500066480068D0F8A80064490968D1F8A41028
:10576000884207D261480068D0F8A4005F49096800
:10577000C1F8A8000020288013E01CB15B48006835
:10578000006C206046F2A91028800AE00CB10020CD
:10579000206047F2D920288003E046F62E6028805A
:1057A00000BF00BF51480068466C00BF00BF4846BC
:1057B000FBF790F900BF00BF30465CE72DE9F041F0
:1057C00004460E461546002700BF00BFFBF77EF9D2
:1057D000074600BF00BF1CB14448006884420CD19A
:1057E00000BF00BF3846FBF775F900BF00BF46F2A7
:1057F000AC1028800020BDE8F08194F83400072820
:105800000BD000BF00BF3846FBF764F900BF00BFF4
:1058100046F2AB1028800020EDE700BF00BF3846FD
:10582000FBF758F900BF00BF00BF00BF00BFFBF788
:105830004DF9074600BF00BF29480078401C2849A1
:10584000087000BF00BF3846FBF744F900BF00BF37
:1058500000BF01F0CFFC8046424621460020FBF706
:1058600069FF00BF00BF00BFFBF730F9074600BF6C
:1058700000BF1B480078401E1949087000BF00BFD8
:105880003846FBF727F900BF00BF00BF06F4004011
:1058900008B9FBF736FC002028800120ABE72DE992
:1058A000F8430446884617461D464FF0000900BFDE
:1058B00000BF00BFFBF70AF9814600BF00BF0848E0
:1058C0000078401C0649087000BF00BF4846FBF73F
:1058D00001F900BF00BF00BF0CB90448046807E02D
:1058E0005C0000203800002054524553A8000020DE
:1058F00027640020288094F83600082871D2DFE859
:1059000000F00405EBEC0607EDEE00BF00BF00BFA2
:105910000420012804D0022839D004286FD170E077
:10592000606CFF2832D100BF00BF00BFFBF7CEF88C
:10593000814600BF00BFFE480078401EFC49087049
:1059400008460078A0B9FB480088002809DD00BFA0
:1059500000BF4846FBF7BEF800BF00BFFCF745F8A4
:105960000DE000BF00BF4846FBF7B4F800BF06E0FB
:1059700000BF00BF4846FBF7ADF800BF00BF00BF47
:1059800046F6C55028800020BDE8F88371E04FF648
:10599000FF71606C884233D100BF00BF00BFFBF7CE
:1059A00095F8814600BF00BFE1480078401EE049FD
:1059B000087008460078A8B9DE480088002809DD8C
:1059C00000BF00BF4846FBF785F800BF00BFFCF7EB
:1059D0000CF80EE000BF00BF4846FBF77BF800BFA5
:1059E00007E086E100BF00BF4846FBF773F800BF41
:1059F00000BF00BF46F6C55028800020C4E737E04E
:105A000037E0606C401C88BB00BF00BF00BFFBF7E5
:105A10005DF8814600BF00BFC5480078401EC449FC
:105A2000087008460078A0B9C2480088002809DD3F
:105A300000BF00BF4846FBF74DF800BF00BFFBF7B3
:105A4000D4FF0DE000BF00BF4846FBF743F800BF9E
:105A500006E000BF00BF4846FBF73CF800BF00BFB0
:105A600000BF46F6C550288000208DE7FFE700E024
:105A700000BF00BF606C401C6064666C00BF00BF6C
:105A800000BFFBF723F8814600BF00BFA84800789D
:105A9000401EA749087008460078A0B9A5480088AC
:105AA000002809DD00BF00BF4846FBF713F800BF20
:105AB00000BFFBF79AFF0DE000BF00BF4846FBF7B1
:105AC00009F800BF06E000BF00BF4846FBF702F838
:105AD00000BF00BF00BF43E100BF00BF00BF94F89C
