:020000040800F2
:10000000D834002045010008E30200087D02000802
:10001000E1020008B9010008990B00080000000087
:100020000000000000000000000000003907000888
:10003000BB01000800000000E50200085D010008A7
:100040005F0100085F0100085F0100085F01000810
:100050005F0100085F0100085F0100085F01000800
:100060005F0100085F0100085F0100085F010008F0
:100070005F0100085F0100085F0100085F010008E0
:100080005F0100085F0100085F0100085F010008D0
:100090005F0100085F0100085F0100085F010008C0
:1000A0005F0100085F0100085F0100085F010008B0
:1000B0005F0100085F0100085F0100085F010008A0
:1000C0005F0100085F0100085F0100085F01000890
:1000D0005F0100085F0100085F0100085F01000880
:1000E0005F0100085F0100085F0100085F01000870
:1000F0005F0100085F0100085F0100085F01000860
:100100005F0100085F0100085F0100085F0100084F
:100110005F0100085F0100085F0100085F0100083F
:100120005F0100085F0100085F0100085F0100082F
:10013000DFF80CD000F02EF8004800478D270008AB
:10014000D83400200648804706480047FEE7FEE70F
:10015000FEE7FEE7FEE7FEE7FEE7FEE7FEE7FEE777
:10016000F10700083101000830B50B4601460020B8
:100170002022012409E021FA02F59D4205D303FA69
:1001800002F5491B04FA02F52844151EA2F10102EA
:10019000F1DC30BD064C074D06E0E06840F001039D
:1001A00094E8070098471034AC42F6D3FFF7C4FF39
:1001B0004CD902086CD90208FEE7704701B502E08D
:1001C0000098401E009000980028F9D108BD2DE944
:1001D000F0410022CC7804F00F03E40601D58C78BE
:1001E00023430C784FF00F0714F0FF0F4FF0010C72
:1001F0001CD005680CFA02F40E882640A64211D1E4
:10020000960007FA06F825EA080503FA06F848EA10
:100210000505CE78282E02D0482E02D002E0446197
:1002200000E00461521C082AE4D305600A88FF2A12
:100230001ED94568002202F108060CFA06F40E8861
:100240002640A64210D1960007FA06F825EA0805CE
:1002500003FA06F848EA0505CE78282E00D1446155
:10026000CE78482E00D10461521C082AE3D34560A1
:10027000BDE8F0814161704701617047FEE7000011
:1002800038B50121082000F02FF80120ADF800005A
:1002900010208DF8030003208DF802000F4C6946F2
:1002A0002046FFF794FF0221ADF800106946204672
:1002B000FFF78DFF2021ADF8001069462046FFF7BB
:1002C00086FF01212046FFF7D7FF02212046FFF7D6
:1002D000D3FF20212046FFF7CFFF38BD000C01409F
:1002E000FEE7704770470000054A002903D0916976
:1002F00001439161704791698143916170470000AA
:100300000010024010B5264A516801F00C01254B3F
:10031000002927D0042927D0082927D00360516855
:1003200001F0F0010909204B5C5C0168E14041608B
:10033000546804F4E064240A1C5D21FA04F4846027
:10034000546804F46054E40A1B5DD940C1605268EB
:1003500002F44042920B144B1B1F9A5CB1FBF2F16A
:10036000016110BD0360DAE70360D8E7516801F46A
:100370007011536803F48033022404EB914133B1CC
:1003800053689B0307D5094B59430160C7E7074BE7
:1003900059430160C3E7034B59430160BFE70000C5
:1003A0000010024000127A000400002000093D0005
:1003B000002904D0018841F0400101807047018884
:1003C00021F04001018070472DE9F04104460F46BD
:1003D0001546114E01213046FFF74CFF032000F077
:1003E000FDF8C7F3074000F0F9F8C7F3072000F065
:1003F000F5F8F8B200F0F2F804E0FF2000F0EEF8B3
:1004000004F8010B6D1E681CF7D13046BDE8F041C1
:100410000121FFF731BF0000001001402DE9F04736
:1004200006460D46E8B24142CFB2140A02F0FF0977
:100430004FF48078002812D0E8B24042C0B205EBF9
:10044000000A34B3D01B80B2040A00F0FF093A4618
:100450002946304600F04CF855463E4439E074B920
:1004600029463046BDE8F04700F042B842462946EA
:10047000304600F03DF805F5807506F58076641E7F
:10048000E4B2F3D24A4629463046BDE8F04700F0D0
:100490002FB8B9450ED9A9EB0700C4B23A46294690
:1004A000304600F025F85146F0192246BDE8F047E5
:1004B00000F01EB829463046BDE8F04700F018B8F5
:1004C00042462946304600F013F805F5807506F5DA
:1004D0008076641EE4B2F3D2B9F1000F06D04A462A
:1004E00029463046BDE8F04700F002B8BDE8F08785
:1004F0002DE9F04105460F46144600F0C9F8134EA9
:1005000001213046FFF7B6FE022000F067F8C7F37E
:10051000074000F063F8C7F3072000F05FF8F8B277
:1005200000F05CF8B015844205D9044603E0287851
:1005300000F054F86D1C641EA4B2F8D201213046BC
:10054000FFF79AFEBDE8F04100F07EB800100140D0
:100550002DE9F0410E4F01213846FFF78BFE9F2019
:1005600000F03CF8FF2000F039F80446FF2000F0CE
:1005700035F80546FF2000F031F8064601213846DF
:10058000FFF77AFE200440EA05203043BDE8F08101
:100590000010014070B5044600F07AF800F054F8FD
:1005A0000D4D01212846FFF765FE202000F016F8CA
:1005B000C4F3074000F012F8C4F3072000F00EF86F
:1005C000E0B200F00BF801212846FFF755FEBDE828
:1005D000704000F039B80000001001402DE9F041F2
:1005E0000746174C4FF480556560164E08E060686A
:1005F000411E616004D200F085F8C0B2BDE8F08110
:100600000221304600F056F80028F0D03946304636
:1006100000F059F8656007E061684A1E626003D225
:1006200000F070F8C0B2E9E70121304600F042F86E
:100630000028F1D0304600F044F8C0B2DEE70000F8
:10064000680000200030014070B50F4D01212846A0
:10065000FFF710FE0520FFF7C1FF0C4CA8146060E7
:10066000FF20FFF7BBFF61684A1E626003D2BDE84E
:10067000704000F047B8C007F2D12846BDE870408E
:100680000121FFF7F9BD00000010014068000020C3
:1006900010B5074C01212046FFF7ECFD0620FFF7BF
:1006A0009DFF2046BDE810400121FFF7E5BD000099
:1006B000001001400246002012890A4200D00120A9
:1006C0007047808970478181704730B5028802F495
:1006D00041530A884C88CD8822438C882C4322437E
:1006E0000C8922434C8922438C892243CC892243A2
:1006F0001A430280828B22F400628283098A01827B
:1007000030BD000010B502A000F048FA002010BD76
:100710003C3C2D464C4153482D4552524F522D3EA4
:100720003E205350492054696D656F757420657281
:10073000726F72210A000000704700F001B80000DB
:100740000CB50022019200922748016841F48031E3
:1007500001604FF4A063016801F400310091019938
:10076000491C0191009911B901999942F3D101688D
:10077000890302D50121009100E00092009901292E
:1007800030D11A490A6842F010020A600A6822F061
:1007900003020A600A6842F002020A60416841608E
:1007A00041684160416841F480614160416821F4E1
:1007B0007C114160416841F4E8114160016841F0F9
:1007C0008071016001688901FCD5416821F0030155
:1007D0004160416841F0020141604168C1F381011B
:1007E0000229FAD10CBD0000001002400020024096
:1007F00010B50F48016841F00101016041680D4AE0
:100800001140416001680C4A11400160016821F407
:1008100080210160416821F4FE0141604FF41F0115
:100820008160FFF78AFF05494FF00060086010BD46
:10083000001002400000FFF8FFFFF6FE08ED00E0A8
:1008400070B586B001210803FFF74EFD012110208D
:10085000FFF74AFD0124ADF8004003208DF80200A7
:1008600010208DF80300304D69462846FFF7AFFC95
:1008700001210420FFF738FD2021ADF800101821D8
:100880008DF80310294E69463046FFF7A0FC012180
:100890000420FFF729FD4021ADF8001069463046DD
:1008A000FFF795FC01210420FFF71EFD8021ADF824
:1008B000001069463046FFF78AFC01212846FFF701
:1008C000DBFC0020ADF804004FF48271ADF8061097
:1008D000ADF808000221ADF80A10ADF80C4009028D
:1008E000ADF80E100821ADF81010ADF81200072079
:1008F000ADF814000E4C01A92046FFF7E6FE0121D9
:100900002046FFF755FDFFF723FE0A4A0A499042A9
:1009100005D1087820F00100087006B070BD087895
:1009200040F001000870F8E70010014000080140A5
:10093000003001401740EF0068000020002810D070
:1009400001280BD0022802D003280AD103E04FF47B
:100950008050088005E00120086002E04FF4C0608C
:10096000086000207047000010B5074B1B78DB07BC
:1009700001D0032010BD01F5007112030903FFF738
:1009800023FD002010BD00006800002010B5FFF717
:10099000DFFD074A0749904204D1087820F00100A2
:1009A000087010BD087840F00100087010BD00000C
:1009B0001740EF006800002070B5054601F5007192
:1009C0000C032046FFF7E6FD4FF4805221462846EF
:1009D000FFF724FD002070BD10B586B0012188030B
:1009E000FFF782FC01210520FFF77EFC4FF4007029
:1009F000ADF8140018208DF8170003208DF81600AC
:100A0000194C05A92046FFF7E2FB2115ADF814109B
:100A100004218DF8171005A92046FFF7D8FB134CC9
:100A20004FF4E13101910021ADF80810ADF80A1042
:100A3000ADF80C10ADF810100C21ADF80E1001A996
:100A4000204600F047F8012240F22551204600F0F0
:100A500026F80121204600F00FF84021204600F042
:100A600007F806B010BD0000000801400038014042
:100A70008A05C94301807047002904D0818941F467
:100A8000005181817047818921F400518181704733
:100A90000246002012880A4200D00120704710B59B
:100AA00040F66A13C1F3421301F01F040121A14073
:100AB000012B07D0022B07D014303AB102680A4349
:100AC000026010BD0C30F8E71030F6E702688A4388
:100AD000026010BD30B585B004460D46208A4CF644
:100AE000FF710840E98801432182A0894EF6F31185
:100AF0000840A9882A8911436A8902431143A181C8
:100B0000A08A4FF6FF410840A9890143A1826846A7
:100B1000FFF7F8FB1D48844201D1039800E00298DA
:100B2000A189090408D500EBC00101EB0010296878
:100B30004900B0FBF1F007E000EBC00101EB001051
:100B400029688900B0FBF1F06422B0FBF2F10901E1
:100B50000B096FF018056B4300EB8300A3891D049C
:100B60004FF0320307D503EBC000B0FBF2F000F00A
:100B70000700084306E003EB0010B0FBF2F000F0C2
:100B80000F000843208105B030BD0000003801404F
:100B9000C1F3080181807047FEE700000FB4054BE8
:100BA00010B503A9044A029800F018F810BC5DF8CB
:100BB00014FB0000692500087C00002002E008C842
:100BC000121F08C1002AFAD170477047002001E0C7
:100BD00001C1121F002AFBD1704700002DE9FF4F11
:100BE0008BB09A460F460546002606E025280BD016
:100BF00052460D9990476D1C761C28780028F5D137
:100C00000FB03046BDE8F08F0024A04601226049B5
:100C100000E0044315F8013F203B02FA03F00842CC
:100C2000F7D128782E2817D115F8010F44F00404C5
:100C30002A280ED06FF02F022878A0F13001092960
:100C40000AD808EB880102EB410100EB01086D1C9A
:100C5000F2E757F8048B6D1C287869283ED006DC33
:100C60000028CDD063280BD0642804D136E0732847
:100C700010D075284BD052460D999047761C85E0D0
:100C800017F8040B8DF8000000208DF80100E946EC
:100C9000012003E057F8049B4FF0FF3061074FF04D
:100CA000000401D40AE0641C44450DDA8442FADBF6
:100CB00019F804100029F6D106E0641C8442FCDB1C
:100CC00019F804100029F8D1264404E019F8010BA2
:100CD00052460D999047641EF8D257E001CF4FF06D
:100CE0000A0B002802DA40422D2102E0210504D53A
:100CF0002B218DF82410012103E0E10705D02021EC
:100D0000F7E70DF1200908910CE00021F9E701CF88
:100D10004FF00A0BF9E75946FFF726FA01F13002C6
:100D200009F8012D0028F6D1ADEB090000F1200BE8
:100D3000600701D44FF00108D84502DDA8EB0B0095
:100D400000E000208046002406E009A85246005D2D
:100D50000D999047641C761C08988442F5DB04E0EA
:100D6000302052460D999047761CB8F10001A8F149
:100D70000108F5DC05E019F8010B52460D99904782
:100D8000761CBBF10001ABF1010BF4DC6D1C34E708
:100D90000928010010B5044600202071401EE062C1
:100DA000204601F0BFFD08B1032010BD94F82E02CB
:100DB00094F82F1240EA0120A0F52A41553901D0BC
:100DC000022010BD14F8660FE178627840EA0161F4
:100DD000A078663C000440EA022001430B48B0EBD7
:100DE000012F01D1002010BD14F8821FE278637832
:100DF00041EA0261A278120442EA03221143B0EBF5
:100E0000012F01D1002010BD012010BD004641542A
:100E100000E0401C02780AB18A42FAD1007870479B
:100E2000891E4269921E8A4201D800207047826A58
:100E3000807801FB002070472DE9F05F81460F4666
:100E4000387820F04000401E00EB800101EBC00428
:100E500000260125DFF85CA007F101084FF6FF7BB3
:100E60001AF80600395C10F8080041EA00207DB14C
:100E700001F054F90546FF2C07D22046641C39F8CE
:100E8000100001F04BF9A84206D00020BDE8F09F09
:100E9000584501D00020F9E7761C0D2EE0D33878B4
:100EA000400605D525B139F8140008B10020EDE75A
:100EB0000120EBE7482C00082DE9F04106460F46DB
:100EC000002F08D03946304601F0ACFB022809D289
:100ED0000120BDE8F081F56815B17069A84207D816
:100EE000012505E0411CF4D071698142F1D83D46ED
:100EF0002C46641C7069A04204D80224022D01D241
:100F00000020E6E72146304601F08CFB38B1411C59
:100F1000DFD00128DDD0AC42EBD10020D9E76FF063
:100F200070422146304601F017FD28B927B122460C
:100F30003946304601F010FD20B101280DD00124C2
:100F40002046C6E7F4603069411CF9D0401E30618C
:100F5000707940F001007071F2E74FF0FF34EFE775
:100F60002DE9F35F8846D8F8006000E0761C307801
:100F70002F28FBD05C28F9D00098D0F81CA00024C2
:100F8000254628466D1C305C202808D32F2806D023
:100F90005C2804D0FF2C09D30620BDE8FC9F711902
:100FA000C8F8001020282AD2042532E0C0B2A0F1EF
:100FB00081017D290ED829466D1C715CA1F140028A
:100FC0003F2A04D3403A7F2A01D30620E5E701EB0C
:100FD000002080B2012101F075F8074647B1802F4B
:100FE00008D2394665A0FFF713FF18B10620D4E7F1
:100FF0000620D2E72046641C2AF81070C1E70025BD
:1010000007E0601E3AF81000202801D02E2802D1F7
:10101000641E002CF5D154B100202AF81400009869
:101020000B222021806901F075FC002702E00620D8
:10103000B3E77F1C3AF817002028FAD02E28F8D002
:101040001FB145F0030500E0641E24B1601E3AF8AC
:1010500010002E28F8D14FF00008C1464FF0080BC1
:1010600038467F1C3AF8106006B3202E03D02E2E8F
:1010700004D1A74202D045F00305F1E7D84501D2DB
:10108000A74219D1BBF10B0F0ED0A74201D045F0FA
:1010900003050BD827464FF008084FF00B0B4FEA1B
:1010A00089604FEA1069DBE745F003050098806925
:1010B0000178E5293DD03EE0802E08D3304601F08E
:1010C0002DF8002100F0FEFF064645F00205FF2E38
:1010D0000FD9ABF10100804503D345F00305D84695
:1010E000BEE70098310A8269404608F101081154B0
:1010F00018E026B1314624A0FFF78AFE18B15F261A
:1011000045F003050EE0A6F14100192802D849F088
:10111000020907E0A6F16100192803D849F0010986
:10112000203EB6B200988169404608F101080E548D
:1011300096E705210170BBF1080F03D14FEA8960E2
:101140004FEA1069C9F38100032803D06FEA09014F
:10115000890701D145F00205A90709D409F0030167
:10116000012901D145F01005012801D145F00805FC
:1011700000988069C57200200FE70000222A3A3CDF
:101180003E3F7C7F000000002B2C3B3D5B5D000060
:1011900070B505460E460021284600F08AF988B948
:1011A00000242969286801F0BDFB58B969690978EC
:1011B000E5290BD051B100240121284600F06DF83B
:1011C0000028EED0042800D1072070BD641CB44272
:1011D000F8D0F1E72DE9F04704460021204600F061
:1011E00068F9002857D1FF26B1464FF6FF7AA4F8D8
:1011F00020A02169206801F095FB80465FEA080085
:1012000048D167693D7865B1F87A00F03F00E52D77
:1012100003D0010708D50F2806D0FF26A4F820A088
:1012200030E04FF0040835E00F2801D0CEB11DE0CA
:10123000E06938B3690606D597F80D9025F04005AA
:101240002E46E1882184B54208D1797B494505D1F4
:101250003946FFF7F1FD08B1761E00E0FF26F6B231
:1012600010E0384601F049FC484513D0A169C87A1E
:10127000C00704D10B22384601F036FB50B1FF26DF
:10128000A4F820A00021204600F007F880465FEA7D
:101290000800AED04046BDE8F0872DE9F041044695
:1012A0000E46E7887F1C3804000C0AD0216941B142
:1012B000206842895209B7FBF2F302FB13721AB19C
:1012C00066E00420BDE8F081491C2161E16871B14C
:1012D000428983785209B7FBF2F25B1E1A4257D15A
:1012E00001F0A0F90546012D06D80220EAE70089A1
:1012F000B8424DD80420E5E7681C14D02068416945
:10130000A9423FD88EB1E168FFF7D6FD0546280017
:101310000DD0012D0DD0681C0DD0206801F054FCBB
:1013200058B10120CEE70120CCE70420CAE707200E
:10133000C8E70220C6E70120C4E7206800214289EF
:10134000303001F0E7FA29462068FFF769FD21688F
:10135000C86200264FF001080CE080F80480206885
:1013600001F032FC08B10120ACE72068C16A491CD9
:10137000C162761C20688178B142EED82168C96AC2
:10138000891BC162E56029462068FFF749FD20619D
:10139000E780206841894909B7FBF1F201FB12712E
:1013A000302202EB41110844606100208AE72DE9F8
:1013B000FE430446A769E6690C223946684601F0F7
:1013C000A0FA9DF80B00C00718D00020F872E06169
:1013D00001252B4632466946384601F0D7F82046AB
:1013E000FFF7F8FE10B96D1C642DF2D3642D0BD0FD
:1013F00004280AD19DF80B00F872E6619DF80B00F5
:1014000080070ED5002003E00720BDE8FE83401CC6
:1014100036F810100029FAD119300D21B0FBF1F681
:1014200000E0012631462046FFF7B2FE05460127BF
:101430001DBB761E21D0E088811B204600F039F8C4
:101440000546280019D1A06901F057FB80462169A3
:10145000206801F067FA05467DB9F2B2434661693A
:10146000E06901F015F82068077100212046FFF7B8
:1014700014FF05460DB9761EE9D1C5B9216920686A
:1014800001F050FA0546280011D1202200216069A0
:1014900001F040FAD4E905010B2201F032FAA0690B
:1014A0006169C07A00F01800087320680771284647
:1014B000ABE770B504460D46E580A368012B03D069
:1014C00020684169994201D8022070BD1BB901789A
:1014D000032900D1436A23B1418980784E094643EC
:1014E00018E00189A94201D8022070BD406A17E0C6
:1014F0001946206801F096F80346581C07D0022BC5
:1015000003D320684069984203D8022070BD0120AF
:1015100070BDAD1BB542EBD219462068FFF780FCC9
:10152000E36098B121684A895209B5FBF2F2104490
:10153000206148894009B5FBF0F200FB12503022CF
:1015400002EB401008446061002070BD022070BDB5
:1015500001460120002901D1FFF772B9704730B46C
:101560000C46034611460420002B03D1204630BC14
:10157000FFF7E4B930BC704730B40D46114604465D
:101580001A460420002C03D1284630BCFFF7ECB9E2
:1015900030BC704701460120002901D1FFF7F6B9A0
:1015A000704730B40D46114604461A460420002AFE
:1015B00005D0002C04D1284630BCFFF7FDB904202B
:1015C00030BC704710B50446204600F051FC00289E
:1015D00006D1204601F022FB002801D10021216024
:1015E00010BD00002DE9F74F88B0904609980128FA
:1015F00003D913200BB0BDE8F08F08A801F096F8CE
:10160000002801DA0B20F5E7FE4951F8206056B1B9
:1016100000213170C0B205900598FFF799FFC1070E
:1016200003D00320E6E70C20E4E7400701D50A20B9
:10163000E0E706F10A0202210598FFF790FF30B9B2
:101640007089B0F5805F02D8B0F5007F01D201202B
:10165000D0E702AA01210598FFF781FF10B902988F
:10166000802801D20120C5E7099911B14FF0000A85
:1016700001E04FF03F0AA0EB0A010291A8F101003E
:1016800018EA000F01D04FF00008B8F1000F13D195
:1016900070894FF4FA62400AB2FBF0F0B1FBF0F24D
:1016A0000020D94B00E0401C33F810509542FAD886
:1016B000D54A163232F81080B8F5007F02D370890F
:1016C000B8FBF0F8B8F1000F01D14FF00108B8F104
:1016D000800F01D94FF08008B1FBF8F0012740F6E8
:1016E000F672904200D302274FF6F672904200D372
:1016F0000327032F1BD0012F24D04200121D708915
:10170000521E0244B2FBF0F90125AA03B2FBF0F02D
:1017100001900AEB050B0BEB0900019A841804EB0E
:101720000800A0EB0A00884212D90E2062E77289F5
:10173000072303EB80001044B0FBF2F920250020C2
:101740000190E6E700EB4000401C4208D21CD6E7BF
:1017500003AA03210598FFF702FF20B9039810B1EF
:10176000B0F5004F01D90120039003982118491EBC
:10177000401E8143081B0390032F0CD08144029824
:10178000411BA1EB09020199511AB1FBF8F1049137
:10179000022F03D007E005448344F0E7049940F6A4
:1017A000F672914206D3032F06D104994FF6F672D2
:1017B000914201D20E201DE7032F02D0012F02D04B
:1017C00006E00C240AE0B0F5803F01D2012405E0D8
:1017D000B0F5803F01D2042400E00624099810B13E
:1017E000F020069039E0728906F130000021079060
:1017F00001F090F806F5F770012141708170002228
:10180000C2700471FE214171029943F6C1635144D3
:10181000B1FBF3F103913F2343EA91048471C17159
:10182000037242728272C272029901730A0A42738F
:101830000A0C8273090EC173552086F82E02AA2065
:1018400086F82F020123002207990598FFF7A9FEC9
:1018500008B10120CEE6F820069006F13004728926
:101860000021204601F056F80B2268A1204601F025
:1018700048F87089E072000A207384F80D80A5731F
:10188000280AE07301202074032F0BD040026074FB
:10189000000AA0740298B0F5803F05D2E074000AF7
:1018A00020750AE00020F2E704F8200F010A6170B9
:1018B000010CA170000EE070203C069860753F207E
:1018C000207600206076FF21A176E07684F81CA0C7
:1018D0004FEA1A2060774FEA1A40A0774FEA1A6061
:1018E000E07700F01FFF039080222921032F24D0EE
:1018F00016346074030AA374030CE374000E20759D
:1019000084F800904FEA19206070A2732174163C8D
:10191000132241A104F12B0000F0F3FF552084F8BD
:10192000FE01AA2084F8FF010123524621460598B2
:10193000FFF737FE60B301205CE62534A077030A89
:10194000E377030C84F82030000E84F8210004F8BB
:10195000019C4FEA192020704FEA194060704FEA4D
:101960001960A0700220E071002020726072A072E5
:101970000123E372207306236373A073E276617719
:10198000253C132229A104F1470000F0BAFFC5E766
:10199000032F06D101230AF1060221460598FFF71D
:1019A00000FE5D464FF0000B72890021204600F0DA
:1019B000B1FF06980390032F12D0012F0ED06FF0C5
:1019C000FF010143039121700398000A607003989E
:1019D000000CA0700398000EE07039E01849F0E7A1
:1019E00060F0FF00039020700398000A6070039875
:1019F000000CA0700398000EE070FF202071607151
:101A0000A0711FE074000020562C0008EBFE904DE2
:101A100053444F53352E30004E4F204E414D4520FC
:101A20002020204641542020202020004E4F204ED0
:101A3000414D4520202020464154333220202000B3
:101A400000FFFF00E07120726072A0720F20E07250
:101A50002A466D1C012321460598FFF7A2FD08B117
:101A60000120C7E572890021204600F053FF0120C4
:101A700003900CE02A466D1C012321460598FFF7D0
:101A800090FD08B10120B5E50398401C0390039830
:101A90004845EFD30BF1010BBBF1000F84D0032FAE
:101AA00001D0DDF804802A466D1C012321460598EB
:101AB000FFF777FD08B101209CE5B8F10108F2D1EC
:101AC000032F3AD15220207060706120A070412114
:101AD000E170722284F8E42184F8E52184F8E611AB
:101AE00084F8E7010498401E84F8E801010A84F8AC
:101AF000E911010C84F8EA11000E84F8EB010220D0
:101B000084F8EC01002084F8ED0184F8EE0184F8FB
:101B1000EF01552084F8FE01AA2084F8FF0101237B
:101B20000AF1010221460598FFF73BFD01230AF166
:101B3000070221460598FFF734FD0022114605985B
:101B4000FFF70DFD08B1012054E5002052E500002B
:101B500017B581B0144602980090684600F0E6FD83
:101B6000002802DA0B2004B010BD0B4B53F82010F4
:101B7000002201B10A700199002900D00A7043F8CF
:101B8000201001D0012C01D00020ECE7002202A996
:101B900001A800F0D9FAE6E7740000202DE9F74724
:101BA000ADF50D7D0646002E0FD04FF00008C6F8AB
:101BB000008002F01F0727F001028EA984A800F020
:101BC000C3FA0546280005D092E009200DF5107DE6
:101BD000BDE8F08781A88A9001A88B9084A88E998F
:101BE00000F08CFC0546899C0DB904B9062517F058
:101BF0001C0F4DD04DB1042D03D184A8FFF7D7FBA6
:101C0000054647F00807899C08E0E07A10F0110FBC
:101C100001D0072502E0780700D50825BDBB3807AD
:101C200041D500F07FFDA073010AE173010C21741E
:101C3000000E607484F80B8084F81C8084F81D808A
:101C400084F81E8084F81F802146849800F08FFD60
:101C500081460021204600F048FF84990120087148
:101C6000B9F1000F1FD08498D0F82CA04946849871
:101C700000F008FF0546280015D18498A9F1010954
:101C8000C0F80C905146849800F04CFE05460AE0DE
:101C90004DB9E07AC10601D5042504E0B90702D5A3
:101CA000C00700D007253DB9380701D547F0200708
:101CB0008498C06AF0613462D5B9B77186F807803C
:101CC0002146849800F053FD3061207FE17F627FE0
:101CD00040EA0160A17F090441EA02210843F06063
:101CE000C6F80880C6F8188084983060C088B08034
:101CF00028466BE72DE9F84F044688461646994674
:101D00000020C9F80000204600F088FF002812D10A
:101D1000E07900280FD1A079C0070BD0D4E90210D8
:101D2000401A864200D9064604F124004FF0010A09
:101D3000009098E00720BDE8F88F2268A0685189DC
:101D4000B0FBF1F301FB1303002B6DD1B0FBF1F1FC
:101D500093785B1E1940CDB275B940B110466169E8
:101D600000F060FC022804D20220E071E3E7206961
:101D7000F8E7411C1CD0606161692068FFF750F8EA
:101D8000D0B100EB050B20684189B6FBF1F74FB3EA
:101D90008178EA198A4200D94F1B40783B465A465F
:101DA0004146FFF7E9FB50B184F807A00120C2E7E4
:101DB00084F807A00120BEE70220E071BBE7A0790C
:101DC00040060BD5A069A0EB0B00B84206D22168F3
:101DD0004A89009900FB028000F093FD2068458944
:101DE0007D4336E0A2695A451CD0A17949060DD53C
:101DF000407801230099FFF7D4FB18B184F807A0BD
:101E0000012098E7A07920F04000A071206801230C
:101E10005A4640780099FFF7AFFB18B184F807A045
:101E2000012088E7C4F818B02068A1684089B1FB98
:101E3000F0F200FB1212851AB54200D93546B1FB0B
:101E4000F0F200FB1210011924312A46404600F03E
:101E500058FDA844A0682844A060D9F80000284490
:101E6000C9F80000761B002E7FF467AF002062E700
:101E700070B50446204600F0D1FE00280ED1A179AD
:101E80008A060BD548060ED52068012304F12401EB
:101E90004078A269FFF785FB08B1012070BDA079E9
:101EA00020F04000A071E169206800F03BFD0028AF
:101EB000F4D1256AE87A40F02000E872207B287788
:101EC000A089000A6877E068000CA877E068000E37
:101ED000E8772846216900F008FE00F023FCA87589
:101EE000010AE975010C2976000E68760020A874B5
:101EF000E874A07920F02000A07121680120087109
:101F00002068BDE8704000F005BE2DE9F84F04469A
:101F10008846164699460020C9F80000204600F081
:101F20007DFE002806D1E079002803D1A079800742
:101F300002D40720BDE8F88FA068811900D30026DD
:101F400004F124004FF0010A0090ADE02268A0687F
:101F50005189B0FBF1F301FB1303002B7DD1B0FBE2
:101F6000F1F193785B1E1940CDB2F5B968B1104616
:101F70006169FEF7A1FF002870D001280DD0411C37
:101F80000ED06061216979B10FE020690028F2D19B
:101F900000211046FEF790FFEDE70220E071C9E74F
:101FA00084F807A00120C5E72061A07940060FD57D
:101FB00020680123A26940780099FFF7F2FA18B16E
:101FC00084F807A00120B5E7A07920F04000A071B7
:101FD00061692068FEF724FFB0B100EB050B2068B3
:101FE0004189B6FBF1F737B38178EA198A4200D903
:101FF0004F1B40783B465A464146FFF7D2FA30B174
:1020000084F807A0012095E70220E07192E7A0691B
:10201000A0EB0B00B8420AD221684A8900FB02817A
:10202000009800F06EFCA07920F04000A0712068BC
:1020300045897D432EE0A169594510D0D4E90212AB
:1020400091420CD2407801235A460099FFF794FA46
:1020500028B184F807A001206CE702E027E0C4F86B
:1020600018B02068A1684089B1FBF0F200FB1212A1
:10207000851AB54200D93546B1FBF0F200FB1210CB
:10208000204424302A46414600F03BFCA07940F031
:102090004000A071A844A0682844A060D9F80000BE
:1020A0002844C9F80000761B002E7FF44FAFD4E916
:1020B0000201884200D9E060A07940F02000A071C0
:1020C000002037E770B580281FD345F2205409B1AE
:1020D000104D00E0104D00231022E11A01EBD171E8
:1020E00003EB610135F82160864207D001D20B462F
:1020F00000E00C46A2F10102002AEED132B14FF00D
:10210000010000EB410035F8100070BD4FF00000F9
:1021100070BD000006810108822C00080021084BD8
:1021200000E0491C33F811200AB18242F9D133F89A
:102130001120002A02D0034830F811007047000037
:102140008AD502086AD702082DE9FF47804608466B
:1021500016460027C8F8007000F0E8FA0546280087
:1021600003D50B2004B0BDE8F087C64850F82540E1
:102170008CB1C8F80040207820B16078FFF70AFAE7
:10218000C1070AD02770E8B26070FFF7E1F9C10714
:102190000AD00320E6E70C20E4E71EB1400701D592
:1021A0000A20DFE70020DDE71EB1400701D50A2045
:1021B000D8E7607804F10A020221FFF7D0F930B9BC
:1021C0006089B0F5007F02D3B0F5805F01D90120AE
:1021D000C8E7002529462046FEF7DCFD012826D168
:1021E0000021E84604EB011000F5F770027952B1C6
:1021F000027AC37A42EA0362837A407A1B0443EA92
:102200000020024300E0002248F82120491C042954
:10221000E8D3002658F8265025B129462046FEF777
:10222000B9FD00E0022010B1761C042EF2D3032881
:1022300002D018B10D2095E7012093E794F83B00F8
:1022400094F83C10B4F80AC040EA0120604501D07F
:102250000D2087E794F8460094F8471040EA0120E3
:1022600058B914F8540FE178627840EA0160A17817
:102270000904543C41EA02210843A06194F840A0BB
:1022800084F803A0BAF1010F04D0BAF1020F01D013
:102290000D2067E70AFB00FA94F83D20A27012B106
:1022A000511E0A4201D00D205CE794F8411094F8C9
:1022B000423041EA032323814FEA5C16B3FBF6F177
:1022C00006FB113109B10D204CE794F8431094F846
:1022D000448041EA082179B994F8501094F8538069
:1022E00094F8519041EA086194F852804FEA084806
:1022F00048EA092841EA080194F83E8094F83F90A2
:1023000048EA0929B9F1000F08D0B3FBF6F609EB4A
:102310000A08B044414503D20D2023E70D2021E7F0
:10232000A1EB0801B1FBF2F141B3012640F6F672D0
:10233000914200D302264FF6F672914200D3032653
:10234000891C6161E56105EB09022262A844C4F8B9
:102350002880032E14D03BB352446262022E25D053
:1023600001F0010201EB410102EB5101491E614400
:10237000B1FBFCF181421BD90D20F3E60D20F1E603
:102380000BB10D20EEE694F85C2094F85F3094F8E1
:102390005D8042EA036294F85E301B0443EA08233E
:1023A0001A4362628900E1E70D20DBE64900DDE7C0
:1023B0004FF0FF302061E06080206071032E57D124
:1023C00094F8600094F8611040EA012001284FD190
:1023D000691C204600F0A6FAF0BB677194F82E0243
:1023E00094F82F1240EA0120A0F52A4155393FD137
:1023F00014F8300FE178627840EA0160A178303C4F
:10240000090441EA022108431F49884230D194F867
:10241000140294F8171294F8152240EA016094F817
:102420001612090441EA02210843184988421FD1C3
:1024300094F8180294F81B1294F8192240EA0160EB
:1024400094F81A12090441EA02210843206194F821
:102450001C0294F81F1200E00AE040EA016094F8C0
:102460001E1294F81D22090441EA02210843E0608B
:1024700026700449091F0888401C0880E08000205D
:1024800070E6000074000020525261417272416196
:102490002DE9F0434B730F23CB7200230B738B7624
:1024A000CB76531E03EB830404EBC30500231C46C9
:1024B000114E01F1010C4FF6FF77BB4203D02B46C2
:1024C0006D1C30F8133016F8048001F8083016F847
:1024D00004904FEA132809F80C8003B93B46641CAA
:1024E0000D2CEAD3BB4202D030F8150008B942F0F7
:1024F00040020A70BDE8F083482C000873B504461A
:10250000019908782F2801D05C2801D1491C01913C
:102510000025A56001980078202805D200212046DA
:10252000FEF7C7FF65617CBD01A92046FEF718FDD7
:102530000028F8D12046FEF74DFEA169C97A28B1DE
:102540000428F0D14907EED405207CBD4907FCD40E
:102550006169C87AC00601D405207CBD206800F0FE
:1025600006F9A060E0E7000070B50446064DE1B250
:102570002846FEF70DFB80212846FEF789FA002841
:10258000F9D0204670BD0000003801407CB50546FA
:1025900016461C460B22284600F0B3F9052C11D92B
:1025A0001F480CE0B61C002322460C4662F35F0471
:1025B0004908E20300D544405B1C102BF4D331885A
:1025C0000029EFD107226B4604F00F013031392981
:1025D00001D9C91DC9B21046521E19542409002C34
:1025E000F2D17E2098540021541E06E081387D28C7
:1025F00002D8A14206D0491C491C914202D2685C13
:102600002028F3D1082A03D21046521C185C00E09F
:1026100020200C46491C28550829F3D37CBD000016
:10262000211001002DE9F04104460D46022D02D390
:102630006069A84201D8012609E04FF0FF362078F2
:10264000012807D0022835D003284BD00126304678
:10265000BDE8F08105EB55076089216AB7FBF0F012
:102660000144204600F05EF90028F0D16089394627
:10267000B1FBF0F200FB121121447F1C91F8308075
:10268000B7FBF0F0216A0144204600F04BF9002826
:10269000DDD16089B7FBF0F100FB1170204490F8A8
:1026A000300048EA0020E90701D00609CFE7C0F36F
:1026B0000B06CCE76089216A4008B5FBF0F00144C5
:1026C000204600F02FF90028C1D161896800B0FBD5
:1026D000F1F201FB1200204430300178407841EAE9
:1026E0000026B4E76089216A8008B5FBF0F0014458
:1026F000204600F017F90028A9D16189A800B0FB95
:10270000F1F201FB1200204430300178C27841EA36
:10271000026182784078120442EA0020014321F0ED
:10272000704694E7004870477D5FEF4610B5044659
:102730004FF0FF302368002B0BD0194600E0491CF6
:102740000A78202A01D33A2AF9D10A783A2A01D004
:10275000002010BD13F8012B303A0A2AF9D28B421F
:10276000F7D1022AF5D21046491C216010BD02465D
:10277000887ECB7E40EA03201278032A05D10A7DA9
:10278000497D42EA012140EA01407047FDF778FDAA
:10279000FEF722F932A0FEF701FA012238A13948EA
:1027A000FFF7D6F9384C2070014638A0FEF7F6F94D
:1027B00020780D2816D14FF48052002130A0FEF76A
:1027C00011FF2070014638A0FEF7E8F900222CA185
:1027D0002C48FFF7BDF92070012229A12948FFF7F5
:1027E000B7F920700A2235A13948FFF7D7F92070D0
:1027F00068B9384920200860234B48220833191D46
:102800003348FFF782FB20703148FEF7DBFE0122E0
:102810002AA12F48FFF7C2F920701B4B4FF48062AA
:102820001B1D2D492A48FFF765FA20702A492BA065
:10283000FEF7B4F92648FEF7C5FE2070002210A16D
:102840001048FFF785F92070224C264D083C21687E
:1028500081F0020121602846FDF7B0FCF7E7000097
:102860000D0A2074686973206973206120666174A1
:10287000667320746573742064656D6F200D0A00A3
:10288000303A0000A4140020140000200D0A206635
:102890005F6D6F756E74207265735F666C617368CF
:1028A0003D2564200D0A00000D0A6D6B66732072D1
:1028B00065735F666C6173683D256400303A666CD1
:1028C0006173686E657766696C652E747874000054
:1028D00080040020140C0140800000200D0A2025F7
:1028E00073200000FFFF010010B50023521E541C8E
:1028F00005D010F8013B11F8014B1B1BF6D0184610
:1029000010BD03E011F8013B00F8013B521E531CBF
:10291000F8D17047C9B201E000F8011B521E531CE8
:10292000FAD1704770B504460E460025E06AB04201
:1029300010D0204600F048F905465DB960780123C3
:10294000324604F13001FEF717FE10B14FF0FF36AA
:102950000125E662284670BD2DE9F04704460D4684
:102960001646022D02D36069A84202D80220BDE8B3
:10297000F087207806F0FF094FF00108012805D004
:10298000022842D003285AD00220F0E705EB550771
:102990006089216AB7FBF0F001442046FFF7C2FFCF
:1029A0000028E4D1384661897F1CB0FBF1F201FBBD
:1029B000120020443030E90703D0017869F31F1179
:1029C00000E03146017084F804806089216AB7FB19
:1029D000F0F001442046FFF7A5FF0028C7D1618928
:1029E000B7FBF1F201FB127121443031EA0702D04A
:1029F000C6F3071205E00A78C6F3032302F0F002DB
:102A00001A430A7084F80480B1E76089216A40089B
:102A1000B5FBF0F001442046FFF784FF0028A6D163
:102A200062896900B1FBF2F302FB1311214481F8C2
:102A30003090320A81F8312084F8048097E7608969
:102A4000216A8008B5FBF0F001442046FFF76AFFD9
:102A500000288CD16289A900B1FBF2F302FB1311AB
:102A6000214430314FF07043CA7803EA02623243A6
:102A70000A70130A4B70130C8B70120ECA7084F814
:102A8000048074E72DE9F04104460F46022F02D37B
:102A90006069B84201D8022624E000261FE03946CA
:102AA0002046FFF7BFFD0546E5B1012D09D0681CA2
:102AB00009D0002239462046FFF74EFF06468EB960
:102AC00003E002260EE001260CE02069411C05D03F
:102AD000401C2061607940F0010060712F46606900
:102AE000B842DCD83046BDE8F08181760A0AC27669
:102AF0000A0C0275090E41757047014600200B2231
:102B0000430803EBC01011F8013B1844C0B2521E39
:102B1000F6D1704770B50446204600F055F80546DA
:102B200028004FD12078032845D16079012842D16F
:102B300004F13000628900210646FFF7EBFE5520C4
:102B400084F82E02AA2084F82F02522084F8300044
:102B500084F83100612084F83200412184F8331078
:102B6000722284F8142284F8152284F8161284F84C
:102B70001702206984F81802010A84F81912010C5E
:102B800084F81A12000E84F81B02E06884F81C0214
:102B9000010A84F81D12010C84F81E12000E84F83C
:102BA0001F02E269521CE262607801233146FEF79F
:102BB000F8FC00206071002260781146FEF7CFFC1F
:102BC00000B10125284670BD2DE9F04104460027DB
:102BD000207900281FD0E66A04F1300160780123D3
:102BE00032468846FEF7DDFC08B1012713E00020DD
:102BF0002071206AA169301A88420CD2E57808E079
:102C0000A06906446078012332464146FEF7C9FCBC
:102C10006D1E022DF4D23846BDE8F08110B50028B3
:102C200007D0016829B10A781AB1CA88808882421F
:102C300001D0092010BD4878FEF7ACFCC00701D0D8
:102C4000032010BD002010BD01030507090E10125E
:102C50001416181C1E000004000200018000400031
:102C60002000100008000400020000000080004066
:102C700000200010000800400020001000080004A0
:102C80000002A400E8A1A700ECA1A800A7A1B00041
:102C9000E3A1B100C0A1B700A4A1D700C1A1E00089
:102CA000A4A8E100A2A8E800A8A8E900A6A8EA0054
:102CB000BAA8EC00ACA8ED00AAA8F200B0A8F300F6
:102CC000AEA8F700C2A1F900B4A8FA00B2A8FC00AF
:102CD000B9A80101A1A81301A5A81B01A7A82B0150
:102CE000A9A84401BDA84801BEA84D01ADA86B012B
:102CF000B1A8CE01A3A8D001ABA8D201AFA8D4013E
:102D0000B3A8D601B5A8D801B6A8DA01B7A8DC01E6
:102D1000B8A85102BBA86102C0A8C702A6A1C902F7
:102D2000A5A1CA0240A8CB0241A8D90242A891039A
:102D3000A1A69203A2A69303A3A69403A4A6950317
:102D4000A5A69603A6A69703A7A69803A8A69903E7
:102D5000A9A69A03AAA69B03ABA69C03ACA69D03B7
:102D6000ADA69E03AEA69F03AFA6A003B0A6A10387
:102D7000B1A6A303B2A6A403B3A6A503B4A6A60353
:102D8000B5A6A703B6A6A803B7A6A903B8A6B1031C
:102D9000C1A6B203C2A6B303C3A6B403C4A6B503B7
:102DA000C5A6B603C6A6B703C7A6B803C8A6B90387
:102DB000C9A6BA03CAA6BB03CBA6BC03CCA6BD0357
:102DC000CDA6BE03CEA6BF03CFA6C003D0A6C10327
:102DD000D1A6C303D2A6C403D3A6C503D4A6C603F3
:102DE000D5A6C703D6A6C803D7A6C903D8A601048B
:102DF000A7A71004A1A71104A2A71204A3A7130454
:102E0000A4A71404A5A71504A6A71604A8A7170429
:102E1000A9A71804AAA71904ABA71A04ACA71B04F6
:102E2000ADA71C04AEA71D04AFA71E04B0A71F04C6
:102E3000B1A72004B2A72104B3A72204B4A7230496
:102E4000B5A72404B6A72504B7A72604B8A7270466
:102E5000B9A72804BAA72904BBA72A04BCA72B0436
:102E6000BDA72C04BEA72D04BFA72E04C0A72F0406
:102E7000C1A73004D1A73104D2A73204D3A73304A9
:102E8000D4A73404D5A73504D6A73604D8A7370469
:102E9000D9A73804DAA73904DBA73A04DCA73B0436
:102EA000DDA73C04DEA73D04DFA73E04E0A73F0406
:102EB000E1A74004E2A74104E3A74204E4A74304D6
:102EC000E5A74404E6A74504E7A74604E8A74704A6
:102ED000E9A74804EAA74904EBA74A04ECA74B0476
:102EE000EDA74C04EEA74D04EFA74E04F0A74F0446
:102EF000F1A75104D7A710205CA9132043A81420E0
:102F0000AAA1152044A81620ACA11820AEA1192012
:102F1000AFA11C20B0A11D20B1A1252045A82620CD
:102F2000ADA13020EBA13220E4A13320E5A1352072
:102F300046A83B20F9A1AC2080000321E6A1052191
:102F400047A8092148A81621EDA1212159A96021EE
:102F5000F1A26121F2A26221F3A26321F4A2642111
:102F6000F5A26521F6A26621F7A26721F8A26821E1
:102F7000F9A26921FAA26A21FBA26B21FCA27021AD
:102F8000A1A27121A2A27221A3A27321A4A27421E1
:102F9000A5A27521A6A27621A7A27721A8A27821B1
:102FA000A9A27921AAA29021FBA19121FCA19221A1
:102FB000FAA19321FDA1962149A897214AA8982119
:102FC0004BA899214CA80822CAA10F22C7A11122FF
:102FD000C6A115224DA81A22CCA11D22D8A11E22BD
:102FE000DEA11F224EA82022CFA123224FA82522F6
:102FF000CEA12722C4A12822C5A12922C9A12A2203
:10300000C8A12B22D2A12E22D3A13422E0A13522A5
:10301000DFA13622C3A13722CBA13D22D7A148226E
:10302000D6A14C22D5A1522250A86022D9A161225A
:10303000D4A16422DCA16522DDA1662251A8672209
:1030400052A86E22DAA16F22DBA1952292A89922C2
:10305000D1A1A522CDA1BF2253A81223D0A16024C3
:10306000D9A26124DAA26224DBA26324DCA2642454
:10307000DDA26524DEA26624DFA26724E0A2682424
:10308000E1A26924E2A27424C5A27524C6A2762412
:10309000C7A27724C8A27824C9A27924CAA27A2414
:1030A000CBA27B24CCA27C24CDA27D24CEA27E24E4
:1030B000CFA27F24D0A28024D1A28124D2A28224B4
:1030C000D3A28324D4A28424D5A28524D6A2862484
:1030D000D7A28724D8A28824B1A28924B2A28A24A4
:1030E000B3A28B24B4A28C24B5A28D24B6A28E24C4
:1030F000B7A28F24B8A29024B9A29124BAA2922494
:10310000BBA29324BCA29424BDA29524BEA2962463
:10311000BFA29724C0A29824C1A29924C2A29A2433
:10312000C3A29B24C4A20025A4A90125A5A9022508
:10313000A6A90325A7A90425A8A90525A9A90625A7
:10314000AAA90725ABA90825ACA90925ADA90A2577
:10315000AEA90B25AFA90C25B0A90D25B1A90E2547
:10316000B2A90F25B3A91025B4A91125B5A9122517
:10317000B6A91325B7A91425B8A91525B9A91625E7
:10318000BAA91725BBA91825BCA91925BDA91A25B7
:10319000BEA91B25BFA91C25C0A91D25C1A91E2587
:1031A000C2A91F25C3A92025C4A92125C5A9222557
:1031B000C6A92325C7A92425C8A92525C9A9262527
:1031C000CAA92725CBA92825CCA92925CDA92A25F7
:1031D000CEA92B25CFA92C25D0A92D25D1A92E25C7
:1031E000D2A92F25D3A93025D4A93125D5A9322597
:1031F000D6A93325D7A93425D8A93525D9A9362567
:10320000DAA93725DBA93825DCA93925DDA93A2536
:10321000DEA93B25DFA93C25E0A93D25E1A93E2506
:10322000E2A93F25E3A94025E4A94125E5A94225D6
:10323000E6A94325E7A94425E8A94525E9A94625A6
:10324000EAA94725EBA94825ECA94925EDA94A2576
:10325000EEA94B25EFA9502554A8512555A8522574
:1032600056A8532557A8542558A8552559A856257A
:103270005AA857255BA858255CA859255DA85A254A
:103280005EA85B255FA85C2560A85D2561A85E251A
:1032900062A85F2563A8602564A8612565A86225EA
:1032A00066A8632567A8642568A8652569A86625BA
:1032B0006AA867256BA868256CA869256DA86A258A
:1032C0006EA86B256FA86C2570A86D2571A86E255A
:1032D00072A86F2573A8702574A8712575A872252A
:1032E00076A8732577A8812578A8822579A88325D3
:1032F0007AA884257BA885257CA886257DA8872596
:103300007EA8882580A8892581A88A2582A88B2562
:1033100083A88C2584A88D2585A88E2586A88F2531
:1033200087A8932588A8942589A895258AA8A025EB
:10333000F6A1A125F5A1B225F8A1B325F7A1BC25D9
:103340008BA8BD258CA8C625F4A1C725F3A1CB2544
:10335000F0A1CE25F2A1CF25F1A1E2258DA8E3258C
:103360008EA8E4258FA8E52590A80526EFA10626BE
:10337000EEA1092691A84026E2A14226E1A1003053
:10338000A1A10130A2A10230A3A10330A8A1053060
:10339000A9A1063065A9073096A90830B4A1093063
:1033A000B5A10A30B6A10B30B7A10C30B8A10D30D1
:1033B000B9A10E30BAA10F30BBA11030BEA111309F
:1033C000BFA1123093A81330FEA11430B2A1153062
:1033D000B3A11630BCA11730BDA11D3094A81E307A
:1033E00095A8213040A9223041A9233042A9243098
:1033F00043A9253044A9263045A9273046A92830BD
:1034000047A9293048A94130A1A44230A2A44330A1
:10341000A3A44430A4A44530A5A44630A6A44730B4
:10342000A7A44830A8A44930A9A44A30AAA44B3084
:10343000ABA44C30ACA44D30ADA44E30AEA44F3054
:10344000AFA45030B0A45130B1A45230B2A4533024
:10345000B3A45430B4A45530B5A45630B6A45730F4
:10346000B7A45830B8A45930B9A45A30BAA45B30C4
:10347000BBA45C30BCA45D30BDA45E30BEA45F3094
:10348000BFA46030C0A46130C1A46230C2A4633064
:10349000C3A46430C4A46530C5A46630C6A4673034
:1034A000C7A46830C8A46930C9A46A30CAA46B3004
:1034B000CBA46C30CCA46D30CDA46E30CEA46F30D4
:1034C000CFA47030D0A47130D1A47230D2A47330A4
:1034D000D3A47430D4A47530D5A47630D6A4773074
:1034E000D7A47830D8A47930D9A47A30DAA47B3044
:1034F000DBA47C30DCA47D30DDA47E30DEA47F3014
:10350000DFA48030E0A48130E1A48230E2A48330E3
:10351000E3A48430E4A48530E5A48630E6A48730B3
:10352000E7A48830E8A48930E9A48A30EAA48B3083
:10353000EBA48C30ECA48D30EDA48E30EEA48F3053
:10354000EFA49030F0A49130F1A49230F2A4933023
:10355000F3A49B3061A99C3062A99D3066A99E307E
:1035600067A9A130A1A5A230A2A5A330A3A5A4302C
:10357000A4A5A530A5A5A630A6A5A730A7A5A830C7
:10358000A8A5A930A9A5AA30AAA5AB30ABA5AC3097
:10359000ACA5AD30ADA5AE30AEA5AF30AFA5B03067
:1035A000B0A5B130B1A5B230B2A5B330B3A5B43037
:1035B000B4A5B530B5A5B630B6A5B730B7A5B83007
:1035C000B8A5B930B9A5BA30BAA5BB30BBA5BC30D7
:1035D000BCA5BD30BDA5BE30BEA5BF30BFA5C030A7
:1035E000C0A5C130C1A5C230C2A5C330C3A5C43077
:1035F000C4A5C530C5A5C630C6A5C730C7A5C83047
:10360000C8A5C930C9A5CA30CAA5CB30CBA5CC3016
:10361000CCA5CD30CDA5CE30CEA5CF30CFA5D030E6
:10362000D0A5D130D1A5D230D2A5D330D3A5D430B6
:10363000D4A5D530D5A5D630D6A5D730D7A5D83086
:10364000D8A5D930D9A5DA30DAA5DB30DBA5DC3056
:10365000DCA5DD30DDA5DE30DEA5DF30DFA5E03026
:10366000E0A5E130E1A5E230E2A5E330E3A5E430F6
:10367000E4A5E530E5A5E630E6A5E730E7A5E830C6
:10368000E8A5E930E9A5EA30EAA5EB30EBA5EC3096
:10369000ECA5ED30EDA5EE30EEA5EF30EFA5F03066
:1036A000F0A5F130F1A5F230F2A5F330F3A5F43036
:1036B000F4A5F530F5A5F630F6A5FC3060A9FD308F
:1036C00063A9FE3064A90531C5A80631C6A8073133
:1036D000C7A80831C8A80931C9A80A31CAA80B313E
:1036E000CBA80C31CCA80D31CDA80E31CEA80F310E
:1036F000CFA81031D0A81131D1A81231D2A81331DE
:10370000D3A81431D4A81531D5A81631D6A81731AD
:10371000D7A81831D8A81931D9A81A31DAA81B317D
:10372000DBA81C31DCA81D31DDA81E31DEA81F314D
:10373000DFA82031E0A82131E1A82231E2A823311D
:10374000E3A82431E4A82531E5A82631E6A82731ED
:10375000E7A82831E8A82931E9A82032E5A22132DA
:10376000E6A22232E7A22332E8A22432E9A22532DD
:10377000EAA22632EBA22732ECA22832EDA22932AD
:10378000EEA231325AA9A33249A98E334AA98F3306
:103790004BA99C334CA99D334DA99E334EA9A1330F
:1037A0004FA9C43350A9CE3351A9D13352A9D23332
:1037B00053A9D53354A9004EBBD2014EA1B6024E37
:1037C0004081034EDFC6044E4181054E4281064EC4
:1037D0004381074EF2CD084EC9D5094EFDC80A4EA9
:1037E000CFC90B4EC2CF0C4EA2D80D4EBBB20E4E5F
:1037F000EBD30F4E4481104EA4D8114EF3B3124EAA
:103800004581134EA8D7144ED2C7154EA7D8164ED1
:10381000C0CA174E4681184EF0C7194EFBB11A4E5A
:10382000B5D21B4ED4B41C4EABB61D4EBFCB1E4EF4
:10383000A9D81F4E4781204E4881214E4981224EF2
:10384000AAB6234E4A81244EBDC1254ECFD1264E65
:103850004B81274EA5C9284EADD8294E4C812A4E02
:10386000F6B82B4EBED12C4EDCE32D4ED0D62E4ECC
:103870004D812F4E4E81304EE1B7314E4F81324E49
:10388000AEB4334E5081344ED9C1354E5181364E8F
:10389000BCD8374E5281384EE8CD394EA4B53A4E99
:1038A000AACE3B4EF7D63C4E53813D4EF6C03E4E1F
:1038B000D9BE3F4EAFD8404E5481414E5581424E05
:1038C0005681434ECBC4444E5781454EC3BE464EEF
:1038D0005881474EB1D8484EB4C3494EE5D24A4EFE
:1038E00059814B4EAED64C4EDACE4D4EA7D54E4EEC
:1038F000F5BA4F4EA6B7504ED6C0514E5A81524ED1
:10390000B9C6534ED2C5544EC7C7554E5B81564EAD
:10391000D4B9574E5C81584ECBB3594ED2D25A4E81
:103920005D815B4E5E815C4EBFD85D4EC5BE5E4E16
:10393000F2C65F4EB2D2604EB0CF614EE7CF624E5C
:103940005F81634E6081644E6181654E6281664E27
:10395000E9CA674E6381684E6481694EC0D86A4E79
:1039600065816B4E66816C4E67816D4E68816E4ECF
:1039700069816F4E6A81704EF2C2714ED2C2724E30
:103980006B81734EE9C8744E6C81754E6D81764EB5
:103990006E81774E6F81784E7081794E71817A4E4B
:1039A00072817B4E73817C4E74817D4E75817E4E1B
:1039B000ACC77F4E7681804E7781814E7881824E72
:1039C0007981834E7A81844E7B81854E7C81864EBF
:1039D000CBC1874E7D81884EE8D3894EF9D58A4E7A
:1039E0007E818B4EC2CA8C4EFEB68D4EA1D88E4EB5
:1039F000DAD38F4EF7BF904E8081914EC6D4924E4F
:103A0000A5BB934EC1D8944EE5CE954EAEBE964E14
:103A10008181974E8281984EA8D8994E83819A4E83
:103A2000C7D19B4EA9D09C4E84819D4E85819E4ED0
:103A300086819F4EBDD8A04EEFD9A14EF6CDA24EA5
:103A4000BABFA34E8781A44EBBBDA54EA5BAA64E54
:103A5000E0D2A74EFAB2A84EE0BAA94EB6C4AA4E1A
:103A60008881AB4EEDCFAC4EA9BEAD4EA4CDAE4ECF
:103A7000C1C1AF4E8981B04E8A81B14E8B81B24EA9
:103A8000D7C7B34EF1D9B44E8C81B54EF4D9B64EEA
:103A90008D81B74E8E81B84E8F81B94E9081BA4ECE
:103AA000CBC8BB4EE9D8BC4E9181BD4E9281BE4E73
:103AB0009381BF4EDAD2C04EB2CAC14ECAC8C24EFE
:103AC000ECD8C34EEAD8C44EC6D8C54EF6BDC64ED5
:103AD000CDC6C74EF0B3C84E9481C94EEBD8CA4E7E
:103AE000F1BDCB4EE9BDCC4E9581CD4ED4C8CE4E66
:103AF000D3B4CF4E9681D04E9781D14ED8C2D24EFC
:103B00009881D34ED6B2D44ED0D7D54ECBCAD64E4E
:103B1000FBCBD74ECCD5D84EB6B8D94EC9CFDA4E9E
:103B20009981DB4E9A81DC4E9B81DD4EDAD9DE4EE7
:103B3000F0D8DF4EAAC7E04E9C81E14EEED8E24EAF
:103B40009D81E34EFAB4E44EEEC1E54ED4D2E64E8A
:103B50009E81E74E9F81E84EEDD8E94EA081EA4E66
:103B6000C7D2EB4EEFD8EC4EC7C3ED4EA181EE4E5F
:103B7000A281EF4EA381F04EF6D1F14EA481F24E18
:103B8000D9D6F34EF2D8F44EA581F54EF5D8F64EBF
:103B9000FEBCF74EDBBCF84EA681F94EA781FA4E6B
:103BA000A881FB4ECEC8FC4EA981FD4EDDB7FE4E6E
:103BB000AA81FF4EC2B7004FAB81014FF3C6024F3F
:103BC000AC81034FAD81044FAE81054FAF81064FED
:103BD000B081074FB181084FB281094FF8D80A4F21
:103BE000C1D20B4FB3810C4FB4810D4FE9CE0E4FB4
:103BF000BFBC0F4FFCB7104FA5B7114FDDD0124F10
:103C0000B581134FB681144FB781154FB881164F48
:103C1000B981174FDAD6184FC5D3194FEFBB1A4FDA
:103C2000E1BB1B4FF1D81C4FBA811D4FBB811E4F0A
:103C3000A1C91F4FB0CE204FABB4214FBC81224F42
:103C4000F3D8234FBD81244FCBC9254FF6D8264F3B
:103C5000D7C2274FF7D8284FBE81294FBF812A4F9F
:103C6000B1CE2B4FF9D82C4FC0812D4FC1812E4F93
:103C7000C2812F4FAEB2304FC0B9314FC381324FE6
:103C8000A3D9334FC481344FE9B0354FC581364F86
:103C9000E6C1374FC681384FECC9394FC7813A4F1B
:103CA000C5CB3B4FC8813C4FC6CB3D4FA4D93E4FFF
:103CB000C9813F4FCA81404FCB81414FCC81424F98
:103CC000CD81434FE8B5444FCE81454FCF81464F1C
:103CD000ABB5474FD081484FD181494FD2814A4F30
:103CE000D3814B4FD4814C4FD5814D4FBBCE4E4FDE
:103CF000CDB54F4FA1D7504FF4D7514FD3D3524FDB
:103D0000D681534FE5CC544FD781554FCEBA564F3D
:103D1000D881574FA2D9584FDCD9594FE0D35A4FC9
:103D2000FDD85B4FF0B75C4FF7D75D4FFED85E4FC5
:103D3000FAD85F4FA1D9604FE3C4614FD981624F78
:103D4000DA81634FB6D3644FF4D8654FDDD9664F3F
:103D5000DB81674FFBD8684FDC81694FE5C56A4F4F
:103D6000DD816B4FDE816C4FD0C06D4FDF816E4FB8
:103D7000E0816F4FF0D1704FDBB0714FE181724F36
:103D8000E281734FD1BC744FA6D9754FE381764F52
:103D9000A5D9774FE481784FE581794FE6817A4F55
:103DA000E7817B4FACD97C4FAED97D4FE8817E4F08
:103DB000ABD97F4FB9CA804FE981814FEA81824FE9
:103DC000EB81834FA9D9844FB6D6854FEC81864FBE
:103DD000ED81874FEE81884FDEB3894FA8D98A4F96
:103DE000EF818B4FFDC08C4FF0818D4FCCCA8E4F31
:103DF000F1818F4FAAD9904FF281914FA7D9924F5D
:103E0000F381934FF481944FB0D9954FF581964F3C
:103E1000F681974FB1B6984FF781994FF8819A4F35
:103E2000F9819B4FA9B99C4FFA819D4FC0D29E4FFB
:103E3000FB819F4FFC81A04FC0CFA14FFD81A24FBE
:103E4000FE81A34FC2C2A44F4082A54FC4BDA64F5E
:103E5000ECD5A74FE0B2A84FC8C7A94FEBBFAA4FF8
:103E6000ADD9AB4F4182AC4FAFD9AD4F4282AE4FCF
:103E7000EACEAF4FEEBAB04F4382B14F4482B24F59
:103E80004582B34F4682B44F4782B54FD6C7B64F2F
:103E90004882B74F4982B84F4A82B94F4B82BA4FD6
:103EA0004C82BB4F4D82BC4F4E82BD4F4F82BE4FA6
:103EB0005082BF4FE3B1C04F5182C14F5282C24FB7
:103EC0005382C34FD9B4C44FEDB6C54FB4D9C64F12
:103ED0005482C74F5582C84F5682C94F5782CA4F26
:103EE000A1BFCB4F5882CC4F5982CD4F5A82CE4F73
:103EF000DED9CF4FCEC7D04FFEC0D14FB8D9D24FA9
:103F00005B82D34F5C82D44F5D82D54F5E82D64FA9
:103F10005F82D74FD7CBD84FFDB7D94F6082DA4FEA
:103F2000B5D9DB4F6182DC4FB7D9DD4FA3B1DE4F8E
:103F3000E1D3DF4FB9D9E04F6282E14FC5D0E24F04
:103F40006382E34FB6D9E44F6482E54F6582E64F62
:103F5000B1D9E74F6682E84FB2D9E94FA9C1EA4F1C
:103F6000B3D9EB4F6782EC4F6882ED4FF3BCEE4F55
:103F7000DED0EF4FA9B8F04F6982F14FE3BEF24FA8
:103F80006A82F34FBDD9F44F6B82F54F6C82F64FC6
:103F90006D82F74F6E82F84FBAD9F94F6F82FA4FA0
:103FA000B3B0FB4F7082FC4F7182FD4F7282FE4FA7
:103FB000C2D9FF4F73820050748201507582025043
:103FC00076820350778204507882055079820650B9
:103FD0007A8207507B8208507C8209507D820A5089
:103FE0007E820B5080820C50C4D90D50B6B10E5059
:103FF00081820F50BFD9105082821150838212509B
:10400000B9B5135084821450F3BE155085821650F2
:104010008682175087821850C8CC1950F2BA1A50AD
:10402000D0D21B5088821C50C3D91D5089821E508B
:104030008A821F50E8BD20508B822150ABB32250A2
:104040008C8223508D8224508E822550C5D92650D3
:10405000EBBE27508F822850C6D92950BBD92A5091
:10406000DFC42B5090822C50BED92D50C1D92E5078
:10407000C0D92F5091823050928231509382325069
:1040800094823350958234509682355097823650C0
:1040900098823750998238509A8239509B823A5090
:1040A000AED53B509C823C50B5D63D509D823E5093
:1040B000E3C73F509E8240509F824150A0824250B1
:1040C000A1824350C8D94450A2824550A382465091
:1040D000A4824750D9BC4850CAD94950A5824A50F9
:1040E000A6824B50A7824C50BCD94D50A8824E504E
:1040F000CBD94F50ABC65050A9825150AA825250D2
:10410000AB825350AC825450AD825550C9D95650F1
:10411000AE825750AF825850B0825950B1825A5037
:10412000F6D75B50B2825C50A3CD5D50B3825E5037
:10413000B4825F50B5826050B6826150B7826250DF
:10414000B8826350B9826450BA826550A1BD66508E
:10415000BB826750BC826850BD826950BE826A5083
:10416000BF826B50C0826C50CCD96D50C1826E50F2
:10417000C2826F50C3827050C4827150C582725027
:10418000C6827350C7827450C8827550C9827650F7
:10419000BCC57750B5CD7850CA827950CB827A5061
:1041A000CC827B50CDD97C50CD827D50CE827E504A
:1041B000C7D97F50A5B38050FEBF8150CF828250B7
:1041C000D0828350D1828450D2828550B5B8865037
:1041D000D3828750D4828850FCC08950D5828A50BF
:1041E000D6828B50D7828C50D8828D50F8B08E50AA
:1041F000D9828F50DA829050DB829150DC829250CB
:10420000DD829350DE829450DF829550E08296509A
:10421000E1829750E2829850E3829950E4829A506A
:10422000E5829B50E6829C50E7829D50E8829E503A
:10423000E9829F50EA82A050EB82A150EC82A2500A
:10424000ED82A350F6B4A450EE82A550CED9A6506C
:10425000EF82A750CFD9A850A2B4A950D0D9AA5064
:10426000F082AB50F182AC50DFB4AD50F282AE5070
:10427000F382AF50F482B050F582B150F682B25062
:10428000C1B0B350F782B450F882B550F982B6503D
:10429000FA82B750FB82B850FC82B950FD82BA5006
:1042A000D1D9BB50B5C9BC50FE82BD504083BE5071
:1042B0004183BF504283C0504383C1504483C250A6
:1042C0004583C3504683C4504783C5504883C65076
:1042D0004983C7504A83C8504B83C9504C83CA5046
:1042E0004D83CB504E83CC504F83CD505083CE5016
:1042F0005183CF50F1CFD0505283D1505383D250FD
:104300005483D3505583D4505683D5505783D650B9
:10431000D2D9D7505883D8505983D9505A83DA50BC
:10432000C5C1DB505B83DC505C83DD505D83DE50B8
:104330005E83DF505F83E0506083E1506183E25031
:104340006283E3506383E4506483E5506583E65001
:10435000D6D9E750AEC9E8506683E9506783EA5082
:104360006883EB506983EC50D5D9ED50D4D9EE5029
:10437000D7D9EF506A83F0506B83F1506C83F250C1
:104380006D83F350DBCBF4506E83F550A9BDF6502E
:104390006F83F7507083F8507183F9507283FA502D
:1043A0007383FB50A7C6FC507483FD507583FE5089
:1043B0007683FF50778300517883015179830251CE
:1043C0007A8303517B8304517C8305517D8306519D
:1043D000D3D90751D8D908517E83095180830A5116
:1043E00081830B51D9D90C5182830D5183830E5196
:1043F00084830F5185831051868311518783125115
:10440000E5C8135188831451898315518A83165145
:104410008B8317518C8318518D8319518E831A51B8
:104420008F831B5190831C5191831D5192831E5188
:1044300093831F519483205195832151DCC02251D5
:10444000968323519783245198832551998326512C
:104450009A8327519B8328519C8329519D832A51FC
:104460009E832B519F832C51A0832D51A1832E51CC
:10447000A2832F51A3833051A4833151A58332519C
:10448000A6833351A7833451A8833551A98336516C
:10449000AA833751AB833851AC833951AD833A513C
:1044A000AE833B51AF833C51B0833D51B1833E510C
:1044B000B2833F51F9B64051A3D84151CAD44251B9
:1044C000B3834351AAD44451D6D04551E4B34651A5
:1044D000D7D54751B4834851C8CF4951E2B94A5161
:1044E000B5834B51CBBF4C51B6834D51E2C34E51B6
:1044F000B7834F51B8835051B9835151D2B65251FD
:10450000BA835351BB835451C3CD5551EED9565143
:10451000F0D95751BC835851BD835951BE835A516C
:10452000B3B55B51BF835C51B5B65D51C0835E517D
:10453000C1835F51C2836051C3836151C48362519F
:10454000A4BE6351C5836451C6836551EBC86651EF
:10455000C7836751C8836851ABC86951C9836A5121
:10456000CA836B51CBB06C51ABB96D51F9C16E516F
:10457000E2D96F51CB837051BCC07151B2B9725145
:10458000CC837351D8B97451CBD07551F8B17651F1
:10459000E4C67751DFBE7851E4B57951C8D77A5176
:1045A000CD837B51F8D17C51E6BC7D51DECA7E5172
:1045B000CE837F51CF838051BDBC8151E6D98251DA
:1045C000E7D88351D0838451D1838551DAC4865191
:1045D000D2838751D3838851D4B88951BDC88A51B9
:1045E000D4838B51D5838C51E1B28D51D9D48E5166
:1045F000D6838F51D7839051D8839151D9839251CB
:10460000B0C39351DA839451DB839551E1C3965142
:10461000A2DA9751DFC89851DC839951B4D09A51EE
:10462000DD839B51FCBE9C51A9C59D51DE839E51EB
:10463000DF839F51E083A051DAB9A151E183A251F8
:10464000A3DAA351E283A451A9D4A551A4DAA651B7
:10465000E383A751E483A851E583A951E683AA51D6
:10466000E783AB51FBD9AC51ACB6AD51E883AE5149
:10467000E983AF51EBB7B051F9B1B151FCD9B251A7
:10468000E5B3B351F6BEB451EA83B551F6BFB651A6
:10469000B1D2B751E4C0B851EB83B951EC83BA51F0
:1046A000ED83BB51B3B6BC51FED9BD51FDD9BE514E
:1046B000EE83BF51EF83C051BBBEC151F083C251E5
:1046C000F183C351F283C451E0C6C551F383C6518F
:1046D000BCD7C751A1DAC851F483C951B9C1CA5175
:1046E000F583CB51F2B5CC51E8C1CD51F683CE5113
:1046F000F783CF51F5BCD051F883D151D5B4D25105
:10470000F983D351FA83D451FB83D551FC83D6511D
:10471000FD83D751FE83D8514084D9514184DA5169
:104720004284DB51DDC1DC514384DD51FDC4DE51E7
:104730004484DF514584E051B8BCE151B2B7E25145
:104740004684E3514784E451EFB7E5514884E6518C
:104750004984E7514A84E8514B84E9514C84EA5139
:104760004D84EB51ECD9EC514E84ED51BEC6EE5167
:104770004F84EF51ADBFF051CBBBF1515084F2519A
:104780005184F351CAB5F4515284F551C9DBF65145
:10479000D7D0F7515384F851B9CDF951BCB0FA5183
:1047A000F6B3FB51F7BBFC51CADBFD51AFBAFE516A
:1047B0005484FF51E4D40052B6B50152F3B502520D
:1047C000D6D80352D0C80452558405525684065296
:1047D000D6B70752D0C70852D7D8095257840A52C1
:1047E000AFBF0B5258840C5259840D52BBDB0E5292
:1047F000D8D80F525A8410525B841152CCD0125226
:10480000AEBB13525C8414525D8415525E84165202
:10481000BEEB1752D0C11852F5C11952F2D41A5238
:10482000D5B81B52B4B41C525F841D52F5B31E524E
:1048300060841F5261842052BEC921526284225278
:104840006384235264842452D0C525526584265241
:104850006684275267842852D9C52952FBC02A5240
:1048600068842B52F0B12C5269842D52D9D82E5223
:10487000CEB92F526A843052BDB531526B84325258
:104880006C843352DAD834526D8435526E84365289
:10489000C6D63752A2CB3852AFC83952B2C93A52F3
:1048A000CCB43B52CCBF3C526F843D52F4B93E5223
:1048B00070843F52DBD84052DCD84152E7B64252B6
:1048C000C1BC4352EACC4452718445527284465270
:1048D00073844752748448527584495276844A528C
:1048E000F7CF4B5277844C52DDD84D52B0C74E5261
:1048F00078844F5279845052D0B95152A3BD52524C
:104900007A8453527B845452DECC55527C84565266
:10491000CAC657527D8458527E84595280845A5256
:1049200081845B5282845C52E0D85D5283845E5203
:10493000DED85F528484605285846152DFD862522F
:10494000868463528784645288846552FEB06652BE
:1049500089846752E7BE68528A846952A3CA6A5240
:10496000F4BC6B528B846C528C846D528D846E526D
:104970008E846F52B1B870528F847152908472528B
:10498000EEB8735291847452928475529384765225
:1049900094847752958478529684795297847A5287
:1049A00098847B5299847C529A847D52E2D87E52BC
:1049B0009B847F52CBBD80529C848152E4D882522A
:1049C000E3D883529D8484529E8485529F8486526C
:1049D000A0848752A1848852FCC58952A2848A523D
:1049E000A3848B52A4848C52A5848D52A6848E52AB
:1049F000A7848F52A8849052E5D89152A9849252EC
:104A0000AA849352E6D89452AB849552AC849652C1
:104A1000AD849752AE849852AF849952B0849A5222
:104A2000B1849B52A6C19C52B2849D52B0C89E5282
:104A3000ECB09F52A6B9A052D3BCA152F1CEA25263
:104A4000BDDBA352D3C1A452B384A552B484A652F1
:104A5000B584A752B684A852AFB6A952FAD6AA52C4
:104A6000ACC5AB52D9BDAC52BEDBAD52BFDBAE5212
:104A7000B784AF52B884B052B984B152F8C0B252C0
:104A8000A2BEB352CDC0B452BA84B552BB84B652A2
:104A9000BC84B752BD84B852BE84B952BF84BA52E6
:104AA000C084BB52C184BC52C284BD52C384BE52B6
:104AB000C0DBBF52C6CAC052C484C152C584C252F0
:104AC000C684C352AAB2C452C784C552C884C6524F
:104AD000C984C752C2D3C852CA84C952E3C3CA5296
:104AE000CB84CB52ABD1CC52CC84CD52CD84CE52E0
:104AF000CE84CF52CF84D052C2DBD152D084D25296
:104B0000D5C0D352D184D452D284D552D384D65274
:104B1000C3DBD752D484D852B1BFD952D584DA522C
:104B2000D684DB52D784DC52D884DD52D984DE525D
:104B3000DA84DF52BCC4E052DB84E152DC84E2520E
:104B4000DD84E352DE84E452DAC7E552DF84E652C4
:104B5000E084E752E184E852E284E952E384EA52D5
:104B6000E484EB52E584EC52E684ED52E784EE52A5
:104B7000E884EF52E984F052C4DBF152EA84F25245
:104B8000EB84F352EC84F452ED84F552EE84F65249
:104B9000EF84F752F084F852F184F952E8D9FA52CE
:104BA000D7C9FB52F284FC52F384FD52F484FE52C6
:104BB000B4B9FF52F0CE0053C8D40153F584025368
:104BC000F6840353F7840453F8840553FCB006536A
:104BD000D2B40753F9840853D9D00953FA840A533D
:104BE000FB840B53FC840C53FD840D53E9D90E5305
:104BF000FE840F53CBDE1053EBD911534085125373
:104C0000418513534285145343851553B0D8165329
:104C1000AFBB1753B1B1185344851953D7B31A53C7
:104C2000CED81B5345851C5346851D53D1D41E53E6
:104C300047851F5348852053B3BD2153EFBF2253EF
:104C400049852353BBCF24534A8525534B8526538F
:104C5000D0D827534C8528534D8529534E852A5348
:104C6000CBB72B534F852C5350852D5351852E5345
:104C7000D1D82F53528530535385315354853253F5
:104C80005585335356853453578535535885365398
:104C9000598537535A8538535B853953A5C63A53DE
:104CA000F8C73B53BDD23C535C853D535D853E53B5
:104CB000D2D83F53E4C440535E854153AECA4253F9
:104CC0005F854353A7C7445360854553A6D84653D1
:104CD00061854753FDC94853E7CE4953DCBB4A536E
:104CE000EBB04B5362854C5363854D5364854E53F3
:104CF000AABB4F53ADD0505365855153B0B15253F9
:104D0000E4D75353BFD7545366855553A5B556536F
:104D1000F4C25753CFC458536785595368855A53C3
:104D2000A9B25B5369855C53B7B25D536A855E5324
:104D3000E5B15F53B2DF6053BCD56153A8BF625386
:104D4000ACC26353D5D86453B1C265536B85665307
:104D5000D4D86753D4CE68536C856953E0DA6A536C
:104D60006D856B53C0CE6C536E856D536F856E53DE
:104D7000B4D86F53AEC37053A1D37153A3CE725343
:104D800070857353B4BC7453B4C87553D1C2765391
:104D900071857753EDBE7853B6D0795372857A53C7
:104DA000E1DA7B5373857C5374857D5375857E531F
:104DB00076857F53E4C78053778581537885825306
:104DC000A7B3835379858453F2B68553FCCC8653BD
:104DD000FAC087537A8588537B858953F7C08A53F5
:104DE0007C858B53B9D18C53E1D18D53C7D88E5369
:104DF0007D858F537E859053808591538185925315
:104E0000828593538385945384859553DEB296535C
:104E10008585975386859853E5C0995387859A531E
:104E2000F1BA9B5388859C5389859D53C8D89E535E
:104E30008A859F53ADD4A0538B85A1538C85A253F3
:104E4000E1CFA353C9D8A4538D85A553CAD8A6537F
:104E5000C3CFA7538E85A853F8B3A953C7BEAA538F
:104E60008F85AB539085AC539185AD539285AE53EE
:104E7000CBD8AF539385B0539485B1539585B25336
:104E80009685B3539785B4539885B5539985B65392
:104E9000CCDBB7539A85B8539B85B9539C85BA53DD
:104EA0009D85BB53A5C8BC539E85BD539F85BE53EE
:104EB000A085BF53D8CFC053A185C153FEC8C253EC
:104EC000CEB2C353A285C453A385C553A485C6538C
:104ED000A585C753A685C853D6D3C953E6B2CA53CE
:104EE000B0BCCB53D1D3CC53ABCBCD53B4B7CE5353
:104EF000A785CF53A885D053A985D153A2B7D25344
:104F0000AA85D353AB85D453E5CAD553AC85D653C4
:104F1000A1C8D753DCCAD853E4B1D953F0D0DA537F
:104F2000AD85DB53D1C5DC53AE85DD53AF85DE5394
:104F3000B085DF53C5DBE053FEB5E153B185E253E5
:104F4000B285E353DABFE453C5B9E553E4BEE65393
:104F5000EDC1E753B385E853B6DFE953B5DFEA5354
:104F6000BBD6EB53D0BDEC53D9D5ED53C8B0EE53FF
:104F7000A3B6EF53C9BFF053A8CCF153B3DFF2533C
:104F8000B7CAF353D2D3F453B485F553CFD8F653FD
:104F9000B6D2F753C5BAF853BECBF953BECCFA53C9
:104FA000B585FB53B7DFFC53F0B5FD53B4DFFE53BB
:104FB000B685FF53B7850054B8850154F5D3025424
:104FC000B9850354D4B30454F7B80554BA850654CC
:104FD000BADF0754BB850854CFBA0954AABC0A5497
:104FE000F5B50B54BC850C54ACCD0D54FBC30E541D
:104FF000F3BA0F54F4C01054C2CD1154F2CF12546E
:10500000B8DF1354C5CF1454BD851554C0C216540F
:10501000B9DF1754F0C21854BE851954BF851A540D
:10502000C0851B54FDBE1C54C1851D54DFC11E54D8
:10503000CCCD1F54F7D22054CDB72154C1DF225418
:10504000C2852354C4DF2454C3852554C485265403
:10505000F1B72754C9B02854D6B62954D4B72A5426
:10506000C5852B54ACBA2C54FDCC2D54D4BF2E5432
:10507000B1CB2F54F4C63054C6853154A8D632541F
:10508000C5DF3354C7853454E2CE3554B3B33654F8
:10509000C8853754C9853854FCCE3954B5B43A5410
:1050A000CA853B54C7CE3C54F0BA3D54CB853E54E0
:1050B000E1CE3F54CC854054BDD14154CD854254BE
:1050C000CE854354C0DF4454CF854554D0854654E3
:1050D000F4B44754D1854854CAB34954D2854A548C
:1050E000E6B84B54BBDF4C54D3854D54D4854E5455
:1050F000D5854F54D6855054C5C45154D785525484
:10510000BCDF5354BDDF5454BEDF5554BBC55654A9
:10511000BFDF5754C2DF5854B1D45954C3DF5A5477
:10512000D8855B54BAC75C54D8CE5D54D9855E54DB
:10513000DA855F54DB856054DC856154DD8562541B
:10514000D8C46354DE856454CADF6554DF85665471
:10515000CFDF6754E0856854DCD66954E1856A5432
:10516000E2856B54E3856C54E4856D54E5856E549B
:10517000E6856F54E7857054E8857154C9DF725431
:10518000DADF7354B6CE7454E9857554C7BA7654D1
:10519000CEDF7754C8DF7854DEC57954EA857A5477
:1051A000EB857B54EBC97C54F4BA7D54FCC37E542C
:1051B000EC857F54ED858054D7BE8154EE858254B2
:1051C000C6DF8354EF858454CDDF8554F085865443
:1051D000D8C58754F1858854F2858954F3858A545B
:1051E000F4858B54A6D58C54CDBA8D54F5858E5448
:1051F000CCBE8F54BDD39054C0B89154F685925410
:10520000E4D69354F7859454C7DF9554BEB99654A9
:10521000A7BF9754F8859854F9859954FCC19A54BE
:10522000CBDF9B54CCDF9C54FA859D54D0DF9E5439
:10523000FB859F54FC85A054FD85A154FE85A25496
:105240004086A354DBDFA454E5DFA5544186A65471
:10525000D7DFA754D6DFA854C9D7A954E3DFAA548F
:10526000E4DFAB54EBE5AC54A7D2AD54D2DFAE547F
:105270004286AF54A9BFB0544386B154DBD4B25474
:105280004486B354C8BFB454D4DFB5544586B6542D
:105290004686B7544786B854CCCFB9544886BA54DA
:1052A0004986BB54DDDFBC544A86BD54CAD1BE54C6
:1052B0004B86BF54DEDFC054A7B0C154B7C6C2543A
:1052C000D3DFC3544C86C454E5BAC5544D86C65486
:1052D000DFB6C754DBCDC854FEB9C954D5D4CA54BF
:1052E0004E86CB544F86CC54DFDFCD54ECCFCE541A
:1052F000A5B0CF54E7DFD054D1DFD154C6D1D254BA
:10530000D5DFD354D8DFD454D9DFD554DCDFD6541D
:105310005086D754A9BBD8545186D954E0DFDA540B
:10532000E1DFDB545286DC54E2DFDD54E6DFDE549D
:10533000E8DFDF54B4D3E0545386E1545486E2549A
:105340005586E3545686E4545786E554E7B8E65448
:10535000B6C5E754EADFE854DAC9E954A8C1EA540B
:10536000C4C4EB545886EC545986ED54DEBFEE5459
:10537000F8CFEF545A86F0545B86F1545C86F254B1
:10538000DCD5F354EEDFF4545D86F5545E86F654B6
:105390005F86F7546086F8546186F9546286FA5441
:1053A000B8B2FB546386FC54DFBAFD54ECDFFE5404
:1053B0006486FF54C1DB005565860155E4D1025572
:1053C00066860355678604556886055569860655C1
:1053D000F4CB0755BDB408556A860955A6B00A55E1
:1053E0006B860B556C860C556D860D556E860E556D
:1053F0006F860F55F1DF1055C6CC1155F2DF1255EF
:105400007086135571861455EDDF15557286165545
:1054100073861755748618557586195576861A55EC
:1054200077861B55E9DF1C5578861D5579861E55F4
:105430007A861F557B862055EBDF21557C862255C9
:10544000EFDF2355F0DF2455BDBB25557D8626555E
:105450007E862755F3DF28558086295581862A5573
:10546000F4DF2B5582862C55A3BB2D5583862E55F4
:10547000DBCA2F55A8CE3055A7E03155AAB3325517
:1054800084863355A6E0345585863555868636554F
:1054900087863755A1E038558886395589863A552B
:1054A0008A863B558B863C55FEDF3D558C863E55A6
:1054B000D9CD3F55FCDF40558D864155FADF425529
:1054C0008E864355D0BF4455C4D745558F86465523
:1054D000CCC947559086485591864955F8DF4A55BD
:1054E000A1B04B5592864C5593864D5594864E559A
:1054F00095864F5596865055FDDF515597865255E6
:1055000098865355998654559A865555FBDF5655BE
:10551000A2E057559B8658559C8659559D865A55ED
:105520009E865B559F865C55A8E05D55A0865E55BE
:10553000A1865F55A2866055A3866155C8B762559E
:10554000A4866355A5866455A1C66555B6C966553A
:10555000B2C06755F5DF6855A6866955A7866A55B6
:10556000BEC56B55A8866C55C4D86D55F9DF6E5510
:10557000F6C46F55A9867055AA867155AB867255CB
:10558000AC867355AD867455AE867555A3E07655D9
:10559000A4E07755A5E07855A5D07955AF867A5522
:1055A000B0867B55B4E07C55E4CC7D55B1867E5504
:1055B000B1E07F55B2868055A6BF8155AFE08255D8
:1055C000B9CE8355ABE08455C6C98555B38686559B
:1055D000B4868755AEC08855AEE08955EDBA8A5578
:1055E000B0BA8B55A9E08C55B5868D55B6868E55CB
:1055F000B7868F55F6DF9055B8869155B3E0925532
:10560000B9869355BA869455B8E09555BB8696559C
:10561000BC869755BD869855ADB49955B9E09A5555
:10562000BE869B55BF869C55B2CF9D55C8BA9E5528
:10563000C0869F55B0E0A055C186A155C286A2552F
:10564000C386A355C486A455C586A555C686A6554A
:10565000C786A755FAD0A855C886A955C986AA55A0
:10566000CA86AB55CB86AC55CC86AD55CD86AE55EE
:10567000CE86AF55CF86B055D086B155ACE0B25589
:10568000D186B355FBD4B455D286B555F7DFB655A0
:10569000D386B755E7C5B855D486B955ADE0BA55E8
:1056A000D586BB55F7D3BC55D686BD55B6E0BE559D
:1056B000B7E0BF55D786C055D886C155D986C255E3
:1056C000DA86C355DB86C455C4E0C555E1D0C6555E
:1056D000DC86C755DD86C855DE86C955BCE0CA558F
:1056E000DF86CB55E086CC55C9E0CD55CAE0CE5516
:1056F000E186CF55E286D055E386D155BEE0D2553E
:10570000AAE0D355A4C9D455C1E0D555E486D655F1
:10571000B2E0D755E586D855E686D955E786DA55FD
:10572000E886DB55E986DC55C8CADD55C3E0DE55A1
:10573000EA86DF55B5E0E055EB86E155CBCEE25584
:10574000EC86E355C3CBE455CDE0E555C6E0E65520
:10575000C2E0E755ED86E855CBE0E955EE86EA551F
:10576000BAE0EB55BFE0EC55C0E0ED55EF86EE55E5
:10577000F086EF55C5E0F055F186F155F286F25509
:10578000C7E0F355C8E0F455F386F555CCE0F6557F
:10579000F486F755BBE0F855F586F955F686FA55C7
:1057A000F786FB55F886FC55F986FD55D4CBFE559A
:1057B000D5E0FF55FA860056D6E00156D2E00256F3
:1057C000FB860356FC860456FD860556FE86065665
:1057D0004087075641870856D0E00956CEBC0A5686
:1057E00042870B5643870C56D1E00D5644870E5620
:1057F000C2B80F56C5D8105645871156468712565F
:105800004787135648871456498715564A871656B0
:105810004B8717564C871856EAD019564D871A569B
:105820004E871B56EFC21C564F871D5650871E567B
:10583000CFE01F56BDE02056518721565287225691
:1058400053872356D4E02456D3E025565487265652
:1058500055872756D7E028565687295657872A5600
:1058600058872B5659872C56DCE02D56D8E02E56FB
:105870005A872F565B8730565C873156F6D632569C
:10588000B0B333565D873456ECD735565E873656FF
:10589000BBCB37565F87385660873956DAE03A56C1
:1058A00061873B56FBCE3C5662873D5663873E562A
:1058B00064873F56D9BA4056658741566687425637
:1058C0006787435668874456698745566A874656B0
:1058D0006B8747566C8748566D8749566E874A5680
:1058E0006F874B5670874C56E1E04D56DDE04E56C3
:1058F000ADD24F56718750567287515673875256A4
:105900007487535675875456E2E055567687565637
:1059100077875756DBE05856D9E05956DFE05A569C
:1059200078875B5679875C56E0E05D567A875E56ED
:105930007B875F567C8760567D8761567E8762567F
:10594000DEE0635680876456E4E0655681876656DC
:105950008287675683876856F7C66956ACD86A56F9
:10596000EBD46B56E6E06C56C9CA6D5684876E560A
:1059700085876F568687705687877156E5E0725621
:1059800088877356898774568A8775568B877656AB
:10599000C1B877568C8778568D8779568E877A5618
:1059A0008F877B56E7E07C56E8E07D5690877E56F1
:1059B00091877F5692878056938781569487825627
:1059C000958783569687845697878556E9E086564D
:1059D000E3E0875698878856998789569A878A562A
:1059E0009B878B569C878C569D878D569E878E569F
:1059F000BFBA8F56E7CC90569F879156A087925694
:105A0000A1879356EAE09456A2879556A3879656A7
:105A1000A4879756A5879856A6879956A7879A561A
:105A2000A8879B56A9879C56AA879D56AB879E56EA
:105A3000AC879F56AD87A056AE87A156AF87A256BA
:105A4000B087A356F9CFA456B187A556B287A656FC
:105A5000B387A756B487A856B587A956B687AA565E
:105A6000B787AB56B887AC56B987AD56BA87AE562E
:105A7000BB87AF56EBE0B056BC87B156BD87B25678
:105A8000BE87B356BF87B456C087B556C187B656D2
:105A9000C287B756C2C8B856C387B956C487BA5664
:105AA000C587BB56C687BC56C0BDBD56C787BE5648
:105AB000C887BF56C987C056CA87C156CB87C2564A
:105AC000CC87C356CD87C456CE87C556CF87C6561A
:105AD000D087C756D187C856D287C956D387CA56EA
