:020000040800F2
:1000000050C8002045010008C1880008ED6D0008B7
:10001000BF880008A10B0008F5C10008000000001F
:10002000000000000000000000000000CDB4000847
:100030003B1000080000000007030008F9930008C7
:100040005F0100085F0100085F0100085F01000810
:100050005F0100085F0100085F0100085F01000800
:100060005F0100085F0100085F0100085F010008F0
:100070005F0100085F0100085F0100085F010008E0
:100080005F0100085F0100085F0100085F010008D0
:100090005F0100085F0100085F0100085F010008C0
:1000A0005F0100085F0100085F0100085F010008B0
:1000B0005F0100085F0100085F0100085F010008A0
:1000C0005F0100085F0100085F0100085F01000890
:1000D0005F0100085F0100085F0100085F01000880
:1000E0005F0100085F0100085F0100085F01000870
:1000F0005F0100085F0100085F0100085F01000860
:100100005F0100085F0100085F0100085F0100084F
:100110005F0100085F0100085F0100085F0100083F
:100120005F0100085F0100085F0100085F0100082F
:10013000DFF80CD000F098F80048004769940108F7
:1001400050C800200648804706480047FEE7FEE703
:10015000FEE7FEE7FEE7FEE7FEE7FEE7FEE7FEE777
:10016000A9B500083101000872B6704762B6704741
:10017000EFF3108072B6704780F31088704730BF7D
:10018000704720BF7047B0FA80F0704790FAA0F037
:10019000B0FA80F0704790FAA0F0704710B5431A9B
:1001A000934209D28318881803E010F8011D03F860
:1001B000011D521EF9D210BD40EA01039B0703D076
:1001C00009E008C9121F08C0042AFAD203E011F896
:1001D000013B00F8013B521EF9D210BDD2B201E042
:1001E00000F8012B491EFBD270470022F6E710B53C
:1001F00013460A4604461946FFF7F0FF204610BD95
:10020000421C10F8011B0029FBD1801A704730B541
:1002100004460020034600E05B1C934203D2E05CEE
:10022000CD5C401BF8D030BD034611F8012B00F81F
:10023000012B002AF9D11846704730B50B4601460C
:1002400000202022012409E021FA02F59D4205D375
:1002500003FA02F5491B04FA02F52844151EA2F11F
:100260000102F1DC30BD0000064C074D06E0E068FD
:1002700040F0010394E8070098471034AC42F6D3ED
:10028000FFF75AFF8C1B0208AC1B020870B58C18D4
:1002900010F8015B15F0070301D110F8013B2A119A
:1002A00006D110F8012B03E010F8016B01F8016B87
:1002B0005B1EF9D12B0705D40023521E0DD401F883
:1002C000013BFAE710F8013BCB1A921C03E013F84C
:1002D000015B01F8015B521EF9D5A142D8D3002081
:1002E00070BD000018484FF0FF010170002080F33E
:1002F00009881648016881F3088815484FF0805135
:10030000016062B6FEE772B6EFF3098028B12038CB
:1003100080E8F00F0F490968086000B50E48804773
:100320005DF804EB0D480E490A78027009480D4942
:100330000A680260106890E8F00F203080F30988A6
:100340004EF0040E62B6704722ED00E08C000020F3
:1003500004ED00E08400002021920008400000200D
:100360004100002088000020002800DC4042704747
:100370007047000070B58AB0002409AD03260594CB
:10038000CDE907651922134B0694CDE9013201200E
:100390000102CDE903100C20009023460E4A0FA164
:1003A000124808F079FDCDE90646059470020895DB
:1003B000CDE9030499210E4ACDE901210D200090D9
:1003C0000A4800230B4A0CA1B43008F065FD0AB0BE
:1003D00070BD0000040F0020B104000841707020BF
:1003E0005461736B20557064617465009C09002032
:1003F000081300202D050008417070205461736BB4
:100400002055736572617070000000000EB500F039
:10041000A1F800F065FC00F0F9F802A808F0E4FC8F
:100420000BA018F061F9FFF7A5FF15A018F05CF913
:10043000FFF79EFF002502AC04F0FAFF0022CDE991
:1004400000540F231146104608F044FFF4E7000063
:100450003C3C2D4F532D494E464F2D3E3E2043727E
:10046000656174696E67204170706C69636174695D
:100470006F6E205461736B732E2E2E0A0D0A0000CE
:100480003C3C2D4F532D494E464F2D3E3E2043724E
:10049000656174696E67204170706C69636174692D
:1004A0006F6E204576656E74732E2E2E0A0D0A002F
:1004B0000EB51B4C4FF47A7508E0A178491CC9B2FF
:1004C000A1700A2906D2284618F06EFC0BF056FCE3
:1004D0000028F2D101274FF48079DFF848A0124EAE
:1004E00000250DF1080817E000200BF0C7FC38B11B
:1004F0003078012800D167704946504602F0FAF979
:100500000022CDE9005864231146104608F0E2FEAF
:100510004946504602F0ECF9A0780A28F0D2E3E709
:100520002800002000080140A000002004480078B6
:10053000552801D018F03CFF0BF05EFEFCE70000F0
:100540002800002000B585B068460AF073F90198CC
:1005500005B000BD10B586B0002002900390049055
:100560000590012140200AF03BF900F015FB07F04F
:1005700065FF06F09BFF06F0AFFF00F0F1FA0BF00D
:1005800059FD0EF0ABF904200DF042FA03F04AFFDA
:10059000012219A1194818F00DFD19490870194CCC
:1005A00018B1E020207006B010BD01224FF4FF11F9
:1005B00014480AF0D3FD20785528F4D110221249AE
:1005C00002A80AF0CBFDBDF80C000090BDF8143075
:1005D000BDF81020BDF80810002004F0D1FEBDF8D1
:1005E0000E000090BDF81630BDF81220BDF80A10BC
:1005F000012004F0C5FED6E7303A0000B4400020E8
:100600002B0000202800002002E01F0010B5FFF79B
:1006100099FF04490968B0FBF1F0BDE8104008F00B
:10062000FDBE00008495010838B5456804460146C2
:1006300028460BF083FE00282AD02068304A0F2875
:1006400019D006DC0B2824D00C2810D00E2851D14C
:100650002FE0112802D028284CD145E09268002ACA
:1006600016D02146284601B0BDE83040104721464B
:1006700028465268F7E7284602F07AFD0090406E5F
:100680000468684602F0DEFD002C01D02846A04731
:1006900038BD284602F06CFD0090683002F0C2FCC4
:1006A000009803216C3002F0CBFC684602F0CAFDD2
:1006B00020E0E168486809680D2902D0202913D19B
:1006C00005E0002810DD284614F007F906E00028B0
:1006D00004DD2846BDE8384014F0FFB82846BDE8E0
:1006E0003840022114F00FB9E06818B900212846FB
:1006F00000F0CAF92046BDE838400CF0BFB9000050
:10070000880100202DE9FF410AAF70CF0027039533
:100710008DE8D00000F003F804B0BDE8F081F0B53A
:1007200085B00DF1280CBCE8F0004FF0000C8DE80E
:10073000F01000F025F805B0F0BDF0B5044685B026
:100740008069B4F90850668A0027CDE90265CDE9D1
:1007500000170490B4F90C00B4F91060C118B4F992
:100760000A00B4F90E50104433462A4600F008F847
:100770000546616800F0A7F905B02846F0BD000005
:100780002DE9F04F85B01F46DDE911B4DDE90E56C5
:1007900090468946824603F07BFE4C341548CDE9ED
:1007A0000204CDE900563B464246494650460CF00D
:1007B000ABF8040018D002F0DBFC1022594604907C
:1007C0000CF004F8049830220B493430FFF7E6FCB3
:1007D000094D04990C3D2868486604A802F032FDD2
:1007E000286841682046884705F07CF805B0204617
:1007F000BDE8F08F2906000894010020F0B50446FA
:1008000080688B4989B051F82050606800287DD0FD
:10081000052804D006287AD0122879D1AEE0E869FC
:1008200000284FD095E80E008DE80F0004F110016C
:100830000FC905F0DFFD002655F8260004F0EBFB9C
:10084000A169E8690A1A216901446069304403F02A
:10085000DFFAA169E8690A1A21690144E069801B8D
:1008600003F0D6FAE169E8690A1A6169014420696E
:10087000304403F0A3FBE169E8690A1A61690144A5
:10088000A069801B03F09AFB761C022ED4DBA868BB
:1008900004F0C1FBE069E9696669431A20694218FE
:1008A000521E3144801C03F02DFCE169E869A26905
:1008B0000B1A61690144101A401C921E03F022FCBD
:1008C000EE6913E05FF0000655F8260004F0A3FB84
:1008D000E069831BA069821B60698119206930442B
:1008E00003F00CFB761C022EEEDB0226D5E9030199
:1008F000CDE900016169E06908444310A069891CE1
:10090000821B2069304403F047FA02E089E012E0DC
:100910008AE0D5E90501CDE90001E36960690121BB
:10092000184401EB6001A0699B1E821B20693044C2
:1009300003F032FA78E0206802F01AFC0490206894
:100940000DF086FC40B1A06808B1002008E00498D2
:10095000006F28B1012003E00498406F00B102202D
:10096000049901EB8000C56E04A802F06BFC002323
:100970001A462846216802F03FFF55E0206802F041
:10098000F7FB0490866EEEB3B0F95C70A168D1B34A
:10099000032942D05FF0000100EB8101406D0C6C37
:1009A00004F056FB204604F036FB05A803F06CFC6F
:1009B000BDF81410A88B0144ADF81410BDF8181040
:1009C000081AADF81800BDF81600801CADF8160026
:1009D000BDF81A00801EADF81A0004985E30B0F918
:1009E0000220B0F9001005A804F0C4F904A802F030
:1009F00029FC022004F098FB304602F0B9FB3A468D
:100A000005A901E00BE006E0079003F013F807A842
:100A100002F018FC08E00121BEE70221BCE704A8AF
:100A2000F6E720680DF0B4F809B00020F0BD000032
:100A3000E4FB0108044A0349116004494A6A486218
:100A400010467047C4010020880100209401002056
:100A500000294FF0100101D00BF0FFBC0BF046BC99
:100A600038B50D4604000ED003F012FD204602F00A
:100A70007FFB00904565684602F0E4FB20460CF0E1
:100A800065FD04F02FFF38BD4FF480720029114638
:100A900001D00BF0E2BC0BF029BC08B50023009399
:100AA00000F001F808BD70B516460C46054619461B
:100AB0003046049A02F082FE024621462846BDE8EE
:100AC000704000F02DB82DE9FF410E4605004FF0B3
:100AD000010421D003F0DCFC284602F049FB019020
:100AE000876E01A8009702F0ADFB3146684606F01C
:100AF00017F878B100980024B84208D0284602F0D0
:100B000037FB01900099816601A802F09BFB284603
:100B10000CF01CFD04F0E6FE04B02046BDE8F081B8
:100B2000F8B515460C46060018D003F0B1FC304667
:100B300002F01EFB0090032C0BD800EB84006C30FD
:100B400002F070FA009800EB8400C56630460CF0A5
:100B5000FDFC684602F076FB04F0C4FEF8BD000020
:100B600038B50121042009F057FE4FF48074ADF828
:100B7000004010208DF8030003208DF80200054D81
:100B80006946284601F05AFE2146284601F0B0FE8B
:100B900038BD0000000801404FF4A06007F092BE8D
:100BA000FEE700002DE9FF470446006810B10DF094
:100BB0004FFB68B10022314850F8221060680A28C3
:100BC00041D007DCF0B306280DD0072854D106E049
:100BD0000122F0E712280AD019284DD137E020462B
:100BE0000EF0D4FE48E0204610F0D4FA44E020682D
:100BF00002F0BEFA0290B0F9548090F85650476C5B
:100C0000466B02A802F01EFB206800F039F881460E
:100C100068460CF053F8BDF8001009EB05000844D5
:100C2000ADF80000246A304604F012FA022004F005
:100C30007BFA384604F0EFF942466946204602F056
:100C4000F9FE19E007E0204611F06FF814E088691A
:100C500004B0BDE8F08720680CF09AFF206802F02D
:100C600087FA0390B0F90610B0F90220891A491CDE
:100C7000C16703A802F0E6FA0020E9E7F4FB0108E7
:100C800038B5044603F004FC204602F071FA0090E7
:100C9000C46F684602F0D6FA04F024FE204638BD40
:100CA000044A034911600449CA69C8611046704783
:100CB000500200201C0700202007002000B589B04A
:100CC00024216846FFF791FA192001900348006833
:100CD000806841686846884709B000BD1C0700204D
:100CE000AFF3008002490020086000F009B800005E
:100CF0002C00002001490860704700002C000020F3
:100D000010B50948016841F0807101600748002171
:100D10004160016841F001010160FFF713FCBDE88B
:100D20001040FFF7E7BF0000FCED00E0001000E01E
:100D30000148406870470000001000E070B586B0C0
:100D40000BF0EAFF30214FF41472CDE90321059135
:100D50000321CDE90001164800230293036A74229F
:100D60004FF481713E2006F016F906460024114D1D
:100D700011A2304655F8341006F044F8641CE4B271
:100D8000022CF5D30D4A0121304606F07BF94FF0D5
:100D9000FF31304606F0C0F90A220021304606F045
:100DA000CAF906B03046BDE87040082106F09DB98A
:100DB00014510020B89501080000000080FFFF805A
:100DC000F0B587B000240BF0A7FF2C4A0223CDE931
:100DD00001322B4D0090042105F1080003910FC84A
:100DE0000BF092FD68623A213022CDE90421002601
:100DF00040F25123CDE902630321CDE90001E86906
:100E00002A68143000EB4003D21E3146032006F05E
:100E1000C2F806461B4D6FF07F4705EBC40055F83E
:100E200034104268304605F0EDFF3A462146304620
:100E300006F0A2F9641CE4B2002CEED0124A0121A3
:100E4000304606F01FF91149304606F037F94FF0E9
:100E5000FF31304606F060F90A220021304606F0E4
:100E60006AF90C220121304606F065F907B03046D8
:100E7000BDE8F040082106F038B90000018B0108F8
:100E800014510020B095010880FFFF806CE101083B
:100E900070B586B00BF040FF0C230226CDE901634C
:100EA0001DA14FF4B072CDE90321009010233C2224
:100EB000314600200AF0D3FB04461A4920460AF0C6
:100EC0002DFC6FF07F45294620460AF03EFC0BF0D2
:100ED00023FF15490E2440F261130A68CDE901642D
:100EE00012A1CDE90331009002EBD2706FF018012E
:100EF00001EB60001023322202210AF0B0FB04460D
:100F0000294620460AF021FC06B02046BDE8704084
:100F100009490AF003BC000057696C646669726590
:100F2000204F53006CE101081451002031313A3553
:100F3000363A3030000000005CDA010801480068F1
:100F4000704700009C020020F8B50546006802F0DA
:100F50000FF90090448ED0F88860684602F072F96C
:100F600006B1012604F0010428680DF071F90EB1F4
:100F7000002006E00CB1012003E008B1022000E0EF
:100F800003201B4951F82010686858B302280CD080
:100F9000052802D0122828D103E028460EF022FDB1
:100FA00023E0284611F011FA1FE06A69E8694FF062
:100FB000FF33801AA0F1080203EB6204421CAB6904
:100FC000001B4510A3EB6206C86904F024F806E094
:100FD0003219311B284602F01BFF641E6D1C002CC9
:100FE000F6DA02E028680CF0D3FD0020F8BD00001E
:100FF00054FC0108044A0349116004490A6B086360
:1010000010467047A00200205C0700206007002007
:1010100038B50D46002402F0ABF80090C06B2946AD
:1010200002F0A8F90546684602F00CF91DB1284601
:1010300002F09EF80446204638BD70472DE9F04383
:1010400089B0984615460F4606004FF000042DD093
:1010500000F0BCFB0446304600F09FFB814603F0E5
:1010600017FA03A9304600F014FDF80706D0BDF9C1
:101070001C00001B401B401C822109E0B80700280F
:10108000BDF91800284402DA40F2022100E00221F2
:101090000096CDE9018123461A464946FFF732FB07
:1010A00004460021FFF7D4FC04F01CFC09B02046E4
:1010B000BDE8F08310B50523FFF7C0FF0446054ADD
:1010C0000021FFF7EAFC044920460CF016FC2046FC
:1010D00010BD000081F800081D8801082DE9F047C7
:1010E000456804468EB00026284602F041F800907C
:1010F0005C30B0F820A0D0F80C90D0F82480C76AFB
:10110000006800B10668684602F09CF805E079685E
:101110002046884700283DD13F68002FF7D120683E
:10112000142844D009DCA0F10B00072839D2DFE8ED
:1011300000F0BE3989B434B4110020287ED004DC1C
:1011400017283ED01E282CD14BE026283CD02A2838
:1011500027D110E02846E66802F00AF80190717A7B
:1011600039B9317A012904D130F87C1F41F48071FA
:10117000018001A88FE0284601F0FAFF0090E168A5
:1011800011B1C0F8841002E0D0F88400E060684635
:1011900002F058F80EB0BDE8F087002E7DD028464A
:1011A000B0477AE02146284613F048FEF2E705A949
:1011B000284600F06EFCE0680699016007994160DE
:1011C000E8E7C4F80C90E5E7E0680228E2D10C9566
:1011D000E0680D9027200A900AA9A0680DF03AFA5D
:1011E000D8E7E068012804D00021284600F066FB1B
:1011F000D0E740460CF005FA58B140460CF042FCEE
:1012000040460CF0CFF888B1012140460BF025F99B
:101210000CE048460CF08AFC8046284601F0A8FF06
:101220000090C0F88080684602F00CF80121284642
:1012300000F044FBB8F1000FACD100E00EE000205C
:10124000E060A7E75FEA0A7027D4E068C06820B3CF
:10125000007A10B328460CF015FC1EE0E668E6B1F3
:10126000294670680CF0DDFF20B10121284616F0F8
:101270002FF812E00021284616F02AF82946306897
:101280000CF0BEFF48B1284601F072FF03903168B0
:10129000C0F8801003A801F0D5FF214628460BF0C6
:1012A0004DF800288CD020460BF0E8FB72E728466A
:1012B00001F05EFF0090703001F0B4FE6846EAE78E
:1012C000F0B587B0B0F908400DF10C0C0C9E8769A1
:1012D0004568ACE8F000448A0025CDE90015029489
:1012E000B0F90C10B0F91050B0F90E40B0F90A0086
:1012F000194410442B46224600F002F807B0F0BD16
:101300002DE9F04F8BB09846DDE9155691468A4697
:101310008346149F1A9C03F0BBF86034314845F4AF
:101320008055CDE90204CDE9007543464A46514651
:1013300058460BF0E9FA04004DD001F019FF3022B5
:10134000049017990BF042FA049828222649343069
:10135000FEF724FF049819995C30234F81600684BE
:10136000002646620661083FC6627968016004A8EB
:1013700001F068FF05A9204600F08BFB1B4841F2F5
:10138000827103960094CDE90110BDF91E00BDF9EC
:101390001A10BDF91C20431ABDF918005B1C121A63
:1013A000521C0BF0B1FA064678684168204688471F
:1013B000204601F0DDFE0490866604A801F042FF9D
:1013C00042F20400054202D120460BF0F7FB204612
:1013D000189900F0E2FA04F085FA0BB02046BDE857
:1013E000F08F0000DD100008A0070020A11D0008FC
:1013F0002DE9F041044694B0006800F0B7F908B157
:10140000D94D01E0D84D2C35606815281ED00CDC74
:101410000B281FD004DC00287ED005287DD12EE1CA
:101420000E287BD01228F9D141E1162806D01728C2
:1014300008D0182808D01C28F0D109E0E86914B0B9
:10144000BDE8F081286AFAE7686AF8E7A86AF6E773
:101450006869F4E720680B901C200C90206801F06C
:1014600087FE0390016D0BA88847064603A801F08C
:10147000E9FE022E0EDB95E807008DE80700D4E9AF
:1014800004023346A16904F07BFF20698719A06933
:10149000801B2BE0286803F0BEFD2169E8690A186B
:1014A000521E606902F0B4FCA269E869111A491C75
:1014B000606902F0ADFC676920697F1C394602F063
:1014C000F7FC3946A06902F0F3FC686803F0A3FD5D
:1014D00020693946401C02F0EBFCA0693946401EE9
:1014E00002F0E6FC2769A069BF1C801E80462868C0
:1014F00003F091FD42463946606902F089FC686854
:1015000003F089FD60694246401C394602F080FCC8
:10151000686A02280FDD02E015E1AFE000E1A8688B
:1015200003F079FD61696A6A881C8B1801465B1EAD
:101530004246384627E0296AB14226DD6069022E1C
:10154000074600F1020801DB374401E007F102071A
:10155000206901DB304401E000F1020022693B46D2
:101560000A44A2F10102414602F0CCFD022E02DB48
:10157000A069821B01E0A269921EA069E9693B464D
:10158000401A401C414602F0BDFD022E02DB60699C
:10159000064401E06669B61CE76928687F1E03F00F
:1015A0003AFD3A463146206902F008FD3A46314696
:1015B000A06902F003FDE7696868BF1E03F02BFD18
:1015C00020693A46401C314602F0F8FCA0693A46D0
:1015D000401E314602F0F2FCE869022802DC286A6B
:1015E000022823DDA86A022802DDE1690F1A01E062
:1015F000E769BF1EA86803F00EFDE969022909DD4D
:1016000020693B46421800F1020C521E31466046EA
:1016100002F078FD286A022808DDA269E8693B46E5
:10162000101A401C921E314602F06CFD286803F02F
:10163000F2FCD4E90620216902F0EAFB686803F0B5
:10164000EAFCA2692169E069521E491C401E02F0B1
:10165000DFFBA86A022811DD2669A169E469B61CCE
:10166000271AA1F102087F1CA41EA86803F0D3FC6E
:10167000234642463946304602F044FD72E0208A55
:1016800006B2ADF81460A08A01B2ADF81610208B36
:1016900002B2ADF81820A08B03B2ADF81A30D5E92C
:1016A0000304CDE90004304602F076FB5AE0208ABC
:1016B000298B0844ADF81400A08AADF81600208BE1
:1016C000298B401AADF81800A08BADF81A002068DD
:1016D00001F04EFD0390006FF0B1022003F024FDF5
:1016E000039991F87C00C0F3C00001EB8000006C0E
:1016F00003F091FC0398406B03F0AAFC0398006F81
:1017000001F036FD03990A90B1F95A2005A902F0BB
:1017100091F90AA801F096FD03A801F093FD21E0DC
:10172000208AADF81400A08AADF81600208BADF821
:101730001800A08BADF81A00A86803F06CFC05A88F
:1017400002F00CFD0EE0206801F012FD039030F86D
:101750005A1F41F00C01018003A801F073FD2068BD
:101760000CF016FA00206AE67003002038B5050078
:101770004FF000040FD002F08BFE284601F0F8FC79
:10178000009090F87C00000700D50124684601F025
:1017900059FD04F0A7F8204638BD38B505004FF0D4
:1017A000000411D002F074FE284601F0E1FC009024
:1017B000C06D00218068026828469047044668464C
:1017C00001F040FD04F08EF8204638BD30B587B0FA
:1017D00005004FF0000413D002F05AFE01A928467C
:1017E00000F057F9284601F0C3FC0090B0F95440CE
:1017F000684601F027FD0CB9BDF9044004F072F809
:1018000007B0204630BD30B504468BB0006801F00B
:10181000AFFC009090F87C10246A006FC1F3C00503
:1018200008B101F0A5FC0690E068029020690390E1
:10183000A088401EADF81000E089ADF812002089A4
:10184000401CADF81400608AADF81600BDF8080021
:10185000401CADF80800BDF80A00401CADF80A00B5
:10186000BDF80C00401EADF80C000098406B03F072
:10187000EFFB009808AA02A9B0F95A30069804F0C4
:10188000C3F9009800EB8500806B06F0AFFA009872
:1018900000EB8500006C06F0E1FA08AB02AA04A98F
:1018A00006980AF0A3FE684601F0CCFC069810B139
:1018B00006A801F0C7FC0BB0002030BD70B50D4686
:1018C000040009D002F0E4FD2946204615F000FD91
:1018D000BDE8704004F006B870BD0000074A064934
:1018E000054B1160064A083BD16958601B68C2E984
:1018F0000630084670470000640300209C07002063
:10190000A00700202DE9FC410D46804602F0C0FDF5
:101910005FEA080028D001F02BFC0190C16D8C68B3
:1019200000F01EF907460198456301A801F08AFC02
:10193000226801214046904706462268032140461E
:10194000904705462268002140469047044640469D
:1019500000F0EFF92B46324639464046009400F03D
:1019600077F940460BF0F2FD03F0BCFFBDE8FC81C7
:1019700038B50C46054602F08BFD55B1284601F0FE
:10198000F7FB00900466684601F05CFC28460BF00B
:10199000DDFDBDE8384003F0A5BF7CB50D46040071
:1019A0001DD002F075FD204601F0E2FB0090006FB3
:1019B0000190684601F046FC294601A805F0B0F800
:1019C00058B1204601F0D4FB0090019901676846A8
:1019D00001F038FC20460BF0B9FD03F083FF7CBD1D
:1019E00038B50C46050015D002F052FD284601F02E
:1019F000BFFB0022CDF8000000EB8201521C0C64FA
:101A0000022AF9D3684601F01DFC28460BF09EFD22
:101A100003F068FF38BD2DE9FC470D465FEA000979
:101A20004FF0000432D002F033FD484601F0A0FB35
:101A30000190B0F95440A54223D000F091F88046BF
:101A400001980121A0F85450C06D856848462A6865
:101A5000904707462A6803214846904706462A6869
:101A60000021484690470546484600F062F9334653
:101A70003A4641464846009500F0EAF848460BF0E1
:101A800065FD01A801F0DEFB03F02CFF2046BDE858
:101A9000FC872DE9F34F85B000270C46B846059822
:101AA00001F066FB0090C06D0121856805982A68E9
:101AB000904782462A6803210598904704902A6837
:101AC00002210598904703902A68002105989047C5
:101AD000064600980CF042FA834600980CF045FA4E
:101AE0008146009890F83210890601D5B0F95880E7
:101AF00000F036F805460098C06E10B10BF075FA8C
:101B0000074625806780A4F804A0049AABEB020086
:101B100006EB0802401E2A4420813A44E280039BDF
:101B2000A9EB0302521E6281A4F80CA02082701956
:101B3000E681401E6082684601F084FBB4F90C0027
:101B40000190B4F91000029002AA01A9059800F0D2
:101B500039F80198A0810298208207B0BDE8F08F83
:101B600010B50146002091F83220920607D5B1F950
:101B70005400002803D1486B02F02EFC801C10BDDD
:101B800070B58AB00C46054601F0F2FA0990C06DB6
:101B9000866809A801F056FB009534B1012C06D0E7
:101BA000022C0BD0032C04D10AE0182000E01620F0
:101BB00001907168684688470AB070BD1520F7E744
:101BC0001720F5E72DE9FC4790468946044601F0C9
:101BD000CFFA0090C16D056868468E6801F032FB4F
:101BE0003268002120469047064620460BF0BBF89D
:101BF0002F1404462DB227E001F0BAFA0190B0F993
:101C00000010B0F90420B0F90230491B521BDB1B55
:101C1000B34212D190F82800000607D5D8F800008A
:101C200088420ADB491EC8F8001006E0D9F8000017
:101C3000904202DC521CC9F8002001A801F002FB0E
:101C400020460BF035F90446002CD5D1BDE8FC87C1
:101C50002DE9FF4F83B00E460746DDF8409001F0B6
:101C600087FA0190C16D8D68FFF77AFF044601A8DD
:101C700001F0E8FA2A6801213846904783462A682D
:101C800003213846904782462A680021384690470B
:101C90000546B44207D105998B4504D106998A457A
:101CA00001D14D4542D0A41B0026B04638460BF06A
:101CB0005AF839E001F05CFA0090806A010602D51A
:101CC0004FEA805002E0810528D50006002825DB78
:101CD00024B12246114638460BF01BFD009890F8BF
:101CE000280000060AD50698A5EB0902A0EB0A0019
:101CF00004FB1601761C38460BF0BCFC0098008DE6
:101D000080050BD50599A5EB0902ABEB010004FB9F
:101D1000080108F1010838460BF0ACFC684601F0F8
:101D200091FA38460BF0C4F80700C3D107B0BDE8FC
:101D3000F08F70B586B0064601F01AFA0590D0E92A
:101D40001A4505A801F07EFA54EA050026D0694636
:101D50003046FFF79EFEACB1BDF90620BDF9041078
:101D600020460BF05AFCBDF90A00BDF90610421AD4
:101D7000BDF90800BDF90410521C411A491C204647
:101D80000BF044FF002D09D0BDF90600BDF902108B
:101D9000421ABDF9041028460BF03FFC06B070BD96
:101DA0002DE9F0430446406885B006460BF08DF8F7
:101DB000814601F0DDF90090D0F88080876C456E97
:101DC000684601F03FFA2068172859D008DC0E2831
:101DD00037D00F280BD0142852D015283AD14FE015
:101DE0001E2818D01F2827D0222833D146E06FF0B4
:101DF0007040874204D0384605F0F8FF01F06CFBD4
:101E0000002D12D0D4E902122068CDE90106CDE9F7
:101E1000031201A822E0E068002806D05FEA08006B
:101E200006D0B04504D00BF02DFE05B0BDE8F08320
:101E300030460BF07BFE16E0214648460AF07EFA5B
:101E4000F3E7E0684168002904DD00680928EFD065
:101E50000A2805D0A5B12046C4F80490A847E4E7B5
:101E600030460BF072FE0446484601F081F90090BE
:101E7000C0F88040684601F0E5F9D6E7E760D4E7AE
:101E800020460AF0FBFDD0E78000A0F1C040002909
:101E900004D0016841F00101016070470168024A05
:101EA0001140016070470000FEFF0F0010B5D0E93F
:101EB00001121143D0E903231A431143426911432C
:101EC00082691143C2691143026A1143426A114394
:101ED000826A1143C26A1143026B11430268920085
:101EE000A2F1C04211608168082907D10168890008
:101EF000A1F1C0410A6842F040020A60416BD1E999
:101F0000002342EA03128B688C891B0243EA0443D4
:101F10001A430B8A42EA03520B7D896942EA036243
:101F20000A430168491C8900A1F1C0410A60C16AE5
:101F3000B1F5804F08D000686FF070418000A0F1CB
:101F4000C040C0F8041110BD816BD1E9002342EA02
:101F500003128B680C8A1B0243EA04531A430B7D5D
:101F6000896942EA036200680A438000A0F1C04028
:101F7000C0F8042110BD000001A016F0B5BB0000A0
:101F800046554E5F49434F4E303030436C69636B6A
:101F900065640A0001A016F0A7BB000046554E5F1D
:101FA00049434F4E303031436C69636B65640A00BE
:101FB0007CB50AF0B1FE0346002000900190224A51
:101FC0000521224801F0D4FA064621A016F08CFB28
:101FD0002749284805F096FA26482749083005F091
:101FE00091FA264C264D2BE0224805F099FA21481B
:101FF000083005F095FA00211E4805F08BFA38B13B
:10200000206880F00100206001211A4805F082FA62
:1020100018480021083005F07DFA40B1206880F0B2
:102020000200206013480121083005F073FA1548BA
:10203000007810B130460AF059FD0A2001F014FC76
:1020400028780028D0D17CBD3188010804D301084C
:102050003C3C2D4F532D494E464F2D3E3E204B4587
:1020600059617070206372656174650A0A0000002E
:10207000596D0008B8000020756D00080C0C014077
:10208000A30000202900002001A016F02DBB0000B5
:1020900046554E5F49434F4E313031436C69636B57
:1020A00065640A0001A016F01FBB000046554E5F94
:1020B00049434F4E313032436C69636B65640A00AB
:1020C00001A016F011BB000046554E5F49434F4E2C
:1020D000313033436C69636B65640A0001A016F00C
:1020E00003BB000046554E5F49434F4E31303443E9
:1020F0006C69636B65640A0001A016F0F5BA000014
:1021000046554E5F49434F4E313035436C69636BE2
:1021100065640A0001A016F0E7BA000046554E5F5C
:1021200049434F4E313036436C69636B65640A0036
:1021300001A016F0D9BA000046554E5F49434F4EF4
:10214000313037436C69636B65640A0001A016F097
:10215000CBBA000046554E5F49434F4E31303843AD
:102160006C69636B65640A0001A016F0BDBA0000DB
:1021700046554E5F49434F4E313039436C69636B6E
:1021800065640A0001A016F0AFBA000046554E5F24
:1021900049434F4E313130436C69636B65640A00CB
:1021A00001A016F0A1BA000046554E5F49434F4EBC
:1021B000313131436C69636B65640A002DE9F0438A
:1021C0000446C56887B090468946002002F034FF77
:1021D000064625B1287910B146F0020001E026F04C
:1021E000020002F029FF2069012558B1D4E902124A
:1021F0008DE8260003956388228804684146484696
:10220000A0471EE0124F134B214638681B68427CE2
:10221000E068984730B9E088012801D0002001E04B
:102220003868806BA288E388A1680095CDE9041026
:10223000CDE902320195638822884146484605F07F
:10224000D7F907B03046BDE8F04302F0F5BE000014
:10225000E8000020E00000201CB50024019401AC3F
:10226000009400F0E7F81CBD2DE9FF4F83B08146D4
:1022700006988A46A0EB0A08109E00200090A2EB68
:1022800009043568934654EA080018D02046FEF742
:102290006BF807464046FEF767F887420BDA2046A0
:1022A000444680464846D14682465846DDF818B036
:1022B000069001200090002C07DD204606E007B0C4
:1022C0004846BDE8F04F00F03BB96042A0420AD05A
:1022D0004846D9466442C8F1000883464FF0FF37AC
:1022E000DDF818A000E001275148B8F1000F11D027
:1022F00004EBD4714FEA610B01DACBF1000B4C48CF
:102300000068807E88B3002F02DA30682044306095
:1023100000257BE000990029016821D0897E11B158
:102320000027804615E007B05A4649465046BDE8AA
:10233000F04F05F0C1BA28466D1C15F0D1F838B938
:10234000D8F8000009EB0701C06E4268504690477C
:102350007F1CA742EFDD6D1E356007B0BDE8F08F32
:102360008A7E1AB10027804617E019E0C86E5A46E7
:102370005146036807B04846BDE8F04F1847284665
:102380006D1C15F0ADF838B9D8F8001009EB07004E
:10239000C96E4A68514690477F1CA742EFDDDAE7D5
:1023A00000250FE008FB05B090FBF4F101EB0A00FB
:1023B000009951B11E4A09EB05011268D26E5268AC
:1023C00090476D1CA542EDDDC7E7194909EB0503F0
:1023D0000968C96E4A6801461846F1E708FB05B06E
:1023E00090FBF4F101EB0A00019030683844306052
:1023F00015F076F848B9009890B10D4809EB050141
:102400000068C06E4268019890476D1CA542E5DDEA
:102410003068002F01DA20443060C01B30609CE738
:10242000034909EB05000968C96E4A680199EBE7A1
:10243000E80000202DE9FF470F4640491646804638
:1024400009680C981D460A7E012A1CD0A8EB0600DC
:10245000791B50EA01031CD0A2F1010916F064F9BE
:1024600000F58060824604F049FC00FB09F4504608
:1024700004F048FC00FB09F1002C0CDAC4F50070F4
:10248000801240420AE00090324639464046FFF74B
:10249000EBFEBDE8FF8704F50074A012002904DA02
:1024A000C1F5007189124C4202E001F500718C12F5
:1024B000002804DD411C01EBD171491003E000EB61
:1024C000D0714910401E00EBD0704210002C04DD8A
:1024D000601C00EBD070401003E004EBD47040109F
:1024E000641E04EBD47308EB0104ADF800403C1803
:1024F000ADF80240A8EB02045B10B21AADF804403C
:10250000ADF808203144FC1AEA1AADF80C10284442
:10251000ADF80A20ADF80E000023ADF806401A46CB
:102520000421684600F07AF8394640460FF04AFE2A
:10253000294630460FF046FEABE70000E8000020D9
:10254000064A13681A7E012A05D0521E02EBD27287
:10255000521000F005B8DA6E52681047E80000200B
:102560002DE9F05F0646884640F2C32050434FF401
:102570007A7190FBF1F702FB02F002EBD27100EBF3
:10258000610B254914467F1C09683244301BC96E13
:102590000B684146984701253AE000BF05FB05F06E
:1025A00004FB040159451CDDBC4219DD1A4B06EB46
:1025B000050AA6EB05091B68AAF1010208EB040154
:1025C000DB6E09F101001B689847134BAAF1010269
:1025D000A8EB04011B6809F10100DB6E1B6898473A
:1025E000641E0D4806EB040AA6EB0409006808EB1C
:1025F00005015246C06E0368484698470648A8EB56
:10260000050152460068C06E0368484698476D1C35
:10261000BD42C3DDBDE8F09FE80000202DE9FF4F7B
:1026200040F6FF740F46664283B09B468146002108
:102630000BE000BF09EB8100B0F90200A04200DA14
:102640000446B04200DD0646491CB942F2DB684848
:102650000068406900280DD0B0F906101A46A1EBB9
:102660000B01B14200DA0E46B0F90200801AA04216
:1026700000DD0446B5E0DFF87CA100200546CAF87D
:10268000000089E0781E854201DA6B1C00E000231F
:1026900009EB850C09EB8302BCF90200B2F90210C8
:1026A000A04245D1A14215D139F92330059A39F913
:1026B000251003EB020C4E4A05981268084404EBFF
:1026C0000B01D26E6045136801DA62462BE00246C8
:1026D000604628E02846A4464FF000087A1E0BE02A
:1026E00008B1401E00E0781E09EB8003B3F9023008
:1026F000634504D108F101089045F1DB2346A3426C
:1027000049D0A3EB040239F92500A1EB040C059B89
:1027100092EA0C0209D4364A184404EB0B01126801
:10272000D26E13680246984735E00CF07FF932E02C
:10273000A14230D001DBA04203DDA0422BDBA1424D
:1027400029DCE04688420ADC0346A04223DC084636
:10275000A14220DBB8F900C0B2F9001008E00B4636
:10276000A14218DCA04216DBB2F900C0B8F9001093
:10277000E21AA1EB0C0151430029A0EB030202DD98
:1027800001EB620102E0A1EB6201491CC01A91FB5E
:10279000F0F06044C9E76D1CBD42FFF673AF0598C9
:1027A000009004EB0B00019000208046054613E0EA
:1027B0001149B8F1000F31F915A009D0009901EBCA
:1027C0000A0208440A490968C96E0B6801999847CA
:1027D00088F0010850466D1C064909688D42E7DB08
:1027E000641CB4427FF747AF07B0BDE8F08F00002C
:1027F000E80000209808002014B8002010B5002040
:1028000002F0F2FB6FF07F4002F005FC012002F0C5
:102810006DFC002002F078FC002002F085FC002016
:1028200002F00AFC0448006802F012FCBDE8104007
:10283000002002F02DBC0000E40000202DE9F04152
:102840000022CC7804F00F03E40601D58C782343F2
:102850000C784FF00F0714F0FF0F4FF0010C1CD055
:1028600005680CFA02F40E882640A64211D19600A3
:1028700007FA06F825EA080503FA06F848EA050506
:10288000CE78282E02D0482E02D002E0446100E02B
:102890000461521C082AE4D305600A88FF2A1ED965
:1028A0004568002202F108060CFA06F40E8826405C
:1028B000A64210D1960007FA06F825EA080503FAA1
:1028C00006F848EA0505CE78282E00D14461CE7876
:1028D000482E00D10461521C082AE3D34560BDE8AC
:1028E000F0810246002092680A4200D00120704721
:1028F000416170470161704770B50C46054600F0B4
:10290000F1F8A8682168C16261680163A168416348
:10291000490707D5D0E90021C0E90012D0E902211A
:10292000C0E90212A18981842169002903D001DC58
:102930004FF00001016270BD2DE9F0411E461746BF
:102940008846054600F0CEF8AC686822414604F59A
:102950008470FDF723FC2846B8472846B04728690D
:1029600080688047A062BDE8F081000010B5044691
:1029700000F0B8F8A0680E494C30114AC1650D4905
:1029800081650D4901660D4981660021C1661368A4
:1029900043660C4BC0E91E315168416730F8261C74
:1029A00021F0030120F8261C0749416410BD0000F6
:1029B000E1750108197A0108A9750108416F01083C
:1029C00080010020A5700108B174010810B504460B
:1029D00000F088F8A4680C489034102120650B485A
:1029E00060650B48A0650B48E0650B48E0600B484C
:1029F0002061206BA06654F8902920469047102053
:102A0000A0630748606410BDA1100108012E0108F1
:102A1000252A0008552B0008FB6E0108257F0108B8
:102A20004C080208F8B5846815460F4694F826004D
:102A300080074CD5D4F8FC30204698470646D4F899
:102A400000312A46394620469847D4F89430054646
:102A50001BB100220121204698472069B04201DDC8
:102A6000012000E00020A169B14201DA012100E06B
:102A7000002108436169A94201DD012100E0002134
:102A80000843E169A94201DA012100E0002108437D
:102A90000AD06068401E00902368D4F8A4705B1EC2
:102AA000002211462046B847D4F8A8302A463146BD
:102AB00020469847D4F89C1020468847D4F8943094
:102AC00005466BB1012200212046984708E0D4F862
:102AD000A83020469847D4F89C10204688470546E1
:102AE0002846F8BD70B504468068002812D14FF41E
:102AF000B875284600F0B2FA2A460021A06004F01A
:102B000081F8A0680221C1840121046401620249A4
:102B1000C0F8041170BD00001D2B000810B590B066
:102B2000044620220A496846FDF738FB084920225E
:102B3000203108A8FDF732FB606B5DF82010C4F867
:102B4000FC1008A951F82000C4F8000110B010BD15
:102B500020D401082DE9F84384689846154694F876
:102B600026000F46800740D5D4F8FC302046984711
:102B70000646D4F800312A4639462046984705468D
:102B80002069B04201DD012000E00020A169B142CE
:102B900001DA012100E0002108436169A94201DD59
:102BA000012100E000210843E169A94201DA012185
:102BB00000E0002108430AD06068401E00902368AE
:102BC000D4F8A4705B1E002211462046B847D4F802
:102BD000A8302A46314620469847D4F8A02001B0B4
:102BE00041462046BDE8F0431047D4F8A830F2E74C
:102BF0002DE9F04FDFF828B191B04FF0FF35DBF849
:102C00000030B3F922100691DE69B3F924A0F4690B
:102C1000A189814206D8E289824203D3471AD4F8B7
:102C2000008012E0D4E90181002970D00A88824234
:102C30006DD84D8885426AD3801A82B2486800EB0D
:102C40008200B0F90070B0F90250781C5FD0307E7D
:102C5000A27C014600FB02F9207CCDE90810B3F903
:102C60002A60304605F00CF9C0B20E90DBF8001077
:102C700007FB0980A37C8A6B0127CDE90402CDE91B
:102C80000273C869DDE90832C17E807ECDE90001AA
:102C90005146069804F0ACFC681C18D046F00200BF
:102CA00005F0EEF8DBF80000A37C05FB0981826BE0
:102CB000CDE90273CDE90412C069DDE90832C17EB5
:102CC000807ECDE900015146069804F091FCDBF8C6
:102CD00000005D46C069417E007E814214D9022E0B
:102CE00012D086F0040005F0CBF82868C069027E97
:102CF000C37E857E02FB03A1437E099A0698534456
:102D000002FB050204F002FE0E9805F0B9F8DBF8AC
:102D10000000627C418C1144418411B0BDE8F08F09
:102D2000E800002004480068C069C06909B1027C5D
:102D30000A60407C70470000E80000200220088004
:102D40007047C06982898A4202D8C2898A4210D2F9
:102D5000806880B102888A420DD843888B420AD3AA
:102D6000406800EB8100A0EB8200B0F90000002871
:102D700001DB012070470020704700002DE9F0437F
:102D80002F4C034687B020681946B0F92A80C069E5
:102D9000C06900F082F800284ED041680088181AF7
:102DA00001EBC0054046AE7805F06AF88146206820
:102DB0006A680123816BCDE90236CDE90421C1693E
:102DC000CB7E8A7ECDE900230B7EB0F924102A78D1
:102DD000B0F9220004F00CFC2068C069477E067E32
:102DE000B7421DD9C07E47434643B8F1020F17D002
:102DF00001F04FFA804601F015FA02F00CF9216853
:102E00002A78CB69B1F92200B1F92410DB7E02FBEC
:102E10000302CB19314404F079FD404602F0FBF87F
:102E2000484605F02DF820686A78C369B0F9221089
:102E30009B7E02FB0311418407B0BDE8F0830000D4
:102E4000E800002030B50E4C05460B4620682946A8
:102E5000C069C06900F021F8002810D041680088DE
:102E600024682A1A0120E46900EBC200085CA47EF1
:102E70006043002B03D011F832106143196030BD5C
:102E8000E800002001200880704700B5C06900F00C
:102E900004F8002800D0012000BD06E002888A4224
:102EA00002D842888A4202D280680028F6D1704750
:102EB00070B500240E4D16E028690E4900EBC410D1
:102EC000001D78220968FDF769F92869002100EBE7
:102ED000C410016000F10C018161011D0A1DC0E9EF
:102EE0000F12641C4164A8688442E5DB70BD0000D9
:102EF000C8060020E800002070B50D490B480860A6
:102F0000084603F005FE0A4C143CA068C50128469B
:102F100000F0A4F82A460021206103F073FE4FF070
:102F2000FF302060BDE8704002F012BE354A010853
:102F3000DC060020F8B50C0005460FD001F0A8FA19
:102F4000204600F017F8060010D000F011F92246D4
:102F500000902DB12946FDF721F904E00020F8BDCD
:102F6000002103F04FFE684600F06CF902F0BAFC55
:102F70003046F8BD10B5040009D001F089FA2046AA
:102F80000BF020FE044602F0ADFC204610BD0020F0
:102F900010BD38B5054601F07BFA2846FFF7EAFF79
:102FA000040009D000F0E4F82A460021009003F064
:102FB00029FE684600F046F902F094FC204638BD30
:102FC000024A106021F00300506070474CB60020A8
:102FD00010B5040016D001F05BFA0B48006B10F836
:102FE000341059B1022909D2042101EBC40141581E
:102FF00048680BF037FD204613F062FFBDE8104033
:1030000002F070BC10BD000090B50020002805D073
:10301000034A916B016001B1486090637047000002
:1030200090B5002010B5044601F032FA2068FFF791
:10303000CFFF00202060BDE8104002F053BC00002C
:1030400070B50D460646002405E000BF06EB84007F
:10305000FFF7E8FF641CAC42F8DB70BD2DE9F041DE
:10306000044611F05FFA2648E41C24F00305C16B06
:103070002D1DA94200D90D46846B13E054F8042C91
:10308000AA420ED184B1216809B162684A606168C0
:1030900009B122680A60826BA2422ED12168816345
:1030A0002BE02468002CE9D18046416B80680F1822
:1030B00057F8040C3E1A306838B1002014F078F844
:1030C00057F8040C3E1A3068B8B97068A84214DB8F
:1030D0003044441B304614F023F8D8F80810491B3C
:1030E000C8F80810D8F810102944C8F810107068F3
:1030F0003146401B0BF0B6FC20C42046BDE8F081F1
:1031000090B5002010B5002411F00CFA0C490F20E6
:1031100001EBC002126C1AB101EBC000006C08E0B8
:10312000401EF5D508E04168A14200D90C468068F0
:1031300010B180680028F6D1A4F10C0010BD000089
:1031400090B50020002138B10449042202EBC000F0
:10315000096B085841680C390846704790B5002043
:1031600002484169491C41617047000090B5002048
:1031700005498A69521C8A61096B01EBC0010A7812
:10318000521C0A7000F076B890B500207CB5064657
:103190000C460846FFF7EEFE050020D0FEB1304693
:1031A000FFF7D0FFA04200DA044601F071F928468B
:1031B000FFF7DEFF00903046FFF7DAFF014601908F
:1031C00022460098FCF7EAFF684600F03BF801A8A9
:1031D00000F038F83046FFF7FBFE02F083FB28468C
:1031E0007CBD000010B501F053F9FFF78BFF64229E
:1031F0000849B0F5800F04D990FBF2F4C869444344
:1032000003E0C9694143B1FBF2F402F06BFB2046D5
:1032100010BD000090B500200549102805D94A6866
:10322000B0EB520F02D3500800E0102088607047C6
:103230004CB6002002484169491E416170470000B8
:1032400090B500200A4902680B6B52F8082C03EB7A
:10325000C2021378022B03D38B690BB15B1E8B6107
:103260001178491E11700021016008467047000066
:1032700090B50020002806D00349042202EBC000CC
:10328000096B08580830704790B500202DE9FC41C3
:103290004FF000060B465FEA000834462BD032B1EF
:1032A00011461846FFF746FE060000D101244046AD
:1032B000FFF75EFF0090078845686846FFF7C2FF8A
:1032C000CCB9B900091D2846FFF760FF050015D0ED
:1032D000FFF74EFF019040F8276001A8FFF7B2FF0B
:1032E0004046FFF745FF009045600188491C01807A
:1032F0006846FFF7A7FF2046BDE8FC813046FFF790
:1033000067FE0124F7E70820FFF743BE7CB5050000
:1033100023D0FFF72DFF00904068C0B1FFF728FFD2
:103320000024019005E0019800EB8400FFF77AFE8D
:10333000641C00980088A042F5DC01A8FFF782FF1A
:103340000098001DFFF76EFE009900200880684677
:10335000FFF778FF2846FFF73BFE7CBD38B5002419
:1033600030B1FFF705FF009004886846FFF76AFF59
:10337000204638BD38B50D46002448B1FFF7F8FEA9
:103380002946009000F016F804466846FFF75AFFF9
:10339000204638BD38B50D46002448B1FFF7E8FE99
:1033A0002946009000F018F804466846FFF74AFFE7
:1033B000204638BD38B50D4601880024A94209D9F8
:1033C000406838B1FFF7D4FE009050F825406846B9
:1033D000FFF738FF204638BD10B50024FFF7EAFF9D
:1033E00010B1FFF7C5FE0446204610BD10B51368A6
:1033F00008290FD85C18146000222270064A04E0E5
:1034000000F00F040009145D5C540C00A1F10101EF
:10341000C9B2F5D110BD0000581A020870B51446A3
:103420000D46064601F034F8204600F03FFF030049
:10343000174804EB840109D050F8210041688068E6
:10344000711A2A1A184601F013FE1CE000EB8104E1
:10345000A268B24201D0012200E00022E368AB4240
:1034600001D0012300E000231A430CD0236943B1AB
:1034700050F82100816840686A1A311A184601F034
:1034800037FDC4E90265BDE8704002F02BBA0000C8
:10349000ECB7002010B5C2B2CBB2D21A02D5C2F13D
:1034A000000212B293B2C0F30722C1F3072403FB58
:1034B00003F3121B01D5524212B2000C92B2A0EBE0
:1034C000114002FB023200B2002801DA404200B291
:1034D00080B200FB002010BD10B50021084600F0AE
:1034E0008FFF40F6FF725042BDE810401346014680
:1034F000AFF300802DE9FC411C4615460E460746F9
:1035000000F0C6FF042004F0BBFC80461248C068EF
:10351000C16C006D0F4406440D440444ADF80070C6
:10352000ADF80450ADF80260ADF8064068460AF008
:1035300023FD07E023462A463146384604F0E6F9E3
:103540000AF0CEFC0028F5D1404604F099FC02F0C8
:10355000C9F9BDE8FC810000DC000020B0F90630AC
:10356000B0F90420B0F90210B0F90000FFF7C2BFB3
:103570002DE9F8431C00DDE9089816460F4605467C
:1035800002D109F0C9FB044600962E6843464A461C
:1035900021462846B047060039D009F0B2FB8146E3
:1035A000698A304608F059FF30460AF063FB484606
:1035B0000AF060FB4FF000080CE000BFCDF800807F
:1035C00055F81CCF00231A4649462846E04700B369
:1035D0000AF050FB7F1E002FF0DC1D2148460AF048
:1035E0006CF9601C12D000F053FF09F0D9FB30B128
:1035F000FFF740FE8469B44201D02000F8D1B44204
:1036000002D030460AF092FA02F06CF93046BDE87A
:10361000F883304609F06AFA0020F8E72DE9F04116
:103620001C4616460D460746022B02DB0020BDE86D
:10363000F0811C20FFF712FD0028F8D00DB10561C4
:103640000AE0094A52F8241009B905E011460A684F
:10365000002AFBD109690161846186820021016031
:103660004160C0E90217E2E70001002070B51D4685
:10367000FFF7D4FF040001D000F00EF8E068006806
:1036800020B90348006800EB85008465204670BDC2
:10369000E8000020FFF7BABC70B590B38269022A37
:1036A00030DA1C4C54F8221019B944F822002FE0EB
:1036B00019464B68002BFBD106E0CB68C5681B6838
:1036C0002D68AB4203DD09680029F6D11AE0C1B1CB
:1036D000CB68C6681B683668B3420CD1838A012B5D
:1036E00005D008E01946DB681B68AB4203DB0B68BA
:1036F000002BF7D129B14B6833B118604A6842609A
:1037000004E0FFE7012070BD44F82200486001603A
:10371000002070BD0001002010B503E00468FFF731
:10372000BBFF20460028F9D110BD14F085BB000076
:103730002DE9F0410026DFF834800D4F354600BFFB
:1037400058F8254009E0E0680068385C20B1204660
:1037500014F072FB266026462468002CF3D16D1C01
:10376000022DEDDB3046BDE8F081000000010020B5
:10377000B0D30108022801DB00207047054A52F847
:10378000200004E0C26812688A42F6D0006800286F
:10379000F8D1704700010020022801DB00207047AB
:1037A000054951F8200004E0C16809680029F6D0F5
:1037B00000680028F8D1704700010020F8B50746DE
:1037C00015460E460C20FFF7E4FB04000FD000F076
:1037D0005FFE2046FFF7CCFC06490090C0E90017C9
:1037E000068145816846FFF72DFD02F07BF82046F3
:1037F000F8BD0000441902082DE9F8431D4616469D
:10380000884604000CD0FFF7B3FC009000680768FE
:103810006846FFF717FD2B46324641462046B8471B
:10382000BDE8F88338B504004FF000000AD0204608
:10383000FFF79EFC0090006845686846FFF702FDB0
:103840002046A84738BD38B504004FF000000AD024
:103850002046FFF78DFC0090006885686846FFF7FA
:10386000F1FC2046A84738BD2DE9F041044602F09E
:103870005BF906191EE000BF00F00AFC052F00DD11
:10388000052700F005FE11480568FFF769FC2C00CC
:1038900017D000BF02F026F8641EFBD1384602F0B4
:1038A00031F91DB100F0F4FD6D1EFBD1FFF7C2FC34
:1038B00002F018F802F038F9371A002FDCDCBDE806
:1038C000F081384602F01EF9F0E70000D40600202F
:1038D0002DE9FC4706005FD000F0DAFD00F0FEFCA9
:1038E0003C4C81462068B0F9228000F057FD2168E9
:1038F00007468A8CD01B888441E000BF47F6FF71E1
:10390000304602F071FF82460146304602F042FF27
:103910002168054691F82C0000F00300012841D0F1
:1039200002283BD000204A8C101A4884ADF80000D1
:103930006A1E1044ADF80400888CADF80200A9F1AD
:1039400001010844ADF806006A465146304602F0CF
:1039500031FB2168BDF8020088845146304601F0F1
:103960009DFE064430780A281ED00D281CD0BDF8D4
:103970000000216828444884307818B1761C3078DB
:103980000028BBD12068818C39448184818D21F04D
:103990000301818501F0A6FFBDE8FC8705EBD5702A
:1039A0004010C0E72846BEE7206890F82C1001F0D0
:1039B000030101290BD0022909D0018C41843178FF
:1039C0000A29D9D1828C02EB09018184D4E7A0F8BD
:1039D0002280F4E7E800002070B514460D46064644
:1039E00000F056FD05480068458484843046FFF7A2
:1039F0006FFFBDE8704001F075BF0000E8000020D7
:103A00002DE9F04107460A4815460E460068B0F910
:103A10002C0040F0020001F077FB04462A463146B4
:103A20003846FFF7D9FF2046BDE8F04101F06CBBF6
:103A3000E800002047F6FF7300F042B82DE9FF4789
:103A40001F460C9E90460D46814686B30024009486
:103A5000019400F01DFD9DB128680090174A696827
:103A600001911060516028460AF0F4F8040007D074
:103A70000246294602A802F024FF02A80AF0EAF84A
:103A8000304614F035F805467168684688473B466D
:103A900042466946484602F0E5FA20460AF0DAF85E
:103AA000284614F025F801F01DFFBDE8FF87FFE769
:103AB00004B0BDE8F04700F003B800008006002025
:103AC0002DE9FC411F4690460D4606004FF00004CC
:103AD0001AD000F0DDFC65B128460AF0BBF80400FE
:103AE00007D002462946684602F0EBFE68460AF017
:103AF000B1F83B4642462946304602F0B3FA20462A
:103B00000AF0A8F801F0EEFEBDE8FC812DE9FF4FB8
:103B100085B090468A4607007DD000F0B9FCDAF8FF
:103B20000040DAF8046021B230B2401A401C029022
:103B300000F0D4FB054618F00C0F1ED03846089A4A
:103B4000029901F0D9FE08F00C01042904D00829DB
:103B500002D00C2911D104E0311400FB1510401CD7
:103B600009E02114C1EB264200FB1520401C00EBAC
:103B7000D07001EB600060F31F44504601F03FFA43
:103B8000A5F1010B04903846089A029903F008F851
:103B900003904FEA244909EB0B0060F31F46CDE97F
:103BA00000463846039902F0F5FD18F003010ED0E7
:103BB00001292AD002290ED1BAF90420BAF900103D
:103BC000521A101A00EBD07001EB600001E0BAF855
:103BD0000000ADF800006A463846039902F0EAF9A1
:103BE0003846089A029902F0D1FF074409EB050014
:103BF00060F31F4438780028C5D1049801F0FFF91C
:103C000009B0BDE8F04F01F06DBEBAF80410081A13
:103C1000401CDEE7FFE709B0BDE8F08F7CB5144635
:103C20000D46064600F034FC11480068C16C006D7A
:103C30000D4404443188681E0844ADF80400ADF812
:103C400000507188601E0844ADF80600ADF80240CF
:103C500068460AF091F906E0224629463046FEF70A
:103C6000ADFA0AF03DF90028F6D101F03BFE7CBD2B
:103C7000E80000201CB50A460146684602F03AFFFB
:103C800000F006FC2548BDF80010006830F84C2F05
:103C90001144ADF80010BDF8021082881144ADF84F
:103CA0000210BDF8041002881144ADF80410BDF8EC
:103CB000061080880844ADF8060068460AF05CF9F2
:103CC00027E000BFBDF900400BE000BFBDF90210C6
:103CD000204603F0BDFDBDF90610204603F0B8FDF7
:103CE000A41CBDF90400A042F0DABDF902400AE0CC
:103CF000BDF90000214603F0ABFDBDF904002146EB
:103D000003F0A6FDA41CBDF90600A042F0DA0AF0FB
:103D1000E7F80028D6D101F0E5FD1CBDE800002041
:103D20002DE9F04F87B09B46DDE9109892460C468E
:103D3000054600F0ADFB16480168C86C096D4719CF
:103D40000E1900EB0A0501EB0B04ADF81070ADF88D
:103D50001450ADF81260ADF8164004A80AF00CF942
:103D600088B1DFF830B04FF0000ACDE90098CDE916
:103D700002BA2B462246394630460EF0BAF80AF00F
:103D8000AFF80028F1D101F0ADFD07B0BDE8F08F2C
:103D9000E8000020B97800082DE9F04F87B09B4675
:103DA000DDE9109892460C46054600F071FB164876
:103DB0000168C86C096D47190E1900EB0A0501EB83
:103DC0000B04ADF81070ADF81450ADF81260ADF8FA
:103DD000164004A80AF0D0F888B1DFF830B04FF0F0
:103DE000010ACDE90098CDE902BA23462A463146B8
:103DF00038460EF07EF80AF073F80028F1D101F091
:103E000071FD07B0BDE8F08FE8000020F9770008E9
:103E10002DE9FC4114460D46064600F039FB114FD2
:103E20003968C86C096D054404440E44ADF800506F
:103E3000ADF80440ADF80260ADF8066068460AF0DF
:103E40009BF808E0386822463146C06E0368284671
:103E500098470AF045F80028F4D101F043FDBDE889
:103E6000FC810000E80000202DE9F0411C461546C9
:103E70000E46074600F00CFB0C480168C86C096D43
:103E8000074405440E440C4400200AF075F807E08E
:103E900023462A4631463846FEF7DEF90AF020F876
:103EA0000028F5D1BDE8F04101F01CBDE80000207C
:103EB0007CB50C46064600F0EBFA0F4D2868C16C45
:103EC000006D0E440444ADF80460ADF80060ADF838
:103ED0000640ADF8024068460AF04EF807E0286850
:103EE0002146C06E42683046904709F0F9FF00282D
:103EF000F5D101F0F7FC7CBDE80000202DE9FC4184
:103F00001C4616460D46074600F0C2FA1A480168DC
:103F1000087ECA6C096D401E17440D440C44391AC2
:103F20001644ADF800103118ADF80410291A2044D9
:103F3000ADF80600ADF8021068460AF01DF815E06D
:103F400032462946384603F057FC32462146384669
:103F500003F052FC621E691C384603F0ADFC621E81
:103F6000691C304603F0A8FC09F0BAFF0028E7D12D
:103F700001F0B8FCBDE8FC81E800002070B58EB00F
:103F800015460E46044600F083FA214606A802F0C4
:103F90008EFDBDF81A30642B0CD1002000900AABC6
:103FA00001AA214606A801F0E7FF2A46314601A8EA
:103FB000FFF734FE01F096FC0EB070BD7CB51446E0
:103FC0000D46064600F064FA0F480068C16C006DAB
:103FD0000E4405440444ADF80060ADF80460ADF84B
:103FE0000250ADF80640684609F0C6FF06E02246DA
:103FF0002946304603F060FC09F072FF0028F6D134
:1040000001F070FC7CBD0000E800002070B50C469B
:10401000054600F055F910B10121C0E9001400F087
:1040200037FA284609F0DEFEBDE8704001F05ABCC0
:1040300010B5044601F06CFD04490968002903D05D
:104040002046BDE81040084710BD0000880600204B
:1040500030B59DB00D460446CDF870D06F220021DA
:10406000684602F0CFFD6422214668460BF07AF8DC
:104070006846FCF7C5F81C991CAA08441C90082146
:10408000284601F097FD6846FFF7D2FF1DB030BD0E
:1040900010B5002400E0012400F004F80028FAD153
:1040A000204610BD064810B50068002410B18047B6
:1040B00000B1012408F09AFD00B10124204610BD92
:1040C0000801002070B516460C46054600F0E0F9E0
:1040D0000B480068C16C006D0D440444002009F0D9
:1040E0004BFF06E0324621462846FEF739FA09F032
:1040F000F7FE0028F6D1BDE8704001F0F3BB0000E8
:10410000E80000202DE9FC411C4615460E460746F6
:1041100000F0BEF910480068C16C006D0F44064401
:104120000D440444ADF80070ADF80450ADF80260E1
:10413000ADF80640684609F01FFF07E023462A460F
:104140003146384603F0E2FB09F0CAFE0028F5D1FB
:1041500001F0C8FBBDE8FC81E8000020B0F90630A2
:10416000B0F90420B0F90210B0F90000FFF7CABF9F
:1041700008B50B46002805D0009281888268C08867
:1041800000F001F808BD10B50828029C30D008DC0A
:1041900004FB01F401280AD0022813D0042804D11A
:1041A0001CE0102828D020282CD0002010BD04EBC3
:1041B000D30003F00701105CC1F10701C84000F013
:1041C000010010BD04EB93000621105C01EA4301DD
:1041D000C1F10601C84000F0030010BD04EB53001C
:1041E000D907105C02D000F00F0010BD000910BD0F
:1041F00004FB0130105C10BD481004FB003032F8A5
:10420000100010BD881004FB003052F8200010BDD3
:10421000034951F82000C1688A6A0821104700004C
:104220000001002010B500F033F903F09FFB03F00C
:1042300077FC044601F056FB204610BD10B504463D
:1042400000F026F9054800210068C0694268204650
:104250009047044601F046FB204610BDE8000020D0
:1042600070B50C46054600F013F906482146006873
:10427000C069426828469047044601F033FB204657
:1042800070BD0000E8000020002801D008F016BD35
:10429000704710B500F0FCF803F070FB03F040FC31
:1042A000044601F01FFB204610BD0000002102283B
:1042B00002D2024951F8201008467047A00600209B
:1042C0001FB500210191029103912A2100916946B5
:1042D00009F0E4FA039804B010BD000010B500F036
:1042E000D7F804480068C069447E01F0FBFA204614
:1042F00010BD0000E800002070B50D46044600F037
:10430000C7F814B909480068C46929460834207EF2
:10431000A870A07E2871607EE87054F808292046B5
:104320009047BDE8704001F0DDBA0000E8000020D1
:1043300010B500F0ADF802F023FA044601F0D2FA0D
:10434000204610BD70B514460D46064600F0A0F894
:1043500022462946304603F083FB10B10020286036
:104360002060BDE8704001F0BDBA70B50C4605464E
:1043700000F08EF82146284602F060FABDE8704051
:1043800001F0B0BA10B5044602F04AFA01462046E0
:10439000BDE8104002F0FEB901F0C6BB10B5002424
:1043A00000F076F80B48006890F82C1001F00C0132
:1043B000042904D0082906D00C2907D103E0C069DC
:1043C000047E641E02E0C069007E440801F08AFA9F
:1043D000204610BDE8000020017EC07E48437047A3
:1043E000024951F820000069006870470001002070
:1043F000024951F820000069406870470001002020
:1044000070B50D46044600F043F820460FF044FF17
:10441000044628460FF048FF044301F063FA2046A3
:1044200070BD0000144810B5016821F00101016061
:1044300012480121816012490160006811498842D7
:1044400000D0FEE701F07EFD0F492E20087001F03C
:1044500071FB0E4810F02EF8FEF74EFD14F064FDCF
:1044600004460021084600F021FE08F0C5FFFEF7D3
:104470001FFD204610BD0000002000E0003002407B
:10448000C2A507F4CDB5E8B5DC00002058B6002081
:1044900070B51F4CE06820B101F03EFB61688842B6
:1044A00004D001F071FB01F037FB6060E068401C54
:1044B000E060012825D100250AE000BF01F02CFBB7
:1044C000216901EBC5110968814205D0D1B16D1C8C
:1044D000A0688542F2DB00252068854211D00028C3
:1044E0000EDBFFF725F92268216901EBC212D067C4
:1044F000084A01EBC510011D1160C06FFFF70CF9F0
:10450000256070BD216901EBC5110860E4E700007A
:10451000C8060020E80000201CB5040004D10E48A5
:104520000068046E002C16D0FFF7B2FF2046FEF79D
:104530001FFE009044696846FEF784FE4CB1204699
:10454000FEF716FE019081688968884701A8FEF78A
:1045500079FE01F0C7F91CBDE800002001490A46B8
:1045600000F002B801F0FFFF2DE9F04387B01546D7
:104570000C465FEA000846D0FFF78AFF002000F0F3
:104580005BFD814621480068066E4046FEF7F0FD5F
:1045900000900068806900F0D3FC074640F6FF7089
:1045A000001904D10098B0F90440B0F90650009801
:1045B000611E0289ADF804401144ADF8081041892C
:1045C000681E0844ADF80650ADF80A0008F016F968
:1045D0006846FEF737FE01A809F0CEFC06E02A4641
:1045E0002146404600F07CFB09F07AFC0028F6D119
:1045F000384600F0A5FC304600F0B8F9484600F017
:104600001BFD01F06FF907B0BDE8F083E800002062
:104610002DE9FE4F984691468A46834600270C9E18
:10462000FFF736FF174818490068407C51F82040D2
:10463000E1680968042903D02468002CF8D100E05F
:1046400014B9FFF7A9F804460121E068C26A2046C0
:104650009047050011D02469A0688047401C02D112
:104660000A4C46F001060096CDE9015443464A46FD
:104670005146584600F014FA074601F033F938461F
:10468000BDE8FE8FE8000020000100206CFF01085B
:1046900038B504001CD0FFF7FBFE0E480068006E22
:1046A000A04201D100F03EFC2046FEF761FD0090E3
:1046B000406908B101F0FFF800980068FEF7EAFFD2
:1046C0006846FEF7BFFD2046FEF782FC01F00AF9BE
:1046D00038BD0000E80000202DE9FF4F83B0454CB5
:1046E000DDF840B098468A4607002BD002A901A801
:1046F000FFF73BFEB7F90060002E00DA0026B7F99D
:104700000250002D00DA00252068A146407C03F00D
:10471000C0F901990144491EB7F9040010F084F86A
:104720000446D9F80000407C03F0B9F9029901442D
:10473000491EB7F9060010F077F8A71B7F1C441B31
:10474000641C0BE0206800263546407C03F0A1F98C
:1047500007462068407C03F0A2F90446B8F1000F38
:1047600001D1C4F10008002F01DD002C03DC002082
:1047700007B0BDE8F08F43463A4629463046CDF8AB
:1047800000B0FFF745FF5FEA000909D000F0AEF87E
:104790008046484600F0EAF80027DFF85CB01FE0EA
:1047A0005146059888470120E2E7E11B414502DABE
:1047B000484600F0BFF83FB1EA193146484600F0DC
:1047C00003F94846FFF7A8FE514605988847DBF8ED
:1047D000001009B1002088474846FFF7BFFE474454
:1047E000A742E2DB4846FFF753FF002000F0BEF887
:1047F000BDE70000E80000201407002038B50500E0
:104800004FF0000411D0FFF743FE2846FEF7B0FC3E
:104810000090006800698068804703F0F5FD044659
:104820006846FEF70FFD01F05DF8204638BD38B54B
:104830000446FFF72DFE2046FEF79AFC00F118040F
:1048400000906846FEF7FEFC01F04CF8204638BDAB
:1048500038B504460025FFF71BFE1CB90848006860
:10486000046E44B12046FEF783FC0090B0F904507A
:104870006846FEF7E7FC01F035F8284638BD000031
:10488000E800002038B504460025FFF701FE1CB9FA
:1048900008480068046E44B12046FEF769FC0090A9
:1048A000B0F908506846FEF7CDFC01F01BF8284629
:1048B00038BD0000E800002038B504460025FFF7A9
:1048C000E7FD1CB908480068046E44B12046FEF7B5
:1048D0004FFC0090B0F906506846FEF7B3FC01F0BB
:1048E00001F8284638BD0000E800002038B504462D
:1048F0000025FFF7CDFD1CB908480068046E44B1DF
:104900002046FEF735FC0090B0F90A506846FEF7E5
:1049100099FC00F0E7FF284638BD0000E8000020C1
:1049200010B50AF071FD002803D0BDE8104000F07A
:104930007DB810BD38B50C46050004D10A480068A2
:10494000056E002D0FD0FFF7A3FD2846FEF710FCE3
:104950000090B0F90A10A14200DD44816846FEF7DC
:1049600071FC00F0BFFF38BDE8000020F8B5054637
:10497000FFF78EFD134E3068046E65B10CB100F088
:10498000D1FA08F06BF82846FEF7F2FB0090316888
:104990000A6E1AB106E000F0C5FA0EE0D1E9022372
:1049A000C1E919230D660068FEF776FE6846FEF73A
:1049B00049FC03F09BFB03F043FA00F093FF204611
:1049C000F8BD0000E80000207CB515460E46040046
:1049D00004D115480068046E002C24D0FFF758FD60
:1049E0002046FEF7C5FB2DB20090C58034B284800E
:1049F00003F026FA0098406980B1FEF7B9FB009AEF
:104A00000190B2F908108180B2F90A20C28011B178
:104A10000AB10480458001A8FEF714FC6846FEF741
:104A200011FC00F05FFF7CBDE800002001490A4650
:104A300000F002B801F0FFFF7FB515460C460600F6
:104A40002DD0FFF725FD3046FEF792FB40F6FF71B3
:104A50000190091903D1B0F90440B0F90650028958
:104A6000611E1144ADF80840ADF80C104189681E74
:104A70000844ADF80E00ADF80A5001A8FEF7E2FBBD
:104A800002A809F079FA06E02A462146304600F0ED
:104A90000FF909F025FA0028F6D100F023FF7FBDB9
:104AA0002DE9FF4FDFF8E0B083B01C46DBF80010C3
:104AB000DDE91060924600274B7C3A461299FEF7DA
:104AC000ADFD05005DD028698068804703F09CFC3F
:104AD00081460AFB09F0C01D4FEAD008FEF782FBB1
:104AE000F10705D1C11700EB9170801000EB400079
:104AF000002C06DC1838B0FBF8F06442A04200DC61
:104B00000446F00707D10090DDE903012346524631
:104B100000F044FE0746002C03DC2846FEF7BAFDF1
:104B20002FE004FB08F01830F10702D0FEF722FA5C
:104B300001E0FEF72EFA06001CD0FEF719FB0190EB
:104B40000560039981800499C180A0F808A0448180
:104B5000C0F80C80C0E9049701A8FEF773FB129817
:104B6000AE602861DBF80000407CA861304607B0E9
:104B7000BDE8F08F2846FEF78DFD17B13846FEF7E9
:104B800027FA0020F3E70000E80000200149086050
:104B900070470000140700202DE9F74F92B09046AF
:104BA0001298FEF7E5FA0B90B0F908100691B0F9EB
:104BB0000A100D9100680069D0F804B00BA8FEF748
:104BC00041FB384C384D2068407C55F82000C168C6
:104BD0008A6A082190478146182801D34FF020099E
:104BE0002068407C55F820000069079003C80C90AD
:104BF0002E48814201D0012000E0002010900020CA
:104C000000F0E5FF002849D10026DDE91207B24691
:104C10000FAB069C4546761C0193FFF708FE014644
:104C200004FB0AF001EB8002234629463846CDF802
:104C300000B001F0C7FA050030D01098D0B1DDE91E
:104C400006134A46284601F0C2F898B9DDE9067015
:104C50002C46D0F810C0BCF1000F05D02946042323
:104C60003A460846E04705E00C992068884701C4A9
:104C70007F1EF9D10020CDE90305059001200090A9
:104C8000CDE901094146034608F10108069A139847
:104C900002F0AEFC0D98401E0D90B6D115B0BDE8E7
:104CA000F08F0000E8000020000100206B7B00086E
:104CB000F8B515460E460746FEF75AFA009000680A
:104CC0001621C068426A0020904704466846FEF7F5
:104CD000B9FA002C03D02A4631463846A047F8BD21
:104CE000F8B515460E460746FEF742FA00904469AD
:104CF0006846FEF7A7FA3846FFF780FD0346082806
:104D000000DD2CB12A463146384613F021F9F8BDB2
:104D10002A463146384613F0B3FAF8BD10B50028DC
:104D200021D009B30AB3B1F90040B2F900309C4276
:104D300000DA23460380B1F90240B2F902309C4206
:104D400000DA23464380B1F90440B2F904309C42B2
:104D500000DD23468380B1F90610B2F906209142A6
:104D600000DC1146C18010BD11460A680260496826
:104D7000416010BD00280BD003880B44038083885A
:104D800019448180418811444180C1881144C18007
:104D90007047000070B5104D0446D5E90001884207
:104DA0000ED10E49884203D1D0E90F12406C03E0C6
:104DB0000C38D0E9001280682160C4E9012006E0C7
:104DC00090E80E0084E80E000FF084FA2860207A44
:104DD000002800D0012070BD980600205CB700209C
:104DE0000448D0E90010814201D101207047002021
:104DF0007047000098060020054A10B5034911606D
:104E000012F0FEFEBDE8104000F09EB919D0000877
:104E10000C01002070B50025FFF73AFB094CD4E9DE
:104E2000002082420AD0D2E9005610460FF05CFA08
:104E300020603146284608F035FC012500F052FD7F
:104E4000284670BD8C0600202DE9FC41154DDDE99A
:104E500008742D68B5F90860864200DD3046B5F962
:104E60000C60964200DA3246824219DBB5F90A60DC
:104E70008E4200DD3146B5F90E509D4200DA2B46D8
:104E80008B420DDB00E02C46E5682D6825B1042D32
:104E900002D02568002DF6D1CDE9007402F0B8FEED
:104EA000BDE8FC81E8000020B0F90220B1F906302D
:104EB0009A4213DCB1F90220B0F906309A420DDCB7
:104EC000B0F90020B1F904309A4207DCB1F90010C2
:104ED000B0F90400814201DC0120704700207047D6
:104EE0000146024878220068FBF758B9E800002024
:104EF00070B515460E4604000AD0FFF7C9FA2A46D7
:104F00003146204612F032FCBDE8704000F0EABCA9
:104F100070BD0000024978220968FBF73FB9000024
:104F2000E800002010B5FFF7B3FA02F03DFF03F0F0
:104F3000DDF807F063FCBDE8104000F0D3BC0000D2
:104F400070B5094D04462868467CFFF7A1FA022C8B
:104F500003D228684474FFF7E5FF0448046000F0BA
:104F6000C1FC304670BD0000E8000020F8050020BC
:104F70002DE9F041194E050019493068194F407C60
:104F800051F820108C6917F8048003D00FF046FA0E
:104F900060B11FE00521FEF7EDFB06001AD00020EE
:104FA000FFF7F4FD3046FEF7C0FB12E03068052144
:104FB000407CFEF7DFFB60B9AFF24B00FFF7E6FD88
:104FC00030680849407C183151F8200008B1FEF7DC
:104FD00063FB3D554046BDE8F0810000E80000203D
:104FE00000010020A806002010B50446FFF750FA83
:104FF000204602F0FBFEBDE8104000F073BC10B587
:105000000446FFF745FA204608F024FE044600F067
:1050100069FC204610BD10B50446FFF739FA20465A
:1050200002F01CFFBDE8104000F05CBC0149886044
:1050300070470000DC00002010B50446FFF728FA96
:10504000204602F01DFF044600F04CFC204610BD37
:1050500070B50446FFF71CFA04480068C56904B13E
:10506000C46100F03FFC284670BD0000E80000204D
:1050700070B514460D460646FFF70AFA2246294641
:10508000304602F0F1FF044600F02CFC204670BDD3
:1050900070B50546FFF7FCF903480068847E857605
:1050A00000F020FC204670BDE800002070B50C46E2
:1050B0000546FFF7EDF909482246058008480480B7
:1050C00008480068417C084850F82100C1680B6A14
:1050D00029469847BDE8704000F004BC1801002044
:1050E0001A010020E80000200001002070B50546EC
:1050F000FFF7CEF903480068047E057600F0F2FB66
:10510000204670BDE800002070B50446FFF7C0F9E6
:1051100004480068B0F92C50848500F0E3FB284671
:1051200070BD0000E800002070B50446FFF7B0F93C
:1051300004480068B0F92A50448500F0D3FB2846A3
:1051400070BD0000E800002002480068002800D080
:1051500000477047EC06002002498A6802B988605F
:10516000FFF7F2BF8C0600202DE9FC41984615465A
:105170000E460746FFF78CF91C20FDF70AFF0400D6
:1051800028D01A49184808602046FDF7F1FF009022
:105190000760C0E90456A0F80C806846FEF752F894
:1051A00020460FF051FA124DA86840B90120A860BE
:1051B00005F10C010F480860084601F0A9FC2046E3
:1051C000FDF7D6FF0190296849B181602C6001A8E4
:1051D000FEF738F800F086FB2046BDE8FC81002190
:1051E0002C608160F3E700002152000808010020D4
:1051F0009C0800205D4A010810B504000ED0FFF79E
:1052000047F9204611F0A6FF204612F0EDFD20469A
:10521000FDF7DEFEBDE8104000F064BB10BD0000ED
:105220002DE9F04188B00025FFF732F9184C676886
:1052300025E000BFFFF7B0F806466068FDF798FF6D
:1052400001904169891B002915DC6168029604916F
:105250000169039146686660D0F8008001A8FDF7F7
:10526000F1FF02A84146884766B160680125B8424F
:1052700005D1002506E001A8FDF7E4FF02E0606823
:105280000028D7D100F02EFB08B02846BDE8F081F9
:105290009C08002038B50C46050011D0FFF7F8F83F
:1052A0002846FDF765FF00908089204201D0012447
:1052B00000E000246846FDF7C5FF00F013FB00E0A6
:1052C0000124204638BD38B5040017D0FFF7E0F8B8
:1052D0002046FDF74DFF0090FFF75EF8014600986D
:1052E0008269114441616846FDF7ACFF204612F027
:1052F0007BFD20460FF0A8F900F0F4FA38BD38B570
:105300000C4605000BD0FFF7C3F82846FDF730FF29
:10531000009084616846FDF795FF00F0E3FA38BD20
:1053200038B50546002028600648046844B1204688
:10533000FDF71EFF0090006928606846FDF782FFB8
:10534000204638BD9C08002038B504004FF000000E
:105350000D46086011D02046FDF70AFF00908468D2
:1053600044B16846FDF76EFF2046FDF701FF00904F
:10537000006928606846FDF765FF204638BD0000DB
:105380002DE9F84FDFF89C800546274F98F8180064
:105390008B46410738680A9E9946407C924607D45E
:1053A00002F088FB04463868407C02F08FFB06E080
:1053B00002F08CFB04463868407C02F07BFB00273F
:1053C00095B1A0F1010400BFB9EB060000D5404241
:1053D000142806DB5146BBEB0A0000D540421428D6
:1053E00004DA0120BDE8F88F641EEDE70A464B465B
:1053F0005946384600960FF06BF90C4F4B46524613
:1054000047F835005946204600960FF061F907EB42
:10541000C501486012F0A0F801210020C8F81C1056
:10542000E0E700001C010020E8000020DCB60020BE
:105430002DE9F047524D534E0024E86978B9686869
:10544000346000F00501746010F0060F01D000F028
:105450000500B460F46012F07FF80120E86128785C
:10546000C8B100F0F1F8A846286100F0EBF829690E
:10547000286A81420BDBD8F824204046914206DCA2
:10548000836A42699A4202DBC36A9A420DDD4FF099
:10549000FF3001466FE000F0DAF8686100F0D3F801
:1054A0002878401C2870BDE8F087326898F818000A
:1054B000354F8D1A400700283868407C02DB02F027
:1054C000F9FA01E002F002FB401E4543D6E9002054
:1054D000B146801A95FBF0F6D8F81420D9F80810D8
:1054E00098F81800551A400700283868407C02DBFD
:1054F00002F0ECFA01E002F0DDFA401E4543D9E982
:105500000201081A95FBF0F598F8180040070028EA
:105510003868407C18DB02F0CDFA81463868407C60
:1055200002F0D4FAD8F818200146D00704D0A9EB2D
:105530000600A0F1010000E03046920702D5491BA9
:10554000491E18E0294616E002F0C0FA8146386884
:10555000407C02F0AFFAD8F81820D10704D0A9EBAC
:105560000601A1F1010100E03146920702D5401B7E
:10557000401E00E0284612F06FFB88F8004092E7DA
:105580001C010020DCB60020E8000020044910B512
:1055900091E81C001CC0087A002800D0012010BD32
:1055A000D0B6002001480069704700001C010020AF
:1055B00001484069704700001C01002001498861D2
:1055C000704700001C010020074A002806DB002964
:1055D00004DB01231372C2E9000101E00020107214
:1055E000014800F003B800002CB8002010B50446B4
:1055F0000C220749FAF70BFE002808D0044894E86B
:105600000E000EC02046BDE81040FFF7F5BB10BDF0
:10561000D0B6002030B40A4C2268831A01D5C3F1F9
:10562000000362688A1A00D552421A44022A04DD35
:10563000C4E9000130BCFFF7C7BF30BC70470000B1
:10564000E406002070477047D02009F049B9902047
:1056500009F046B910B5FEF71BFF0449024808607F
:10566000BDE8104000F03EB9B8D30108EC000020BE
:105670002DE9F041084E0446056830680168284667
:105680008847074630684168284688472844206094
:105690003846BDE8F0810000EC0000202DE9F04123
:1056A0000C4606460025064F05E03868416830463E
:1056B000884706440544641EF7D22846BDE8F081B9
:1056C000EC0000202DE9F0411E46069C1746884656
:1056D00005463A46A8687F1C3346D0F804C04146C8
:1056E0002846E047641EF4D1BDE8F08170B5B0F9FA
:1056F0000040091BB0F904408C422CDD00F1140479
:10570000B0F902500069521B02FB0040CA1800EBBE
:10571000E104521ED010B0EBE10501F007034FF099
:10572000FF0102F0070221FA03F0C2F1070201FAB9
:1057300002F1CEB221780FD001436D1E04F8011B97
:10574000002D05DDFF2229462046FAF747FD2C44AF
:1057500020783043207070BD30400143217070BD0F
:1057600010B5B0F90030B0F90240C91A00F11403C5
:105770000069121B02FB003000EBE10001F007039F
:1057800002788021D9400A43027010BDB0F906109A
:10579000026951431430FAF728BD00002DE9F8439F
:1057A000804602F10F000011470003FB07F01C4682
:1057B000154689461430FDF7ECFB060018D0FEF7BD
:1057C00067FE3046FDF7D4FC0090A0F80080A0F8FA
:1057D00002908580C4800749816001218181076131
:1057E0006846FDF72FFD00F07DF83046BDE8F883F0
:1057F0000020FBE79818020870B5B0F90660B0F910
:1058000004400B6800F11405964220DD0069A342B4
:1058100002FB005000EBE30219DAA4F101044FEAA5
:10582000E400A0EBE30512F8010B03F0070400FA13
:1058300004F0C4B208E055B112F8014B03F10803BB
:10584000A5F1010523F00703002CF4D008E00020A7
:1058500070BD00BF4FEA44604FEA106403F10103DA
:105860002006F7D5FF2C0AD0184605E04FEA44641D
:105870004FEA146400F101006606F7D400E0D81D79
:10588000C443640706D007E012F8014BFF2C0FD188
:1058900000F108006D1EF7D5A0EB030000F1010038
:1058A0000B6070BD4FEA44624FEA126400F10100E0
:1058B0002206F7D4F0E738B50546FEF7E9FD28469D
:1058C000FDF756FC00908189491E0CB28481684620
:1058D000FDF7B8FC14B92846FDF77AFB00F002F892
:1058E00038BD00000348C168491EC16001D100F005
:1058F00057B97047C80600202DE9F04116460F46FB
:1059000005460024FEF7C4FD32463946284601F01C
:105910003DF9054408B1641CF6E7FFF7E3FF2046B4
:10592000BDE8F081F0B587B01546044601A80C9A91
:105930001F000E4600900BD0122101AB00207260B8
:10594000B84728B9684601F0A3F81D49884202D03B
:10595000012007B0F0BD684601F091F82076684656
:1059600001F08DF86076684601F089F884F820002F
:10597000684601F084F884F82100684601F07FF859
:1059800084F822000120A076E076684601F077F8DE
:105990003080684601F073F87080B760E66128686F
:1059A000206068686060A868A060E868E0602869B6
:1059B0002061686960612046FFF74AFB0020C8E764
:1059C000475549587FB50D4619490968C969CC69D9
:1059D0002188814202D86188814202D2002004B02D
:1059E00070BD01466A46204600F02EF80098002857
:1059F000F5D003A80290D4E9012403AB65B10421DA
:105A00000098A04760B902A801F039F8044602A83E
:105A100001F035F8286009E002210098A04708B19C
:105A20000120DCE702A801F02AF804462046D6E768
:105A3000E800002010F8202F8A704278CA70807821
:105A400008710120088070477CB51446CDF804D059
:105A500002886B46891A4A0002EB8105D0E90126CB
:105A6000123504212846B04718B1002020600120DB
:105A70007CBD01A801F00CF8206000207CBDFEB5C3
:105A80001646CDF808D002881D46891A4A0002EB56
:105A90008104D0E9012712346B4606212046B8471D
:105AA00008B10120FEBD02A800F0F2FF306002A89C
:105AB00000F0E5FF28800020FEBD08B5C06902881F
:105AC0008A4202D842888A4201D2002008BD6A4632
:105AD000FFF7BAFF00980028F8D0012008BD0000A9
